:020000040800F2
:10000000381300209D0100087F2C00086F2800088D
:100010007D2C0008610E0008C943000800000000A4
:10002000000000000000000000000000353700085C
:10003000630E0008000000005D3300083737000839
:10004000B7010008B7010008B7010008B7010008B0
:10005000B7010008B7010008B7010008B7010008A0
:10006000B7010008B7010008B7010008B701000890
:10007000B7010008B7010008B7010008B701000880
:10008000B7010008B7010008B7010008B701000870
:10009000B7010008B7010008B7010008790E000891
:1000A000B7010008D9370008B7010008B7010008F8
:1000B00021380008753D0008FD3E0008B701000822
:1000C000B7010008B7010008B7010008B701000830
:1000D000B7010008B7010008BD430008B7010008D8
:1000E000650E0008B7010008B70100086D3F000861
:1000F000B7010008B7010008B7010008B701000800
:10010000B7010008B7010008B7010008B7010008EF
:10011000B7010008B7010008B7010008B7010008DF
:10012000B7010008B7010008B7010008B7010008CF
:10013000B7010008B7010008B7010008B7010008BF
:10014000B7010008B7010008B7010008B7010008AF
:10015000B7010008B7010008B7010008B70100089F
:10016000B7010008B7010008B7010008B70100088F
:10017000B7010008B7010008B7010008000000003F
:10018000B7010008B7010008DFF80CD000F056FBFB
:10019000004800470D5900083813002006488047E2
:1001A00006480047FEE7FEE7FEE7FEE7FEE7FEE75C
:1001B000FEE7FEE7FEE7FEE7BD370008890100081D
:1001C0002DE9F05F0546002092469B46884606468C
:1001D000814640241BE0284641464746224600F01F
:1001E0005EFA53465A46C01A914110D3114618463A
:1001F000224600F045FA2D1A67EB01084F462246C9
:100200000120002100F03CFA17EB00094E41201EAE
:10021000A4F10104DFDC484631462A464346BDE8E6
:10022000F09FD2B201E000F8012B491EFBD27047CB
:100230000022F6E710B513460A4604461946FFF7B2
:10024000F0FF204610BD421C10F8011B0029FBD115
:10025000801A70472DE9FE4F804681EA0300C00FE7
:100260000C46009021F0004123F00045B8EB02005D
:10027000A94105D24046214690461C460B460246FF
:1002800023F00040104347D0270DC7F30A00C3F303
:100290000A510290401A019040286BDAC3F3130010
:1002A00040F4801B0098924620B10023D2EB030A51
:1002B00063EB0B0B01985946C0F14002504600F029
:1002C000DFF906460D4650465946019A00F0F7F907
:1002D00010EB08006141002487EA115284EAE773B9
:1002E0001A4340D0009A62B3019A012A4FEA07529A
:1002F00015DC001B61EB02014FF0004202EA0752DD
:10030000CDE90042001C41F5801132462B4600F039
:100310002EFA03B0BDE8F08F40462146F9E7001BF6
:1003200061EB0201001C41F5801300185B412018AD
:10033000A2F5001747EB030140EAD570B6196D41ED
:1003400011E06D084FEA360645EAC0754FEA0752DC
:10035000001B61EB0201001C41F5801149084FEAC6
:1003600030000019514132462B4603B0BDE8F04F32
:1003700000F0EEB90098012240000023D0EB020209
:1003800063EBE073009821464FEAE074B8EB00009D
:1003900061EB0401E9E783F000435BE781F0004192
:1003A00058E72DE9FE4F81EA030404F0004421F0F0
:1003B000004100944FF0000B23F0004350EA010489
:1003C0005ED052EA03045BD0C3F30A54C1F30A556A
:1003D0002C44A4F2F3340194A0FB0254C1F31301A2
:1003E00041F48011C3F3130343F4801301FB02446F
:1003F00000FB034E840A970A44EA815447EA835774
:10040000A4FB076802958D0A05FB07854FEA932C2C
:1004100004FB0C542705029D4FEA065847EA16379D
:10042000B5EB08056EEB070C870E920E47EA8117B5
:1004300042EA8312A7FB0201B6EB0B0164EB000456
:100440002B0D43EA0C335E1844EB1C50DA46514640
:10045000E7FB0201C5F313044FEA0B3343EA1453DD
:100460004FEA0432019C43EA0603A4F10C0402940F
:10047000009CCDE900B400F07AF903B0BDE8F08F3C
:1004800000200146F9E72DE9F04D81EA030404F06C
:10049000004B21F0004514464FF0000A23F00041C4
:1004A00050EA050220D054EA01021DD0C5F30A57D4
:1004B0000246C5F31303C1F31300C1F30A5640F417
:1004C000801543F48013A7EB0608101BD64608F2EC
:1004D000FD3873EB050002D308F1010801E0921822
:1004E0005B41B8F1000F03DA00200146BDE8F08D52
:1004F00000204FF48011064684460EE0171B73EB74
:10050000050705D3121B63EB050306434CEA010CF8
:1005100049084FEA300092185B4150EA0107EDD1DB
:1005200052EA030012D082EA040083EA050108437C
:1005300005D0101BAB4106D20122002306E00022A9
:100540004FF0004302E06FF0010253101AEB060077
:100550004CEB085110EB0A0041EB0B01BDE8F04DEC
:1005600000F0F6B80EB5C10F80EAE0700844CA0783
:10057000002140F233438DE80E000A460B4600F09E
:10058000F6F803B000BD70B5C1F30A5201F00045A2
:100590000024C1F3130140F2FF3341F480119A4269
:1005A00001DA002070BD40F233439A42A2F2334296
:1005B00003DC524200F073F800E090402C43F1D08D
:1005C000404270BD00F0004230F000400AD0C10D42
:1005D00001F56071C0F3160042EA0151C2084007FC
:1005E00011437047002001467047000030B5041EDB
:1005F00071F1000404DB4FF00044404264EB010160
:10060000141E73F1000405DB1C464FF000435242F8
:1006100063EB0403994208BF904230BD01F00043F0
:1006200030B421F0004150EA010206D00A0DA2F5D3
:100630006072C1F31301002A02DC30BC0020704755
:10064000440F44EAC104C100E01830BC00EBC250C2
:1006500000F047B830B50B460146002020220124A7
:1006600009E021FA02F59D4205D303FA02F5491B80
:1006700004FA02F52844151EA2F10102F1DC30BD96
:10068000202A04DB203A00FA02F100207047914052
:10069000C2F1200320FA03F3194390407047202A47
:1006A00004DB203A21FA02F00021704721FA02F31C
:1006B000D040C2F120029140084319467047202AD9
:1006C00006DBCB17203A41FA02F043EAE07306E07A
:1006D00041FA02F3D040C2F120029140084319468A
:1006E00070470029A8BF7047401C490008BF20F090
:1006F0000100704710B4B0FA80FC00FA0CF050EA28
:10070000010404BF10BC704749B1CCF1200421FAA8
:1007100004F411FA0CF118BF012121430843A3EBA3
:100720000C01CB1D4FEA00614FEA102042BF0020B0
:1007300010BC704700EBC35010440029A4BF10BC8C
:100740007047401C490008BF20F0010010BC7047F2
:1007500010B5141E73F1000408DA401C41F10001C9
:1007600092185B411A4301D120F0010010BD2DE920
:10077000F04D92469B4611B1B1FA81F202E0B0FA17
:1007800080F220329046FFF77BFF04460F4640EA96
:100790000A0041EA0B0153465A46084313D011465A
:1007A00053EA010019D0C8F140025046FFF777FF25
:1007B00005460E46504659464246FFF761FF08433C
:1007C00005D0012004E020463946BDE8F08D002028
:1007D000054346EAE0762C4337430A986305E40A6A
:1007E000A0EB08000022FD0A44EA47540A3002D573
:1007F00000200146E9E7010510196941DDE90845D6
:1008000000196941BDE8F04DA2E7C1F30A52C1F3F6
:10081000130140F2FF3341F480119A4202DA0020C2
:100820000146704740F233439A42A2F2334202DC5F
:100830005242FFF734BFFFF723BF0000064C074DBD
:1008400006E0E06840F0010394E8070098471034A0
:10085000AC42F6D3FFF79CFC18640008386400082B
:1008600070B58C1810F8015B15F0070301D110F872
:10087000013B2A1106D110F8012B03E010F8016B9F
:1008800001F8016B5B1EF9D12B0705D40023521E22
:100890000DD401F8013BFAE710F8013BCB1A921C8A
:1008A00003E013F8015B01F8015B521EF9D5A14288
:1008B000D8D3002070BD00002DE9F04FCA4841F2A6
:1008C00070712DED0A8B85B064220068DFF81CB3CF
:1008D00091FBF0F0C649CBF80000D84609684143C7
:1008E00091FBF2F6871BC348C8E90167D0F8009076
:1008F00009FB02F0FFF736FE9FEDBF9B53EC192B6F
:10090000FFF7C1FDFFF73FFE0446C8F81C00BC48D6
:100910006421006803904843FFF724FE9FEDB9ABC4
:1009200053EC1A2BFFF7AFFDFFF72DFE0546C8F875
:100930002800D8F840008246FFF744FE9FEDB3CB75
:1009400053EC1C2BFFF727FDFFF71DFE08EE100AE6
:10095000C8F83400AF4800680290FFF703FE9FED2F
:10096000AE1B53EC112BFFF71CFD41EC1B0B50464B
:10097000FFF728FE53EC1C2BFFF70DFD53EC1B2B50
:10098000FFF709FDFFF7FFFDC8F8300098ED11BA39
:1009900008EE900A1BEE100AFFF714FE9FEDA01B55
:1009A00053EC112BFFF756FCFFF7EDFDB1EE000AFB
:1009B000C8F838003BEE000A0190DFF87CA2DFF8AF
:1009C00080E2BDEEC00A10EE100AC8F83C000090AC
:1009D0009548DFF868820660944807609448DEF81E
:1009E0000020D8F80010D0F800C092480368DAF868
:1009F0000000101ABCF1010F3DD0BCF1000F76D100
:100A0000DFF840C2CBF80C305C469CED000ADFF802
:100A100038C2B1EE409A8BED129ADCF800C0CCF1EE
:100A2000000CE146CBF818C0D4F814C0F34600FB24
:100A30000CF04FF0640C90FBFCF00844C8F8000088
:100A4000CAF800200398181A00FB0CF0FFF78AFD83
:100A500053EC1A2BFFF717FDFFF795FDE062029BA1
:100A60000F217A4A012B7CDDDDF800C0E14579DCFD
:100A7000B8EEE80AABE0764D2F685D46C5E903376E
:100A8000744B1B68CBF814305843642390FBF3F08D
:100A90000844C8F80000A0EB09005843CAF8002039
:100AA000FFF760FD53EC192BFFF7EDFCFFF76BFD33
:100AB0006949286209689FED698BDFF8A8810129DF
:100AC0001AD0A04201DD686A01E0201A6862A042E3
:100AD00000DD6C62686AFFF745FD53EC182BFFF7E9
:100AE00060FCFFF750FD90FBF6F1C8F8001005B070
:100AF000BDEC0A8BBDE8F08F5B4F5C4A3968126829
:100B00008A46914219DCA04201DD686A01E0201AA0
:100B10006862A04200DD6C62686AFFF723FD53EC57
:100B2000182BFFF73EFCFFF72EFD90FBF6F10AF1C4
:100B30000100C8F800103860D9E700EE109A4C4860
:100B4000B8EEC00AD0ED000A20EE200ADFED490A17
:100B500020EE200A10EE100AFFF734FD53EC192B9B
:100B600001E02DE01CE0FFF78EFCFFF70CFD0446D2
:100B70006862012038603046FFF7F4FC41EC190B45
:100B80002046FFF7EFFC53EC182BFFF70AFC53EC61
:100B9000192BFFF778FCFFF7F6FCC8F80000A6E772
:100BA000A8421ADC281AA0621060F019401CCBF889
:100BB00000009CE7A84213DC281AA062106096E7A8
:100BC000F8D1DDF804C0E145EADCB8EEC80AB4EEBD
:100BD000C09AF1EE10FAEDD2E2E70846A162E3E72F
:100BE0000846A162EAE70000F80000204402002065
:100BF000FC000020140100200000000000E09540EF
:100C0000F00000200000000000804B4033333333FD
:100C10003333D33F080100209A9999999999B93FA4
:100C20000000000000000C403000002034000020D4
:100C300038000020440000207800002068000020D8
:100C40007C0000205C0000204C00002028000020D8
:100C5000400000204800002010010020000000009B
:100C600000C0684024000020940000200C010020F7
:100C7000180100200000C8427FB500241D49054628
:100C8000009401940294039419480C6108600C7656
:100C900081F820400126CE611748CC608862084662
:100CA00000F0B3F908B100F005F92D1F082D09D2A5
:100CB000DFE805F0040613081517191B042000E0EF
:100CC00005200090CDE9016469460A4800F0F4F877
:100CD000002801D000F0EEF87FBD0620F1E70820E3
:100CE000EFE70920EDE70A20EBE70B20E9E700003A
:100CF000002201407C0500200100000F464910B58C
:100D00004A6822F440324A604A6843681A434A609B
:100D100001684A6822F480724A6001684A6803697F
:100D200042EA03224A6001684A6822F040724A603F
:100D300001684A6883681A434A6001688A6822F435
:100D400000628A6001688A68C3681A438A60816A9F
:100D50006FF07062D14201688A6822F070628A6026
:100D600001688A680CD0836A1A438A6001688A68BD
:100D700022F040528A6001688A68C36A1A4301E01F
:100D800022F040528A6001688A6822F002028A607A
:100D900001688A68037E42EA43028A6090F8201064
:100DA000002901684A680FD042F400624A60016875
:100DB0004A6822F460424A6001684A68174C436AF4
:100DC00004EB43331A4301E022F400624A600168F5
:100DD000CA6A22F47002CA620168CA6A838B104C24
:100DE00004EB03531A43CA6201688A6822F4007252
:100DF0008A6001688A6890F8303042EA43228A604B
:100E000001688A6822F480628A6001688A684069A1
:100E100042EA8020886010BD0023014000E0FFFF0F
:100E20000000F0FF10B50024FFF726FF0B4800F08C
:100E300021FA0A490220C861084600F0E6F807488E
:100E400000F0A2F94FF4FA71044800F04BF918B918
:100E5000024800F0D7F80446204610BD7C0500206B
:100E6000FEE7704703480168491C01604FF4806049
:100E700000F0AABA180000200B4910B50020486005
:100E80000A48007818B10021022003F0B5FF084895
:100E9000007818B10021022005F036F8BDE81040B6
:100EA0004FF4007000F090BAF80200208500002096
:100EB000860000207047000078B50024009490F868
:100EC0003C20012A19D0012280F83C200A6807231F
:100ED0000568092A13D9EE680A3A02EB42029340E8
:100EE0009E43EE600B788A680A3B03EB43039A400B
:100EF0000368DD682A43DA6010E0022078BD2E69BD
:100F000002EB420293409E432E610B788A6803EB0A
:100F100043039A4003681D692A431A614A681F23E4
:100F2000072A13D205686E6B521E02EB82029340B1
:100F30009E436E630B790A885B1E92B203EB8303B8
:100F40009A4003685D6B2A435A6327E005680D2ABF
:100F500012D22E6BD21F02EB820293409E432E636D
:100F60000B790A88DB1F92B203EB83039A40036874
:100F70001D6B2A431A6311E0EE6A0D3A02EB8202FE
:100F800093409E43EE620B790A880D3B92B203EBCD
:100F900083039A400368DD6A2A43DA62164B0568C8
:100FA000144A9D4206D10D68122D03D1556845F4AF
:100FB0008005556005689D4218D10B68102B01D043
:100FC000112B13D1536843F40003536009681029AF
:100FD0000CD10A490A4A0968B1FBF2F101EB81011F
:100FE000490000E0491E00910029FBD180F83C40F7
:100FF000002078BD00230140002001403403002080
:1010000040420F000068C06C704770B504004FF09C
:10101000000503D0206C002610B107E0012070BD50
:10102000204600F01DF8666484F83C60206CC00621
:1010300010D4206C20F4885040F002002064204638
:10104000FFF75CFE6664206C20F0020040F00100B7
:10105000206400E0012584F83C60284670BD000053
:1010600030B587B0044614216846FFF7E1F8194906
:10107000206888422BD118480025016841F480611E
:101080000160006800F4806005901348143801681E
:1010900041F020010160016801F020010591016823
:1010A00041F0040101600068032400F00400059091
:1010B0004FF4B9608DE831006946084800F090F9B6
:1010C000009469460648CDE9014500F089F907B06A
:1010D00030BD0000002201404438024000140240AC
:1010E000000802402DE9F041044600680D46816881
:1010F0004FF0000749050BD58068C00508D5206C66
:1011000040F02000206484F83C700120BDE8F081AC
:1011100000F054FA06460FE0681C0DD025B100F02F
:101120004DFA801BA84207D9206C40F004002064CF
:1011300084F83C700320E9E7206800688007EBD55D
:1011400021686FF012000860206C40F40070206489
:101150002068816811F0405F13D1217E89B9C16A8E
:1011600011F4700F02D0806840050AD4206C20F47E
:1011700080702064206CC00403D4206C40F0010017
:1011800020640020C2E7000018B50021009190F80B
:101190003C20012A07D0012280F83C200268936895
:1011A000DB0702D011E0022018BD936843F0010371
:1011B00093602A4A2A4B1268B2FBF3F202EB420216
:1011C00000E0521E0092002AFBD102689368DB0700
:1011D00041D0036C40F20164A34343F48073036481
:1011E00053685B0505D5036C23F4005343F4805327
:1011F0000364036CDB0404D5436C23F006034364EF
:1012000000E0416480F83C1016496FF0220313603F
:1012100049680068CA06144906D088421BD1816813
:1012200011F0405F13D016E08842F8D00F4A904288
:1012300003D1D1F80423D206F1D00D4A90420AD14D
:10124000D1F8041301F01F011029E8D303E08168ED
:1012500041F080418160002018BD0000340300206F
:1012600040420F00002301400020014000210140C6
:101270000022014090F83C1001290CD0012180F897
:101280003C1001688A6822F001028A60016889685E
:10129000C90702D007E002207047016C21F4885191
:1012A00041F001010164002180F83C1008467047BC
:1012B00070B54379012B1AD00126467102230371C0
:1012C00005682C6840F6FE7393409C43D1E90031D9
:1012D0000B43934023432B6001680B68C024944068
:1012E000A3430B60067100214171084670BD0220C6
:1012F00070BD70B5040003D02079002510B105E061
:10130000012070BD6571204600F008F802202071B0
:10131000256101202071002070BD000010B586B04D
:10132000044614216846FEF783FF1149206888426D
:101330001CD110480021026842F00052026000688F
:1013400000F0005005900B481038026842F001028E
:101350000260006800F0010005901020009003205A
:10136000CDE901016946044800F03AF806B010BD25
:1013700000740040403802400000024090F83510F0
:10138000022903D08021416501207047052180F8A2
:1013900035100068016821F00101016000207047EC
:1013A00070B5044600F00AF90546601C02D00448F6
:1013B0000078044400F002F9401BA042FAD370BD4B
:1013C0002803002070470000044910B50A68024253
:1013D00002D00860FFF7F6FF10BD0000143C01408A
:1013E0002DE9F84F00224FF0010803254FF00F0EB2
:1013F0000B6808FA02F42340A3426ED14E68012E16
:1014000005D0022E03D0112E01D0122E12D18668E3
:101410004FEA420C05FA0CF7BE43CF6807FA0CF707
:10142000374387604668A6430C79C4F300149440A0
:1014300034434460C668570005FA07FC8C6826EA06
:101440000C06BC403443C4604C68022C01D0122C02
:1014500013D1D40800EB8404A346D4F82090540799
:101460004FEAD46A0EFA0AF629EA06090E6906FA64
:101470000AF646EA0906CBF8206006680C7926EAE7
:101480000C0604F00304BC40344304604C68E400E0
:1014900065D5364C266846F480462660246822F0DE
:1014A000030604F480440094314C3444A446D4F838
:1014B00008489607370F0EFA07F6B4432D4EB04290
:1014C00001D1002624E02C4EB04201D101261FE0BC
:1014D0002A4EB04202D102261AE040E0284EB04225
:1014E00001D1032614E0274EB04201D104260FE0BB
:1014F000254EB04201D105260AE0244EB04201D16A
:10150000062605E0224EB04201D1072600E008265B
:10151000BE402643CCF808681E4E34684F689C4392
:10152000FF0300D51C4334601A4C241D26684F6805
:101530009E43BF0300D51E432660164E083634680E
:101540004F689C43FF0200D51C433460114E0C369B
:1015500034684F689C43BF0200D51C433460521C62
:10156000102AFFF445AFBDE8F88F00004438024070
:101570000030014000000240000402400008024028
:10158000000C02400010024000140240001802400B
:10159000001C0240003C01400069084000D00120CE
:1015A0007047426931EA020200D109048161704743
:1015B0000AB1816170470904FBE7000001488068B7
:1015C000704700002803002070B5040025D094F86F
:1015D0003D00002520B984F83C50204600F0B8F8C2
:1015E000242084F83D002068016821F00101016099
:1015F0002068016841F4004101602068016821F41D
:101600000041016000F00EFA4D4A6168914201D834
:101610004C4900E04C49884201D2012070BD4B4941
:101620002368B0FBF1F15E6826F03F060E435E6072
:101630006368934206D94FF4967359434FF47A7313
:10164000B1FBF3F12368491C1E6A26F03F063143C3
:1016500019626168914210D84900401EB0FBF1F256
:10166000521CC2F30B02042A01D2042022E0B0FB78
:10167000F1F0401CC0F30B001CE0A268F2B301EBD8
:10168000C10303EB0116431EB3FBF6F35B1C43F4EB
:1016900080431B0549D092B301EBC10202EB01115B
:1016A000401EB0FBF1F0401CC0F30B0040F4804042
:1016B00040F400402168CA694CF6FF739A43104316
:1016C000C861D4E9071001432068026822F0C00213
:1016D00011430160D4E9030101432068826848F2A4
:1016E000FF339A4311438160D4E90501084321681F
:1016F000CA6822F0FF021043C86001E00EE016E065
:101700002068016841F0010101602564202084F80F
:101710003D00256384F83E50002070BD01EB41067A
:10172000431EB3FBF6F35B1CB3E70120C2E701EBFA
:101730004101401EB0FBF1F0401CC0F30B00B7E7C5
:10174000A086010080841E0000093D0040420F0079
:1017500010B586B0044614216846FEF769FD1449A9
:101760002068884221D11348016841F002010160DC
:101770000068694600F0020005904FF41070009078
:101780001220019001200290032003900420049075
:101790000948FFF725FE07481030016841F40011A1
:1017A0000160006800F40010059006B010BD000054
:1017B0000054004030380240000402400248816872
:1017C0000278114481607047280300200B4810B54F
:1017D000016841F400710160016841F480610160B9
:1017E000016841F480710160032000F06FF800206F
:1017F00000F006F800F024F8002010BD003C024084
:1018000070B50D4D04464FF47A712878B1FBF0F0B5
:101810000A490968B1FBF0F000F09AFB48B9102CB6
:1018200007D200222146501E00F030F800206C60E4
:1018300070BD012070BD000028030020340300208B
:101840000A4808B5016841F480410160006800F46D
:10185000804000900548001F016841F08051016000
:10186000006800F08050009008BD0000443802403D
:10187000002809DB00F01F0201219140400980008F
:1018800000F1E020C0F8001170470000F0B40E4BEA
:101890001B680C46C3F30223C3F10705042D00D9CE
:1018A0000425191D072901D2002300E0DB1E0126B3
:1018B00006FA05F1491E214099409E40761E1640C9
:1018C0003143F0BC02F096BD0CED00E0064900F09B
:1018D000070208684FF6FF03184040EA0220034A57
:1018E00010430860704700000CED00E00000FA05AE
:1018F0002DE9F0470E46050065D0DFF81481D8F8D1
:101900000000F7B200F00F00B04207D288F8007074
:10191000D8F8000000F00F00B04254D128683D4CC8
:10192000810712D5400703D5206840F4E0502060BD
:101930002878000703D5206840F4604020602068C4
:10194000A96820F0F000084320602878C0072DD057
:10195000304968680839012812D0022813D00328BA
:1019600011D00968890700292DDA216821F00301C7
:1019700001432160FFF722FE814641F2883A0EE0E2
:1019800009688903EFE709688901ECE7FFF716FEAC
:10199000A0EB0901514502D90320BDE8F08720687A
:1019A000696800F00C00B0EB810FEFD1D8F800109F
:1019B000404601F00F01B14207D90770006800F0FE
:1019C0000F00B04201D00120E7E72878400705D595
:1019D0002068E96820F4E050084320602878000778
:1019E00006D52068296920F4604040EAC1002060E3
:1019F00000F038F82168084AC1F30311515CC8406F
:101A00000649086006480068FFF7FAFE0020C4E7B0
:101A1000003C0240083802404063000834030020C4
:101A20002C0300200448054900680968044AC1F3F2
:101A30008221515CC84070473403002008380240BE
:101A4000506300080448054900680968044AC1F366
:101A50004231515CC84070473403002008380240CE
:101A600050630008154810B5006810F00C021448C7
:101A700013D04110042A0FD0082A0ED10F4C241F76
:101A80002268236802F03F025B0207D52068C0F39A
:101A90008810A0FB010106E0084610BD2168C1F3D3
:101AA0008811A1FB00010023FEF78AFB2168C1F326
:101AB0000141491C4900B0FBF1F010BD083802405B
:101AC0000024F4002DE9F84F04006ED02078DFF8F0
:101AD0003C93C007A9F104054AD009F1040001684C
:101AE000C1F38101012908D00068C0F381000228F8
:101AF0000AD1D9F80000400206D52868800337D5FE
:101B000060680028E1D033E06068B0F5803F10D015
:101B1000B0F5A02F286810D020F480302860286805
:101B200020F4802028606068A8B1FFF747FD0646D2
:101B30000DE0286840F48030F4E740F4802028600D
:101B4000F7E700BFFFF73AFD801B642873D82868C9
:101B50008003F7D50CE0FFF731FD064605E000BF36
:101B6000FFF72CFD801B6428F0D828688003F7D489
:101B70002078DFF89C8280074FF0000A3ED5A3480A
:101B8000001D016811F00C0F08D00068C0F381003F
:101B900002280BD1D9F80000400207D4286880073A
:101BA00016D5E068012800D112E02BE1E068B8B159
:101BB0000120C8F80000FFF701FD064605E000BF60
:101BC000FFF7FCFC801B0228C0D828688007F7D5E7
:101BD0002868216920F0F80040EAC10028600DE083
:101BE000C8F800A0FFF7EAFC064604E0FFF7E6FCB1
:101BF000801B02281FD828688007F7D420780007A8
:101C000022D5824E83486169703671B1012101602D
:101C1000FFF7D4FC074604E0FFF7D0FCC01B022806
:101C200009D830688007F7D50EE0C0F800A0FFF7AC
:101C3000C5FC074605E082E0FFF7C0FCC01B022898
:101C40007DD830688007F7D42078400768D5DFF862
:101C5000BCB100270BF13C0BDBF80000C0000BD43B
:101C6000DBF8001041F08051CBF80010DBF80000E9
:101C7000012700F080500090674E3068C00510D4F6
:101C8000306840F480703060FFF798FC009005E009
:101C9000FFF794FC0099401A022850D83068C0051C
:101CA000F6D55A4EA0686C3601280FD0052830684A
:101CB00010D020F001003060306820F00400306067
:101CC000A068B8B1FFF77AFC00900FE0306840F0F0
:101CD0000100F4E740F004003060F7E7FFF76EFC26
:101CE0000099411A41F28830814266D830688007F5
:101CF000F4D50EE0FFF762FC009007E0FFF75EFC12
:101D00000099411A41F28830814256D830688007E4
:101D1000F4D42FB1DBF8001021F08051CBF8001083
:101D2000A069C8B33949091D0968C1F381010229B5
:101D30004AD00228504607D0C8F8600000E03CE0D6
:101D4000FFF73CFC04463BE04746C8F86000FFF75D
:101D500035FC064605E000BFFFF730FC801B02287B
:101D60002BD828688001F7D4D4E907010843A16A79
:101D70002A4A490802EB0141626A41EA821108439A
:101D800094F82C1040EA0161C9F80010012038666F
:101D9000FFF714FC044606E036E000BFFFF70EFC38
:101DA000001B022809D828688001F7D52CE000BF65
:101DB000FFF704FC001B022802D90320BDE8F88FBE
:101DC00028688001F4D41FE00128F7D0D9F800007A
:101DD000E26900F48001914214D1226A00F03F01CF
:101DE00091420FD147F6C071626A0140914209D118
:101DF000A26A00F44031914204D1E16A00F07060BF
:101E0000884201D00120D9E70020D7E704380240FA
:101E100000004742800E4742007000400000FFFF74
:101E200070B5040005D00025A56294F8510010B1EA
:101E300006E0012070BD84F85050204600F030F8D4
:101E4000022084F851002068016821F040010160FF
:101E5000D4E901010843D4E903121143084361693D
:101E60000843218B01F400710843E1690843216AAA
:101E70000843A16A084321680860A069042101EAB7
:101E80001040616A0843216848602068C16921F4F4
:101E90000061C1616565012084F85100002070BDBA
:101EA00070B586B0044614216846FEF7C1F9234E8A
:101EB000226800212248022303240525B2421AD1B8
:101EC0001F4A1432166846F480561660126802F4EF
:101ED00080520592026842F001020260006802AA84
:101EE00000F00100059082E83200E020CDE9000317
:101EF000694614481DE0144EB2421CD1104A1032FB
:101F0000166846F480461660126802F48042059214
:101F1000026842F002020260006802AA00F00200B9
:101F2000059082E832004FF47040CDE90003694625
:101F30000648FFF755FA06B070BD000000300140BA
:101F400030380240000002400038004000040240E7
:101F500010B5401EB0F1807F01D3012010BD4FF0BD
:101F6000E02460610F21601702F044FA0020A061B4
:101F700007202061002010BD7047704770B590F8B1
:101F80003C20012A32D0012480F83C40022280F813
:101F90003D2003685A689D6822F070060A68324343
:101FA0005A60134B02689A4214D0B2F1804F11D09C
:101FB000104B9A420ED0104B9A420BD00F4B9A42C4
:101FC00008D00F4B9A4205D00E4B9A4202D00E4BCE
:101FD0009A4204D1496825F080031943916080F842
:101FE0003D40002180F83C10084670BD022070BDC5
:101FF000000001400004004000080040000C0040C8
:1020000000040140004001400018004010B50400E9
:1020100003D094F83D0010B107E0012010BD00206E
:1020200084F83C00204600F00DF8022084F83D00C2
:10203000211D206801F0D0FF012084F83D00002020
:1020400010BD000008B50168304881420FD130480A
:10205000016841F0010101600068002200F0010008
:10206000009001211920FFF711FC192048E02848B1
:10207000001FB1F1804F11D0264A91421DD1016855
:1020800041F0020101600068002200F002000090AF
:1020900001211D20FFF7FAFB1D2031E0016841F00E
:1020A000010101600068002200F0010000900121A0
:1020B0001C20FFF7EBFB1C2022E0174A91420ED1B7
:1020C000016841F0040101600068002200F0040092
:1020D000009001211E20FFF7D9FB1E2010E00F4ABF
:1020E000914211D1016841F0400101600068002275
:1020F00000F04000009001212B20FFF7C7FB2B20B0
:10210000BDE80840FFF7B4BB08BD00000000014077
:10211000443802400004004000080040001800401D
:102120000168CA6842F00102CA600068816801F073
:102130000701062903D0016841F001010160002078
:10214000704770B5044690F83C00012817D001256F
:1021500084F83C50022084F83D002068826822F018
:10216000770222F47F4282600868502830D00DDC6C
:1021700020284DD005DC98B310283BD148E0022040
:1021800070BD302844D0402834D139E0602828D0B0
:10219000702806D0B0F5805F2CD0B0F5005F29D153
:1021A0000AE0CB68D1E90121206801F079FF2068BD
:1021B000816841F0770109E0CB68D1E9012120680D
:1021C00001F06EFF2068816841F48041816011E078
:1021D000CA684968206801F075FF5021206807E04F
:1021E00016E0CA684968206801F07DFF6021206818
:1021F00001F060FF84F83D50002084F83C0070BD81
:10220000CA684968206801F05DFF40212068EFE757
:10221000226801461046EBE7704770B50446006837
:1022200001694FF00005C943890715D4C168C94346
:10223000890711D4E91E0161012020772068806997
:102240008007204602D0FFF7E7FF04E000F098F88F
:10225000204600F096F8257720680169C9434907B0
:1022600017D4C168C943490713D46FF00401016151
:10227000022020772068806910F4407F204602D039
:10228000FFF7CAFF04E000F07BF8204600F079F881
:10229000257720680169C943090716D4C168C94375
:1022A000090712D46FF0080101610420207720682B
:1022B000C0698007204602D0FFF7AEFF04E000F0BF
:1022C0005FF8204600F05DF8257720680169C94372
:1022D000C90617D4C168C943C90613D46FF01001E9
:1022E0000161082020772068C06910F4407F2046F3
:1022F00002D0FFF791FF04E000F042F8204600F022
:1023000040F8257720680169C943C90708D1C16829
:10231000C943C90704D1891E0161204600F032F883
:1023200020680169C943090609D4C168C94309067F
:1023300005D46FF0800101612046FFF71DFE206883
:102340000169C943490609D4C168C943490605D48E
:102350006FF040010161204600F015F82068016926
:10236000C94389060BD4C168C943890607D46FF0F5
:10237000200101612046BDE87040FFF7FEBD70BD41
:1023800070477047704770477047000070B502682B
:1023900004461068D168536910F00F0F52D003F053
:1023A000010501F490762E435FD0C20705D0CA051F
:1023B00003D5E26B42F00102E263420705D5DA077A
:1023C00003D0E26B42F00202E263820705D5DA072E
:1023D00003D0E26B42F00402E263020707D501F08A
:1023E00020022A4303D0E26B42F00802E263E26B70
:1023F000002A33D0800604D5880602D5204601F095
:102400009AFE20684069E16BC0F38010090700D490
:1024100028B3204601F081FE2068416949061AD59B
:10242000416921F040014161606BA0B11B49016528
:10243000606BFEF7A3FF002810D0606B016DBDE854
:1024400070400847830610D58B060ED52046BDE8A0
:10245000704001F070BE2046FFF796FF70BD204629
:10246000FFF792FF0020E06370BD030606D50B0660
:1024700004D52046BDE8704001F03CBF4006F3D5CE
:102480004806F1D5D168204621F04001D1602021D5
:1024900084F8391000F0EAF970BD00000B41000823
:1024A00070B5040004D094F83900002510B106E09E
:1024B000012070BD84F83850204600F023F8242015
:1024C00084F839002068C16821F40051C1602046B9
:1024D00001F07CFE2068016921F4904101612068CF
:1024E000416921F02A0141612068C16841F400512D
:1024F000C160E563202084F8390084F83A000020A8
:1025000070BD00002DE9F04786B0044614216846EE
:10251000FDF78EFE6249614F23680024604A10393E
:10252000032502265F484FF00809BB4217D1136804
:1025300043F400231360126802F4002205920A6833
:1025400042F001020A60096802AB01F00101059145
:10255000CDE90056012183E82202694637E0DFF821
:102560004881DFF83CC10727DFF840A10CF1040CDB
:10257000434531D1DCF8002042F01002CCF80020B5
:10258000DCF8002002F0100205920A6842F0010215
:102590000A600A6802F0010205920A6842F002022B
:1025A0000A60096802AA01F0020105914FF4007166
:1025B000CDE9001682E8B0006946FEF711FF8020E1
:1025C000CDE9000602AA694682E8B0005046FEF74F
:1025D00007FF06B0BDE8F087DFF8D480434521D17E
:1025E000136843F400331360126802F4003205925A
:1025F0000A6842F001020A60096802AB01F00101B9
:1026000005910C21CDE9001683E8B0006946FEF77C
:10261000E7FE002211462620FFF738F92620FFF7B3
:1026200027F9D6E72348834219D1106840F4802067
:102630001060106800F480200590086840F00200E7
:102640000860086802AB00F0020005904FF440609B
:10265000CDE9000683E8B00069465046B7E7164862
:102660008342B6D1DCF8000040F02000CCF8000036
:10267000DCF8000000F020000590086840F004003D
:102680000860086802AA00F004000590C020CDE9A7
:10269000000682E830026946084898E7004C00408E
:1026A0004038024000000240001001400004024097
:1026B000004400400048004000140140000802406F
:1026C00090F83A30202B22D1F9B1F2B190F838309D
:1026D000012B1CD081628285C2850021C163222228
:1026E00080F83A2080F838100168CA6842F4807295
:1026F000CA6001684A6942F001024A610068C16823
:1027000041F02001C1600020704701207047022085
:102710007047000000681449884223D11348144AC6
:10272000816883785354491C8160B1F5FA7F02DDDA
:10273000002181600CE000290ADD114411F8022C0F
:10274000FF2A05D111F8011C0A2901D1012141609C
:102750000078002806D0054905480122891CC038A8
:10276000FFF7AEBF7047000000440040EC020020BD
:102770005C0900202DE9F843044690F839001F4613
:1027800016460D46202850D1B5B1AEB194F83800A8
:1027900001284AD0012084F838004FF00008C4F81E
:1027A0003C80212084F83900FEF708FFA68481468A
:1027B000E68484F8388026E00120BDE8F883E08CC8
:1027C000401EE084A0684B46B0F5805F4FF00002E9
:1027D0004FF080012046009703D001F0BCFDE8B91E
:1027E0000DE001F0B8FDC8B928882168C0F30800E1
:1027F0004860206908B16D1C05E0AD1C03E021684C
:1028000015F8010B4860E08C0028D8D14B46002217
:1028100040212046009701F09EFD08B10320CCE73F
:10282000202084F839000020C7E70220C5E790F88F
:102830003930202B18D1A9B1A2B190F83830012B32
:1028400012D001628284C2840021C163212280F8F7
:10285000392080F838100068C16841F08001C160FB
:102860000020704701207047022070477047FEE744
:102870007FB5002412480094019402940F490394F8
:1028800001604FF44031C0E901140461047680F81E
:1028900020400C49C0E90A140125C561C46080F8D4
:1028A00030404561FEF7B1FB0420CDE900056946E3
:1028B00002940348FEF700FB7FBD000000220140A8
:1028C0007C0500200100000F2DE9F04F87B0142196
:1028D0006846FDF7ADFC72480024016841F0100124
:1028E0000160016801F010010591016841F02001CB
:1028F0000160016801F020010591016841F00401C7
:102900000160016801F004010591016841F00101D5
:102910000160016801F001010591016841F00201C7
:102920000160016801F002010591016841F00801B0
:102930000160016801F008010591016841F0400162
:1029400001600068DFF85C9100F0400048F6F03567
:102950000590002229464846FEF72AFEDFF848A1E6
:1029600043F60306002231465046FEF721FEDFF80B
:102970003CB1002220215846FEF71AFE4FF44C4786
:10298000002239464A48FEF713FE002247F2FC01B6
:102990004848FEF70DFE4FF4807800224146464835
:1029A000FEF706FE00950125CDE90154694648462B
:1029B0000394FEF715FD0096CDE901546946504693
:1029C0000394FEF70DFD1020CDE90004694658463A
:1029D0000294FEF705FD20200090CDE901546946E0
:1029E00058460394FEF7FCFC0097CDE90154694674
:1029F0002F480394FEF7F4FC41F2FC000090CDE96F
:102A0000015469462B480394FEF7EAFC4FF410602A
:102A1000CDE90004694627480294FEF7E1FCCDF8B1
:102A20000080CDE90154694623480394FEF7D8FCA1
:102A3000680200902148CDE9010469461D48FEF76F
:102A4000CFFCA80200901E48CDE901046946194850
:102A5000FEF7C6FC6803CDE900050320CDE902506E
:102A600069461448FEF7BCFCA803CDE90005CDE992
:102A7000025469460F48FEF7B3FC002201211720DB
:102A8000FEF704FF1720FEF7F3FE002201212820A5
:102A9000FEF7FCFE2820FEF7EBFE07B0BDE8F08F46
:102AA000303802400010024000140240000802408A
:102AB000000C0240001802400000024000002110FB
:102AC000000011100B480A494FF4007201604FF4E6
:102AD0008271416000218160C1600161C0E905121D
:102AE000C1610162416281620A21C162FFF798B946
:102AF000003001402C0600200A48094901604FF4CB
:102B00008271416000218160C16001614161816128
:102B1000C1610162416281620A21C162FFF780B92D
:102B2000003800408406002010B586B00024134809
:102B3000009401940294039404940F490594016055
:102B40004FF4C871C0E901143221C0E90314446193
:102B50008461FFF75BFA4FF48050009069460748A4
:102B6000FFF7EFFA2020CDE9040404A90348FFF79A
:102B700005FA06B010BD000000000140DC06002090
:102B800010B586B000241248009401940294039476
:102B900004944FF080410594016041F6DF31C0E9B3
:102BA00001146421C0E903148461FFF72FFA4FF484
:102BB0008050009069460648FFF7C3FA2020CDE90F
:102BC000040404A90248FFF7D9F906B010BD0000BB
:102BD0001C07002010B586B0002412480094019410
:102BE0000294039404940E490594016041F6DF3188
:102BF000C0E901146421C0E903148461FFF706FAF7
:102C00004FF48050009069460648FFF79AFA20205A
:102C1000CDE9040404A90348FFF7B0F906B010BDDC
:102C2000000400405C07002010B586B00024124864
:102C3000009401940294039404940E490594016055
:102C40004FF4E151C0E901140A21C0E90314846181
:102C5000FFF7DCF94FF48050009069460648FFF713
:102C600070FA2020CDE9040404A90348FFF786F98F
:102C700006B010BD000800409C070020FEE770472A
:102C80002DE9F04FA34841F270712DED048B8FB008
:102C90000068A14D91FBF0F4A048AC60006860436F
:102CA000FDF760FC9FED9E1B53EC112BFDF7EBFB3A
:102CB000FDF769FCE86007460890E01B8046686104
:102CC0009948006800EB80008100781AE96128616A
:102CD0009648894600680646FDF744FC9FED948BB4
:102CE00053EC182BFDF7CFFB9FED8D1B53EC112BF5
:102CF000FDF757FBFDF747FC044668638E48006804
:102D0000FDF730FC9FED8D9B53EC192BFDF7BBFBC2
:102D10009FED831B53EC112BFDF743FBFDF733FCB9
:102D20002863884800680990FDF71CFC9FED831B11
:102D300053EC112BFDF7A7FB9FED791B53EC112BE7
:102D4000FDF72FFBFDF71FFC7F49824608607F4897
:102D500000688346FDF706FC9FED781B53EC112BB2
:102D6000FDF791FB9FED6E1B53EC112BFDF719FB4B
:102D7000FDF709FC76490546794A086075487649A9
:102D8000DFF8E8E107607548C1F800807649D0F8BF
:102D900000C07448D2F800800F680268DEF80000B6
:102DA000391A7348BCF1010F036821D0BCF1000F40
:102DB0007ED1594C52425143C4F82480E2626422CD
:102DC00091FBF2F119440160881B5043CEF800706A
:102DD000FDF7C8FB53EC182BFDF755FBFDF7D3FBB4
:102DE0002060D84574DB5A49A84272DD281A88E071
:102DF000604DDFF824B15143D5F800C0CBF820C0B6
:102E0000CDF810C0CDF814C0CBF82480CDF82880C0
:102E1000CBF82820642291FBF2F119440160039160
:102E2000881B5D465043CEF80070FDF79BFB53ECCA
:102E3000182BFDF728FBFDF7A6FB28600746DDF8F9
:102E400014C009986421ACEB00004843FDF78AFBED
:102E500053EC192BFDF717FBFDF795FB0146686056
:102E60004548DFF818810E2205683EB30398B0424A
:102E700043DA5E46A74201DDB06B01E0E01BB063C0
:102E8000A04200DDB463B06BFDF76CFB9FED3C1B13
:102E900053EC112BFDF785FAFDF775FB089990FBB4
:102EA000F1F1C8F80010491B91FBF9F0B06100E0A6
:102EB0001EE008B90120B061014617E0049C0A9B9E
:102EC0005846A34219DC204A514503DD116804E04D
:102ED0001CE015E0AAEB010111604A1BC8F80010C4
:102EE00092FBF9F1816109B90121816126480160F4
:102EF0000FB0BDEC048BBDE8F08FC8F80020F7E7F9
:102F0000002008601C490860A169EFE71A490A20FF
:102F10000860EDE7D4000020AC010020D8000020BC
:102F20000000000000005940D0000020EC0000200C
:102F30000000000000E09540E800002000000000D4
:102F400000804B40C8000020A4010020CC000020DD
:102F5000A8010020300000203400002038000020AC
:102F6000440000204C0000207C000020780000205D
:102F70006C000020400000202800002024000020D9
:102F80000000000000C068402C0000202DE9F04F38
:102F9000CD48CE4C2DED088B91B0006800EB800041
:102FA0008000E0600C90CA480068FDF7DBFA9FEDF6
:102FB000C9AB53EC1A2BFDF766FA9FEDC81B53EC17
:102FC000112BFDF7EEF9FDF7DEFAE062C548006867
:102FD0000490FDF7C7FA9FEDBF1B53EC112BFDF7D3
:102FE00052FA9FEDBE1B53EC112BFDF7DAF9FDF7FA
:102FF000CAFA05462062BC480068FDF7B3FA9FEDA7
:10300000B51B53EC112BFDF73EFA9FEDB41B53ECAF
:10301000112BFDF7C6F9FDF7B6FAA062B34864219B
:10302000D0F800A00AFB01F0FDF79CFA9FEDB0BBC1
:1030300053EC1B2BFDF727FAFDF7A5FA8046206518
:10304000206C0646FDF7BEFA9FEDAB1B53EC112B2F
:10305000FDF7A1F9FDF797FA08EE900A6063A8481A
:1030600000680A90FDF77EFA9FEDA61B53EC112B2A
:10307000FDF797F941EC190B3046FDF7A3FA9FEDE8
:103080009E1B53EC112BFDF786F953EC192BFDF722
:1030900082F9FDF778FA206394ED119A08EE100A90
:1030A00019EE100AFDF78EFA9FED981B53EC112BC9
:1030B000FDF7D0F8FDF767FAB1EE000AA06339EE2C
:1030C000000A9449964A994BBDEEC00ADFF860B2F7
:1030D0004FF0640E84ED0F0A20680D9008608E4951
:1030E0006068944C08608F4917688F4AD3F8009045
:1030F0008A480E681168904B0068A9EB0101714382
:103100001B68002872DD8D48704C006820610A90B1
:10311000039091FBFEF0C4E90576874918440860E6
:103120000590A0EB0A00714600FB01F0C2F8009088
:10313000FDF718FA53EC1B2BFDF7A5F9FDF723FA61
:1031400060650690DDE90301401A64214843FDF7FC
:1031500009FA53EC1A2BFDF796F9FDF714FA01461C
:1031600060627448764B006803906E481F68642361
:103170000068381A584309907248006840420F901E
:10318000BAF1000F07D00598504563DC069840451A
:103190002DDDA06D2EE0049B0A9A20469A421EDC8B
:1031A000A94201DD016A01E0691A0162CBF8001051
:1031B000039A8A1A0C9992FBF1F1816009B90121F5
:1031C00081600A466049BE420A605D4937DD0E6093
:1031D00011B0BDEC088BBDE8F08F002066E05B49C4
:1031E000002008700C20CBF80000F1E739E0A8EBD4
:1031F0000000A065404501DDC4F85880A06DFDF7D2
:10320000B1F99FED531B53EC112BFDF7CAF8FDF7F5
:10321000BAF90D99CBF8005090FBF1F00398291AF8
:103220000C9891FBF0F0A06008B90120A060014665
:103230004548BE420160424801DD0660C8E7C4F867
:103240004C90002FC4DD099890FBF7F10F98814254
:10325000C3DABDE73D49002008700D21CBF800100E
:10326000B6E7B5D136484FF0000CC0F800C017489B
:103270004761C661384E96ED000A91FBFEF62E4975
:10328000B1EE400A80ED120A9B1B0B60C2F8009061
:103290000A9901290DD0F8EEC80A00BFB4EEE00A81
:1032A000F1EE10FA08D20120CBF80050274908703F
:1032B0008EE7F8EEE80AF1E70C21816223482160ED
:1032C00080F800C084E70000AC00002090020020DD
:1032D000BC0000200000000000804B400000000007
:1032E00000005940A4000020A8000020C4000020D5
:1032F0000000000000E09540333333333333D33FD5
:10330000B00000209A9999999999B93F000000005E
:1033100000000C4030000020340000203800002065
:10332000440000204C000020780000207C00002099
:10333000240000202800002074000020400000200D
:103340008C000020C00000202C00002090000020F5
:103350000000000000C068405C00002070470000D2
:103360002DE9F04FC74841F270712DED088B87B001
:103370000068C54C91FBF0F000EB80010A0164216C
:1033800092FBF1F18B46C4E90001C049642209684F
:10339000414391FBF2F6A660801B04968146E060F3
:1033A000BB4800680090FDF7DDF89FEDBAAB53EC29
:1033B0001A2BFDF768F89FEDB91B53EC112BFCF7A6
:1033C000F0FFFDF7E0F882462062B64800680390FF
:1033D000FDF7C8F89FEDAF1B53EC112BFDF753F829
:1033E0009FEDAE1B53EC112BFCF7DBFFFDF7CBF889
:1033F0000546A062AC4800688046FDF7B3F89FED33
:10340000ABBB53EC1B2BFDF73EF89FEDA41B53EC1D
:10341000112BFCF7C6FFFDF7B6F807462065606C78
:103420000190FDF7CFF89FEDA31B53EC112BFCF798
:1034300011FFFDF7A8F808EE900AA0639F48006806
:103440000290FDF78FF89FED9E1B53EC112BFCF7BC
:10345000A8FF41EC190B0198FDF7B4F89FED951BFF
:1034600053EC112BFCF7F6FE53EC192BFCF7F2FE94
:10347000FDF789F8606394ED129A08EE100A19EED0
:10348000100AFDF79FF89FED901B53EC112BFCF7F2
:10349000E1FEFDF778F8B1EE000AE06339EE000ACC
:1034A00005908C49904BBDEEC00ADFF840E210EE6B
:1034B000100A20640190864806608748C1F8009091
:1034C0008649D0F800C086481C68096802688548AB
:1034D000DEF800300068201ABCF1010F3DD0BCF1CD
:1034E000000F74D1DFF8A081814FDFF8FCA1C8F88C
:1034F000141097ED009A57427843642290FBF2F241
:1035000088ED139A1A44C8F81C70CEF8002003986E
:10351000081A64214843FDF725F853EC1A2BFCF7F1
:10352000B2FFFDF730F86F49C8F83000DFF8C4C1CA
:103530000C6002990F22704B01296FDD41465C45FA
:1035400077DD019CA74206DCB8EEC80AB4EEC09A4B
:10355000F1EE10FA6DDD022480E0684DDFF828916D
:1035600050432E684D46C9F81060C5E90512642223
:1035700090FBF2F018445B49CEF800008346A0EBC4
:10358000080050430C60FCF7EDFF53EC1B2BFCF7DD
:103590007AFFFCF7F8FF0446686200986421301A4D
:1035A0004843FCF7DFFF53EC1A2BFCF76CFFFCF7EA
:1035B000EAFFE862524D0E220146B8F1000F1CD01E
:1035C000C3452DDA4846BC4202DD416D02E020E0F1
:1035D000391B4165B94200DD4765D9F85400FCF755
:1035E000C1FF9FED481B53EC112BFCF7DAFEFCF7F3
:1035F000CAFF049990FBF1F00AE0009C4846A642FD
:103600000EDA514502DCAAEB01010162D9F8200073
:10361000286007B0BDEC088BBDE8F08F0FE008E034
:103620002A60F6E7186006EB0900401CCAF80000A3
:10363000EFE7A84222DC281A88621860E9E717D170
:1036400041465C45F5DD059CA74206DCB8EEE80A7C
:10365000B4EEC09AF1EE10FAEBDD0124CCF8004094
:10366000A84202DC281A8862DCE710468A62D9E7A1
:103670004FF0FF31CCF800104146DAE710468A627D
:10368000DBE7000024010020EC01002028010020DD
:103690001C0100200000000000804B4000000000E2
:1036A00000005940200100204001002000000000DF
:1036B00000E09540333333333333D33F34010020BC
:1036C0009A9999999999B93F0000000000000C401F
:1036D000300000203400002038000020440000208A
:1036E0004C000020780000207C00002070000020AA
:1036F0005C0000209C0000202800002040000020EA
:10370000240000200000000000C0684005494FF47C
:10371000FA7008600449086004490C2008600449F4
:103720000860704730000020340000202400002092
:10373000280000207047FEF741B8000030B593B074
:1037400030216846FCF774FD14210CA8FCF770FDCD
:1037500018480025016841F080510160006800F0C0
:10376000805011901448016841F480410160006864
:10377000022400F480401190012003901020049056
:10378000009406940820CDE907504820CDE90904AB
:1037900003200B906846FEF795F90CA90F2081E8ED
:1037A0003100E0020F90109002210CA8FEF7A0F863
:1037B00013B030BD40380240007000400548016839
:1037C00041F47001016003494FF0006080390860E6
:1037D0007047000088ED00E00D4910B50868401CF6
:1037E0000860642801D100200860024609484FF4AF
:1037F0000061036808489A4201DA012200E00022D1
:10380000FDF7D6FEBDE810400448FEF706BD0000F7
:10381000F80200200400002000100240DC06002016
:103820002DE9F047FF4C00252DED028B0120E561CD
:1038300002F042FABDEEC00AE16910EE100A084437
:10384000E061012002F038FABDEEC00AE16910EE35
:10385000100A0844E061012002F02EFABDEEC00A11
:10386000E16910EE100A0844E061012002F024FA38
:10387000BDEEC00AE16910EE100A0844E0610120C3
:1038800002F01AFABDEEC00AE16910EE100A08440F
:10389000E061012002F010FABDEEC00AE16910EE0D
:1038A000100A0844E061012002F006FABDEEC00AE9
:1038B000E16910EE100A0844E061012002F0FCF911
:1038C000BDEEC00AE16910EE100A0844E061012073
:1038D00002F0F2F9BDEEC00AE16910EE100A0844E8
:1038E000E061012002F0E8F9BDEEC00AE169CE4EC8
:1038F00010EE100A4FF064090844E061002801DC72
:10390000356005E000EB8000810091FBF9F030604C
:103910000320E56102F0D0F9BDEEC00AE16910EEC6
:10392000100A0844E061032002F0C6F9BDEEC00AA7
:10393000E16910EE100A0844E061032002F0BCF9CE
:10394000BDEEC00AE16910EE100A0844E0610320F0
:1039500002F0B2F9BDEEC00AE16910EE100A0844A7
:10396000E061032002F0A8F9BDEEC00AE16910EEA3
:10397000100A0844E061032002F09EF9BDEEC00A7F
:10398000E16910EE100A0844E061032002F094F9A6
:10399000BDEEC00AE16910EE100A0844E0610320A0
:1039A00002F08AF9BDEEC00AE16910EE100A08447F
:1039B000E061032002F080F9BDEEC00AE16910EE7B
:1039C000100A0844E061032002F076F9BDEEC00A57
:1039D000E1690A2710EE100A08449449E0610028C2
:1039E00001DC0D6002E090FBF7F008609FED908A2B
:1039F000022084ED068A02F05FF9D4ED060A022067
:103A000030EE200A84ED060A02F056F9D4ED060ADB
:103A1000022030EE200A84ED060A02F04DF9D4EDC2
:103A2000060A022030EE200A84ED060A02F044F96C
:103A3000D4ED060A022030EE200A84ED060A02F0D8
:103A40003BF9D4ED060A022030EE200A84ED060A86
:103A500002F032F9D4ED060A022030EE200A84ED9D
:103A6000060A02F029F9D4ED060A022030EE200AF7
:103A700084ED060A02F020F9D4ED060A022030EEA9
:103A8000200A84ED060A02F017F9D4ED060A022096
:103A900030EE200A84ED060A02F00EF9D4ED060A93
:103AA000644830EE200A84ED060AB5EEC00AF1EE55
:103AB00010FA02D880ED008A01E080ED000A0120B2
:103AC000E56101F099FEBDEEC00AE16910EE100A51
:103AD0000844E061012001F08FFEBDEEC00AE169FB
:103AE00010EE100A0844E061012001F085FEBDEEF1
:103AF000C00AE16910EE100A0844E061012001F0FB
:103B00007BFEBDEEC00AE16910EE100A0844E061D8
:103B1000012001F071FEBDEEC00AE16910EE100A4D
:103B20000844E061012001F067FEBDEEC00AE169D2
:103B300010EE100A0844E061012001F05DFEBDEEC8
:103B4000C00AE16910EE100A0844E061012001F0AA
:103B500053FEBDEEC00AE16910EE100A0844E061B0
:103B6000012001F049FEBDEEC00AE16910EE100A25
:103B70000844E061012001F03FFEBDEEC00AE169AA
:103B8000DFF8B48010EE100A0844E061002802DC7F
:103B9000C8F8005003E090FBF7F1C8F800100220CD
:103BA000E56101F029FEBDEEC00AE16910EE100AE0
:103BB0000844E061022001F01FFEBDEEC00AE16989
:103BC00010EE100A0844E061022001F015FEBDEE7F
:103BD000C00AE16910EE100A0844E061022001F019
:103BE0000BFEBDEEC00AE16910EE100A0844E06168
:103BF000022001F001FEBDEEC00AE16910EE100ADC
:103C00000844E061022001F0F7FDBDEEC00AE16961
:103C100010EE100A0844E061022001F0EDFDBDEE57
:103C2000C00A0BE0F8020020400000204400002001
:103C3000000000005C0000204800002010EE100A88
:103C4000E1690844E061022001F0D6FDBDEEC00A42
:103C5000E16910EE100A0844E061022001F0CCFD99
:103C6000BDEEC00AE16910EE100A0844E0610220CE
:103C700001F0C2FDBDEEC00AE16910EE100A084471
:103C80002E49E061002801DC0D6002E090FBF7F0B6
:103C900008600968C8F8001060690127401C60616D
:103CA000B0F5FA7F20DB6561616A91FBF9F0244988
:103CB000086024480178244802290BD003290BD03E
:103CC00004290BD005290BD00560204807706562D8
:103CD000A56210E01E4904E01E4902E01E4900E012
:103CE0001E4909680160F0E7606A3268104460624A
:103CF000A06A0844A062A068401CA0600A2808D1FD
:103D000017484FF4167201685143164A1160056056
:103D1000A5606068401C6060B0F5967F07D14FF4E5
:103D200000711148FDF738FC08B1104807701048C1
:103D3000BDEC028BBDE8F047FEF76FBA4C000020E7
:103D400050000020A0000020540000205800002057
:103D5000700000206C00002068000020740000202B
:103D6000180000203C0000200018024060000020E5
:103D70001C0700202DE9F05FDFF83C81DFF83CB143
:103D8000DFF83C9198F8000000244E4F4E4D4F4E06
:103D900005284FD02968DFF838C1491C4D4B2960F0
:103DA000DCF800201B6813448B420DDCD9F800308E
:103DB00049495B1CC9F800302C600C6047490C6015
:103DC00047490C6047490C602968E14691420CDC88
:103DD000DBF80010F16030B1012804D0012251025B
:103DE0004148FDF7E5FB012038602968D9F800005B
:103DF000814203DD3D4A1268F2603C601E30814220
:103E00000ADD98F8000038B1012805D000224FF4EF
:103E100000713548FDF7CCFBF068002801DB02F0AB
:103E20007FF82868642190FBF1F201FB1200C0B317
:103E3000002138E03069DFF8B8A023280ADD00222D
:103E40004FF4007128483461FDF7B2FB9AF8000086
:103E500020B91AE09AF80010A9B13461DBF800002B
:103E6000F06098F8000030B1012804D0012251021E
:103E70001D48FDF79DFB2868401C28600120C9F8FB
:103E800000403860C8E7401C306118486FF063019B
:103E90002C60C9F800100068F06016483C600460AF
:103EA000BAE7FFE70121062001F0E2FCBDE8F05F80
:103EB0001148FEF7B2B90000A00000202400002045
:103EC00098000020380000207C000020F80200202C
:103ED000300000203400002078000020680000201E
:103EE0006C0000207000002000100240280000201C
:103EF00090000020740000205C070020164A10B5D6
:103F00001068401C1060322811D114480021116043
:103F10000078012810D0052811D0032812D00428D9
:103F200013D0022814D00E4801600E480160BDE88D
:103F300010400D48FEF771B9FFF7E8FBF7E7FFF710
:103F400025F8F4E7FEF79CFEF1E7FCF7B5FCEEE799
:103F5000FFF706FAEBE7000080000020A000002039
:103F600024000020280000209C0700202DE9F041BB
:103F700013480178F9B10021124C01700120124F51
:103F8000124D134E206212E017F82020022128461D
:103F9000FDF70EFB012211462846FDF709FB002222
:103FA00001212846FDF704FB206A401C206231688D
:103FB000891C8842E8DBBDE8F0410648FEF72DB9D0
:103FC00061000020F80200202C05002000140240AF
:103FD00064000020DC070020F0B50268254C264D67
:103FE000264E274F274B4FF0804CA04209D060450A
:103FF00007D0A84205D0B04203D0B84201D09842C1
:1040000004D122F0700E4A6842EA0E02A0421BD090
:10401000604519D0A84217D0B04215D0B84213D08D
:10402000984211D0184DA8420ED0184DA8420BD07E
:10403000174DA84208D0174DA84205D0164DA842EA
:1040400002D0164DA84203D122F44075CA682A4313
:104050004D6922F080022A4302608A68C2620A68BF
:104060008262A04201D0984201D109690163012115
:104070004161F0BD00000140000400400008004024
:10408000000C004000040140004001400044014099
:104090000048014000180040001C00400020004083
:1040A00010B5846842EA032224F47F440A43224381
:1040B000826010BD826822F070020A4342F007015C
:1040C0008160704710B5036A046A24F00104046239
:1040D000846924F0F00444EA021423F00A020A433B
:1040E0008461026210BD10B5036A23F010030362FD
:1040F0008369046A23F4704343EA023224F0A00384
:1041000043EA01118261016210BD10B5806B00218C
:10411000C185C184FEF738F910BD0168CA6822F470
:104120009072CA6001684A6922F001024A61202146
:1041300080F83A10704710B590F83A10222901D053
:10414000022010BD8168B1F5805F11D0016900299E
:1041500001681FD0496801F07F03816A4A1C8262AE
:104160000B70C18D491E0904090CC18518D02BE0C4
:104170000269816A002A0268526805D0D2B20A80B8
:10418000816A491C8162ECE7C2F308020A80816AF5
:10419000891CF7E74A68816A4B1C83620A70E0E772
:1041A0000168CA6822F02002CA600168CA6822F465
:1041B0008072CA6001684A6922F001024A612021C6
:1041C00080F83A10FEF7A6FA002010BD2DE9F04164
:1041D000044600680169E26821F44051114301611D
:1041E0002169A068E26908436169114308432168B5
:1041F000CA6849F20C639A430243CA602068416965
:10420000A26921F4407111434161E06919276425D5
:104210003226B0F5004F354A354920684FF0000886
:1042200006D0884201D0904236D1FDF70BFC35E034
:10423000884201D0904202D1FDF704FC01E0FDF775
:10424000F1FB61684A18A0FB070148EB0803FBF784
:10425000B7FF0146B0FBF5F00201B1FBF5F06FF0DE
:104260001803584301EB800006EBC000B0FBF5F0EB
:1042700000F0F80002EB4002B1FBF5F0584301EB0F
:10428000800006EBC000B0FBF5F000F007002168ED
:1042900010448860BDE8F081FDF7C4FB61688B0FB6
:1042A0008A00A0FB0701FBF78BFF0146B0FBF5F08E
:1042B0006FF01802504301EB800006EB0010B0FBDA
:1042C000F5F000F0F002B1FBF5F002EB0012B1FBEB
:1042D000F5F06FF01803584301EB800006EB001077
:1042E000B0FBF5F000F00F00D1E700000014014032
:1042F0000010014090F83910212901D002207047A8
:104300008168B1F5805F016A0BD04A1C02620268C5
:1043100009785160C18C491E0904090CC1840ED072
:1043200017E009880268C1F308015160016900299A
:10433000016A02D0491C0162ECE7891CFBE70168B5
:10434000CA6822F08002CA600068C16841F040017A
:10435000C160002070472DE9F041984617460E468F
:104360000446069D1DE0681C1BD02DB1FDF726F903
:10437000A0EB0800A84214D92068C16821F4D071CC
:10438000C1602068416921F001014161202084F869
:10439000390084F83A00002084F838000320BDE892
:1043A000F0812068006836EA000004D00020B8429E
:1043B000D9D00020F3E70120F9E700000148FDF71C
:1043C000E5BF00009C080020FEE700000FB4084B8A
:1043D00010B504A902AA039800F0EEF8044602A959
:1043E000002000F080FC204610BC5DF814FB0000AB
:1043F000E74C00080907090E002804DB00F1E02063
:1044000080F80014704700F00F0000F1E02080F801
:10441000141D704702E008C8121F08C1002AFAD113
:1044200070477047002001E001C1121F002AFBD134
:10443000704700002DE9FF5F82B00021DDE9043004
:10444000020DDDF840B0034318D044F61050A2F23C
:10445000FF3242431514119801281FD0A5EB0B0021
:10446000401C5FEA000A4FF000064E4FDFF838911B
:10447000B046504615D5CAF1000413E01198012446
:104480004AA3012801D16FEA0B010298119AC0E9F1
:104490000031C0E9024206B0BDE8F09FCBF1000058
:1044A000DFE704460021404A491842EB0450CDE9B9
:1044B000001012E0E00707D032463B46404649462E
:1044C000FBF76FFF8046894632463B461046194649
:1044D000FBF767FF06460F466410002CEAD1DDE9C2
:1044E0000401DDE90023BAF1000F06DAFBF759FFFA
:1044F00042464B46FBF755FF05E0FBF7C4FF42463B
:104500004B46FBF7C0FF04460E460022284BFCF743
:104510006DF803D84FF0FF30014607E00022254B2D
:1045200020463146FBF796FEFCF76FF9102409E0B0
:10453000002C0ADB0A220023FBF742FE039B3032E9
:104540001A55641E50EA0102F2D1641C039AC4F1A8
:1045500011031444119A012A03D0012208430DD1FA
:104560000AE0084304D000204FF0110B119072E7CD
:10457000A3EB0B056D1E0DE05B4504DD4FF0000263
:1045800005F1010504E003DA4FF00002A5F1010591
:10459000002AECD002981199C0E90231C0E9004527
:1045A00079E70000000014400000F03F30000000F8
:1045B0000000F0430000E03F2DE9FF4F95B09B461F
:1045C0008946064600250FE2252877D10024274694
:1045D000F84A0121059400E0044316F8013F203B0E
:1045E00001FA03F01042F7D130782A2811D06FF089
:1045F0002F033078A0F13002092A16D8059A44F02A
:10460000020402EB820203EB42021044761C059086
:10461000EFE759F8042B0592002A03DA504244F4DC
:104620000054059044F00204761C30782E2816D1F0
:1046300016F8010F44F004042A280DD06FF02F0261
:104640003078A0F13003092B09D807EB870302EB80
:104650004303C718761CF3E759F8047B761C3078BF
:104660006C280FD006DC4C2817D068280DD06A289B
:1046700014D104E0742810D07A280FD10DE044F44E
:1046800000140AE044F4801401E044F44014727809
:10469000824202D104F58014761C761C307866289C
:1046A0000BD013DC582877D009DC002875D04528BA
:1046B000F6D04628F4D047281AD19DE118E06328A7
:1046C00035D0642879D0652812D195E1702873D04F
:1046D00008DC6728F1D069286FD06E280DD06F28CC
:1046E00006D1B5E073282CD0752875D0782874D001
:1046F0005A46179990476D1C75E1C4F30250022881
:1047000009D003280DD0D9F8001004280DD00D6071
:1047100009F1040967E1D9F80010EA17C1E900526C
:10472000F6E7D9F800100D80F2E70D70F0E719F800
:10473000041B8DF8001000208DF80100EA460120CE
:1047400003E059F804AB4FF0FF3061074FF0000170
:1047500002D40DE008F101018846B9420FDA804524
:10476000F8DB1AF808100029F4D108E008F101017B
:1047700088468142FADB1AF808100029F6D105981C
:104780005B46A0EB080721463846179A00F094FADA
:10479000284400EB080507E04DE029E10DE01AF898
:1047A000010B5A4617999047B8F10108F7D25B46BA
:1047B00021463846179A13E142E00A220092C4F3D8
:1047C00002524FF0000A022A08D059F804CB032AFB
:1047D0004FEAEC710AD00DE029E02AE009F1070167
:1047E00021F00702F2E802C1914609E00FFA8CFCC1
:1047F0004FEAEC71042A03D14FFA8CFC4FEAEC71BA
:10480000002907DA0A460021DCF1000C61EB020105
:104810002D2202E0220504D52B228DF8042001224E
:1048200003E0E20701D02022F7E7904659E00A2191
:1048300002E010220DE010214FF0000A00910BE081
:1048400010224FF0000A44F004040827009203E00D
:1048500008224FF0000A0092C4F30252022A05D047
:1048600059F804CB0021032A08D009E009F1070117
:1048700021F00702F2E802C1914605E01FFA8CFC24
:10488000042A01D10CF0FF0C4FF00008220728D5B4
:10489000702806D0009B83F0100353EA0A0305D06A
:1048A0000EE040228DF80420012208E05CEA0102BB
:1048B00006D030228DF804208DF8050002229046A3
:1048C000009B83F0080353EA0A030AD15CEA010261
:1048D00001D1620705D530228DF804204FF0010880
:1048E0007F1E582804D034A003900EA802900DE03B
:1048F00036A0F9E753466046009AFBF761FC844610
:104900000398825C0298401E029002705CEA0100EB
:10491000F0D1029806A9081A00F1200A600702D512
:1049200024F4803400E00127574502DDA7EB0A009C
:1049300000E0002000EB0A01009005984144401A75
:104940000590E00306D45B462146179A059800F0CF
:10495000B3F90544002706E001A85A46C05D17993F
:1049600090476D1C7F1C4745F6DBE0030CD55B468A
:104970002146179A059800F09FF9054404E030207D
:104980005A46179990476D1C0099481E00900029BF
:10499000F5DC08E0029802995A460078491C029119
:1049A000179990476D1CBAF10001AAF1010AF1DCD8
:1049B00065E10000092801003031323334353637E3
:1049C000383961626364656600000000303132335B
:1049D00034353637383941424344454600000000FB
:1049E00000F058F90544761C307800287FF4ECADCF
:1049F00019B02846BDE8F08F620700D4062709F1F8
:104A0000070222F0070CFCE80223E14603F000480D
:104A10005FEA080C02D00FF2702C0DE05FEA045C34
:104A200002D50FF2682C07E05FEAC47C02D00FF2D7
:104A3000602C01E0AFF2700C4FF0FF3823F0004320
:104A4000CDF850C065280CD006DC452809D0462892
:104A50001DD047283DD13DE0662818D067287ED17B
:104A600038E00021112F01DB112000E0781CCDE996
:104A7000000106A90EA8FFF7DDFCDDE90F010E9A83
:104A800003910021009207F1010A04914DE04FF0DB
:104A900000400097CDE9011006A90EA8FFF7CAFC57
:104AA000DDE90F0203920E9B11990022DDF80CA0A4
:104AB0000093049211B9791C00EB010AB7EB0A00CC
:104AC00004D4C0F1FF3007F1010A0490AAEB0700FB
:104AD000019044E0012F00DA01270021112F01DDB0
:104AE000112000E03846CDE9000106A90EA8FFF725
:104AF000A1FCDDE90F010E9A0391002104910092BF
:104B0000BA4621070CD40399514500DA8A46BAF116
:104B1000010F05DD009AAAF10101515C302908D08E
:104B2000B84202DA10F1040F06DA0121CDE90110D2
:104B300015E0AAF10101E9E7002805DC0499014428
:104B40000491AAEB000102E0411C514500DD8A46B8
:104B50000499401A401C01904FF000400290200739
:104B600004D40198504501DBCDF8048000208DF875
:104B70004F0002980DF14F07B0F1004F25D02B20C8
:104B80000E9002984FF0020800280CDA4042029082
:104B90002D200E9007E00A210298FBF75BFD3031D3
:104BA000029007F8011DB8F10001A8F10108F2DC3C
:104BB00002980028EFD1791E0E980870307800F026
:104BC000200040F0450007F8020D12A8C01B00F1BC
:104BD00007081498007800B1012000EB0A01019841
:104BE00001EBE07105984144401A401E0590E00336
:104BF00006D45B462146179A059800F05DF80544F7
:104C00001498007818B15A46179990476D1CE00324
:104C100024D55B462146179A059800F04DF80544C7
:104C20001CE00498002807DBDDE90301884203DD6E
:104C30000098405C179901E0179930205A46904738
:104C4000049805F10105401C04900198401E019054
:104C500004D12E205A46179990476D1CBAF10001D5
:104C6000AAF1010ADDDC05E017F8010B5A46179995
:104C700090476D1CB8F10001A8F10108F4DC5B4617
:104C80002146179A0598ABE62D0000002B00000086
:104C9000200000002DE9F041044600251E4617467D
:104CA000880404D405E039462020B0476D1C641EFA
:104CB000F9D52846BDE8F0812DE9F04104460025EC
:104CC0001E469046C80301D5302700E020278804FF
:104CD00004D505E041463846B0476D1C641EF9D541
:104CE0002846BDE8F0810A68531C0B6010707047BD
:104CF0000B480C4A017911600B4A417911600B4A4B
:104D0000817911600A4AC17911600A4A017A1160F9
:104D1000817A407A01EB0020074908607047000063
:104D20005C09002074010020780100207C01002033
:104D300080010020840100208801002070B5204CF3
:104D400020492DED028B207908601F4960790860A9
:104D50001E49A07908601E49E07908601D49207A43
:104D600008601D49607A08601C49A07A08601C49E7
:104D7000E07A0860257B607BFBF7F4FB9FED191B55
:104D800053EC112BFBF77FFB41EC180B2846FBF78C
:104D9000E9FB53EC182BFBF75DFAFBF73FFC1349DB
:104DA0000860E07BA17B00EB012011490860607C7A
:104DB000217C00EB01200F490860BDEC028B70BD27
:104DC0005C090020F0000020F4000020F800002022
:104DD000FC00002000010020040100200801002048
:104DE00010010020000000000000244018010020F5
:104DF0000C01002014010020F0B44FF48063194D21
:104E00005C00194E9F0001290AD001281ED00228FB
:104E10001FD0032820D0042821D10022394611E0D8
:104E2000012807D0022807D0032809D0042816D16A
:104E30000122F3E701220AE001220BE0284602E00A
:104E400001220AE03046F0BCFCF7B2BB0022194652
:104E5000F4E700222146F1E700222146F2E7F0BC08
:104E600070470000000C0240001402402DE9F041A0
:104E7000FE4CFF4F0C202060386041F28830FCF778
:104E80008FFA01210220FFF7B7FFFA4801260068D8
:104E900008B9F948067000252560F84C3D600120EE
:104EA000256000F009FFD4ED000A0120F8EEE00AC9
:104EB00030EE200ABDEEC00A84ED000A00F0FCFED0
:104EC000D4ED000A0120F8EEE00A30EE200ABDEE33
:104ED000C00A84ED000A00F0EFFED4ED000A0120C4
:104EE000F8EEE00A30EE200ABDEEC00A84ED000ABA
:104EF00000F0E2FED4ED000A0120F8EEE00A30EE08
:104F0000200ABDEEC00A84ED000A00F0D5FED4ED03
:104F1000000A0120F8EEE00A30EE200ABDEEC00AD9
:104F200084ED000A00F0C8FED4ED000A0120F8EE7E
:104F3000E00A30EE200ABDEEC00A84ED000A00F05F
:104F4000BBFED4ED000A0120F8EEE00A30EE200AA4
:104F5000BDEEC00A84ED000A00F0AEFED4ED000AFA
:104F60000120F8EEE00A30EE200ABDEEC00A84ED22
:104F7000000A00F0A1FED4ED000A0120F8EEE00ADC
:104F800030EE200ABDEEC00A84ED000A00F094FE67
:104F9000D4ED000A0A274FF0FF38F8EEE00A30EEB1
:104FA000200ABDEEC00A10EE100A206090FBF7F058
:104FB000404501DAB24806700220256000F07CFE10
:104FC000D4ED000A0220F8EEE00A30EE200ABDEE31
:104FD000C00A84ED000A00F06FFED4ED000A022042
:104FE000F8EEE00A30EE200ABDEEC00A84ED000AB9
:104FF00000F062FED4ED000A0220F8EEE00A30EE86
:10500000200ABDEEC00A84ED000A00F055FED4ED82
:10501000000A0220F8EEE00A30EE200ABDEEC00AD7
:1050200084ED000A00F048FED4ED000A0220F8EEFC
:10503000E00A30EE200ABDEEC00A84ED000A00F05E
:105040003BFED4ED000A0220F8EEE00A30EE200A22
:10505000BDEEC00A84ED000A00F02EFED4ED000A79
:105060000220F8EEE00A30EE200ABDEEC00A84ED20
:10507000000A00F021FED4ED000A0220F8EEE00A5A
:1050800030EE200ABDEEC00A84ED000A00F014FEE6
:10509000D4ED000A0220F8EEE00A30EE200ABDEE60
:1050A000C00A84ED000A00F007FED4ED000AF8EE15
:1050B000E00A30EE200ABDEEC00A10EE100A2060B1
:1050C00090FBF7F0404501DA6E480670012025603C
:1050D00000F092FBD4ED000A0120F8EEE00A30EE79
:1050E000200ABDEEC00A84ED000A00F085FBD4ED75
:1050F000000A0120F8EEE00A30EE200ABDEEC00AF8
:1051000084ED000A00F078FBD4ED000A0120F8EEEF
:10511000E00A30EE200ABDEEC00A84ED000A00F07D
:105120006BFBD4ED000A0120F8EEE00A30EE200A15
:10513000BDEEC00A84ED000A00F05EFBD4ED000A6B
:105140000120F8EEE00A30EE200ABDEEC00A84ED40
:10515000000A00F051FBD4ED000A0120F8EEE00A4D
:1051600030EE200ABDEEC00A84ED000A00F044FBD8
:10517000D4ED000A0120F8EEE00A30EE200ABDEE80
:10518000C00A84ED000A00F037FBD4ED000A0120CC
:10519000F8EEE00A30EE200ABDEEC00A84ED000A07
:1051A00000F02AFBD4ED000A0120F8EEE00A30EE10
:1051B000200ABDEEC00A84ED000A00F01DFBD4ED0C
:1051C000000A6427F8EEE00A30EE200ABDEEC00ABD
:1051D00010EE100A206090FBF7F0404501DA2A48F3
:1051E00006700220256000F007FBD4ED000A0220C3
:1051F000F8EEE00A30EE200ABDEEC00A84ED000AA7
:1052000000F0FAFAD4ED000A0220F8EEE00A30EEDF
:10521000200ABDEEC00A84ED000A00F0EDFAD4EDDC
:10522000000A0220F8EEE00A30EE200ABDEEC00AC5
:1052300084ED000A00F0E0FAD4ED000A0220F8EE56
:10524000E00A30EE200ABDEEC00A84ED000A00F04C
:10525000D3FAD4ED000A0220F8EEE00A30EE200A7C
:10526000BDEEC00A84ED000A10E00000240000201A
:10527000280000203C0000201C000020E801002045
:105280001D0000201E0000202000002000F0B4FAC5
:10529000D4ED000A0220F8EEE00A30EE200ABDEE5E
:1052A000C00A84ED000A00F0A7FAD4ED000A02203B
:1052B000F8EEE00A30EE200ABDEEC00A84ED000AE6
:1052C00000F09AFAD4ED000A0220F8EEE00A30EE7F
:1052D000200ABDEEC00A84ED000A00F08DFAD4ED7C
:1052E000000A0220F8EEE00A30EE200ABDEEC00A05
:1052F00084ED000A00F080FAD4ED000AF8EEE00A2E
:1053000030EE200ABDEEC00A10EE100A206090FBBD
:10531000F7F0404501DA094806704FF480710848FB
:10532000FCF73AF9074908B10E7000E00D70BDE8CE
:10533000F04100210220FFF75FBD000021000020A6
:10534000001802401F00002030B503464FF6FF70E2
:105350000022074C08E09D5C4540EDB2521C34F839
:10536000255085EA102080B28A42F4DB30BD00006F
:10537000405F0008F0B587B00DF1300C9CE8F000FC
:105380004FF0FE0C8DF800C04FF0080C8DF801C0F6
:105390008DF802008DF803108DF810008DF80420B0
:1053A0008DF811108DF814408DF805308DF81550DA
:1053B0008DF806408DF808608DF812208DF8166083
:1053C0008DF807508DF809708DF813308DF817702F
:1053D000614604A8FFF7B8FFB0F5807F01D800212F
:1053E00000E0010A8DF80A108DF80B00FF208DF8FF
:1053F0000C000A208DF80D000E21684600F006FD15
:1054000007B0F0BD30B585B0FE238DF8003006231F
:105410008DF80130FF2400258DF80200002905DAFF
:1054200048428DF803408DF8040003E08DF80350E6
:105430008DF80410002A09DA5042C11700EB1161FF
:105440008DF805400A0A8DF8062008E0D01702EB17
:105450001060010A8DF805508DF8061010468DF881
:1054600007009DF802008DF80C009DF803008DF8F0
:105470000D009DF804008DF80E009DF805008DF8D4
:105480000F009DF806008DF810009DF807008DF8BC
:1054900011009DF8011003A8FFF756FFB0F5807FBB
:1054A00002D88DF8085002E0010A8DF808108DF836
:1054B00009008DF80A400A208DF80B000C2168467F
:1054C00000F0A4FC05B030BD0EB5FE228DF8002022
:1054D00002228DF801208DF802008DF808008DF869
:1054E00003108DF80910114602A8FFF72DFFB0F543
:1054F000807F01D8002100E0010A8DF804108DF8AA
:105500000500FF208DF806000A208DF8070008210D
:10551000684600F07BFC0EBD704700002DE9FF4798
:10552000774D4FF4FA766978B14279DC2878FE2815
:1055300076D1080074D068180279FF2A70D14279B8
:105540000A2A6DD1C278807802EB002084B2002054
:1055500005F5FA7203E02B189B781354401C88421F
:10556000F9DB6848FFF7F0FEA04259D1AF786649F1
:1055700000246E2F26D0AA46644D6548654BDFF89F
:105580009881664ADFF898914FF0010CE7B3042F39
:1055900057D0012F62D0022F68D0032F40D19AF844
:1055A000030001287ED002287DD003287CD0042867
:1055B00036D100F049FC0421032004B0BDE8F047D7
:1055C000FFF782BF0C70E878012801D1FFF74EFC8D
:1055D00055495448584F0B78544902780E7854492D
:1055E00042EA030030430D7840EA05015148007853
:1055F000014301D1397849B13978CDE90065CDE968
:10560000020101216E2009E00CE009E00023009472
:10561000019402941A4619466E200394FFF7AAFEDD
:10562000BDE8FF872C6081F800C001681960066042
:105630000C20C8F8006010600021C9F8000008467E
:10564000BBE72C600C70016819600660C8F8006048
:10565000146000210420C9F80040AEE700210120B9
:10566000FFF732FFBDE8FF47FFF756BF334E346008
:105670002C60334D2C60334D2C60334D2C60334DFA
:105680002C609AF80320012A11D0022A17D0032A8D
:105690001ED0042AC4D102220A700068186000F0EB
:1056A000F9FB02E01FE022E025E004210EE00522E4
:1056B0000A700068186000F071FB012106E0032207
:1056C0000A700068186000F0BDFA0221022074E739
:1056D00004220A701E49C1F800C000681860FFF774
:1056E0002DFB0321F2E700F02DFB012164E700F020
:1056F0007DFA022160E7FFF7FBFA03215CE7000077
:105700005C090020500B0020A00000209800002021
:10571000300000207C000020340000202400002005
:10572000280000201C0000201D0000201E0000207A
:1057300020000020210000201F0000203800002051
:10574000680000206C000020700000207400002021
:105750009400002070B5204B012000241F4D204EE6
:10576000186007E0214645F8204000F0CDFB18689E
:10577000401C18603168891C8842F3DB002000F06F
:10578000CFFB1848FCF7CCFC1748FCF7C9FC1748BE
:10579000FCF7C6FC1648FCF7C3FC164C012251036B
:1057A0002046FBF705FF0122950329462046FBF71B
:1057B000FFFE1E20FBF7F4FD002229462046FBF7E2
:1057C000F7FE1E20FBF7ECFD29462046BDE87040A1
:1057D0000122FBF7EDBE0000000000202C05002098
:1057E00064000020DC0600201C0700205C0700206D
:1057F000DC0700200018024010B5164C012805D027
:10580000022805D0032822D0206805E00B2000E004
:105810000420FBF707FB2060FAF7A4FE9FED0E1BA8
:1058200053EC112BFAF7BDFD9FED0D1B53EC112B23
:10583000FAF7B1FD9FED0C1B53EC112BFAF7ABFD02
:10584000FAF7ECFE00EE100A84ED020A10BD052006
:10585000DFE70000000000205227A089B0E1D53F1B
:105860000000000000C06C400000000000406F40DD
:1058700030B40A464FF48041224C4D00224B012A9D
:1058800008D009283CD2DFE800F03B2426292C2F41
:1058900032353800092833D2DFE800F03205070B33
:1058A0000D1315171900012201E0012214E0204612
:1058B00004E0012213E0012214E0184630BCFBF79B
:1058C00077BE012211E0012212E0012213E0012241
:1058D00014E00022EBE700222946E8E70022042139
:1058E000EBE700220821E8E700221021E5E700228B
:1058F0002021E2E700224021DFE700228021DCE7CF
:1059000030BC7047000C02400018024090B0FBF71A
:105910005DFFFDF713FFFCF7D7FFFCF7A9FF00249D
:105920008E4900948C48019408600846FBF7E1FC1E
:1059300000940022694689480194FBF7B9FCFDF701
:10594000C1F8FDF7D9F8874885494FF4165601602C
:10595000C0E901640C25C460C0E904458461C461E8
:10596000FCF79EFD7F48804940300160C0E901643A
:10597000C460C0E904458461C461FCF791FD7948C5
:105980007A49803001604FF4E131C0E90114C4600C
:10599000C0E904458461C461FCF782FD7148744923
:1059A000C0300160C0E90164C460C0E9044584619D
:1059B000C461FCF775FD70486E490160C0E901647F
:1059C000C460C0E904458461C461FCF769FD6348B3
:1059D0006A4914304FF4804701606949C0E90114F5
:1059E000C0E9034744618461C4610462FBF7ECFDD4
:1059F000FDF79AF8FDF7C4F8FDF7ECF8FDF714F998
:105A0000584800944038019402945E490394016020
:105A10004FF4E151C0E901144FF47A71C0E9031465
:105A20008461FCF7F3FAB81000904E48694640389C
:105A3000FCF787FB4B48012253498030FCF740FEBE
:105A4000FFF788FEC820FBF7ABFCFFF70FFA4548CD
:105A50008038FCF765FB4C4DDFF83081DFF830A172
:105A6000DFF830914C4EAD1E6868012869D0687827
:105A700020B398F8000028B100210520FFF724FD8D
:105A800088F80040307858B19AF8000040B1434897
:105A90000268434801681420FFF7B4FC8AF800400C
:105AA00099F8001051B1012189F80040084600F032
:105AB0002BFA3C4801686F20FFF706FD39463A484B
:105AC000FBF76FFD39480068FAF77CFD384A394B1F
:105AD0000DF1300C12681B680F928CE80B003648F1
