:020000040800F2
:10000000B00F00209D010008A72800089B240008CD
:10001000A5280008A10A0008DD3000080000000043
:10002000000000000000000000000000AD2A0008F1
:10003000A30A000800000000812A0008AF2A000877
:10004000B7010008B7010008B7010008B7010008B0
:10005000B7010008B7010008B7010008B7010008A0
:10006000B7010008B7010008B7010008B701000890
:10007000B7010008B7010008B7010008B701000880
:10008000B7010008B7010008B7010008B701000870
:10009000B7010008B7010008B7010008B90A000855
:1000A000B7010008512B0008B7010008B70100088C
:1000B000992B0008FD2B0008912C0008B7010008BF
:1000C000B7010008B7010008B7010008B701000830
:1000D000B7010008B7010008D1300008B7010008D7
:1000E000A50A0008B7010008B7010008B701000819
:1000F000B7010008B7010008B7010008B701000800
:10010000B7010008B7010008B7010008B7010008EF
:10011000B7010008B7010008B7010008B7010008DF
:10012000B7010008B7010008B7010008B7010008CF
:10013000B7010008B7010008B7010008B7010008BF
:10014000B7010008B7010008B7010008B7010008AF
:10015000B7010008B7010008B7010008B70100089F
:10016000B7010008B7010008B7010008B70100088F
:10017000B7010008B7010008B7010008000000003F
:10018000B7010008B7010008DFF80CD000F056FBFB
:1001900000480047BD3E0008B00F002006488047D9
:1001A00006480047FEE7FEE7FEE7FEE7FEE7FEE75C
:1001B000FEE7FEE7FEE7FEE7352B000889010008B1
:1001C0002DE9F05F0546002092469B46884606468C
:1001D000814640241BE0284641464746224600F01F
:1001E0005EFA53465A46C01A914110D3114618463A
:1001F000224600F045FA2D1A67EB01084F462246C9
:100200000120002100F03CFA17EB00094E41201EAE
:10021000A4F10104DFDC484631462A464346BDE8E6
:10022000F09FD2B201E000F8012B491EFBD27047CB
:100230000022F6E710B513460A4604461946FFF7B2
:10024000F0FF204610BD421C10F8011B0029FBD115
:10025000801A70472DE9FE4F804681EA0300C00FE7
:100260000C46009021F0004123F00045B8EB02005D
:10027000A94105D24046214690461C460B460246FF
:1002800023F00040104347D0270DC7F30A00C3F303
:100290000A510290401A019040286BDAC3F3130010
:1002A00040F4801B0098924620B10023D2EB030A51
:1002B00063EB0B0B01985946C0F14002504600F029
:1002C000DFF906460D4650465946019A00F0F7F907
:1002D00010EB08006141002487EA115284EAE773B9
:1002E0001A4340D0009A62B3019A012A4FEA07529A
:1002F00015DC001B61EB02014FF0004202EA0752DD
:10030000CDE90042001C41F5801132462B4600F039
:100310002EFA03B0BDE8F08F40462146F9E7001BF6
:1003200061EB0201001C41F5801300185B412018AD
:10033000A2F5001747EB030140EAD570B6196D41ED
:1003400011E06D084FEA360645EAC0754FEA0752DC
:10035000001B61EB0201001C41F5801149084FEAC6
:1003600030000019514132462B4603B0BDE8F04F32
:1003700000F0EEB90098012240000023D0EB020209
:1003800063EBE073009821464FEAE074B8EB00009D
:1003900061EB0401E9E783F000435BE781F0004192
:1003A00058E72DE9FE4F81EA030404F0004421F0F0
:1003B000004100944FF0000B23F0004350EA010489
:1003C0005ED052EA03045BD0C3F30A54C1F30A556A
:1003D0002C44A4F2F3340194A0FB0254C1F31301A2
:1003E00041F48011C3F3130343F4801301FB02446F
:1003F00000FB034E840A970A44EA815447EA835774
:10040000A4FB076802958D0A05FB07854FEA932C2C
:1004100004FB0C542705029D4FEA065847EA16379D
:10042000B5EB08056EEB070C870E920E47EA8117B5
:1004300042EA8312A7FB0201B6EB0B0164EB000456
:100440002B0D43EA0C335E1844EB1C50DA46514640
:10045000E7FB0201C5F313044FEA0B3343EA1453DD
:100460004FEA0432019C43EA0603A4F10C0402940F
:10047000009CCDE900B400F07AF903B0BDE8F08F3C
:1004800000200146F9E72DE9F04D81EA030404F06C
:10049000004B21F0004514464FF0000A23F00041C4
:1004A00050EA050220D054EA01021DD0C5F30A57D4
:1004B0000246C5F31303C1F31300C1F30A5640F417
:1004C000801543F48013A7EB0608101BD64608F2EC
:1004D000FD3873EB050002D308F1010801E0921822
:1004E0005B41B8F1000F03DA00200146BDE8F08D52
:1004F00000204FF48011064684460EE0171B73EB74
:10050000050705D3121B63EB050306434CEA010CF8
:1005100049084FEA300092185B4150EA0107EDD1DB
:1005200052EA030012D082EA040083EA050108437C
:1005300005D0101BAB4106D20122002306E00022A9
:100540004FF0004302E06FF0010253101AEB060077
:100550004CEB085110EB0A0041EB0B01BDE8F04DEC
:1005600000F0F6B80EB5C10F80EAE0700844CA0783
:10057000002140F233438DE80E000A460B4600F09E
:10058000F6F803B000BD70B5C1F30A5201F00045A2
:100590000024C1F3130140F2FF3341F480119A4269
:1005A00001DA002070BD40F233439A42A2F2334296
:1005B00003DC524200F073F800E090402C43F1D08D
:1005C000404270BD00F0004230F000400AD0C10D42
:1005D00001F56071C0F3160042EA0151C2084007FC
:1005E00011437047002001467047000030B5041EDB
:1005F00071F1000404DB4FF00044404264EB010160
:10060000141E73F1000405DB1C464FF000435242F8
:1006100063EB0403994208BF904230BD01F00043F0
:1006200030B421F0004150EA010206D00A0DA2F5D3
:100630006072C1F31301002A02DC30BC0020704755
:10064000440F44EAC104C100E01830BC00EBC250C2
:1006500000F047B830B50B460146002020220124A7
:1006600009E021FA02F59D4205D303FA02F5491B80
:1006700004FA02F52844151EA2F10102F1DC30BD96
:10068000202A04DB203A00FA02F100207047914052
:10069000C2F1200320FA03F3194390407047202A47
:1006A00004DB203A21FA02F00021704721FA02F31C
:1006B000D040C2F120029140084319467047202AD9
:1006C00006DBCB17203A41FA02F043EAE07306E07A
:1006D00041FA02F3D040C2F120029140084319468A
:1006E00070470029A8BF7047401C490008BF20F090
:1006F0000100704710B4B0FA80FC00FA0CF050EA28
:10070000010404BF10BC704749B1CCF1200421FAA8
:1007100004F411FA0CF118BF012121430843A3EBA3
:100720000C01CB1D4FEA00614FEA102042BF0020B0
:1007300010BC704700EBC35010440029A4BF10BC8C
:100740007047401C490008BF20F0010010BC7047F2
:1007500010B5141E73F1000408DA401C41F10001C9
:1007600092185B411A4301D120F0010010BD2DE920
:10077000F04D92469B4611B1B1FA81F202E0B0FA17
:1007800080F220329046FFF77BFF04460F4640EA96
:100790000A0041EA0B0153465A46084313D011465A
:1007A00053EA010019D0C8F140025046FFF777FF25
:1007B00005460E46504659464246FFF761FF08433C
:1007C00005D0012004E020463946BDE8F08D002028
:1007D000054346EAE0762C4337430A986305E40A6A
:1007E000A0EB08000022FD0A44EA47540A3002D573
:1007F00000200146E9E7010510196941DDE90845D6
:1008000000196941BDE8F04DA2E7C1F30A52C1F3F6
:10081000130140F2FF3341F480119A4202DA0020C2
:100820000146704740F233439A42A2F2334202DC5F
:100830005242FFF734BFFFF723BF0000064C074DBD
:1008400006E0E06840F0010394E8070098471034A0
:10085000AC42F6D3FFF79CFCC0490008E049000811
:1008600070B58C1810F8015B15F0070301D110F872
:10087000013B2A1106D110F8012B03E010F8016B9F
:1008800001F8016B5B1EF9D12B0705D40023521E22
:100890000DD401F8013BFAE710F8013BCB1A921C8A
:1008A00003E013F8015B01F8015B521EF9D5A14288
:1008B000D8D3002070BD00007FB500241D49054637
:1008C000009401940294039419480C6108600C761A
:1008D00081F820400126CE611748CC608862084626
:1008E00000F09FF908B100F0F1F82D1F082D09D292
:1008F000DFE805F0040613081517191B042000E0B3
:1009000005200090CDE9016469460A4800F0E0F84E
:10091000002801D000F0DAF87FBD0620F1E70820BA
:10092000EFE70920EDE70A20EBE70B20E9E70000FD
:1009300000220140AC0100200100000F464910B523
:100940004A6822F440324A604A6843681A434A605F
:1009500001684A6822F480724A6001684A68036943
:1009600042EA03224A6001684A6822F040724A6003
:1009700001684A6883681A434A6001688A6822F4F9
:1009800000628A6001688A68C3681A438A60816A63
:100990006FF07062D14201688A6822F070628A60EA
:1009A00001688A680CD0836A1A438A6001688A6881
:1009B00022F040528A6001688A68C36A1A4301E0E3
:1009C00022F040528A6001688A6822F002028A603E
:1009D00001688A68037E42EA43028A6090F8201028
:1009E000002901684A680FD042F400624A60016839
:1009F0004A6822F460424A6001684A68174C436AB8
:100A000004EB43331A4301E022F400624A600168B8
:100A1000CA6A22F47002CA620168CA6A838B104CE7
:100A200004EB03531A43CA6201688A6822F4007215
:100A30008A6001688A6890F8303042EA43228A600E
:100A400001688A6822F480628A6001688A68406965
:100A500042EA8020886010BD0023014000E0FFFFD3
:100A60000000F0FF10B50024FFF726FF0B4800F050
:100A70000DFA0A490220C861084600F0D2F807487A
:100A800000F08EF94FF4FA71044800F037F918B904
:100A9000024800F0C3F80446204610BDAC01002017
:100AA000FEE7704703480168491C01604FF480600D
:100AB00000F096BA180000200349002048604FF467
:100AC000007000F08DBA0000280000207047000080
:100AD00078B50024009490F83C20012A19D0012216
:100AE00080F83C200A6807230568092A13D9EE68B4
:100AF0000A3A02EB420293409E43EE600B788A680A
:100B00000A3B03EB43039A400368DD682A43DA603B
:100B100010E0022078BD2E6902EB420293409E4312
:100B20002E610B788A6803EB43039A4003681D69C2
:100B30002A431A614A681F23072A13D205686E6B7D
:100B4000521E02EB820293409E436E630B790A8829
:100B50005B1E92B203EB83039A4003685D6B2A43EA
:100B60005A6327E005680D2A12D22E6BD21F02EBC2
:100B7000820293409E432E630B790A88DB1F92B258
:100B800003EB83039A4003681D6B2A431A6311E049
:100B9000EE6A0D3A02EB820293409E43EE620B79BD
:100BA0000A880D3B92B203EB83039A400368DD6A27
:100BB0002A43DA62164B0568144A9D4206D10D6835
:100BC000122D03D1556845F48005556005689D4296
:100BD00018D10B68102B01D0112B13D1536843F49B
:100BE00000035360096810290CD10A490A4A0968B0
:100BF000B1FBF2F101EB8101490000E0491E0091D7
:100C00000029FBD180F83C40002078BD0023014042
:100C100000200140A801002040420F000068C06C85
:100C2000704770B504004FF0000503D0206C00261B
:100C300010B107E0012070BD204600F01DF8666489
:100C400084F83C60206CC00610D4206C20F48850DE
:100C500040F0020020642046FFF770FE6664206CBE
:100C600020F0020040F00100206400E0012584F83B
:100C70003C60284670BD000030B587B004461421A2
:100C80006846FFF7D5FA1949206888422BD11848E1
:100C90000025016841F480610160006800F4806013
:100CA000059013481438016841F020010160016883
:100CB00001F020010591016841F004010160006824
:100CC000032400F0040005904FF4B9608DE8310072
:100CD0006946084800F090F9009469460648CDE955
:100CE000014500F089F907B030BD00000022014045
:100CF0004438024000140240000802402DE9F0414F
:100D0000044600680D4681684FF0000749050BD581
:100D10008068C00508D5206C40F02000206484F86D
:100D20003C700120BDE8F08100F054FA06460FE067
:100D3000681C0DD025B100F04DFA801BA84207D9E0
:100D4000206C40F00400206484F83C700320E9E744
:100D5000206800688007EBD521686FF012000860FA
:100D6000206C40F4007020642068816811F0405FBE
:100D700013D1217E89B9C16A11F4700F02D0806845
:100D800040050AD4206C20F480702064206CC004DC
:100D900003D4206C40F0010020640020C2E7000072
:100DA00018B50021009190F83C20012A07D00122BB
:100DB00080F83C2002689368DB0702D011E0022033
:100DC00018BD936843F0010393602A4A2A4B1268C6
:100DD000B2FBF3F202EB420200E0521E0092002A44
:100DE000FBD102689368DB0741D0036C40F20164D9
:100DF000A34343F48073036453685B0505D5036C18
:100E000023F4005343F480530364036CDB0404D5E0
:100E1000436C23F00603436400E0416480F83C1017
:100E200016496FF02203136049680068CA06144926
:100E300006D088421BD1816811F0405F13D016E0C4
:100E40008842F8D00F4A904203D1D1F80423D20649
:100E5000F1D00D4A90420AD1D1F8041301F01F01DC
:100E60001029E8D303E0816841F0804181600020CF
:100E700018BD0000A801002040420F0000230140DF
:100E800000200140002101400022014090F83C1068
:100E900001290CD0012180F83C1001688A6822F0F9
:100EA00001028A6001688968C90702D007E0022050
:100EB0007047016C21F4885141F001010164002167
:100EC00080F83C100846704770B54379012B1AD062
:100ED000012646710223037105682C6840F6FE73F3
:100EE00093409C43D1E900310B43934023432B6053
:100EF00001680B68C0249440A3430B600671002175
:100F00004171084670BD022070BD70B5040003D069
:100F10002079002510B105E0012070BD65712046E3
:100F200000F008F8022020712561012020710020C6
:100F300070BD000010B586B0044614216846FFF766
:100F400077F91149206888421CD1104800210268B5
:100F500042F000520260006800F0005005900B481B
:100F60001038026842F001020260006800F00100DF
:100F70000590102000900320CDE901016946044846
:100F800000F03AF806B010BD00740040403802404E
:100F90000000024090F83510022903D080214165FD
:100FA00001207047052180F835100068016821F0A4
:100FB000010101600020704770B5044600F00AF995
:100FC0000546601C02D004480078044400F002F991
:100FD000401BA042FAD370BD9C0100207047000066
:100FE000044910B50A68024202D00860FFF7F6FF14
:100FF00010BD0000143C01402DE9F84F00224FF0D5
:10100000010803254FF00F0E0B6808FA02F4234085
:10101000A3426ED14E68012E05D0022E03D0112EB0
:1010200001D0122E12D186684FEA420C05FA0CF755
:10103000BE43CF6807FA0CF7374387604668A6437C
:101040000C79C4F30014944034434460C6685700DC
:1010500005FA07FC8C6826EA0C06BC403443C460E1
:101060004C68022C01D0122C13D1D40800EB84045C
:10107000A346D4F8209054074FEAD46A0EFA0AF631
:1010800029EA06090E6906FA0AF646EA0906CBF8C5
:10109000206006680C7926EA0C0604F00304BC40C4
:1010A000344304604C68E40065D5364C266846F449
:1010B00080462660246822F0030604F480440094ED
:1010C000314C3444A446D4F808489607370F0EFA3A
:1010D00007F6B4432D4EB04201D1002624E02C4E39
:1010E000B04201D101261FE02A4EB04202D10226B1
:1010F0001AE040E0284EB04201D1032614E0274E0A
:10110000B04201D104260FE0254EB04201D10526A0
:101110000AE0244EB04201D1062605E0224EB0423C
:1011200001D1072600E00826BE402643CCF8086817
:101130001E4E34684F689C43FF0300D51C43346047
:101140001A4C241D26684F689E43BF0300D51E43DA
:101150002660164E083634684F689C43FF0200D55F
:101160001C433460114E0C3634684F689C43BF02F8
:1011700000D51C433460521C102AFFF445AFBDE873
:10118000F88F000044380240003001400000024067
:101190000004024000080240000C0240001002401F
:1011A0000014024000180240001C0240003C0140B4
:1011B0000069084000D001207047426931EA02020C
:1011C00000D10904816170470AB181617047090447
:1011D000FBE7000001488068704700009C01002088
:1011E00070B5040025D094F83D00002520B984F89E
:1011F0003C50204600F0B8F8242084F83D002068D8
:10120000016821F0010101602068016841F400419A
:1012100001602068016821F40041016000F02CFAAF
:101220004D4A6168914201D84C4900E04C498842DE
:1012300001D2012070BD4B492368B0FBF1F15E681B
:1012400026F03F060E435E606368934206D94FF472
:10125000967359434FF47A73B1FBF3F12368491C39
:101260001E6A26F03F06314319626168914210D828
:101270004900401EB0FBF1F2521CC2F30B02042ADB
:1012800001D2042022E0B0FBF1F0401CC0F30B00BF
:101290001CE0A268F2B301EBC10303EB0116431E8D
:1012A000B3FBF6F35B1C43F480431B0549D092B3B8
:1012B00001EBC10202EB0111401EB0FBF1F0401C3A
:1012C000C0F30B0040F4804040F400402168CA693C
:1012D0004CF6FF739A431043C861D4E907100143E9
:1012E0002068026822F0C00211430160D4E90301C2
:1012F00001432068826848F2FF339A4311438160BA
:10130000D4E9050108432168CA6822F0FF021043AE
:10131000C86001E00EE016E02068016841F00101BC
:1013200001602564202084F83D00256384F83E5048
:10133000002070BD01EB4106431EB3FBF6F35B1CBE
:10134000B3E70120C2E701EB4101401EB0FBF1F021
:10135000401CC0F30B00B7E7A086010080841E008C
:1013600000093D0040420F00F0B587B0044614214B
:101370006846FEF75DFF2668214C204F2048122268
:101380000123032104251034BE4219D1066846F01A
:10139000020606600068CDE9023100F00200059007
:1013A0005001CDE90002049569461648FFF724FE76
:1013B000206840F400102060206800F4001019E05C
:1013C000114FBE4217D1066846F02006066000683D
:1013D00000F0200005908DE80E00CDE90315694668
:1013E0000A48FFF709FE206840F48000206020686A
:1013F00000F48000059007B0F0BD000000540040EC
:1014000030380240000402400058004000140240FE
:101410000248816802781144816070479C01002075
:101420000B4810B5016841F400710160016841F496
:1014300080610160016841F480710160032000F067
:101440006FF8002000F006F800F024F8002010BD2E
:10145000003C024070B50D4D04464FF47A71287877
:10146000B1FBF0F00A490968B1FBF0F000F09AFB1B
:1014700048B9102C07D200222146501E00F030F847
:1014800000206C6070BD012070BD00009C01002038
:10149000A80100200A4808B5016841F480410160B4
:1014A000006800F4804000900548001F016841F08A
:1014B00080510160006800F08050009008BD00007D
:1014C00044380240002809DB00F01F02012191404E
:1014D0004009800000F1E020C0F8001170470000D2
:1014E000F0B40E4B1B680C46C3F30223C3F107058F
:1014F000042D00D90425191D072901D2002300E07D
:10150000DB1E012606FA05F1491E214099409E4046
:10151000761E16403143F0BC01F0F6BD0CED00E044
:10152000064900F0070208684FF6FF03184040EA3A
:101530000220034A10430860704700000CED00E0F1
:101540000000FA052DE9F0470E46050065D0DFF8EA
:101550001481D8F80000F7B200F00F00B04207D2B3
:1015600088F80070D8F8000000F00F00B04254D1A5
:1015700028683D4C810712D5400703D5206840F408
:10158000E05020602878000703D5206840F46040D0
:1015900020602068A96820F0F000084320602878C7
:1015A000C0072DD0304968680839012812D00228B8
:1015B00013D0032811D00968890700292DDA216882
:1015C00021F0030101432160FFF704FE814641F24F
:1015D000883A0EE009688903EFE709688901ECE7BA
:1015E000FFF7F8FDA0EB0901514502D90320BDE842
:1015F000F0872068696800F00C00B0EB810FEFD134
:10160000D8F80010404601F00F01B14207D9077029
:10161000006800F00F00B04201D00120E7E7287811
:10162000400705D52068E96820F4E05008432060B1
:101630002878000706D52068296920F4604040EA30
:10164000C100206000F038F82168084AC1F3031196
:10165000515CC8400649086006480068FFF7FAFE7A
:101660000020C4E7003C024008380240044900085A
:10167000A8010020A001002004480549006809686D
:10168000044AC1F38221515CC8407047A801002080
:1016900008380240144900080448054900680968F0
:1016A000044AC1F34231515CC8407047A801002090
:1016B0000838024014490008154810B5006810F0B9
:1016C0000C02144813D04110042A0FD0082A0ED15E
:1016D0000F4C241F2268236802F03F025B0207D5EB
:1016E0002068C0F38810A0FB010106E0084610BD89
:1016F0002168C1F38811A1FB00010023FEF760FD02
:101700002168C1F30141491C4900B0FBF1F010BD53
:10171000083802400024F4002DE9F84F04006ED090
:101720002078DFF83C93C007A9F104054AD009F1FD
:1017300004000168C1F38101012908D00068C0F3E9
:10174000810002280AD1D9F80000400206D5286895
:10175000800337D560680028E1D033E06068B0F5D9
:10176000803F10D0B0F5A02F286810D020F4803032
:101770002860286820F4802028606068A8B1FFF7FE
:1017800029FD06460DE0286840F48030F4E740F477
:1017900080202860F7E700BFFFF71CFD801B64284E
:1017A00073D828688003F7D50CE0FFF713FD0646D1
:1017B00005E000BFFFF70EFD801B6428F0D8286805
:1017C0008003F7D42078DFF89C8280074FF0000A6E
:1017D0003ED5A348001D016811F00C0F08D0006829
:1017E000C0F3810002280BD1D9F80000400207D4D1
:1017F0002868800716D5E068012800D112E02BE1A7
:10180000E068B8B10120C8F80000FFF7E3FC064625
:1018100005E000BFFFF7DEFC801B0228C0D8286867
:101820008007F7D52868216920F0F80040EAC10058
:1018300028600DE0C8F800A0FFF7CCFC064604E0E5
:10184000FFF7C8FC801B02281FD828688007F7D440
:101850002078000722D5824E83486169703671B1C5
:1018600001210160FFF7B6FC074604E0FFF7B2FC78
:10187000C01B022809D830688007F7D50EE0C0F8F1
:1018800000A0FFF7A7FC074605E082E0FFF7A2FCF7
:10189000C01B02287DD830688007F7D42078400725
:1018A00068D5DFF8BCB100270BF13C0BDBF800007A
:1018B000C0000BD4DBF8001041F08051CBF80010D1
:1018C000DBF80000012700F080500090674E306880
:1018D000C00510D4306840F480703060FFF77AFCA7
:1018E000009005E0FFF776FC0099401A022850D8D6
:1018F0003068C005F6D55A4EA0686C3601280FD066
:101900000528306810D020F001003060306820F0E9
:1019100004003060A068B8B1FFF75CFC00900FE0F5
:10192000306840F00100F4E740F004003060F7E771
:10193000FFF750FC0099411A41F28830814266D885
:1019400030688007F4D50EE0FFF744FC009007E014
:10195000FFF740FC0099411A41F28830814256D885
:1019600030688007F4D42FB1DBF8001021F08051EB
:10197000CBF80010A069C8B33949091D0968C1F343
:10198000810102294AD00228504607D0C8F86000D9
:1019900000E03CE0FFF71EFC04463BE04746C8F889
:1019A0006000FFF717FC064605E000BFFFF712FCDA
:1019B000801B02282BD828688001F7D4D4E90701BE
:1019C0000843A16A2A4A490802EB0141626A41EAD6
:1019D0008211084394F82C1040EA0161C9F8001004
:1019E00001203866FFF7F6FB044606E036E000BF4C
:1019F000FFF7F0FB001B022809D828688001F7D503
:101A00002CE000BFFFF7E6FB001B022802D90320F1
:101A1000BDE8F88F28688001F4D41FE00128F7D0D2
:101A2000D9F80000E26900F48001914214D1226AE1
:101A300000F03F0191420FD147F6C071626A014048
:101A4000914209D1A26A00F44031914204D1E16A85
:101A500000F07060884201D00120D9E70020D7E76C
:101A60000438024000004742800E474200700040A8
:101A70000000FFFF70B5040005D00025A56294F8B2
:101A8000510010B106E0012070BD84F8505020468E
:101A900000F030F8022084F851002068016821F03D
:101AA00040010160D4E901010843D4E90312114364
:101AB000084361690843218B01F400710843E1691F
:101AC0000843216A0843A16A084321680860A069A5
:101AD000042101EA1040616A0843216848602068D7
:101AE000C16921F40061C1616565012084F851007C
:101AF000002070BD70B586B0044614216846FEF71C
:101B000097FB234E22680021224802230324052547
:101B1000B2421AD11F4A1432166846F48056166033
:101B2000126802F480520592026842F001020260DB
:101B3000006802AA00F00100059082E83200E0206F
:101B4000CDE90003694614481DE0144EB2421CD191
:101B5000104A1032166846F480461660126802F485
:101B600080420592026842F002020260006802AA06
:101B700000F00200059082E832004FF47040CDE999
:101B8000000369460648FFF737FA06B070BD00004B
:101B90000030014030380240000002400038004070
:101BA0000004024010B5401EB0F1807F01D3012037
:101BB00010BD4FF0E02460610F21601701F0A4FA1E
:101BC0000020A06107202061002010BD70477047F1
:101BD00070B590F83C20012A32D0012480F83C40B6
:101BE000022280F83D2003685A689D6822F0700642
:101BF0000A6832435A60134B02689A4214D0B2F119
:101C0000804F11D0104B9A420ED0104B9A420BD0FD
:101C10000F4B9A4208D00F4B9A4205D00E4B9A4276
:101C200002D00E4B9A4204D1496825F08003194333
:101C3000916080F83D40002180F83C10084670BD5E
:101C4000022070BD00000140000400400008004078
:101C5000000C00400004014000400140001800401A
:101C600010B5040003D094F83D0010B107E0012046
:101C700010BD002084F83C00204600F00DF8022042
:101C800084F83D00211D206801F030F8012084F81F
:101C90003D00002010BD000008B5016827488142C2
:101CA0000FD12748016841F001010160006800225E
:101CB00000F00100009011461920FFF711FC1920D7
:101CC00036E01F48001FB1F1804F11D01D4A9142EC
:101CD0001DD1016841F0020101600068002200F09E
:101CE0000200009011461D20FFF7FAFB1D201FE0A7
:101CF000016841F0010101600068002200F001006C
:101D0000009011461C20FFF7EBFB1C2010E00E4A50
:101D1000914211D1016841F0040101600068002284
:101D200000F00400009011461E20FFF7D9FB1E2092
:101D3000BDE80840FFF7C6BB08BD00000000014039
:101D40004438024000040040000800400168CA68AE
:101D500042F00102CA600068816801F007010629AB
:101D600003D0016841F0010101600020704770B5A7
:101D7000044690F83C00012817D0012584F83C5017
:101D8000022084F83D002068826822F0770222F465
:101D90007F4282600868502830D00DDC20284DD06A
:101DA00005DC98B310283BD148E0022070BD3028F4
:101DB00044D0402834D139E0602828D0702806D09B
:101DC000B0F5805F2CD0B0F5005F29D10AE0CB6878
:101DD000D1E90121206800F0EDFF2068816841F021
:101DE000770109E0CB68D1E90121206800F0E2FF2A
:101DF0002068816841F48041816011E0CA684968C7
:101E0000206800F0E9FF5021206807E016E0CA686A
:101E10004968206800F0F1FF6021206800F0D4FFDD
:101E200084F83D50002084F83C0070BDCA684968C1
:101E3000206800F0D1FF40212068EFE722680146CA
:101E40001046EBE7704770B50446006801694FF033
:101E50000005C943890715D4C168C943890711D44E
:101E6000E91E0161012020772068806980072046F3
:101E700002D0FFF7E7FF04E000F098F8204600F0FA
:101E800096F8257720680169C943490717D4C168C6
:101E9000C943490713D46FF0040101610220207780
:101EA0002068806910F4407F204602D0FFF7CAFF07
:101EB00004E000F07BF8204600F079F825772068F0
:101EC0000169C943090716D4C168C943090712D477
:101ED0006FF008010161042020772068C069800745
:101EE000204602D0FFF7AEFF04E000F05FF8204686
:101EF00000F05DF8257720680169C943C90617D449
:101F0000C168C943C90613D46FF0100101610820EC
:101F100020772068C06910F4407F204602D0FFF788
:101F200091FF04E000F042F8204600F040F82577E9
:101F300020680169C943C90708D1C168C943C907F5
:101F400004D1891E0161204600F032F82068016941
:101F5000C943090609D4C168C943090605D46FF00D
:101F6000800101612046FFF731FE20680169C94305
:101F7000490609D4C168C943490605D46FF0400138
:101F80000161204600F015F820680169C9438906FF
:101F90000BD4C168C943890607D46FF020010161E1
:101FA0002046BDE87040FFF712BE70BD7047704715
:101FB000704770477047000070B5026804461068AB
:101FC000D168536910F00F0F52D003F0010501F4EE
:101FD00090762E435FD0C20705D0CA0503D5E26BC9
:101FE00042F00102E263420705D5DA0703D0E26B53
:101FF00042F00202E263820705D5DA0703D0E26B02
:1020000042F00402E263020707D501F020022A43EE
:1020100003D0E26B42F00802E263E26B002A33D0A5
:10202000800604D5880602D5204600F00EFF206801
:102030004069E16BC0F38010090700D428B3204643
:1020400000F0F5FE2068416949061AD5416921F082
:1020500040014161606BA0B11B490165606BFEF7F7
:1020600099FF002810D0606B016DBDE870400847F3
:10207000830610D58B060ED52046BDE8704000F0D3
:10208000E4BE2046FFF796FF70BD2046FFF792FFA3
:102090000020E06370BD030606D50B0604D520467C
:1020A000BDE8704000F0B0BF4006F3D54806F1D55A
:1020B000D168204621F04001D160202184F83910F8
:1020C00000F0EAF970BD00001F2E000870B5040092
:1020D00004D094F83900002510B106E0012070BD4D
:1020E00084F83850204600F023F8242084F8390082
:1020F0002068C16821F40051C160204600F0F0FE64
:102100002068016921F4904101612068416921F052
:102110002A0141612068C16841F40051C160E56352
:10212000202084F8390084F83A00002070BD0000B7
:102130002DE9F04786B0044614216846FEF778F88A
:102140006249614F23680024604A10390325022642
:102150005F484FF00809BB4217D1136843F40023CE
:102160001360126802F4002205920A6842F001022C
:102170000A60096802AB01F001010591CDE9005642
:10218000012183E82202694637E0DFF84881DFF861
:102190003CC10727DFF840A10CF1040C434531D1C5
:1021A000DCF8002042F01002CCF80020DCF800201F
:1021B00002F0100205920A6842F001020A600A6801
:1021C00002F0010205920A6842F002020A60096800
:1021D00002AA01F0020105914FF40071CDE9001649
:1021E00082E8B0006946FEF707FF8020CDE90006CF
:1021F00002AA694682E8B0005046FEF7FDFE06B02E
:10220000BDE8F087DFF8D480434521D1136843F45B
:1022100000331360126802F4003205920A6842F03B
:1022200001020A60096802AB01F0010105910C216D
:10223000CDE9001683E8B0006946FEF7DDFE002216
:1022400011462620FFF74CF92620FFF73BF9D6E789
:102250002348834219D1106840F480201060106830
:1022600000F480200590086840F0020008600868CB
:1022700002AB00F0020005904FF44060CDE900068B
:1022800083E8B00069465046B7E716488342B6D1A6
:10229000DCF8000040F02000CCF80000DCF8000082
:1022A00000F020000590086840F00400086008680D
:1022B00002AA00F004000590C020CDE9000682E8E3
:1022C00030026946084898E7004C00404038024018
:1022D00000000240001001400004024000440040A1
:1022E00000480040001401400008024090F83A30D5
:1022F000202B22D1F9B1F2B190F83830012B1CD04B
:1023000081628285C2850021C163222280F83A2041
:1023100080F838100168CA6842F48072CA600168A7
:102320004A6942F001024A610068C16841F0200137
:10233000C1600020704701207047022070470000F4
:1023400000681449884223D11348144A81684378AD
:102350005354491C8160B1F5FA7F02DD0021816090
:102360000CE000290ADD114411F8022CFF2A05D1E6
:1023700011F8011C0A2901D10121416000780028CF
:1023800006D0054905480122491CC038FFF7AEBFF9
:1023900070470000004400401C000020A005002001
:1023A0002DE9F843044690F839001F4616460D46BD
:1023B000202850D1B5B1AEB194F8380001284AD0E8
:1023C000012084F838004FF00008C4F83C80212038
:1023D00084F83900FEF7FEFEA6848146E68484F880
:1023E000388026E00120BDE8F883E08C401EE084C0
:1023F000A0684B46B0F5805F4FF000024FF08001BF
:102400002046009703D000F030FEE8B90DE000F060
:102410002CFEC8B928882168C0F3080048602069EC
:1024200008B16D1C05E0AD1C03E0216815F8010B37
:102430004860E08C0028D8D14B460022402120463D
:10244000009700F012FE08B10320CCE7202084F8AA
:1024500039000020C7E70220C5E790F83930202B6B
:1024600018D1A9B1A2B190F83830012B12D0016275
:102470008284C2840021C163212280F8392080F83F
:1024800038100068C16841F08001C16000207047C9
:1024900001207047022070477047FEE77FB5002497
:1024A00012480094019402940F49039401604FF480
:1024B0004031C0E901140461047680F820400C49E1
:1024C000C0E90A140125C561C46080F83040456147
:1024D000FEF7A7FB0420CDE90005694602940348F6
:1024E000FEF7F6FA7FBD000000220140AC0100209B
:1024F0000100000F2DE9F04F87B014216846FDF769
:1025000097FE72480024016841F0100101600168E3
:1025100001F010010591016841F02001016001689E
:1025200001F020010591016841F00401016001689A
:1025300001F004010591016841F0010101600168A9
:1025400001F001010591016841F00201016001689B
:1025500001F002010591016841F008010160016884
:1025600001F008010591016841F040010160006837
:10257000DFF85C9100F0400048F6F035059000224D
:1025800029464846FEF720FEDFF848A10022202118
:102590005046FEF719FEDFF840B14FF460560022B6
:1025A00031465846FEF710FE4FF44C47002239469C
:1025B0004A48FEF709FE002247F2FC114848FEF7A0
:1025C00003FE4FF48078002241464648FEF7FCFDAA
:1025D00000950125CDE90154694648460394FEF76C
:1025E0000BFD1020CDE90004694650460294FEF729
:1025F00003FD20200090CDE9015469465046039424
:10260000FEF7FAFC0096CDE901546946584603945A
:10261000FEF7F2FC0097CDE9015469462F48039478
:10262000FEF7EAFC41F2FC100090CDE90154694646
:102630002B480394FEF7E0FCCDF80080CDE901546F
:10264000694628480394FEF7D7FC680200902648A4
:10265000CDE9010469462248FEF7CEFCA8020090AD
:102660002248CDE9010469461D48FEF7C5FCE80291
:10267000CDE9000469461A480294FEF7BDFC6803E0
:10268000CDE900050320CDE9025069461448FEF764
:10269000B3FCA803CDE90005CDE902546946104812
:1026A000FEF7AAFC002211461720FEF719FF17209B
:1026B000FEF708FF002211462820FEF711FF282010
:1026C000FEF700FF07B0BDE8F08F00003038024091
:1026D000001002400008024000140240000C0240BA
:1026E00000180240000002400000211000001110FC
:1026F0000B480A494FF4007201604FF48271416047
:1027000000218160C1600161C0E90512C1610162FF
:10271000416281620A21C162FFF7ACB90030014019
:10272000B00200200A48094901604FF482714160FB
:1027300000218160C160016141618161C16101620B
:10274000416281620A21C162FFF794B900380040FA
:102750000803002010B586B00024124800940194AC
:102760000294039404940E4905940160F021C0E999
:1027700001146421C0E9031444618461FFF770FA15
:102780004FF48050009069460648FFF7F0FA202089
:10279000CDE9040404A90348FFF71AFA06B010BDF6
:1027A000000001406003002010B586B000241248EC
:1027B000009401940294039404944FF08041059492
:1027C00001604FF49651C0E901146421C0E903147B
:1027D0008461FFF745FA4FF480500090694606483F
:1027E000FFF7C5FA2020CDE9040404A90248FFF749
:1027F000EFF906B010BD0000A003002010B586B0B0
:1028000000241248009401940294039404940E4905
:10281000059401604FF49651C0E901146421C0E9A8
:1028200003148461FFF71CFA4FF48050009069464E
:102830000648FFF79CFA2020CDE9040404A90348C8
:10284000FFF7C6F906B010BD00040040E003002009
:1028500010B586B0002412480094019402940394A9
:1028600004940E49059401604FF4E151C0E901144C
:102870000A21C0E903148461FFF7F2F94FF4805094
:10288000009069460648FFF772FA2020CDE904045B
:1028900004A90348FFF79CF906B010BD00080040EA
:1028A00020040020FEE770472DE9F04F5D4841F21B
:1028B00070712DED048B81B0642200685A4C91FB3D
:1028C000F0F05A4960600968414391FBF2F5401B02
:1028D000C4E90250009056480068FDF743FE9FEDA2
:1028E000551B53EC112BFDF75CFDFDF797FE00EE39
:1028F000100ADFF8489184ED080A514FD9F800100A
:1029000000290FDB386800280CDB81420ADD081A39
:1029100000EE900AF8EEE00A80EE801AFDEEC10AA1
:10292000C4ED000A00EE905A4648F8EEE00A30EE98
:10293000C00ABDEEC00A84ED040A0068FDF712FE6D
:102940009FED418B53EC182BFDF79DFD9FED409BB8
:1029500053EC192BFDF725FDFDF715FEE0613E4810
:1029600000688346FDF7FEFD53EC182BFDF78BFD49
:1029700053EC192BFDF715FDFDF705FE374906460B
:102980000860374800688246FDF7ECFD53EC182BD1
:10299000FDF779FD53EC192BFDF703FDFDF7F3FD72
:1029A000024630483049DFF8C8800260D1F800C0E4
:1029B0002E490A23BCF1010F09680CD0BCF1000FAD
:1029C0001ED1616151452ADBA369A3EB0A01914243
:1029D0001BDD511A1AE027485945006860610DDC7B
:1029E000A0EB0B011D48B14201DD016801E0711A45
:1029F00001602148C9F8001005600CE0C9F80030FA
:102A000001B0BDEC048BBDE8F08F0021016039609E
:102A10001A49009808602068C8F80000F0E73B6099
:102A2000EEE70000A000002078010020A4000020B4
:102A30009C0000209A9999999999C93F4C000020CF
:102A400050000020B40000200000000000804B4037
:102A50000000000000005940940000207001002098
:102A60009800002074010020600000206C0000200D
:102A70005400002068000020580000205C00002066
:102A80007047000005494FF4FA7008600449086077
:102A900004490C2008600449086070475800002071
:102AA0005C0000204C000020500000207047FEF722
:102AB000AFBC000030B593B030216846FDF7B8FBDD
:102AC00014210CA8FDF7B4FB18480025016841F05B
:102AD00080510160006800F0805011901448016836
:102AE00041F4804101600068022400F480401190AC
:102AF0000120039010200490009406940820CDE952
:102B000007504820CDE9090403200B906846FEF7E2
:102B100003FE0CA90F2081E83100E0020F90109015
:102B200002210CA8FEF70EFD13B030BD4038024064
:102B3000007000400548016841F4700101600349DC
:102B40004FF00060803908607047000088ED00E0B9
:102B50000D4910B50868401C0860642801D10020A8
:102B60000860024609484FF40061036808489A4229
:102B700001DA012200E00022FEF726FBBDE810404A
:102B80000448FFF760B9000028000020040000207E
:102B90000010024060030020124810B58168491CF3
:102BA00081600A2909D110494FF416730A685A4303
:102BB0000E4B1A6000220A6082604168491C416025
:102BC000B1F5967F08D14FF400710948FEF7F0FA8D
:102BD00010B1084901200870BDE810400648FFF711
:102BE00032B90000280000201800002064000020F6
:102BF0000018024070000020A00300202DE9F041E1
:102C00001C4C1D491D4D60690026401C606109680F
:102C10002A681B4F1144814209DA1A486661012172
:102C20000068E060082001F0F5F801203860606974
:102C30002968884207D1144800210068E060082014
:102C400001F0E8F83E60E068002801DB01F04AFC92
:102C50006069642190FBF1F201FB120008B10021D0
:102C600000E00121062001F0D5F8BDE8F041074859
:102C7000FFF7E9B828000020580000205C00002081
:102C8000600000204C00002050000020E0030020E5
:102C9000114A10B51069401C1061322811D10F483B
:102CA000002111610078012810D0022809D00328E2
:102CB0000FD0042805D0052803D009480160094831
:102CC0000160BDE810400848FFF7BDB8FFF7DAFE25
:102CD000F7E7FFF7E9FDF4E7280000207100002086
:102CE0004C0000205000002020040020F0B50268B5
:102CF000254C264D264E274F274B4FF0804CA042A7
:102D000009D0604507D0A84205D0B04203D0B842F0
:102D100001D0984204D122F0700E4A6842EA0E02B5
:102D2000A0421BD0604519D0A84217D0B04215D0A0
:102D3000B84213D0984211D0184DA8420ED0184D69
:102D4000A8420BD0174DA84208D0174DA84205D075
:102D5000164DA84202D0164DA84203D122F4407568
:102D6000CA682A434D6922F080022A4302608A68B9
:102D7000C2620A688262A04201D0984201D1096908
:102D8000016301214161F0BD0000014000040040E9
:102D900000080040000C00400004014000400140D9
:102DA000004401400048014000180040001C004061
:102DB0000020004010B5846842EA032224F47F44D6
:102DC0000A432243826010BD826822F070020A43E7
:102DD00042F007018160704710B5036A046A24F06D
:102DE00001040462846924F0F00444EA021423F02C
:102DF0000A020A438461026210BD10B5036A23F01F
:102E0000100303628369046A23F4704343EA0232C5
:102E100024F0A00343EA01118261016210BD10B5E4
:102E2000806B0021C185C184FFF7C4F810BD016823
:102E3000CA6822F49072CA6001684A6922F00102ED
:102E40004A61202180F83A10704710B590F83A1086
:102E5000222901D0022010BD8168B1F5805F11D018
:102E60000169002901681FD0496801F07F03816A68
:102E70004A1C82620B70C18D491E0904090CC18570
:102E800018D02BE00269816A002A0268526805D0D6
:102E9000D2B20A80816A491C8162ECE7C2F308025F
:102EA0000A80816A891CF7E74A68816A4B1C836241
:102EB0000A70E0E70168CA6822F02002CA6001686F
:102EC000CA6822F48072CA6001684A6922F001026D
:102ED0004A61202180F83A10FFF732FA002010BD35
:102EE0002DE9F041044600680169E26821F440518F
:102EF000114301612169A068E269084361691143D6
:102F000008432168CA6849F20C639A430243CA60C5
:102F100020684169A26921F4407111434161E0696F
:102F2000192764253226B0F5004F354A3549206807
:102F30004FF0000806D0884201D0904236D1FEF70B
:102F4000ABFB35E0884201D0904202D1FEF7A4FBF2
:102F500001E0FEF791FB61684A18A0FB070148EB0E
:102F60000803FDF72DF90146B0FBF5F00201B1FBB6
:102F7000F5F06FF01803584301EB800006EBC0003A
:102F8000B0FBF5F000F0F80002EB4002B1FBF5F009
:102F9000584301EB800006EBC000B0FBF5F000F0F9
:102FA0000700216810448860BDE8F081FEF764FBEB
:102FB00061688B0F8A00A0FB0701FDF701F901464C
:102FC000B0FBF5F06FF01802504301EB800006EB08
:102FD0000010B0FBF5F000F0F002B1FBF5F002EBF1
:102FE0000012B1FBF5F06FF01803584301EB8000BD
:102FF00006EB0010B0FBF5F000F00F00D1E7000089
:10300000001401400010014090F83910212901D02E
:10301000022070478168B1F5805F016A0BD04A1CBD
:103020000262026809785160C18C491E0904090CCA
:10303000C1840ED017E009880268C1F3080151600D
:1030400001690029016A02D0491C0162ECE7891C70
:10305000FBE70168CA6822F08002CA600068C168A4
:1030600041F04001C160002070472DE9F0419846D1
:1030700017460E460446069D1DE0681C1BD02DB168
:10308000FEF7A8F8A0EB0800A84214D92068C16890
:1030900021F4D071C1602068416921F001014161D2
:1030A000202084F8390084F83A00002084F83800A1
:1030B0000320BDE8F0812068006836EA000004D0F3
:1030C0000020B842D9D00020F3E70120F9E7000042
:1030D0000148FEF771BF0000E0040020FEE7000099
:1030E0000FB4084B10B504A902AA039800F0EEF83B
:1030F000044602A9002000F080FC204610BC5DF8C8
:1031000014FB0000FB3900080907090E002804DB46
:1031100000F1E02080F80014704700F00F0000F18B
:10312000E02080F8141D704702E008C8121F08C193
:10313000002AFAD170477047002001E001C1121F38
:10314000002AFBD1704700002DE9FF5F82B000210B
:10315000DDE90430020DDDF840B0034318D044F639
:103160001050A2F2FF3242431514119801281FD0CB
:10317000A5EB0B00401C5FEA000A4FF000064E4F23
:10318000DFF83891B046504615D5CAF1000413E077
:10319000119801244AA3012801D16FEA0B0102987A
:1031A000119AC0E90031C0E9024206B0BDE8F09FC3
:1031B000CBF10000DFE704460021404A491842EB0A
:1031C0000450CDE9001012E0E00707D032463B463C
:1031D00040464946FDF7E5F88046894632463B467B
:1031E00010461946FDF7DDF806460F466410002C20
:1031F000EAD1DDE90401DDE90023BAF1000F06DAC6
:10320000FDF7CFF842464B46FDF7CBF805E0FDF75A
:103210003AF942464B46FDF736F904460E4600227F
:10322000284BFDF7E3F903D84FF0FF30014607E0E4
:103230000022254B20463146FDF70CF8FDF7E5FA54
:10324000102409E0002C0ADB0A220023FCF7B8FF57
:10325000039B30321A55641E50EA0102F2D1641CFD
:10326000039AC4F111031444119A012A03D00122D4
:1032700008430DD10AE0084304D000204FF0110BA1
:10328000119072E7A3EB0B056D1E0DE05B4504DDAD
:103290004FF0000205F1010504E003DA4FF00002EF
:1032A000A5F10105002AECD002981199C0E902317C
:1032B000C0E9004579E70000000014400000F03F3D
:1032C000300000000000F0430000E03F2DE9FF4F18
:1032D00095B09B468946064600250FE2252877D102
:1032E00000242746F84A0121059400E0044316F81B
:1032F000013F203B01FA03F01042F7D130782A2831
:1033000011D06FF02F033078A0F13002092A16D8BF
:10331000059A44F0020402EB820203EB42021044DD
:10332000761C0590EFE759F8042B0592002A03DA82
:10333000504244F40054059044F00204761C307866
:103340002E2816D116F8010F44F004042A280DD0B7
:103350006FF02F023078A0F13003092B09D807EB6A
:10336000870302EB4303C718761CF3E759F8047B85
:10337000761C30786C280FD006DC4C2817D06828D3
:103380000DD06A2814D104E0742810D07A280FD107
:103390000DE044F400140AE044F4801401E044F425
:1033A00040147278824202D104F58014761C761C97
:1033B000307866280BD013DC582877D009DC002839
:1033C00075D04528F6D04628F4D047281AD19DE17B
:1033D00018E0632835D0642879D0652812D195E1AA
:1033E000702873D008DC6728F1D069286FD06E2868
:1033F0000DD06F2806D1B5E073282CD0752875D074
:10340000782874D05A46179990476D1C75E1C4F31B
:103410000250022809D003280DD0D9F80010042842
:103420000DD00D6009F1040967E1D9F80010EA1721
:10343000C1E90052F6E7D9F800100D80F2E70D70EF
:10344000F0E719F8041B8DF8001000208DF801003A
:10345000EA46012003E059F804AB4FF0FF30610762
:103460004FF0000102D40DE008F101018846B94295
:103470000FDA8045F8DB1AF808100029F4D108E0CB
:1034800008F1010188468142FADB1AF80810002988
:10349000F6D105985B46A0EB080721463846179AF7
:1034A00000F094FA284400EB080507E04DE029E11C
:1034B0000DE01AF8010B5A4617999047B8F1010828
:1034C000F7D25B4621463846179A13E142E00A22BA
:1034D0000092C4F302524FF0000A022A08D059F8B1
:1034E00004CB032A4FEAEC710AD00DE029E02AE070
:1034F00009F1070121F00702F2E802C1914609E053
:103500000FFA8CFC4FEAEC71042A03D14FFA8CFCC1
:103510004FEAEC71002907DA0A460021DCF1000CC1
:1035200061EB02012D2202E0220504D52B228DF849
:103530000420012203E0E20701D02022F7E79046B1
:1035400059E00A2102E010220DE010214FF0000A9C
:1035500000910BE010224FF0000A44F00404082709
:10356000009203E008224FF0000A0092C4F30252D6
:10357000022A05D059F804CB0021032A08D009E01B
:1035800009F1070121F00702F2E802C1914605E0C6
:103590001FFA8CFC042A01D10CF0FF0C4FF000083C
:1035A000220728D5702806D0009B83F0100353EA29
:1035B0000A0305D00EE040228DF80420012208E025
:1035C0005CEA010206D030228DF804208DF8050057
:1035D00002229046009B83F0080353EA0A030AD1B3
:1035E0005CEA010201D1620705D530228DF8042082
:1035F0004FF001087F1E582804D034A003900EA875
:1036000002900DE036A0F9E753466046009AFCF7B9
:10361000D7FD84460398825C0298401E0290027097
:103620005CEA0100F0D1029806A9081A00F1200A0C
:10363000600702D524F4803400E00127574502DDFD
:10364000A7EB0A0000E0002000EB0A0100900598BB
:103650004144401A0590E00306D45B462146179A80
:10366000059800F0B3F90544002706E001A85A4682
:10367000C05D179990476D1C7F1C4745F6DBE00342
:103680000CD55B462146179A059800F09FF9054432
:1036900004E030205A46179990476D1C0099481E47
:1036A00000900029F5DC08E0029802995A4600785B
:1036B000491C0291179990476D1CBAF10001AAF1BB
:1036C000010AF1DC65E100000928010030313233E4
:1036D000343536373839616263646566000000004E
:1036E0003031323334353637383941424344454638
:1036F0000000000000F058F90544761C30780028DE
:103700007FF4ECAD19B02846BDE8F08F620700D415
:10371000062709F1070222F0070CFCE80223E14624
:1037200003F000485FEA080C02D00FF2702C0DE0A5
:103730005FEA045C02D50FF2682C07E05FEAC47C04
:1037400002D00FF2602C01E0AFF2700C4FF0FF38A6
:1037500023F00043CDF850C065280CD006DC452886
:1037600009D046281DD047283DD13DE0662818D015
:1037700067287ED138E00021112F01DB112000E005
:10378000781CCDE9000106A90EA8FFF7DDFCDDE9F4
:103790000F010E9A03910021009207F1010A049192
:1037A0004DE04FF000400097CDE9011006A90EA8AA
:1037B000FFF7CAFCDDE90F0203920E9B119900226C
:1037C000DDF80CA00093049211B9791C00EB010AFA
:1037D000B7EB0A0004D4C0F1FF3007F1010A0490EE
:1037E000AAEB0700019044E0012F00DA0127002135
:1037F000112F01DD112000E03846CDE9000106A9B6
:103800000EA8FFF7A1FCDDE90F010E9A039100213C
:1038100004910092BA4621070CD40399514500DA6D
:103820008A46BAF1010F05DD009AAAF10101515C47
:10383000302908D0B84202DA10F1040F06DA01216B
:10384000CDE9011015E0AAF10101E9E7002805DC46
:10385000049901440491AAEB000102E0411C514586
:1038600000DD8A460499401A401C01904FF0004048
:103870000290200704D40198504501DBCDF8048064
:1038800000208DF84F0002980DF14F07B0F1004F66
:1038900025D02B200E9002984FF0020800280CDA59
:1038A000404202902D200E9007E00A210298FCF77A
:1038B000D1FE3031029007F8011DB8F10001A8F1E6
:1038C0000108F2DC02980028EFD1791E0E980870EA
:1038D000307800F0200040F0450007F8020D12A8F3
:1038E000C01B00F107081498007800B1012000EB1C
:1038F0000A01019801EBE07105984144401A401E0D
:103900000590E00306D45B462146179A059800F01F
:103910005DF805441498007818B15A4617999047F5
:103920006D1CE00324D55B462146179A059800F0EC
:103930004DF805441CE00498002807DBDDE903018D
:10394000884203DD0098405C179901E01799302008
:103950005A469047049805F10105401C04900198CF
:10396000401E019004D12E205A46179990476D1C95
:10397000BAF10001AAF1010ADDDC05E017F8010B3C
:103980005A46179990476D1CB8F10001A8F101083B
:10399000F4DC5B462146179A0598ABE62D00000043
:1039A0002B000000200000002DE9F0410446002516
:1039B0001E461746880404D405E039462020B04747
:1039C0006D1C641EF9D52846BDE8F0812DE9F04153
:1039D000044600251E469046C80301D5302700E066
:1039E0002027880404D505E041463846B0476D1CC1
:1039F000641EF9D52846BDE8F0810A68531C0B60A7
:103A0000107070470B480C4A017911600B4A4179DC
:103A100011600B4A817911600A4AC17911600A4A22
:103A2000017A1160817A407A01EB00100749086041
:103A300070470000A0050020400100204401002044
:103A4000480100204C0100205001002054010020BA
:103A500019481A4A0A2301791160194A41791160FB
:103A6000184A81791160184AC1791160174A017AA0
:103A70001160174A417A1160164A817A1160027BFF
:103A8000C17A92FBF3F2114400EE101A1249134A64
:103A9000B8EEC00A81ED000A417B1160C17B827BD8
:103AA00001EB02110E4A1160417C007C01EB001019
:103AB0000C49086070470000A0050020BC000020F1
:103AC000C0000020C4000020C8000020CC0000205E
:103AD000D0000020D4000020E4000020D800002006
:103AE000DC000020E000002030B503464FF6FF70F8
:103AF0000022074C09E09D5C4540EDB2521C34F8B1
:103B00002550D2B285EA102080B28A42F3D330BD6C
:103B1000044500082DE9FF410446DDE90B500A9EEB
:103B2000FE278DF8007007278DF804208DF80170AE
:103B30008DF805308DF802408DF806608DF8031081
:103B40008DF807508DF8080004709DF8031041703F
:103B50009DF8041081709DF80510C1709DF8061045
:103B600001719DF8071041719DF8081081710721BE
:103B7000FFF7BAFFFF21FF2803D800228DF80920A4
:103B800007E0B0FBF1F28DF80920B0FBF1F201FB88
:103B900012008DF80A000A208DF80B108DF80C0029
:103BA0000D21684600F022FCBDE8FF811CB5FE2215
:103BB0008DF8002002228DF801208DF802008DF88A
:103BC000031000709DF8031041701146FFF78CFF41
:103BD000FF21FF2803D800228DF8042007E0B0FB66
:103BE000F1F28DF80420B0FBF1F201FB12008DF828
:103BF00005008DF806100A208DF807000821684698
:103C000000F0F4FB1CBD7047FEB55C4C4FF4FA7538
:103C10006178A94265DC2078FE2862D1080060D076
:103C200060180279FF2A5CD142790A2A59D1C278F8
:103C3000807802EB002086B2002004F5FA7203E0DF
:103C400023189B781354401C8842F9DB4C48FFF73B
:103C50004BFFB04245D1A1784A4A00206E291FD0BF
:103C6000494B4A4E4A4FDFF82CC181B3042944D056
:103C700001294BD0022951D0032932D1E078012803
:103C80006ED0022872D0032874D0042829D100F005
:103C9000C9FB0421032003B0BDE8F040FFF786BF55
:103CA00010703F4C3C493D4B25783E4C0A781B78C0
:103CB0003D4E42EA030124782943367821433143BB
:103CC00006D0CDE9005401216E20029607E009E0FC
:103CD00000230090019002901A4619466E20FFF7CB
:103CE00019FFFEBD012010701D600C20356038608A
:103CF0000021CCF800000846CDE710701D6035604B
:103D000038600021CCF800000420C4E70021012025
:103D1000FFF74CFFBDE8FE40FFF775BFE0780128D4
:103D20000BD002280FD0032814D00428D9D10520A5
:103D3000107000F09DFB04210AE00220107000F0DA
:103D400025FB012104E00320107000F073FA02212A
:103D50000220A0E704201070FFF77AFE0321F7E7A6
:103D600000F0E8FA012195E700E003E000F036FA00
:103D700002218FE7FFF746FE03218BE7A005002015
:103D80009407002071000020580000205C000020F3
:103D90004C0000205000002044000020450000207E
:103DA00046000020470000204800002070B5002099
:103DB00000F098FB1348FDF7C9FF1348FDF7C6FF55
:103DC0001248FDF7C3FF124C012251032046FDF7B4
:103DD000FBF90122950329462046FDF7F5F91E203F
:103DE000FDF7EAF8002229462046FDF7EDF91E20EE
:103DF000FDF7E2F829462046BDE870400122FDF7B4
:103E0000E3B9000060030020A0030020E0030020CD
:103E100000180240F0B40A464FF48041254C4D0092
:103E2000254B8E11012A08D00A2841D2DFE800F084
:103E30004026282B2E3134373A3D0A2838D2DFE885
:103E400000F03705070B0D131517191B012201E0B0
:103E5000012216E0204604E0012215E0012216E0CE
:103E60001846F0BCFDF7B0B9012213E0012214E0BE
:103E7000012215E0012216E0012217E00022E9E705
:103E800000222946E6E700220421E9E70022082172
:103E9000E6E700221021E3E700222021E0E70022EC
:103EA0004021DDE700228021DAE700223146D7E712
:103EB000F0BC7047000C0240001802402DED028B50
:103EC0008CB0FDF7ADFAFEF7F5FDFEF713FBFEF73C
:103ED000E5FA0024A3490094A1480194086008462B
:103EE000FDF713F80094002269469E480194FCF700
:103EF000EBFFFEF7FDFBFEF715FC9C489A494FF4DB
:103F000016560160C0E901640C25C460C0E904458F
:103F10008461C461FEF7DAF8944895494030016045
:103F2000C0E90164C460C0E904458461C461FEF76E
:103F3000CDF88E488F49803001604FF4E131C0E9FF
:103F40000114C460C0E904458461C461FEF7BEF891
:103F500086488949C0300160C0E90164C460C0E995
:103F600004458461C461FEF7B1F885488349016066
:103F7000C0E90164C460C0E904458461C461FEF71E
:103F8000A5F878487F4914307F4D0160C0E901549D
:103F90000E14C0E9034644618461C4610462FDF704
:103FA0001FF97048794968300160C0E90154C0E9DF
:103FB000034644618461C4610462FDF711F9FEF7B0
:103FC000C9FBFEF7F1FBFEF719FCFEF741FC674861
:103FD00001226F498030FEF789F99FED6E8AFFF765
:103FE000E5FE62484038FDF7B1FE6B4C207828B101
:103FF00000210520FFF7DAFD00202070012000F0ED
:1040000053F9BDEEC00A012010EE10AA00F04CF9E1
:10401000BDEEC00A012010EE109A00F045F9BDEE89
:10402000C00A012010EE10BA00F03EF9BDEEC00A41
:10403000012010EE106A00F037F9BDEEC00A012031
:1040400010EE108A00F030F9BDEEC00A012010EE2B
:10405000101A009100F028F9BDEEC00A012010EE00
:10406000107A00F021F9BDEEC00A012010EE105ABE
:1040700000F01AF9BDEEC00A012010EE104A00F05F
:1040800013F90AEB090202EB0B018A19BDEEC00A13
:1040900000994244114410EE100A39442944214445
:1040A00001440A2091FBF0F0002806DC3B4880ED3B
:1040B000008A3B4880ED008A0DE000EE100A374987
:1040C000B8EEC00A81ED000A00EE100A3448B8EEDE
:1040D000C00A80ED000A31480068FCF773FA314AE3
:1040E0000DF1080C1468304A1368304A1568304ADC
:1040F0001268CDE907252F4ACDE9093413682E4A05
:1041000014782E4A126806938CE817002C48016830
:104110002C480068CDE900012B482D4903682B4845
:1041200002682C48FEF7DCFF2A48FCF78CF80146B1
:10413000284800F0F5F84FF4FA70FCF73DFF144CF6
:10414000641E606801287FF450AF002504212248D6
:104150006560FDF732F8FFF757FDA56045E7000001
:1041600000740040F4010020004C00406004002076
:10417000001001400044004000480040001401408D
:104180006005002000540040A08601000058004057
:104190001D000020000000007000002068000020CA
:1041A0006C00002054000020A000002074010020BA
:1041B00070010020600000207100002064000020D9
:1041C000500000204C0000205C000020580000201F
:1041D0001C4900087C0B0020001802400E480F4AC2
:1041E000017911600E4A417911600E4A817911609E
:1041F000017AC27901EB02110B4A1160817A427A8D
:1042000001EB0211094A1160017BC07A01EB001039
:104210000749086070470000A00500202801002021
:104220002C01002030010020340100203801002042
:104230003C0100201148124A01791160114A41796C
:104240001160114A81791160104AC1791160104AD8
:10425000017A11600F4A417A11600F4A817A116028
:104260000E4AC17A11600E4A017B1160817B407B4E
:1042700001EB00100B49086070470000A00500200A
:1042800094000020980000209C000020A000002046
:10429000A4000020A8000020AC000020B0000020F6
:1042A000B4000020B800002010B5164C012805D03D
:1042B000022805D0032822D0206805E0082000E06D
:1042C0000620FCF7CFFB2060FCF74CF99FED0E1B9E
:1042D00053EC112BFCF765F89FED0D1B53EC112BE4
:1042E000FCF759F89FED0C1B53EC112BFCF759F818
:1042F000FCF794F900EE100A84ED020A10BD0A20C2
:10430000DFE7000000000020465B9544F641663F71
:10431000666666666666DA3F0000000000002440BC
:104320008AB201464FF47A730148FEF739B80000AB
:10433000A00400200E480F4A017911600E4A41790D
:1043400011600E4A81791160017AC27901EB021184
:104350000B4A1160817A427A01EB0211094A11601D
:10436000017BC07A01EB001007490860704700002C
:10437000A0050020100100201401002018010020D9
:104380001C01002020010020240100200E480F4ABB
:10439000017911600E4A417911600E4A81791160EC
:1043A0000D4AC17911600D4A017A11600C4A417AB7
:1043B00011600C4A817A1160C17A007B0A4AFF2998
:1043C00000D1404210607047A0050020740000201A
:1043D000780000207C000020800000208400002065
:1043E000880000208C000020900000202DE9F04182
:1043F00007460A4E00200D463070044608E0391981
:1044000001220748FEF729F80A20FCF7D5FD641CB5
:10441000AC42F4DB01203070BDE8F0811C000020CC
:10442000E00400200B480C4A017911600B4A4179E5
:1044300011600B4A817911600A4AC17911600A4AF8
:10444000017A1160817A407A01EB00100749086017
:1044500070470000A0050020580100205C010020EA
:104460006001002064010020680100206C01002030
:104470001148124A41791160114A81791160114A3B
:10448000C1791160104A017A1160104A417A1160B5
:104490000F4A817A11600F4AC17A11600E4A017B7E
:1044A00011600E4A417B1160C17B807B01EB0010E3
:1044B0000B49086070470000A0050020E8000020BC
:1044C000EC000020F0000020F4000020F8000020A4
:1044D000FC00002000010020040100200801002051
:1044E0000C0100200549064A4B6812681A448242B2
:1044F00001DD486070474A607047000000000020FE
:104500004000002000000000C1C0000081C1000088
:104510004001000001C30000C00300008002000051
:1045200041C2000001C60000C00600008007000074
:1045300041C7000000050000C1C5000081C40000A3
:104540004004000001CC0000C00C0000800D000001
:1045500041CD0000000F0000C1CF000081CE00005F
:10456000400E0000000A0000C1CA000081CB00001C
:10457000400B000001C90000C009000080080000D5
:1045800041C8000001D80000C018000080190000D8
:1045900041D90000001B0000C1DB000081DA0000EF
:1045A000401A0000001E0000C1DE000081DF000094
:1045B000401F000001DD0000C01D0000801C000045
:1045C00041DC000000140000C1D4000081D50000CF
:1045D0004015000001D70000C01700008016000041
:1045E00041D6000001D20000C0120000801300007C
:1045F00041D3000000110000C1D1000081D00000B3
:104600004010000001F00000C030000080310000C8
:1046100041F1000000330000C1F3000081F200000E
:104620004032000000360000C1F6000081F70000B3
:104630004037000001F50000C03500008034000064
:1046400041F40000003C0000C1FC000081FD0000BE
:10465000403D000001FF0000C03F0000803E000020
:1046600041FE000001FA0000C03A0000803B00005B
:1046700041FB000000390000C1F9000081F8000092
:104680004038000000280000C1E8000081E9000077
:104690004029000001EB0000C02B0000802A000030
:1046A00041EA000001EE0000C02E0000802F000053
:1046B00041EF0000002D0000C1ED000081EC000082
:1046C000402C000001E40000C02400008025000010
:1046D00041E5000000270000C1E7000081E600007E
:1046E0004026000000220000C1E2000081E300003B
:1046F0004023000001E10000C021000080200000F4
:1047000041E0000001A00000C060000080610000E6
:1047100041A1000000630000C1A3000081A20000CD
:104720004062000000660000C1A6000081A70000F2
:104730004067000001A50000C06500008064000023
:1047400041A40000006C0000C1AC000081AD00007D
:10475000406D000001AF0000C06F0000806E0000DF
:1047600041AE000001AA0000C06A0000806B00009A
:1047700041AB000000690000C1A9000081A8000051
:104780004068000000780000C1B8000081B9000056
:104790004079000001BB0000C07B0000807A00006F
:1047A00041BA000001BE0000C07E0000807F000012
:1047B00041BF0000007D0000C1BD000081BC0000C1
:1047C000407C000001B40000C0740000807500004F
:1047D00041B5000000770000C1B7000081B60000BD
:1047E0004076000000720000C1B2000081B30000FA
:1047F0004073000001B10000C07100008070000033
:1048000041B0000000500000C19000008191000004
:104810004051000001930000C0530000805200008E
:104820004192000001960000C05600008057000031
:104830004197000000550000C195000081940000E0
:1048400040540000019C0000C05C0000805D00003E
:10485000419D0000005F0000C19F0000819E00009C
:10486000405E0000005A0000C19A0000819B0000D9
:10487000405B000001990000C05900008058000012
:104880004198000001880000C048000080490000F5
:1048900041890000004B0000C18B0000818A0000AC
:1048A000404A0000004E0000C18E0000818F0000D1
:1048B000404F0000018D0000C04D0000804C000002
:1048C000418C000000440000C1840000818500008C
:1048D0004045000001870000C047000080460000FE
:1048E0004186000001820000C042000080430000B9
:1048F0004183000000410000C18100008180000070
:10490000404000000000000000000000010203041D
:104910000607080900000000010203040C2064756A
:10492000726174696F6E5F686967683D2564202CE9
:10493000206475726174696F6E5F6C6F773D25647A
:10494000202C20747572626F5F73706565645F6898
:104950006967683D2564202C20747572626F5F73EF
:10496000706565645F6C6F773D2564202C20503145
:104970003D2566202020256420204D4D3D256420C6
:104980002D20693D256420202C2070776D5F693DC6
:10499000256420202C2070776D2D653D2564202C0A
:1049A000205043565F524154453D2564202C2072CF
:1049B000616973655F737465703D25640000000074
:1049C000E049000800000020AC0100006008000879
:1049D000004A0008AC010020040E00003831000835
:1049E0004102170A0223010A1564141AF43D29042E
:1049F00009224401F4022364320182101324F400DA
:040000050800018965
:00000001FF
