:020000040800F2
:10000000E00B00209D010008272800083324000889
:1000100025280008B9080008C534000800000000C1
:10002000000000000000000000000000E52F0008B4
:10003000BB0800080000000029280008E72F00087E
:10004000B7010008B7010008B7010008B7010008B0
:10005000B7010008B7010008B7010008B7010008A0
:10006000B7010008B7010008B7010008B701000890
:10007000B7010008B7010008B7010008B701000880
:10008000B7010008B7010008B7010008B701000870
:10009000B7010008B7010008B7010008B701000860
:1000A000B70100088D300008B7010008B70100084B
:1000B000B7010008B7010008B7010008B701000840
:1000C000B7010008B7010008B7010008B701000830
:1000D000B7010008B7010008B9340008B7010008EB
:1000E000B7010008B7010008B7010008B701000810
:1000F000B7010008B7010008B7010008B701000800
:10010000B7010008B7010008B7010008B7010008EF
:10011000B7010008B7010008B7010008B7010008DF
:10012000B7010008B7010008B7010008B7010008CF
:10013000B7010008B7010008B7010008B7010008BF
:10014000B7010008B7010008B7010008B7010008AF
:10015000B7010008B7010008B7010008B70100089F
:10016000B7010008B7010008B7010008B70100088F
:10017000B7010008B7010008B7010008000000003F
:10018000B7010008B7010008DFF80CD000F062FAF0
:10019000004800476D440008E00B002006488047F7
:1001A00006480047FEE7FEE7FEE7FEE7FEE7FEE75C
:1001B000FEE7FEE7FEE7FEE7713000088901000870
:1001C0002DE9F05F0546002092469B46884606468C
:1001D000814640241BE0284641464746224600F01F
:1001E00071F853465A46C01A914110D31146184629
:1001F000224600F058F82D1A67EB01084F462246B8
:100200000120002100F04FF817EB00094E41201E9D
:10021000A4F10104DFDC484631462A464346BDE8E6
:10022000F09FD2B201E000F8012B491EFBD27047CB
:100230000022F6E710B513460A4604461946FFF7B2
:10024000F0FF204610BD421C10F8011B0029FBD115
:10025000801A704700F0004230F000400AD0C10D13
:1002600001F56071C0F3160042EA0151C20840076F
:100270001143704700200146704730B50B460146D8
:1002800000202022012409E021FA02F59D4205D335
:1002900003FA02F5491B04FA02F52844151EA2F1DF
:1002A0000102F1DC30BD202A04DB203A00FA02F121
:1002B000002070479140C2F1200320FA03F3194354
:1002C00090407047202A04DB203A21FA02F00021F6
:1002D000704721FA02F3D040C2F120029140084356
:1002E000194670472DE9FE4F804681EA0300C00F92
:1002F0000C46009021F0004123F00045B8EB0200CD
:10030000A94105D24046214690461C460B4602466E
:1003100023F00040104347D0270DC7F30A00C3F372
:100320000A510290401A019040286BDAC3F313007F
:1003300040F4801B0098924620B10023D2EB030AC0
:1003400063EB0B0B01985946C0F140025046FFF792
:10035000AAFF06460D4650465946019A00F08CF910
:1003600010EB08006141002487EA115284EAE77328
:100370001A4340D0009A62B3019A012A4FEA075209
:1003800015DC001B61EB02014FF0004202EA07524C
:10039000CDE90042001C41F5801132462B4600F0A9
:1003A0008CF903B0BDE8F08F40462146F9E7001B09
:1003B00061EB0201001C41F5801300185B4120181D
:1003C000A2F5001747EB030140EAD570B6196D415D
:1003D00011E06D084FEA360645EAC0754FEA07524C
:1003E000001B61EB0201001C41F5801149084FEA36
:1003F00030000019514132462B4603B0BDE8F04FA2
:1004000000F04CB90098012240000023D0EB02021A
:1004100063EBE073009821464FEAE074B8EB00000C
:1004200061EB0401E9E783F000435BE781F0004101
:1004300058E72DE9FE4F81EA030404F0004421F05F
:10044000004100944FF0000B23F0004350EA0104F8
:100450005ED052EA03045BD0C3F30A54C1F30A55D9
:100460002C44A4F2F3340194A0FB0254C1F3130111
:1004700041F48011C3F3130343F4801301FB0244DE
:1004800000FB034E840A970A44EA815447EA8357E3
:10049000A4FB076802958D0A05FB07854FEA932C9C
:1004A00004FB0C542705029D4FEA065847EA16370D
:1004B000B5EB08056EEB070C870E920E47EA811725
:1004C00042EA8312A7FB0201B6EB0B0164EB0004C6
:1004D0002B0D43EA0C335E1844EB1C50DA465146B0
:1004E000E7FB0201C5F313044FEA0B3343EA14534D
:1004F0004FEA0432019C43EA0603A4F10C0402947F
:10050000009CCDE900B400F0D8F803B0BDE8F08F4E
:1005100000200146F9E72DE9F04D81EA030404F0DB
:10052000004B21F0004514464FF0000A23F0004133
:1005300050EA050220D054EA01021DD0C5F30A5743
:100540000246C5F31303C1F31300C1F30A5640F486
:10055000801543F48013A7EB0608101BD64608F25B
:10056000FD3873EB050002D308F1010801E0921891
:100570005B41B8F1000F03DA00200146BDE8F08DC1
:1005800000204FF48011064684460EE0171B73EBE3
:10059000050705D3121B63EB050306434CEA010C68
:1005A00049084FEA300092185B4150EA0107EDD14B
:1005B00052EA030012D082EA040083EA05010843EC
:1005C00005D0101BAB4106D20122002306E0002219
:1005D0004FF0004302E06FF0010253101AEB0600E7
:1005E0004CEB085110EB0A0041EB0B01BDE8F04D5C
:1005F00000F054B8C1F30A52C1F3130140F2FF33C3
:1006000041F480119A4202DA00200146704740F21C
:1006100033439A42A2F2334202DC5242FFF752BE07
:10062000FFF741BE30B5041E71F1000404DB4FF04A
:100630000044404264EB0101141E73F1000405DB29
:100640001C464FF00043524263EB0403994208BF3B
:10065000904230BD064C074D06E0E06840F00103D3
:1006600094E8070098471034AC42F6D3FFF790FDAA
:100670004C5200086C520008202A06DBCB17203AA7
:1006800041FA02F043EAE07306E041FA02F3D04097
:10069000C2F12002914008431946704710B5141E5C
:1006A00073F1000408DA401C41F1000192185B412B
:1006B0001A4301D120F0010010BD2DE9F04D924602
:1006C0009B4611B1B1FA81F202E0B0FA80F2203219
:1006D0009046FFF7E8FD04460F4640EA0A0041EA6B
:1006E0000B0153465A46084313D0114653EA010002
:1006F00019D0C8F140025046FFF7E4FD05460E460A
:10070000504659464246FFF7CEFD084305D001202A
:1007100004E020463946BDE8F08D0020054346EA56
:10072000E0762C4337430A986305E40AA0EB0800FF
:100730000022FD0A44EA47540A3002D5002001464F
:10074000E9E7010510196941DDE90845001969412A
:10075000BDE8F04DA2E730B58C1810F8012B12F06F
:100760000F0301D110F8013B120906D110F8012B3B
:1007700003E010F8015B01F8015B5B1EF9D101E0B9
:1007800001F8013B521EFBD1A142E6D3002030BD4F
:10079000464910B54A6822F440324A604A684368C4
:1007A0001A434A6001684A6822F480724A6001680C
:1007B0004A68036942EA03224A6001684A6822F0F3
:1007C00040724A6001684A6883681A434A60016857
:1007D0008A6822F400628A6001688A68C3681A43E2
:1007E0008A60816A6FF07062D14201688A6822F083
:1007F00070628A6001688A680CD0836A1A438A60D2
:1008000001688A6822F040528A6001688A68C36A77
:100810001A4301E022F040528A6001688A6822F09F
:1008200002028A6001688A68037E42EA43028A60A3
:1008300090F82010002901684A680FD042F4006245
:100840004A6001684A6822F460424A6001684A6866
:10085000174C436A04EB43331A4301E022F400626D
:100860004A600168CA6A22F47002CA620168CA6AF0
:10087000838B104C04EB03531A43CA6201688A68E5
:1008800022F400728A6001688A6890F8303042EA87
:1008900043228A6001688A6822F480628A60016863
:1008A0008A68406942EA8020886010BD00230140C8
:1008B00000E0FFFF0000F0FFFEE7704778B500247E
:1008C000009490F83C20012A19D0012280F83C20A5
:1008D0000A6807230568092A13D9EE680A3A02EB69
:1008E000420293409E43EE600B788A680A3B03EB1A
:1008F00043039A400368DD682A43DA6010E002206F
:1009000078BD2E6902EB420293409E432E610B7824
:100910008A6803EB43039A4003681D692A431A61FE
:100920004A681F23072A13D205686E6B521E02EB1A
:10093000820293409E436E630B790A885B1E92B2DB
:1009400003EB83039A4003685D6B2A435A6327E0F5
:1009500005680D2A12D22E6BD21F02EB8202934041
:100960009E432E630B790A88DB1F92B203EB83034D
:100970009A4003681D6B2A431A6311E0EE6A0D3A30
:1009800002EB820293409E43EE620B790A880D3B94
:1009900092B203EB83039A400368DD6A2A43DA626A
:1009A000164B0568144A9D4206D10D68122D03D1DD
:1009B000556845F48005556005689D4218D10B685F
:1009C000102B01D0112B13D1536843F40003536053
:1009D000096810290CD10A490A4A0968B1FBF2F1E9
:1009E00001EB8101490000E0491E00910029FBD183
:1009F00080F83C40002078BD0023014000200140E9
:100A00002C01002040420F0070B504004FF000059B
:100A100003D0206C002610B107E0012070BD2046F5
:100A200000F01CF8666484F83C60206CC00610D4AA
:100A3000206C20F4885040F0020020642046FFF72C
:100A4000A7FE6664206C20F0020040F001002064E4
:100A500000E0012584F83C60284670BD30B587B0C1
:100A6000044614216846FFF7E3FB194920688842D1
:100A70002BD118480025016841F4806101600068AD
:100A800000F48060059013481438016841F020019B
:100A90000160016801F020010591016841F0040145
:100AA00001600068032400F0040005904FF4B96071
:100AB0008DE831006946084800F09CF800946946CA
:100AC0000648CDE9014500F095F807B030BD0000BB
:100AD0000022014044380240001402400008024055
:100AE00070B54379012B1AD0012646710223037198
:100AF00005682C6840F6FE7393409C43D1E90031B1
:100B00000B43934023432B6001680B68C02494403F
:100B1000A3430B60067100214171084670BD02209D
:100B200070BD70B5040003D02079002510B105E038
:100B3000012070BD6571204600F008F80220207188
:100B4000256101202071002070BD000010B586B025
:100B5000044614216846FFF76BFB11492068884260
:100B60001CD110480021026842F000520260006867
:100B700000F0005005900B481038026842F0010266
:100B80000260006800F00100059010200090032032
:100B9000CDE901016946044800F02CF806B010BD0B
:100BA00000740040403802400000024090F83510C8
:100BB000022903D08021416501207047052180F87A
:100BC00035100068016821F00101016000207047C4
:100BD00070B5044600F0F6F80546601C02D00448E3
:100BE0000078044400F0EEF8401BA042FAD370BD38
:100BF000200100202DE9F84F00224FF001080325C5
:100C00004FF00F0E0B6808FA02F42340A3426ED196
:100C10004E68012E05D0022E03D0112E01D0122EC7
:100C200012D186684FEA420C05FA0CF7BE43CF6832
:100C300007FA0CF7374387604668A6430C79C4F37C
:100C40000014944034434460C668570005FA07FC1A
:100C50008C6826EA0C06BC403443C4604C68022C05
:100C600001D0122C13D1D40800EB8404A346D4F88D
:100C7000209054074FEAD46A0EFA0AF629EA0609C8
:100C80000E6906FA0AF646EA0906CBF820600668FD
:100C90000C7926EA0C0604F00304BC4034430460DB
:100CA0004C68E40065D5364C266846F480462660DC
:100CB000246822F0030604F480440094314C344448
:100CC000A446D4F808489607370F0EFA07F6B4433F
:100CD0002D4EB04201D1002624E02C4EB04201D16D
:100CE00001261FE02A4EB04202D102261AE040E05F
:100CF000284EB04201D1032614E0274EB04201D164
:100D000004260FE0254EB04201D105260AE0244E0C
:100D1000B04201D1062605E0224EB04201D107269D
:100D200000E00826BE402643CCF808681E4E346812
:100D30004F689C43FF0300D51C4334601A4C241DAC
:100D400026684F689E43BF0300D51E432660164E9B
:100D5000083634684F689C43FF0200D51C4334605A
:100D6000114E0C3634684F689C43BF0200D51C43BB
:100D70003460521C102AFFF445AFBDE8F88F000024
:100D800044380240003001400000024000040240AC
:100D900000080240000C0240001002400014024013
:100DA00000180240001C0240003C0140426931EA48
:100DB000020200D10904816170470AB18161704764
:100DC0000904FBE70148806870470000200100200B
:100DD00070B5040025D094F83D00002520B984F8B2
:100DE0003C50204600F0B8F8242084F83D002068EC
:100DF000016821F0010101602068016841F40041AF
:100E000001602068016821F40041016000F02CFAC3
:100E10004D4A6168914201D84C4900E04C498842F2
:100E200001D2012070BD4B492368B0FBF1F15E682F
:100E300026F03F060E435E606368934206D94FF486
:100E4000967359434FF47A73B1FBF3F12368491C4D
:100E50001E6A26F03F06314319626168914210D83C
:100E60004900401EB0FBF1F2521CC2F30B02042AEF
:100E700001D2042022E0B0FBF1F0401CC0F30B00D3
:100E80001CE0A268F2B301EBC10303EB0116431EA1
:100E9000B3FBF6F35B1C43F480431B0549D092B3CC
:100EA00001EBC10202EB0111401EB0FBF1F0401C4E
:100EB000C0F30B0040F4804040F400402168CA6950
:100EC0004CF6FF739A431043C861D4E907100143FD
:100ED0002068026822F0C00211430160D4E90301D6
:100EE00001432068826848F2FF339A4311438160CE
:100EF000D4E9050108432168CA6822F0FF021043C3
:100F0000C86001E00EE016E02068016841F00101D0
:100F100001602564202084F83D00256384F83E505C
:100F2000002070BD01EB4106431EB3FBF6F35B1CD2
:100F3000B3E70120C2E701EB4101401EB0FBF1F035
:100F4000401CC0F30B00B7E7A086010080841E00A0
:100F500000093D0040420F00F0B587B0044614215F
:100F60006846FFF765F92668214C204F2048122279
:100F70000123032104251034BE4219D1066846F02E
:100F8000020606600068CDE9023100F0020005901B
:100F90005001CDE90002049569461648FFF72AFE84
:100FA000206840F400102060206800F4001019E070
:100FB000114FBE4217D1066846F020060660006851
:100FC00000F0200005908DE80E00CDE9031569467C
:100FD0000A48FFF70FFE206840F480002060206878
:100FE00000F48000059007B0F0BD00000054004000
:100FF0003038024000040240005800400014024013
:101000000248816802781144816070472001002005
:101010000B4810B5016841F400710160016841F4AA
:1010200080610160016841F480710160032000F07B
:101030006FF8002000F006F800F024F8002010BD42
:10104000003C024070B50D4D04464FF47A7128788B
:10105000B1FBF0F00A490968B1FBF0F000F070FD57
:1010600048B9102C07D200222146501E00F030F85B
:1010700000206C6070BD012070BD000020010020C8
:101080002C0100200A4808B5016841F48041016044
:10109000006800F4804000900548001F016841F09E
:1010A00080510160006800F08050009008BD000091
:1010B00044380240002809DB00F01F020121914062
:1010C0004009800000F1E020C0F8001170470000E6
:1010D000F0B40E4B1B680C46C3F30223C3F10705A3
:1010E000042D00D90425191D072901D2002300E091
:1010F000DB1E012606FA05F1491E214099409E405B
:10110000761E16403143F0BC02F0F2B90CED00E05F
:10111000064900F0070208684FF6FF03184040EA4E
:101120000220034A10430860704700000CED00E005
:101130000000FA052DE9F0470E46050065D0DFF8FE
:101140001481D8F80000F7B200F00F00B04207D2C7
:1011500088F80070D8F8000000F00F00B04254D1B9
:1011600028683D4C810712D5400703D5206840F41C
:10117000E05020602878000703D5206840F46040E4
:1011800020602068A96820F0F000084320602878DB
:10119000C0072DD0304968680839012812D00228CC
:1011A00013D0032811D00968890700292DDA216896
:1011B00021F0030101432160FFF704FE814641F263
:1011C000883A0EE009688903EFE709688901ECE7CE
:1011D000FFF7F8FDA0EB0901514502D90320BDE856
:1011E000F0872068696800F00C00B0EB810FEFD148
:1011F000D8F80010404601F00F01B14207D907703E
:10120000006800F00F00B04201D00120E7E7287825
:10121000400705D52068E96820F4E05008432060C5
:101220002878000706D52068296920F4604040EA44
:10123000C100206000F038F82168084AC1F30311AA
:10124000515CC8400649086006480068FFF7FAFE8E
:101250000020C4E7003C024008380240FC4E000871
:101260002C01002024010020044805490068096879
:10127000044AC1F38221515CC84070472C01002010
:10128000083802400C4F0008044805490068096806
:10129000044AC1F34231515CC84070472C01002020
:1012A000083802400C4F0008154810B5006810F0CF
:1012B0000C02144813D04110042A0FD0082A0ED172
:1012C0000F4C241F2268236802F03F025B0207D5FF
:1012D0002068C0F38810A0FB010106E0084610BD9D
:1012E0002168C1F38811A1FB00010023FEF768FF0C
:1012F0002168C1F30141491C4900B0FBF1F010BD68
:10130000083802400024F4002DE9F84F04006ED0A4
:101310002078DFF83C93C007A9F104054AD009F111
:1013200004000168C1F38101012908D00068C0F3FD
:10133000810002280AD1D9F80000400206D52868A9
:10134000800337D560680028E1D033E06068B0F5ED
:10135000803F10D0B0F5A02F286810D020F4803046
:101360002860286820F4802028606068A8B1FFF712
:1013700029FD06460DE0286840F48030F4E740F48B
:1013800080202860F7E700BFFFF71CFD801B642862
:1013900073D828688003F7D50CE0FFF713FD0646E5
:1013A00005E000BFFFF70EFD801B6428F0D8286819
:1013B0008003F7D42078DFF89C8280074FF0000A82
:1013C0003ED5A348001D016811F00C0F08D000683D
:1013D000C0F3810002280BD1D9F80000400207D4E5
:1013E0002868800716D5E068012800D112E02BE1BB
:1013F000E068B8B10120C8F80000FFF7E3FC06463A
:1014000005E000BFFFF7DEFC801B0228C0D828687B
:101410008007F7D52868216920F0F80040EAC1006C
:1014200028600DE0C8F800A0FFF7CCFC064604E0F9
:10143000FFF7C8FC801B02281FD828688007F7D454
:101440002078000722D5824E83486169703671B1D9
:1014500001210160FFF7B6FC074604E0FFF7B2FC8C
:10146000C01B022809D830688007F7D50EE0C0F805
:1014700000A0FFF7A7FC074605E082E0FFF7A2FC0B
:10148000C01B02287DD830688007F7D42078400739
:1014900068D5DFF8BCB100270BF13C0BDBF800008E
:1014A000C0000BD4DBF8001041F08051CBF80010E5
:1014B000DBF80000012700F080500090674E306894
:1014C000C00510D4306840F480703060FFF77AFCBB
:1014D000009005E0FFF776FC0099401A022850D8EA
:1014E0003068C005F6D55A4EA0686C3601280FD07A
:1014F0000528306810D020F001003060306820F0FE
:1015000004003060A068B8B1FFF75CFC00900FE009
:10151000306840F00100F4E740F004003060F7E785
:10152000FFF750FC0099411A41F28830814266D899
:1015300030688007F4D50EE0FFF744FC009007E028
:10154000FFF740FC0099411A41F28830814256D899
:1015500030688007F4D42FB1DBF8001021F08051FF
:10156000CBF80010A069C8B33949091D0968C1F357
:10157000810102294AD00228504607D0C8F86000ED
:1015800000E03CE0FFF71EFC04463BE04746C8F89D
:101590006000FFF717FC064605E000BFFFF712FCEE
:1015A000801B02282BD828688001F7D4D4E90701D2
:1015B0000843A16A2A4A490802EB0141626A41EAEA
:1015C0008211084394F82C1040EA0161C9F8001018
:1015D00001203866FFF7F6FB044606E036E000BF60
:1015E000FFF7F0FB001B022809D828688001F7D517
:1015F0002CE000BFFFF7E6FB001B022802D9032006
:10160000BDE8F88F28688001F4D41FE00128F7D0E6
:10161000D9F80000E26900F48001914214D1226AF5
:1016200000F03F0191420FD147F6C071626A01405C
:10163000914209D1A26A00F44031914204D1E16A99
:1016400000F07060884201D00120D9E70020D7E780
:101650000438024000004742800E474200700040BC
:101660000000FFFF2DE9FE43044603200F4684F8E7
:101670003400606C03285AD0B7F5805F57D04FF420
:10168000006600254FF08068B7421CD10095019597
:101690000021206801F0DFF8800121D4694620464E
:1016A00001F064FB98BB0198400332D5B4F85000B8
:1016B0000104206801F0FFF848BB0221206822E005
:1016C000A06B284327E01FB1A06B40F0006022E030
:1016D000009501950021206801F0BDF8800101D539
:1016E0003546EDE76946204601F040FB78B90198A0
:1016F000C0030ED5B4F850000104206801F0DBF8F7
:1017000028B90021206801F022F90028D8D0054628
:10171000D6E74546D4E7A063A06B012558B1216800
:101720000C48886384F834500120BDE8FE83A06B28
:1017300040F08050EFE7211DD4E905060EC900975F
:10174000CDE90106206801F089F884F834500020C2
:10175000EBE70000FF054000F0B5426E920F0A7003
:10176000426EC2F383624A70426EC2F301628A70B3
:10177000426E120CCA70B0F86420120A0A7190F816
:1017800064204A71826E120DCA80826EC2F30342D7
:101790000A72B0F86820C2F3C0324A72B0F868200A
:1017A000C2F380328A72B0F86820C2F34032CA7243
:1017B000B0F86820C2F300320A7300264E73426C00
:1017C0004FF40075012462B1012A3AD002684749FA
:1017D0009163816B41F08051816380F83440012036
:1017E000F0BDB0F86820C36E9205120D42EA937204
:1017F0000A61C26EC2F3C2620A75C26EC2F30262AD
:101800004A75C26EC2F342528A75C26EC2F38242F8
:10181000CA75C26EC2F3C2320A760A69521C4265A8
:101820000B7E03F007039B1C9A4042650B7A03F082
:101830000F0704FA07F383655B0A5A43C0E91725CB
:101840000EE090F86820C36E9206920A42EA1342B4
:101850000A610A69521C92024265C0E91652056685
:1018600030F86C2FC2F3803201F8192F0288C2F3CE
:10187000C6124A70027802F07F028A704268D20F64
:10188000CA704268C2F341720A714268C2F382624E
:101890004A714268C2F383528A714268C2F340526D
:1018A000CA710E724268C2F300424A728288C2F361
:1018B000C0328A728288C2F38032CA728288C2F3CE
:1018C00040320A738288C2F300324A738288C2F3BC
:1018D00081228A738288C2F30122CA730079C0F31D
:1018E000460008744C740020F0BD0000FF05400065
:1018F00070B504000ED094F83400002518B925778F
:10190000204600F03BF8032084F83400204600F025
:101910000BF808B1012070BDA5632563012084F890
:101920003400002070BD0000FEB50025044676207E
:101930000095CDE9015029460B460A46206800F083
:101940008DFF08B10120FEBD0B4E46F8A05F206858
:1019500000F096FF01253560204601F0E9FA20B934
:10196000204601F06DFA0028EDD084F83450A16BC8
:101970000143A163E6E7000000802542F0B587B08F
:10198000044614216846FEF753FC1D49206888422E
:1019900033D11C480024016841F4006101600068F3
:1019A00000F40060059017481438016841F0040104
:1019B0000160016801F004010591016841F008012E
:1019C00001600068022500F0080005904FF4F8500F
:1019D000CDE9000502AA03260C2782E8D00069465B
:1019E0000948FFF707F90420CDE9000502AA694676
:1019F00082E8D0000548FFF7FDF807B0F0BD000011
:101A0000002C01404438024000080240000C024013
:101A100070B5040005D00025A56294F8510010B1FE
:101A200006E0012070BD84F85050204600F030F8E8
:101A3000022084F851002068016821F04001016013
:101A4000D4E901010843D4E9031211430843616951
:101A50000843218B01F400710843E1690843216ABE
:101A60000843A16A084321680860A069042101EACB
:101A70001040616A0843216848602068C16921F408
:101A80000061C1616565012084F85100002070BDCE
:101A900070B586B0044614216846FEF7C9FB234E94
:101AA000226800212248022303240525B2421AD1CC
:101AB0001F4A1432166846F480561660126802F403
:101AC00080520592026842F001020260006802AA98
:101AD00000F00100059082E83200E020CDE900032B
:101AE000694614481DE0144EB2421CD1104A10320F
:101AF000166846F480461660126802F48042059229
:101B0000026842F002020260006802AA00F00200CD
:101B1000059082E832004FF47040CDE90003694639
:101B20000648FFF767F806B070BD000000300140BE
:101B300030380240000002400038004000040240FB
:101B400010B5401EB0F1807F01D3012010BD4FF0D1
:101B5000E02460610F21601701F0CAFC0020A06141
:101B600007202061002010BD7047704770B590F8C5
:101B70003C20012A32D0012480F83C40022280F827
:101B80003D2003685A689D6822F070060A68324357
:101B90005A60134B02689A4214D0B2F1804F11D0B0
:101BA000104B9A420ED0104B9A420BD00F4B9A42D8
:101BB00008D00F4B9A4205D00E4B9A4202D00E4BE2
:101BC0009A4204D1496825F080031943916080F856
:101BD0003D40002180F83C10084670BD022070BDD9
:101BE000000001400004004000080040000C0040DC
:101BF00000040140004001400018004010B50400FE
:101C000003D094F83D0010B107E0012010BD002082
:101C100084F83C00204600F00DF8022084F83D00D6
:101C2000211D206801F056FA012084F83D000020B3
:101C300010BD000008B501682248814212D1224837
:101C4000016841F0010101600068002200F001001C
:101C5000009011461920FFF73BFABDE80840192013
:101C6000FFF728BA1848001FB1F1804F0BD0174A70
:101C7000914210D1016841F002010160006800F05A
:101C80000200009008BD016841F001010160006898
:101C900000F00100F5E70E4A914207D1016841F0DA
:101CA00004010160006800F00400EAE7094A91427B
:101CB000E8D1016841F008010160006800F0080007
:101CC000DFE700000000014044380240000400400B
:101CD00000080040000C00400168CA6842F00102A0
:101CE000CA600068816801F00701062903D0016815
:101CF00041F0010101600020704770B5044690F882
:101D00003C00012817D0012584F83C50022084F8BB
:101D10003D002068826822F0770222F47F428260D0
:101D20000868502830D00DDC20284DD005DC98B351
:101D300010283BD148E0022070BD302844D0402814
:101D400034D139E0602828D0702806D0B0F5805F03
:101D50002CD0B0F5005F29D10AE0CB68D1E9012190
:101D6000206801F01BFA2068816841F0770109E0E2
:101D7000CB68D1E90121206801F010FA2068816860
:101D800041F48041816011E0CA684968206801F02F
:101D900017FA5021206807E016E0CA6849682068F1
:101DA00001F01FFA6021206801F002FA84F83D502A
:101DB000002084F83C0070BDCA684968206801F0C2
:101DC000FFF940212068EFE7226801461046EBE763
:101DD000704770B50446006801694FF00005C943BB
:101DE000890715D4C168C943890711D4E91E016167
:101DF00001202077206880698007204602D0FFF705
:101E0000E7FF04E000F098F8204600F096F8257708
:101E100020680169C943490717D4C168C943490704
:101E200013D46FF0040101610220207720688069DB
:101E300010F4407F204602D0FFF7CAFF04E000F014
:101E40007BF8204600F079F8257720680169C943BE
:101E5000090716D4C168C943090712D46FF00801F5
:101E60000161042020772068C0698007204602D0E5
:101E7000FFF7AEFF04E000F05FF8204600F05DF8E9
:101E8000257720680169C943C90617D4C168C943C9
:101E9000C90613D46FF01001016108202077206873
:101EA000C06910F4407F204602D0FFF791FF04E0A4
:101EB00000F042F8204600F040F8257720680169DC
:101EC000C943C90708D1C168C943C90704D1891EDC
:101ED0000161204600F032F820680169C943090613
:101EE00009D4C168C943090605D46FF080010161B6
:101EF0002046FFF739FE20680169C943490609D425
:101F0000C168C943490605D46FF04001016120460C
:101F100000F015F820680169C94389060BD4C1682F
:101F2000C943890607D46FF0200101612046BDE84E
:101F30007040FFF71ABE70BD70477047704770471A
:101F40007047000070B5026804461068D168536994
:101F500010F00F0F52D003F0010501F490762E43DC
:101F60005FD0C20705D0CA0503D5E26B42F001027B
:101F7000E263420705D5DA0703D0E26B42F00202C2
:101F8000E263820705D5DA0703D0E26B42F0040270
:101F9000E263020707D501F020022A4303D0E26B77
:101FA00042F00802E263E26B002A33D0800604D5D7
:101FB000880602D5204601F03CF920684069E16BB3
:101FC000C0F38010090700D428B3204601F023F99C
:101FD0002068416949061AD5416921F040014161F3
:101FE000606BA0B11B490165606BFEF7DFFD002847
:101FF00010D0606B016DBDE870400847830610D5B6
:102000008B060ED52046BDE8704001F012B920467F
:10201000FFF796FF70BD2046FFF792FF0020E063B8
:1020200070BD030606D50B0604D52046BDE87040FA
:1020300001F0DEB94006F3D54806F1D5D168204657
:1020400021F04001D160202184F8391000F0F0F92E
:1020500070BD00000732000870B5040004D094F889
:102060003900002510B106E0012070BD84F8385019
:10207000204600F023F8242084F839002068C16845
:1020800021F40051C160204601F01EF92068016969
:1020900021F4904101612068416921F02A014161E8
:1020A0002068C16841F40051C160E563202084F8D4
:1020B000390084F83A00002070BD00002DE9F04797
:1020C00086B0044614216846FEF7B2F86249614FB3
:1020D00023680024604A1039032502265F484FF028
:1020E0000809BB4217D1136843F400231360126838
:1020F00002F4002205920A6842F001020A600968AF
:1021000002AB01F001010591CDE90056012183E800
:102110002202694637E0DFF84881DFF83CC1072733
:10212000DFF840A10CF1040C434531D1DCF800206C
:1021300042F01002CCF80020DCF8002002F010027F
:1021400005920A6842F001020A600A6802F0010280
:1021500005920A6842F002020A60096802AA01F0C8
:10216000020105914FF40071CDE9001682E8B0003C
:102170006946FEF73FFD8020CDE9000602AA6946C8
:1021800082E8B0005046FEF735FD06B0BDE8F087A6
:10219000DFF8D480434521D1136843F40033136042
:1021A000126802F4003205920A6842F001020A60E5
:1021B000096802AB01F0010105910C21CDE900167F
:1021C00083E8B0006946FEF715FD0022114626207F
:1021D000FEF77EFF2620FEF76DFFD6E723488342F9
:1021E00019D1106840F480201060106800F480203D
:1021F0000590086840F002000860086802AB00F033
:10220000020005904FF44060CDE9000683E8B0007D
:1022100069465046B7E716488342B6D1DCF800005D
:1022200040F02000CCF80000DCF8000000F02000B6
:102230000590086840F004000860086802AA00F0F1
:1022400004000590C020CDE9000682E8300269460E
:10225000084898E7004C0040403802400000024027
:1022600000100140000402400044004000480040CB
:10227000001401400008024090F83A30202B22D18F
:10228000F9B1F2B190F83830012B1CD0816282850F
:10229000C2850021C163222280F83A2080F83810DC
:1022A0000168CA6842F48072CA6001684A6942F0F3
:1022B00001024A610068C16841F02001C16000204C
:1022C00070470120704702207047000030B400685A
:1022D0001449884224D11649134A144B086854788B
:1022E0001C54401C0860B0F5FA7F02DD0020086035
:1022F0000CE000280ADD184410F8021CFF2905D163
:1023000010F8010C0A2801D1012050601078002833
:1023100006D00549012230BC491C0648FFF7ACBF76
:1023200030BC70470044004010000020E805002049
:102330001C000020280500202DE9F843044690F8F1
:1023400039001F4616460D46202850D1B5B1AEB112
:1023500094F8380001284AD0012084F838004FF062
:102360000008C4F83C80212084F83900FEF72AFDDB
:10237000A6848146E68484F8388026E00120BDE802
:10238000F883E08C401EE084A0684B46B0F5805F87
:102390004FF000024FF080012046009703D001F07B
:1023A00058F8E8B90DE001F054F8C8B92888216858
:1023B000C0F308004860206908B16D1C05E0AD1C41
:1023C00003E0216815F8010B4860E08C0028D8D1A3
:1023D0004B46002240212046009701F03AF808B110
:1023E0000320CCE7202084F839000020C7E7022032
:1023F000C5E790F83930202B18D1A9B1A2B190F8D7
:102400003830012B12D001628284C2840021C16362
:10241000212280F8392080F838100068C16841F026
:102420008001C16000207047012070470220704782
:102430007047FEE77FB50024114800940194029490
:102440000E490394C0E9001484600461047680F8A6
:1024500020400C49C0E90A140125C561C46080F818
:1024600030404561FEF7D0FA0420CDE90005694609
:1024700002940348FEF722FA7FBD000000220140CB
:10248000300100200100000F2DE9F04F87B014212A
:102490006846FDF7CDFE59480024016841F010015F
:1024A0000160016801F010010591016841F020010F
:1024B0000160016801F020010591016841F004010B
:1024C0000160016801F004010591016841F001011A
:1024D0000160016801F001010591016841F002010C
:1024E0000160016801F002010591016841F00801F5
:1024F0000160016801F008010591016841F04001A7
:1025000001600068DFF8F89000F0400048F6F03510
:102510000590002229464846FEF74FFCDFF8E4A06C
:10252000002220215046FEF748FCDFF8DCB04FF4D3
:102530006056002231465846FEF73FFC4FF44C47A8
:10254000002239463148FEF738FC002247F6FC717C
:102550002F48FEF732FC4FF48078002241462D4888
:10256000FEF72BFC00950125CDE90154694648464C
:102570000394FEF73FFB1020CDE900046946504666
:102580000294FEF737FB20200090CDE90154694604
:1025900050460394FEF72EFB0096CDE901546946A0
:1025A00058460394FEF726FB0097CDE9015469468F
:1025B00016480394FEF71EFB4FF47F700090CDE9A0
:1025C0000154694612480394FEF714FBCDF80080CD
:1025D000CDE9015469460F480394FEF70BFB4FF415
:1025E000F840CDE900050220CDE90204694608481B
:1025F000FEF700FB07B0BDE8F08F00003038024066
:10260000001002400008024000140240000C02408A
:1026100000180240000002400B480A494FF40072C3
:1026200001604FF48271416000218160C1600161ED
:10263000C0E90512C1610162416281620A21C16281
:10264000FFF7E6B900300140B80200200A48094906
:1026500001604FF48271416000218160C1600161BD
:1026600041618161C1610162416281620A21C1628D
:10267000FFF7CEB9003800401003002010B586B037
:1026800000241348009401940294039404940F4985
:10269000059401604FF4C871C0E901143221C0E90A
:1026A000031444618461FFF7A9FA4FF4805000904D
:1026B00069460748FFF721FB2020CDE9040404A95F
:1026C0000348FFF753FA06B010BD000000000140B8
:1026D0006803002010B586B00024124800940194CD
:1026E0000294039404944FF08041059401604FF6E6
:1026F000DC71C0E9011440F24C41C0E9031484616B
:10270000FFF77CFA4FF48050009069460548FFF7C8
:10271000F4FA2020CDE9040404A90248FFF726FAC0
:1027200006B010BDA803002010B586B000241248E2
:10273000009401940294039404940E49059401605A
:102740004FF6DC71C0E901146E21C0E90314846105
:10275000FFF754FA4FF48050009069460648FFF79F
:10276000CCFA2020CDE9040404A90348FFF7FEF9C0
:1027700006B010BD00040040E803002010B586B08C
:1027800000241248009401940294039404940E4986
:10279000059401604FF6DC71C0E901140B21C0E91A
:1027A00003148461FFF72AFA4FF4805000906946C1
:1027B0000648FFF7A2FA2020CDE9040404A9034843
:1027C000FFF7D4F906B010BD00080040280400202F
:1027D00010B586B00024124800940194029403942A
:1027E00004940E49059401604FF6DC71C0E90114B0
:1027F0000121C0E903148461FFF700FA4FF480500F
:10280000009069460648FFF778FA049404A9044842
:102810000594FFF7ABF906B010BD0000000C0040B6
:1028200068040020FEE7704770470A6842624A6801
:102830008262D1E902231A43D1E904310B43C16A10
:102840001A4321F0F7011143C1620020704700686C
:1028500000F00300704708444069704770B50DF1FF
:10286000100C11439CE8700023431943294342682C
:10287000314347F6FF639A430A434260002070BD2C
:1028800010B5032101600220FEF7A2F9002010BD5F
:10289000D0F8800070470A688260D1E901231A43AA
:1028A000D1E903310B43C1681A436FF30B011143A4
:1028B000C1600020704710B586B004463720CDE9CE
:1028C000001040200290002003904FF4806004909C
:1028D00069462046FFF7DFFF41F288323721204664
:1028E00000F026F906B010BD10B504460A4886B0BF
:1028F00001432920CDE900104020029000200390E0
:102900004FF48060049069462046FFF7C4FF2046DC
:1029100000F0C6F906B010BD0000108010B586B0FA
:1029200004461020CDE900104020029000200390C2
:102930004FF48060049069462046FFF7ACFF41F2F7
:1029400088321021204600F0F3F806B010BD10B513
:1029500086B004460620CDE90010402002900020F9
:1029600003904FF48060049069462046FFF793FF80
:1029700041F288320621204600F0DAF806B010BD98
:1029800030B585B000240546009401944FF4806072
:102990000294CDE9034069462846FFF77CFF0B48C7
:1029A0004FF4FA510068B0FBF1F041F2883148432E
:1029B000401E03D24FF0004005B030BD696B0906E0
:1029C000F6D5C520A8632046F6E700002C010020BC
:1029D00070B585B004464FF4D570009001A9082069
:1029E0004025002681E86100C00104906946204628
:1029F000FFF751FF12484FF4FA510068B0FBF1F0B5
:102A000041F288314843401E03D24FF0004005B0E8
:102A100070BD616B11F0450FF5D00905F3D4606B03
:102A2000400701D5042003E0606BC00702D00120FD
:102A3000A063ECE7606B400600D5A5633046E6E78F
:102A40002C01002010B586B004460720CDE90020F7
:102A500040200290002003904FF48060049069466B
:102A60002046FFF718FF41F288320721204600F088
:102A70005FF806B010BD10B586B0044600210220F4
:102A8000CDE90010C020CDE902014FF48060049030
:102A900069462046FFF7FFFE204600F0D9F806B051
:102AA00010BD10B586B004460920CDE90010C02045
:102AB0000290002003904FF4806004906946204605
:102AC000FFF7E9FE204600F0C3F806B010BD10B5D0
:102AD00086B0044600213320CDE900104020CDE926
:102AE00002010001049069462046FFF7D4FE41F23E
:102AF00088323321204600F01BF806B010BD30B5F7
:102B000085B00C46054600210320CDE90010402089
:102B1000CDE902010001049069462846FFF7BBFE9B
:102B200022460321284600F0DDF805B030BD000044
:102B3000454B10B51B684FF4FA54B3FBF4F3534301
:102B40005B1E02D24FF0004010BD426B12F0450FE9
:102B5000F6D01205F4D4426B520703D504218163E9
:102B6000084610BD426BD20702D00121816305E007
:102B7000C52282630269D2B28A4201D0012010BD0F
:102B80000021FFF768FE3149084201D1002010BD45
:102B9000002802DA4FF0007010BD410001D540203E
:102BA00010BD810001D5802010BDC10002D54FF4B9
:102BB000807010BD010102D54FF4007010BD4101BD
:102BC00002D54FF4806010BDC10102D54FF4006002
:102BD00010BD010202D54FF4805010BD410202D554
:102BE0004FF4005010BD810202D54FF4804010BD5B
:102BF000C10202D54FF4004010BD410302D54FF48D
:102C0000003010BD810302D54FF4802010BDC103F8
:102C100002D54FF4002010BD010402D54FF48010FE
:102C200010BD410402D54FF4001010BD810402D53F
:102C30004FF4800010BD000702D54FF4000010BD16
:102C40004FF4803010BD00002C01002008E0FFFD93
:102C500012494FF4FA520968B1FBF2F141F288329D
:102C60005143491E02D24FF000407047426B12F0B0
:102C7000450FF6D01205F4D4416B490703D5042162
:102C8000816308467047416BC90703D00121816306
:102C900008467047C5218163002070472C01002041
:102CA0000F494FF4FA520968B1FBF2F141F2883250
:102CB0005143491E02D24FF000407047426B12F060
:102CC000450FF6D01205F4D4416B490703D5042112
:102CD000816308467047C52181630020704700006A
:102CE0002C01002030B5204B4FF4FA541B68B3FB85
:102CF000F4F341F2883463435B1E02D24FF000408C
:102D000030BD446B14F0450FF6D02405F4D4436B6A
:102D10005B0703D504218163084630BD436BDB07A5
:102D200002D00121816303E00369DBB28B4201D051
:102D3000012030BDC52181630021FFF78CFD10F417
:102D4000604F04D0410406D54FF4005030BD000C54
:102D50001080002030BD000402D54FF4805030BDFB
:102D60004FF4803030BD00002C0100202DE9F04FE1
:102D700089B00D460446FEF725F8002683460096E6
:102D80000196374608212068FFF7C8FD002834D196
:102D9000B4F8500001042068FFF78DFD00282CD105
:102DA000401E4FF00808CDE9020830204FF002091C
:102DB000CDE904090120CDE9067002A92068FFF7DA
:102DC00034FD2068FFF783FE002816D1EA4640F262
:102DD0002A472068416B394212D1416B890204D5E0
:102DE000FFF756FD4AF82600761CFDF7EBFFA0EB37
:102DF0000B00401CEDD14FF0004009B0BDE8F08F52
:102E0000416B090703D5C0F838800820F5E7416B0E
:102E1000890703D5C0F838900220EEE7416B890698
:102E200003D5202181630846E7E740F23A518163E8
:102E3000019800BA2860009800BA68600020DCE7BA
:102E400010B590B004460120ADF838002068FFF7B7
:102E5000FEFC002854D0606C032842D02068FFF7A5
:102E60000AFE00284AD100212068FFF7F4FC6067C1
:102E700004212068FFF7EFFCA06708212068FFF716
:102E8000EAFCE0670C212068FFF7E5FCC4F880004D
:102E9000606C032825D00EA92068FFF730FE0028BB
:102EA0002CD1606C03281CD0BDF8380020650104CB
:102EB0002068FFF7F6FD002820D100212068FFF7E9
:102EC000CAFC606604212068FFF7C5FCA0660821E3
:102ED0002068FFF7C0FCE0660C212068FFF7BBFC10
:102EE000206704212068FFF7B6FC000DE06403A909
:102EF0002046FEF731FC30B14FF0805010B010BDCD
:102F00004FF08060FAE7B4F8500000230204206814
:102F1000FFF798FD0028F1D104F1100007C88DE8F3
:102F2000070094E80F00FFF799FC0020E6E7000097
:102F30002DE9F84F0026044600963546B046006855
:102F4000FFF71EFD002827D12068FFF741FD4FF055
:102F5000805B4FF001094FF6FF7748B1A664206807
:102F6000FFF70EFD002817D1A06C012802D020E049
:102F7000C4F8489000212068FFF79DFC58B918E07C
:102F800000212068FFF797FC002805D151462068F2
:102F9000FFF7AAFC10B15846BDE8F88F0021206861
:102FA000FFF759FC05464FEAD0780098401C009086
:102FB00002E0DFF82CA00098B84202D2B8F1000F6E
:102FC000DED00098B84202D34FF08070E4E768008A
:102FD00002D5C4F8449000E066640020DCE70000FD
:102FE000000010C17047FEF70BB8000030B593B079
:102FF00030216846FDF71CF914210CA8FDF718F9DB
:1030000019480025016841F080510160006800F016
:10301000805011901548016841F4804101600068BA
:10302000022400F4804011900120039010200490AD
:10303000009406940820CDE907504820CDE9090402
:1030400004200B906846FEF75FF90CA90F2081E879
:1030500031004FF4A0500F90E002109002210CA814
:10306000FEF768F813B030BD4038024000700040F1
:103070000548016841F47001016003494FF00060A8
:10308000803908607047000088ED00E00D4910B5F8
:103090000868401C0860642801D1002008600246CE
:1030A00009484FF40061036808489A4201DA012296
:1030B00000E00022FDF781FEBDE810400448FEF765
:1030C00088BE000018000020000000200010024010
:1030D00068030020F0B50268254C264D264E274F88
:1030E000274B4FF0804CA04209D0604507D0A84242
:1030F00005D0B04203D0B84201D0984204D122F0AA
:10310000700E4A6842EA0E02A0421BD0604519D0F8
:10311000A84217D0B04215D0B84213D0984211D06F
:10312000184DA8420ED0184DA8420BD0174DA842FA
:1031300008D0174DA84205D0164DA84202D0164D12
:10314000A84203D122F44075CA682A434D6922F08F
:1031500080022A4302608A68C2620A688262A042D0
:1031600001D0984201D10969016301214161F0BD9B
:10317000000001400004004000080040000C004036
:10318000000401400040014000440140004801406B
:1031900000180040001C00400020004010B584686A
:1031A00042EA032224F47F440A432243826010BD92
:1031B000826822F070020A4342F007018160704782
:1031C00010B5036A046A24F001040462846924F0DF
:1031D000F00444EA021423F00A020A438461026202
:1031E00010BD10B5036A23F0100303628369046AFB
:1031F00023F4704343EA023224F0A00343EA0111AE
:103200008261016210BD10B5806B0021C185C1844F
:10321000FEF796FE10BD0168CA6822F49072CA607B
:1032200001684A6922F001024A61202180F83A10BF
:10323000704710B590F83A10222901D0022010BD35
:103240008168B1F5805F11D00169002901681FD044
:10325000496801F07F03816A4A1C82620B70C18D4C
:10326000491E0904090CC18518D02BE00269816A46
:10327000002A0268526805D0D2B20A80816A491CCD
:103280008162ECE7C2F308020A80816A891CF7E7D1
:103290004A68816A4B1C83620A70E0E70168CA6869
:1032A00022F02002CA600168CA6822F48072CA60F3
:1032B00001684A6922F001024A61202180F83A102F
:1032C000FFF704F8002010BD2DE9F0410446006826
:1032D0000169E26821F44051114301612169A0684C
:1032E000E26908436169114308432168CA6849F2E9
:1032F0000C639A430243CA6020684169A26921F4C1
:10330000407111434161E069192764253226B0F507
:10331000004F354A354920684FF0000806D08842F2
:1033200001D0904236D1FDF7AFFF35E0884201D0A1
:10333000904202D1FDF7A8FF01E0FDF795FF61681B
:103340004A18A0FB070148EB0803FCF739FF0146C8
:10335000B0FBF5F00201B1FBF5F06FF01803584334
:1033600001EB800006EBC000B0FBF5F000F0F800C8
:1033700002EB4002B1FBF5F0584301EB800006EB95
:10338000C000B0FBF5F000F0070021681044886031
:10339000BDE8F081FDF768FF61688B0F8A00A0FB34
:1033A0000701FCF70DFF0146B0FBF5F06FF01802C6
:1033B000504301EB800006EB0010B0FBF5F000F08D
:1033C000F002B1FBF5F002EB0012B1FBF5F06FF08B
:1033D0001803584301EB800006EB0010B0FBF5F03A
:1033E00000F00F00D1E70000001401400010014080
:1033F00090F83910212901D0022070478168B1F579
:10340000805F016A0BD04A1C026202680978516031
:10341000C18C491E0904090CC1840ED017E009882B
:103420000268C1F30801516001690029016A02D0F4
:10343000491C0162ECE7891CFBE70168CA6822F0BD
:103440008002CA600068C16841F04001C16000208C
:1034500070472DE9F041984617460E460446069DF2
:103460001DE0681C1BD02DB1FDF7ACFCA0EB0800E3
:10347000A84214D92068C16821F4D071C1602068C5
:10348000416921F001014161202084F8390084F86C
:103490003A00002084F838000320BDE8F08120685D
:1034A000006836EA000004D00020B842D9D00020DD
:1034B000F3E70120F9E700000148FEF743BD0000F3
:1034C00028050020FEE700000FB4084B10B504A942
:1034D00002AA039800F0EEF8044602A9002000F0CA
:1034E00080FC204610BC5DF814FB0000E33D0008A2
:1034F0000907090E002804DB00F1E02080F8001421
:10350000704700F00F0000F1E02080F8141D7047B4
:1035100002E008C8121F08C1002AFAD1704770479C
:10352000002001E001C1121F002AFBD170470000FA
:103530002DE9FF5F82B00021DDE90430020DDDF8E6
:1035400040B0034318D044F61050A2F2FF32424379
:103550001514119801281FD0A5EB0B00401C5FEA41
:10356000000A4FF000064E4FDFF83891B046504643
:1035700015D5CAF1000413E0119801244AA30128CB
:1035800001D16FEA0B010298119AC0E90031C0E93C
:10359000024206B0BDE8F09FCBF10000DFE7044631
:1035A0000021404A491842EB0450CDE9001012E0D6
:1035B000E00707D032463B4640464946FCF739FF14
:1035C0008046894632463B4610461946FCF731FF95
:1035D00006460F466410002CEAD1DDE90401DDE95E
:1035E0000023BAF1000F06DAFCF723FF42464B46F0
:1035F000FCF71FFF05E0FCF78EFF42464B46FCF749
:103600008AFF04460E460022284BFDF70BF803D82C
:103610004FF0FF30014607E00022254B204631469F
:10362000FCF760FEFCF7E6FF102409E0002C0ADB43
:103630000A220023FCF7C4FD039B30321A55641E96
:1036400050EA0102F2D1641C039AC4F1110314443C
:10365000119A012A03D0012208430DD10AE0084340
:1036600004D000204FF0110B119072E7A3EB0B0573
:103670006D1E0DE05B4504DD4FF0000205F1010514
:1036800004E003DA4FF00002A5F10105002AECD0B6
:1036900002981199C0E90231C0E9004579E70000BC
:1036A000000014400000F03F300000000000F04334
:1036B0000000E03F2DE9FF4F95B09B468946064646
:1036C00000250FE2252877D100242746F84A01215A
:1036D000059400E0044316F8013F203B01FA03F093
:1036E0001042F7D130782A2811D06FF02F033078AC
:1036F000A0F13002092A16D8059A44F0020402EB20
:10370000820203EB42021044761C0590EFE759F861
:10371000042B0592002A03DA504244F40054059029
:1037200044F00204761C30782E2816D116F8010FCA
:1037300044F004042A280DD06FF02F023078A0F155
:103740003003092B09D807EB870302EB4303C718A3
:10375000761CF3E759F8047B761C30786C280FD080
:1037600006DC4C2817D068280DD06A2814D104E054
:10377000742810D07A280FD10DE044F400140AE028
:1037800044F4801401E044F440147278824202D17F
:1037900004F58014761C761C307866280BD013DC78
:1037A000582877D009DC002875D04528F6D046285F
:1037B000F4D047281AD19DE118E0632835D0642859
:1037C00079D0652812D195E1702873D008DC67287C
:1037D000F1D069286FD06E280DD06F2806D1B5E0E2
:1037E00073282CD0752875D0782874D05A4617992C
:1037F00090476D1C75E1C4F30250022809D00328DC
:103800000DD0D9F8001004280DD00D6009F104097D
:1038100067E1D9F80010EA17C1E90052F6E7D9F8D4
:1038200000100D80F2E70D70F0E719F8041B8DF819
:10383000001000208DF80100EA46012003E059F84D
:1038400004AB4FF0FF3061074FF0000102D40DE0F0
:1038500008F101018846B9420FDA8045F8DB1AF811
:1038600008100029F4D108E008F1010188468142DE
:10387000FADB1AF808100029F6D105985B46A0EB90
:10388000080721463846179A00F094FA284400EBBE
:10389000080507E04DE029E10DE01AF8010B5A4652
:1038A00017999047B8F10108F7D25B462146384690
:1038B000179A13E142E00A220092C4F302524FF039
:1038C000000A022A08D059F804CB032A4FEAEC7107
:1038D0000AD00DE029E02AE009F1070121F00702F2
:1038E000F2E802C1914609E00FFA8CFC4FEAEC7154
:1038F000042A03D14FFA8CFC4FEAEC71002907DA55
:103900000A460021DCF1000C61EB02012D2202E0ED
:10391000220504D52B228DF80420012203E0E207C2
:1039200001D02022F7E7904659E00A2102E0102258
:103930000DE010214FF0000A00910BE010224FF033
:10394000000A44F004040827009203E008224FF024
:10395000000A0092C4F30252022A05D059F804CB9F
:103960000021032A08D009E009F1070121F007022C
:10397000F2E802C1914605E01FFA8CFC042A01D14D
:103980000CF0FF0C4FF00008220728D5702806D055
:10399000009B83F0100353EA0A0305D00EE0402297
:1039A0008DF80420012208E05CEA010206D03022F2
:1039B0008DF804208DF8050002229046009B83F0CC
:1039C000080353EA0A030AD15CEA010201D1620743
:1039D00005D530228DF804204FF001087F1E5828AD
:1039E00004D034A003900EA802900DE036A0F9E7B1
:1039F00053466046009AFCF7E3FB84460398825CDA
:103A00000298401E029002705CEA0100F0D1029818
:103A100006A9081A00F1200A600702D524F48034B0
:103A200000E00127574502DDA7EB0A0000E0002077
:103A300000EB0A01009005984144401A0590E0030C
:103A400006D45B462146179A059800F0B3F9054461
:103A5000002706E001A85A46C05D179990476D1CE3
:103A60007F1C4745F6DBE0030CD55B462146179AE1
:103A7000059800F09FF9054404E030205A46179954
:103A800090476D1C0099481E00900029F5DC08E065
:103A9000029802995A460078491C0291179990475A
:103AA0006D1CBAF10001AAF1010AF1DC65E1000028
:103AB0000928010030313233343536373839616204
:103AC00063646566000000003031323334353637C8
:103AD00038394142434445460000000000F058F99F
:103AE0000544761C307800287FF4ECAD19B02846E8
:103AF000BDE8F08F620700D4062709F1070222F023
:103B0000070CFCE80223E14603F000485FEA080CDA
:103B100002D00FF2702C0DE05FEA045C02D50FF2C8
:103B2000682C07E05FEAC47C02D00FF2602C01E051
:103B3000AFF2700C4FF0FF3823F00043CDF850C0C7
:103B400065280CD006DC452809D046281DD047281A
:103B50003DD13DE0662818D067287ED138E00021AD
:103B6000112F01DB112000E0781CCDE9000106A92E
:103B70000EA8FFF7DDFCDDE90F010E9A039100218D
:103B8000009207F1010A04914DE04FF000400097C8
:103B9000CDE9011006A90EA8FFF7CAFCDDE90F0266
:103BA00003920E9B11990022DDF80CA00093049261
:103BB00011B9791C00EB010AB7EB0A0004D4C0F17B
:103BC000FF3007F1010A0490AAEB0700019044E0DE
:103BD000012F00DA01270021112F01DD112000E063
:103BE0003846CDE9000106A90EA8FFF7A1FCDDE9E2
:103BF0000F010E9A0391002104910092BA46210709
:103C00000CD40399514500DA8A46BAF1010F05DD5B
:103C1000009AAAF10101515C302908D0B84202DAB9
:103C200010F1040F06DA0121CDE9011015E0AAF127
:103C30000101E9E7002805DC049901440491AAEB9D
:103C4000000102E0411C514500DD8A460499401AFA
:103C5000401C01904FF000400290200704D40198CE
:103C6000504501DBCDF8048000208DF84F0002980C
:103C70000DF14F07B0F1004F25D02B200E90029888
:103C80004FF0020800280CDA404202902D200E90DE
:103C900007E00A210298FCF7F0FA3031029007F8A9
:103CA000011DB8F10001A8F10108F2DC029800281A
:103CB000EFD1791E0E980870307800F0200040F0A7
:103CC000450007F8020D12A8C01B00F10708149860
:103CD000007800B1012000EB0A01019801EBE071CE
:103CE00005984144401A401E0590E00306D45B4607
:103CF0002146179A059800F05DF80544149800785D
:103D000018B15A46179990476D1CE00324D55B46BD
:103D10002146179A059800F04DF805441CE00498D8
:103D2000002807DBDDE90301884203DD0098405CE1
:103D3000179901E0179930205A469047049805F1E9
:103D40000105401C04900198401E019004D12E20D2
:103D50005A46179990476D1CBAF10001AAF1010A61
:103D6000DDDC05E017F8010B5A46179990476D1CEA
:103D7000B8F10001A8F10108F4DC5B462146179A6E
:103D80000598ABE62D0000002B000000200000008D
:103D90002DE9F041044600251E461746880404D448
:103DA00005E039462020B0476D1C641EF9D5284631
:103DB000BDE8F0812DE9F041044600251E469046FD
:103DC000C80301D5302700E02027880404D505E08A
:103DD00041463846B0476D1C641EF9D52846BDE8FB
:103DE000F0810A68531C0B601070704770B515485D
:103DF000154992B002790A6014494379154D0B6058
:103E000013498479144E0C60C1792960057A3560B4
:103E1000867A407A06EB0010104E3060CDE9004102
:103E2000CDE902500EA604960E4905A8FFF74CFBFB
:103E300005A8FCF708FA014605A800F09DFC12B0A1
:103E400070BD0000E8050020F0000020F400002014
:103E5000F8000020FC0000200001002004010020E8
:103E60000D0A0000BC5000082DE9F04F2F48304AE1
:103E70009DB0017911602F4A1B9141791160079122
:103E80002D4982790A6002922C4AC1791160019110
:103E90002B49037A0B6000932A49427A0A609346C1
:103EA000294A817A11608A46057B0A2195FBF1F146
:103EB000C47A214400EE101A2449B8EEC00A81EDFC
:103EC000000A2349437B0B60C17B827B994601EB4F
:103ED0000212204990460A60417C007C01EB0016EA
:103EE0001D48066010EE100AFCF7B4F908AACDF8D8
:103EF0002C8082E8030219A7CDE90545CDE90C67BE
:103F0000CDE903BA009B029A0293009214490EA8CD
:103F1000079B1B9AFFF7D8FA0EA8FCF794F9014605
:103F20000EA800F029FC1DB0BDE8F08FE8050020C8
:103F30006C00002070000020740000207800002039
:103F40007C000020800000208400002094000020DD
:103F5000880000208C000020900000200D0A000046
:103F6000984F000830B503464FF6FF700022074C0B
:103F700009E09D5C4540EDB2521C34F82550D2B2A8
:103F800085EA102080B28A42F3D330BDFC4A000893
:103F900010B592B0FE228DF8342002228DF8352023
:103FA0008DF836008DF8371000240470012141701F
:103FB0001146FFF7D7FFFF21FF2802D88DF83840C0
:103FC00007E0B0FBF1F28DF83820B0FBF1F201FB15
:103FD00012008DF839008DF83A100A208DF83B0058
:103FE00007A20FA16846FFF76FFA3C21684600F070
:103FF000C3FB08210DA800F03FFC12B010BD00006B
:104000000D0A2073656E6420726573706F6E736540
:1040100020746F207261737079202E2E2E0D0A008D
:1040200025732000F0B50C4E93B00CA7F2783379CD
:104030007079B179F479357A767A8DE8F30008A150
:1040400006A8FFF741FA06A8FCF7FDF8014606A806
:1040500000F092FB13B0F0BDE80500200D0A00004F
:10406000446174653A2025303264253032642D2550
:104070003032642D253032642054696D653A202534
:104080003032643A253032643A25303264202020C0
:104090002573000030B5704CADF21C4D207861786E
:1040A000FE2836D1080034D060180279FF2A30D1BA
:1040B00042790A2A2DD1C278807802EB002085B29D
:1040C00000206A4603E023189B781354401C884262
:1040D000F9DB1046FFF746FFA8427AD1A1785F4886
:1040E000D1B1012920D0022925D0032911D1E078AE
:1040F000012873D002287ED003286DD004286CD00C
:1041000057A25EA1FAA8FFF7DFF91321FAA800F081
:1041100033FB0DF21C4D30BD002101700846FFF746
:1041200037FF00F0DBFCF4E700210120FFF730FF50
:10413000FFF778FFEDE7E178012907D002291AD0CF
:10414000032927D0042935D04DA2DAE701210170D7
:1041500000F060FB034651A256A1FAA8FFF7B4F99C
:104160001121FAA800F008FB01210220FFF710FF3F
:1041700000F03CFCCDE70221017050A23FA1FAA85B
:10418000FFF7A2F91121FAA800F0F6FA00F088FA78
:1041900002210DE0032101704DA238A1FAA8FFF71A
:1041A00093F91121FAA800F0E7FAFFF75DFE032169
:1041B000022047E0042101704AA230A1FAA8FFF7CB
:1041C00083F91121FAA800F0D7FA00F0A3FB04212B
:1041D000EEE73AE002E00EE01AE026E046A227A170
:1041E000FAA8FFF771F91121FAA800F0C5FA00F05A
:1041F000CDFA012125E045A220A1FAA8FFF764F934
:104200001121FAA800F0B8FA00F006FA022118E02D
:1042100043A21AA1FAA8FFF757F91121FAA800F052
:10422000ABFAFFF7E3FD03210BE042A213A1FAA8CA
:10423000FFF74AF91121FAA800F09EFA00F02CFBD2
:1042400004210320FFF7A4FE63E73FA20BA1FAA815
:10425000FFF73AF9122159E7E80500202000002075
:104260000D0A204461746120414C41524D20457239
:10427000726F72212121210D0A00000025730000B8
:104280000D0A2044617461204D4F444520457272EF
:104290006F72212121210D0A000000000D0A20501B
:1042A0005356204D4F444520323232202E2E2E0DB3
:1042B0000A00000025732025640000000D0A20502C
:1042C0004356204D4F4445202E2E2E0D0A0000004F
:1042D0000D0A20414356204D4F4445202E2E2E0DD1
:1042E0000A0000000D0A2053494D56204D4F444509
:1042F000202E2E2E0D0A00000D0A2050535620416C
:104300004C41524D202E2E2E0D0A00000D0A205039
:10431000435620414C41524D202E2E2E0D0A0000B6
:104320000D0A2041435620414C41524D202E2E2E45
:104330000D0A00000D0A2053494D5620414C4152B0
:104340004D202E2E2E0D0A000D0A204352432045EB
:1043500072726F72212121210D0A000070B512497D
:10436000002008601148FDF7B7FC114C01225103F1
:104370002046FCF722FD0122950329462046FCF742
:104380001CFD1E20FCF724FC002229462046FCF7D9
:1043900014FD1E20FCF71CFC29462046BDE8704099
:1043A0000122FCF70ABD0000000000206803002085
:1043B00000180240F0B40A464FF48041294C4D00E9
:1043C000294B8E114F11012A09D00B2848D2DFE862
:1043D00000F0472A2C2F3235383B3E4144000B2851
:1043E0003ED2DFE800F03D06080C0E1416181A1C29
:1043F0001E00012201E0012218E0204604E0012213
:1044000017E0012218E01846F0BCFCF7D6BC0122E8
:1044100015E0012216E0012217E0012218E0012236
:1044200019E001221AE00022E7E700222946E4E72A
:1044300000220421E7E700220821E4E700221021FE
:10444000E1E700222021DEE700224021DBE7002215
:104450008021D8E700223146D5E700223946D2E74D
:10446000F0BC7047000C0240001802401CB5FCF77D
:10447000CFFDFEF7BBFDFEF707F8FDF7DBFF0024DD
:10448000564900945448019408600846FCF749FBDB
:1044900000940022694651480194FCF721FB4F48E3
:1044A0004F4914304F4D0160C0E901540E14C0E96A
:1044B000034644618461C4610462FCF789FC474897
:1044C000494968300160C0E90154C0E903464461CC
:1044D0008461C4610462FCF77BFC40484349BC3002
:1044E000C0E900148460C460046144618461FDF724
:1044F000FFF93A48F110BC30FDF7B4F8FEF78CF83C
:10450000FEF7A4F83B483A494FF416560160C0E95B
:1045100001640C25C460C0E904458461C461FDF7F1
:104520009BFD3448344940300160C0E90164C460F7
:10453000C0E904458461C461FDF78EFD2D482F4913
:10454000803001604FF4E131C0E90114C460C0E97A
:1045500004458461C461FDF77FFD26482849C030C9
:104560000160C0E90164C460C0E904458461C461BC
:10457000FDF772FD244823490160C0E90164C4606D
:10458000C0E904458461C461FDF766FDFEF776F875
:10459000FEF7A0F8FEF7C8F8FEF7F0F8FEF718F9F6
:1045A0001448012219498030FDF766FEFFF7D6FE58
:1045B000164D174F174E6D1E01210846FFF7FAFEE4
:1045C00068680128F8D1042138466C60FCF7EEFBDE
:1045D000FFF760FD3460EFE70074004078010020D1
:1045E00000540040A086010000580040002C01400B
:1045F000004C0040A804002000100140004400408E
:104600000048004000140140A805002011000020CF
:10461000001802401C00002070B51848184992B0DC
:1046200002790A6017494379174C0B608179216040
:10463000047AC57904EB0515144C2560847A467A12
:1046400004EB0614124E3460067BC07A06EB0010B1
:10465000104E3060CDE90015CDE902400EA604965B
:104660000E4905A8FEF730FF05A8FBF7ECFD014653
:1046700005A800F081F812B070BD0000E805002028
:10468000D8000020DC000020E0000020E400002032
:10469000E8000020EC0000200D0A00002051000876
:1046A0002DE9F043DFF89CC0274997B09CF804003F
:1046B0000860814625489CF80530DFF8AC8003602F
:1046C00023489CF80670076022489CF80760066043
:1046D00021489CF80850056020489CF80940046077
:1046E0001F489CF80A2002601E489CF80B100160CD
:1046F0009CF80C00C8F800009CF80E809CF80DC0D7
:1047000008EB0C1CDFF86480C8F800C00FF26008EA
:10471000CDE9060CCDE90421CDF82080CDE9025485
:10472000CDE900764A46134909A8FEF7CDFE09A84F
:10473000FBF789FD014609A800F01EF817B0BDE897
:10474000F0830000E805002044000020480000201D
:104750004C00002050000020540000205800002091
:104760005C00002060000020640000206800002041
:104770000D0A0000305000088AB201464FF47A73E7
:104780000148FDF7D9BD0000E804002070B51848C5
:10479000184992B002790A6017494379174C0B60A7
:1047A00081792160047AC57904EB0515144C2560E4
:1047B000847A467A04EB0614124E3460067BC07A83
:1047C00006EB0010104E3060CDE90015CDE9024037
:1047D0000EA604960E4905A8FEF776FE05A8FBF77F
:1047E00032FD014605A8FFF7C7FF12B070BD0000FB
:1047F000E8050020C0000020C4000020C800002000
:10480000CC000020D0000020D40000200D0A0000C1
:10481000E85100080F48104A017911600F4A4179A8
:1048200011600F4A817911600E4AC17911600E4AF8
:10483000017A11600D4A417A11600D4A817A116046
:10484000C17A007B0B4AFF2900D140421060002052
:1048500070470000E8050020240000202800002008
:104860002C00002030000020340000203800002000
:104870003C0000204000002010B5054C00222270B2
:104880008AB201460348FDF7B4FD0120207010BD37
:10489000100000202805002070B51548154992B079
:1048A00002790A6014494379154D0B6013498479E4
:1048B000144E0C60C1792960057A3560867A407A99
:1048C00006EB0010104E3060CDE90041CDE90250FA
:1048D0000EA604960E4905A8FEF7F6FD05A8FBF7FF
:1048E000B2FC014605A8FFF747FF12B070BD0000FB
:1048F000E8050020080100200C0100201001002024
:1049000014010020180100201C0100200D0A0000E5
:10491000845100082DE9F043DFF89CC0274997B087
:104920009CF805000860814625489CF80630DFF8B1
:10493000AC80036023489CF80770076022489CF80D
:104940000860066021489CF80950056020489CF8E2
:104950000A4004601F489CF80B2002601E489CF827
:104960000C1001609CF80D00C8F800009CF80F8046
:104970009CF80EC008EB0C1CDFF86480C8F800C07F
:104980000FF26008CDE9060CCDE90421CDF82080B6
:10499000CDE90254CDE900764A46134909A8FEF74D
:1049A00093FD09A8FBF74FFC014609A8FFF7E4FEB9
:1049B00017B0BDE8F0830000E80500209800002053
:1049C0009C000020A0000020A4000020A8000020DF
:1049D000AC000020B0000020B4000020B80000208F
:1049E000BC0000200D0A0000144F0008F0B51F485D
:1049F0009BB0C078012807D01DA226A16846FEF70B
:104A000063FD122168462DE023A16846FEF75CFD98
:104A10006846FBF718FC01466846FFF7ADFE082420
:104A2000244D40F6B8367700287890B104EB840026
:104A3000400000F05DF83046FCF7CAF8142000F0A2
:104A400057F83846FCF7C4F8641E032CECD1082450
:104A5000EAE719A10DA8FEF737FD0DA8FBF7F3FB58
:104A600001460DA8FFF788FE1BB0F0BDE805002049
:104A70000D0A20535441525420505356204D4F4458
:104A8000452044415441204572726F7221212121F9
:104A90000D0A0000257300000D0A205354415254A2
:104AA00020505356204D4F4445202E2E2E2E0D0AB9
:104AB00000000000200000200D0A205354415254F1
:104AC00020505356204D4F444520544F20535441BD
:104AD0004E4442592E2E2E2E0D0A00000348C07857
:104AE000002802D1142000F003B87047E805002028
:104AF000014908607047000000000020000000002D
:104B0000C1C0000081C100004001000001C30000DD
:104B1000C00300008002000041C2000001C6000086
:104B2000C00600008007000041C70000000500002B
:104B3000C1C5000081C400004004000001CC000099
:104B4000C00C0000800D000041CD0000000F0000EF
:104B5000C1CF000081CE0000400E0000000A00001E
:104B6000C1CA000081CB0000400B000001C9000059
:104B7000C00900008008000041C8000001D8000002
:104B8000C01800008019000041D90000001B00007F
:104B9000C1DB000081DA0000401A0000001E0000A6
:104BA000C1DE000081DF0000401F000001DD0000C9
:104BB000C01D0000801C000041DC0000001400004B
:104BC000C1D4000081D500004015000001D70000CD
:104BD000C01700008016000041D6000001D200007E
:104BE000C01200008013000041D30000001100003B
:104BF000C1D1000081D000004010000001F0000091
:104C0000C03000008031000041F10000003300009E
:104C1000C1F3000081F200004032000000360000C5
:104C2000C1F6000081F700004037000001F50000E8
:104C3000C03500008034000041F40000003C00005A
:104C4000C1FC000081FD0000403D000001FF0000AC
:104C5000C03F0000803E000041FE000001FA00005D
:104C6000C03A0000803B000041FB0000003900001A
:104C7000C1F9000081F80000403800000028000061
:104C8000C1E8000081E900004029000001EB0000BC
:104C9000C02B0000802A000041EA000001EE000065
:104CA000C02E0000802F000041EF0000002D00000A
:104CB000C1ED000081EC0000402C000001E4000088
:104CC000C02400008025000041E50000002700000E
:104CD000C1E7000081E6000040260000002200003D
:104CE000C1E2000081E300004023000001E1000078
:104CF000C02100008020000041E0000001A0000071
:104D0000C06000008061000041A10000006300005D
:104D1000C1A3000081A20000406200000066000004
:104D2000C1A6000081A700004067000001A50000A7
:104D3000C06500008064000041A40000006C000019
:104D4000C1AC000081AD0000406D000001AF00006B
:104D5000C06F0000806E000041AE000001AA00009C
:104D6000C06A0000806B000041AB000000690000D9
:104D7000C1A9000081A80000406800000078000080
:104D8000C1B8000081B900004079000001BB0000FB
:104D9000C07B0000807A000041BA000001BE000024
:104DA000C07E0000807F000041BF0000007D000049
:104DB000C1BD000081BC0000407C000001B40000C7
:104DC000C07400008075000041B50000007700004D
:104DD000C1B7000081B600004076000000720000FC
:104DE000C1B2000081B300004073000001B10000B7
:104DF000C07100008070000041B000000050000051
:104E0000C19000008191000040510000019300001A
:104E1000C053000080520000419200000196000043
:104E2000C056000080570000419700000055000068
:104E3000C19500008194000040540000019C0000D6
:104E4000C05C0000805D0000419D0000005F00002C
:104E5000C19F0000819E0000405E0000005A0000DB
:104E6000C19A0000819B0000405B00000199000096
:104E7000C0590000805800004198000001880000DF
:104E8000C04800008049000041890000004B00003C
:104E9000C18B0000818A0000404A0000004E0000E3
:104EA000C18E0000818F0000404F0000018D000086
:104EB000C04D0000804C0000418C00000044000008
:104EC000C18400008185000040450000018700008A
:104ED000C0470000804600004186000001820000BB
:104EE000C0420000804300004183000000410000F8
:104EF000C1810000818000004040000000000000EF
:104F00000000000001020304060708090000000079
:104F10000102030453494D56202D20495041503D74
:104F20002564202C20455041503D2564202C2052E2
:104F30004154455F53494D563D2564202C2020495E
:104F4000545F524154494F3D2564202C20496E73D3
:104F500070697261746F72793D2564202C204578E8
:104F600070697261746F72793D2564202C545252BD
:104F700049475F493D2564202C204255523D256418
:104F8000202C2041706E65613D2564202C205674D4
:104F90003D25642020257300414356202D20455097
:104FA00041503D2564202C2052414D503D25642028
:104FB0002C20524154453D2564202C2049545F52F9
:104FC0004154494F3D2564202C20496E737069720D
:104FD00061746F72793D2564202C20457870697268
:104FE00061746F72793D2564202C54525249475F99
:104FF000493D2564202C2056745F536967683D2520
:10500000642F2564203D3D2025662C204D415850BD
:105010003D2564202C20536967685F526174653DAB
:105020002564202C2056743D256420202573000023
:10503000504356202D20495041503D2564202C20BE
:10504000455041503D2564202C20524953455F5422
:10505000494D453D2564202C2020524154453D2595
:1050600064202C2049545F524154494F3D2564200F
:105070002C20496E7370697261746F72793D25647A
:10508000202C20457870697261746F72793D2564B7
:10509000202C54525249475F493D2564202C204D15
:1050A0004158503D2564202C205461726765745F1F
:1050B00056743D256420202573000000414C415268
:1050C0004D5F414356202D2046725F4D6178693D0A
:1050D0002564202C2046694F325F4D696E693D255D
:1050E00064202C2046694F325F4D6178693D25640C
:1050F000202C205674695F4D696E693D2564202C13
:10510000205674695F4D6178693D2564202C2056D6
:1051100074655F4D696E693D25642025730000004C
:10512000414C41524D5F504356202D2046725F4DF9
:105130006178693D2564202C2046694F325F4D69B6
:105140006E693D2564202C2046694F325F4D6178A1
:10515000693D2564202C205674695F4D696E693D58
:105160002564202C205674695F4D6178693D256463
:10517000202C205674655F4D696E693D256420259D
:1051800073000000414C41524D5F53494D56202D54
:105190002046725F4D6178693D2564202C20466968
:1051A0004F325F4D696E693D2564202C2046694F62
:1051B000325F4D6178693D2564202C205674695F0B
:1051C0004D696E693D2564202C205674695F4D61E0
:1051D00078693D2564202C205674655F4D696E69A1
:1051E0003D25642025730000414C41524D5F5053D2
:1051F00056202D2046725F4D6178693D2564202C34
:105200002046694F325F4D696E693D2564202C2030
:1052100046694F325F4D6178693D2564202C2056E8
:1052200074695F4D696E693D2564202C2056746950
:105230005F4D6178693D2564202C205674655F4D73
:10524000696E693D25642025730000006C520008DA
:105250000000002030010000560700087C520008C2
:1052600030010020B00A00002035000802100A02B8
:0C527000FF010112420192101424F4000E
:040000050800018965
:00000001FF
