:020000040800F2
:10000000181300209D010008452E0008E325000874
:10001000F1290008050E00087146000800000000E4
:100020000000000000000000000000005137000840
:10003000070E000800000000953200085337000842
:10004000B7010008B7010008B7010008B7010008B0
:10005000B7010008B7010008B7010008B7010008A0
:10006000B7010008B7010008B7010008B701000890
:10007000B7010008B7010008B7010008B701000880
:10008000B7010008B7010008B7010008B701000870
:10009000B7010008B7010008B70100081D0E0008ED
:1000A000B7010008F5370008B7010008B7010008DC
:1000B0003D380008493800086D420008B7010008C3
:1000C000B7010008B7010008B7010008B701000830
:1000D000B7010008B701000809460008B701000889
:1000E000090E0008B7010008B7010008DD4200084A
:1000F000B7010008B7010008B7010008B701000800
:10010000B7010008B7010008B7010008B7010008EF
:10011000B7010008B7010008B7010008B7010008DF
:10012000B7010008B7010008B7010008B7010008CF
:10013000B7010008B7010008B7010008B7010008BF
:10014000B7010008B7010008B7010008B7010008AF
:10015000B7010008B7010008B7010008B70100089F
:10016000B7010008B7010008B7010008B70100088F
:10017000B7010008B7010008B7010008000000003F
:10018000B7010008B7010008DFF80CD000F008FB49
:1001900000480047555400081813002006488047BF
:1001A00006480047FEE7FEE7FEE7FEE7FEE7FEE75C
:1001B000FEE7FEE7FEE7FEE7D93700088901000801
:1001C0002DE9F05F0546002092469B46884606468C
:1001D000814640241BE0284641464746224600F01F
:1001E00028FA53465A46C01A914110D31146184670
:1001F000224600F00FFA2D1A67EB01084F462246FF
:100200000120002100F006FA17EB00094E41201EE4
:10021000A4F10104DFDC484631462A464346BDE8E6
:10022000F09FD2B201E000F8012B491EFBD27047CB
:100230000022F6E710B513460A4604461946FFF7B2
:10024000F0FF204610BD2DE9FE4F804681EA0300F5
:10025000C00F0C46009021F0004123F00045B8EBA0
:100260000200A94105D24046214690461C460B4655
:10027000024623F00040104347D0270DC7F30A0081
:10028000C3F30A510290401A019040286BDAC3F37D
:10029000130040F4801B0098924620B10023D2EB5B
:1002A000030A63EB0B0B01985946C0F1400250461C
:1002B00000F0B0F906460D4650465946019A00F046
:1002C000C8F910EB08006141002487EA115284EA62
:1002D000E7731A4340D0009A62B3019A012A4FEAA9
:1002E000075215DC001B61EB02014FF0004202EAED
:1002F0000752CDE90042001C41F5801132462B46E1
:1003000000F0FFF903B0BDE8F08F40462146F9E761
:10031000001B61EB0201001C41F5801300185B41DA
:100320002018A2F5001747EB030140EAD570B61973
:100330006D4111E06D084FEA360645EAC0754FEA97
:100340000752001B61EB0201001C41F580114908B6
:100350004FEA30000019514132462B4603B0BDE848
:10036000F04F00F0BFB90098012240000023D0EB0D
:10037000020263EBE073009821464FEAE074B8EBA9
:10038000000061EB0401E9E783F000435BE781F0E3
:10039000004158E72DE9FE4F81EA030404F00044D0
:1003A00021F0004100944FF0000B23F0004350EA8D
:1003B00001045ED052EA03045BD0C3F30A54C1F3D4
:1003C0000A552C44A4F2F3340194A0FB0254C1F367
:1003D000130141F48011C3F3130343F4801301FBB1
:1003E000024400FB034E840A970A44EA815447EA18
:1003F0008357A4FB076802958D0A05FB07854FEA22
:10040000932C04FB0C542705029D4FEA065847EA3B
:100410001637B5EB08056EEB070C870E920E47EA10
:10042000811742EA8312A7FB0201B6EB0B0164EBD2
:1004300000042B0D43EA0C335E1844EB1C50DA46E3
:100440005146E7FB0201C5F313044FEA0B3343EABD
:1004500014534FEA0432019C43EA0603A4F10C044E
:100460000294009CCDE900B400F04BF903B0BDE864
:10047000F08F00200146F9E72DE9F04D81EA0304F1
:1004800004F0004B21F0004514464FF0000A23F021
:10049000004150EA050220D054EA01021DD0C5F304
:1004A0000A570246C5F31303C1F31300C1F30A56FA
:1004B00040F4801543F48013A7EB0608101BD646C2
:1004C00008F2FD3873EB050002D308F1010801E0E2
:1004D00092185B41B8F1000F03DA00200146BDE835
:1004E000F08D00204FF48011064684460EE0171B65
:1004F00073EB050705D3121B63EB050306434CEAB8
:10050000010C49084FEA300092185B4150EA01079C
:10051000EDD152EA030012D082EA040083EA050119
:10052000084305D0101BAB4106D20122002306E090
:1005300000224FF0004302E06FF0010253101AEB6B
:1005400006004CEB085110EB0A0041EB0B01BDE833
:10055000F04D00F0C7B80EB5C10F80EAE070084456
:10056000CA07002140F233438DE80E000A460B46CD
:1005700000F0C7F803B000BD70B5C1F30A5201F036
:1005800000450024C1F3130140F2FF3341F4801110
:100590009A4201DA002070BD40F233439A42A2F23F
:1005A000334203DC524200F044F800E090402C4318
:1005B000F1D0404270BD00F0004230F000400AD05F
:1005C000C10D01F56071C0F3160042EA0151C20885
:1005D00040071143704700200146704701F0004377
:1005E00030B421F0004150EA010206D00A0DA2F514
:1005F0006072C1F31301002A02DC30BC0020704796
:10060000440F44EAC104C100E01830BC00EBC25002
:1006100000F031B8202A04DB203A00FA02F1002071
:1006200070479140C2F1200320FA03F31943904030
:100630007047202A04DB203A21FA02F0002170479B
:1006400021FA02F3D040C2F120029140084319463A
:100650007047202A06DBCB17203A41FA02F043EA22
:10066000E07306E041FA02F3D040C2F1200291406B
:100670000843194670470029A8BF7047401C49002D
:1006800008BF20F00100704710B4B0FA80FC00FAF7
:100690000CF050EA010404BF10BC704749B1CCF122
:1006A000200421FA04F411FA0CF118BF01212143AE
:1006B0000843A3EB0C01CB1D4FEA00614FEA102069
:1006C00042BF002010BC704700EBC350104400290B
:1006D000A4BF10BC7047401C490008BF20F00100B7
:1006E00010BC704710B5141E73F1000408DA401CEA
:1006F00041F1000192185B411A4301D120F0010041
:1007000010BD2DE9F04D92469B4611B1B1FA81F230
:1007100002E0B0FA80F220329046FFF77BFF0446F9
:100720000F4640EA0A0041EA0B0153465A46084385
:1007300013D0114653EA010019D0C8F140025046C7
:10074000FFF777FF05460E46504659464246FFF7EB
:1007500061FF084305D0012004E020463946BDE88A
:10076000F08D0020054346EAE0762C4337430A9893
:100770006305E40AA0EB08000022FD0A44EA47549E
:100780000A3002D500200146E9E701051019694148
:10079000DDE9084500196941BDE8F04DA2E7000018
:1007A000064C074D06E0E06840F0010394E80700BE
:1007B00098471034AC42F6D3FFF7EAFC4C5E0008D1
:1007C0006C5E000870B58C1810F8015B15F007031B
:1007D00001D110F8013B2A1106D110F8012B03E0DA
:1007E00010F8016B01F8016B5B1EF9D12B0705D4E2
:1007F0000023521E0DD401F8013BFAE710F8013B2B
:10080000CB1A921C03E013F8015B01F8015B521E46
:10081000F9D5A142D8D3002070BD00002DE9F04FDA
:10082000D74841F270712DED0C8B85B00068DFF870
:10083000548391FBF0F0D449C8F8000091ED000A10
:10084000DFEDD2AA642120EE2A0ABDEEC00A10EE26
:10085000104A051BCE48C8E901450068009048438E
:10086000FFF779FE9FEDCB9B53EC192BFFF704FEAE
:10087000FFF782FE0746C8F81800C8486421D0F880
:10088000009009FB01F0FFF766FE9FEDC5BB53EC3E
:100890001B2BFFF7F1FDFFF76FFE0646C8F824009B
:1008A000D8F83C008246FFF786FE9FEDBFDB53EC95
:1008B0001D2BFFF769FDFFF75FFE08EE900AC8F8F1
:1008C0003000BB4800680390FFF745FE9FEDB91B61
:1008D00053EC112BFFF75EFD41EC1C0B5046FFF76C
:1008E0006AFE53EC1D2BFFF74FFD53EC1C2BFFF75B
:1008F0004BFDFFF741FEC8F82C0098ED10AA08EE5A
:10090000100A1AEE100AFFF756FE9FEDAC1B53ECCF
:10091000112BFFF798FCFFF72FFEB1EE000AC8F885
:1009200034003AEE000A0290A749DFF8A0A2BDEE1B
:10093000C00ADFF89CB210EE100AC8F83800019027
:10094000A048D1F80080006801282DD000287FD170
:100950008C488C49C0F80C809E4890ED000A89486C
:10096000B1EE409A80ED119A9B4800684042486180
:100970000746A8EB090064214843FFF7ECFD53EC60
:100980001B2BFFF779FDFFF7F7FD7E49934B944A48
:100990008862039901297DDDDDF804C07949674546
:1009A00079DCB8EEC80AD9E08E48DFF8D891006843
:1009B000C9E903808C480099D0F80080A8EB0100B9
:1009C00064214843FFF7C7FD53EC192BFFF754FD93
:1009D000FFF7D2FD0646C9F81C0084488449026826
:1009E0006B4891F8009000689FED828B3238012AA5
:1009F00007D182490968002903DD814A12688A42C9
:100A00002EDA7B49B9F1000F22D1804503DD7D4804
:100A100006600120B1E05B48BE421EDD016AB942BA
:100A200000DD0762006AFFF796FD53EC182BFFF715
:100A3000B1FCFFF7A1FD90FBF4F172480160724830
:100A4000CAF80040CBF80050007800E000E050B950
:100A500005B0BDEC0C8BBDE8F08FB91B0162DEE781
:100A60006949012008706249B9F1000FF0D100987E
:100A700000EE100A6548F8EEC00A90ED000A9FEDFE
:100A8000641A10EE801A00EE908AF8EEE00AB4EED6
:100A9000E01A01E05AE066E0F1EE10FAB7D30098F0
:100AA00000EE900AF8EEE00A20EE800A20EE2A0A14
:100AB00010EE100AFFF77FFD53EC192BFFF7DCFC5B
:100AC000FFF75AFD2F49064608622046FFF743FD0F
:100AD00041EC190B3046FFF73EFD53EC182BFFF7A6
:100AE00059FC53EC192BFFF7C7FCFFF745FD4549AF
:100AF0000860CAF80040CBF80050A9E7486A01E056
:100B0000301A48621060CAF800406019401CCBF8E7
:100B10000050186008E0486A01E0301A486210602E
:100B2000CAF80040CBF800503A493B4A00200B7805
:100B3000FBB1A9F10203984501DC1070087009F1BE
:100B40000203984584DD0123137016E00D490DD191
:100B5000DDF808C0674506DCB8EEE80AB4EEC09AD6
:100B6000F1EE10FA02D2B042CADDC7E7B042D4DDDE
:100B7000D1E7B9EB480FC0DB1070087068E70000E0
:100B80005001002078020020780100200000C842B7
:100B90006C0100200000000000E0954048010020AA
:100BA0000000000000804B40333333333333D33FF6
:100BB000600100209A9999999999B93F0000000025
:100BC00000000C404C000020580000204400002091
:100BD000480000207400002060000020B4000020C5
:100BE0003C0000205400002080000020680100200C
:100BF000F90000200000000000C0684064010020EF
:100C0000DC00002038000020D80000207001002007
:100C100000004842F8000020EC0000207FB50024CE
:100C20001D490546009401940294039419480C61EF
:100C300008600C7681F820400126CE611748CC6010
:100C40008862084600F0B3F908B100F005F92D1FDD
:100C5000082D09D2DFE805F0040613081517191B43
:100C6000042000E005200090CDE9016469460A48AF
:100C700000F0F4F8002801D000F0EEF87FBD062067
:100C8000F1E70820EFE70920EDE70A20EBE70B206A
:100C9000E9E7000000220140C80400200100000F25
:100CA000464910B54A6822F440324A604A684368AF
:100CB0001A434A6001684A6822F480724A600168F7
:100CC0004A68036942EA03224A6001684A6822F0DE
:100CD00040724A6001684A6883681A434A60016842
:100CE0008A6822F400628A6001688A68C3681A43CD
:100CF0008A60816A6FF07062D14201688A6822F06E
:100D000070628A6001688A680CD0836A1A438A60BC
:100D100001688A6822F040528A6001688A68C36A62
:100D20001A4301E022F040528A6001688A6822F08A
:100D300002028A6001688A68037E42EA43028A608E
:100D400090F82010002901684A680FD042F4006230
:100D50004A6001684A6822F460424A6001684A6851
:100D6000174C436A04EB43331A4301E022F4006258
:100D70004A600168CA6A22F47002CA620168CA6ADB
:100D8000838B104C04EB03531A43CA6201688A68D0
:100D900022F400728A6001688A6890F8303042EA72
:100DA00043228A6001688A6822F480628A6001684E
:100DB0008A68406942EA8020886010BD00230140B3
:100DC00000E0FFFF0000F0FF10B50024FFF726FF52
:100DD0000B4800F021FA0A490220C861084600F0D9
:100DE000E6F8074800F0A2F94FF4FA71044800F061
:100DF0004BF918B9024800F0D7F80446204610BD58
:100E0000C8040020FEE7704703480168491C0160E0
:100E10004FF4806000F098BA180000200B4910B51C
:100E2000002048600A48007818B10021022003F031
:100E300033FD0848007818B10021022004F0DEFDDF
:100E4000BDE810404FF4007000F07EBA400300206F
:100E5000C5000020C60000207047000078B50024BF
:100E6000009490F83C20012A19D0012280F83C20FF
:100E70000A6807230568092A13D9EE680A3A02EBC3
:100E8000420293409E43EE600B788A680A3B03EB74
:100E900043039A400368DD682A43DA6010E00220C9
:100EA00078BD2E6902EB420293409E432E610B787F
:100EB0008A6803EB43039A4003681D692A431A6159
:100EC0004A681F23072A13D205686E6B521E02EB75
:100ED000820293409E436E630B790A885B1E92B236
:100EE00003EB83039A4003685D6B2A435A6327E050
:100EF00005680D2A12D22E6BD21F02EB820293409C
:100F00009E432E630B790A88DB1F92B203EB8303A7
:100F10009A4003681D6B2A431A6311E0EE6A0D3A8A
:100F200002EB820293409E43EE620B790A880D3BEE
:100F300092B203EB83039A400368DD6A2A43DA62C4
:100F4000164B0568144A9D4206D10D68122D03D137
:100F5000556845F48005556005689D4218D10B68B9
:100F6000102B01D0112B13D1536843F400035360AD
:100F7000096810290CD10A490A4A0968B1FBF2F143
:100F800001EB8101490000E0491E00910029FBD1DD
:100F900080F83C40002078BD002301400020014043
:100FA000E003002040420F000068C06C704770B53D
:100FB00004004FF0000503D0206C002610B107E0BC
:100FC000012070BD204600F01DF8666484F83C6086
:100FD000206CC00610D4206C20F4885040F0020031
:100FE00020642046FFF75CFE6664206C20F002005F
:100FF00040F00100206400E0012584F83C602846B0
:1010000070BD000030B587B0044614216846FFF774
:101010000FF91949206888422BD11848002501682A
:1010200041F480610160006800F48060059013481D
:101030001438016841F020010160016801F02001CD
:101040000591016841F0040101600068032400F08B
:10105000040005904FF4B9608DE8310069460848F6
:1010600000F07EF9009469460648CDE9014500F09C
:1010700077F907B030BD000000220140443802403B
:1010800000140240000802402DE9F04104460068C7
:101090000D4681684FF0000749050BD58068C005F3
:1010A00008D5206C40F02000206484F83C700120BA
:1010B000BDE8F08100F042FA06460FE0681C0DD052
:1010C00025B100F03BFA801BA84207D9206C40F004
:1010D0000400206484F83C700320E9E7206800687D
:1010E0008007EBD521686FF012000860206C40F497
:1010F000007020642068816811F0405F13D1217E68
:1011000089B9C16A11F4700F02D0806840050AD411
:10111000206C20F480702064206CC00403D4206C08
:1011200040F0010020640020C2E7000018B5002153
:10113000009190F83C20012A07D0012280F83C2041
:1011400002689368DB0702D011E0022018BD9368A3
:1011500043F0010393602A4A2A4B1268B2FBF3F270
:1011600002EB420200E0521E0092002AFBD102680C
:101170009368DB0741D0036C40F20164A34343F45E
:101180008073036453685B0505D5036C23F4005337
:1011900043F480530364036CDB0404D5436C23F0F5
:1011A0000603436400E0416480F83C1016496FF088
:1011B0002203136049680068CA06144906D08842B1
:1011C0001BD1816811F0405F13D016E08842F8D03F
:1011D0000F4A904203D1D1F80423D206F1D00D4A30
:1011E00090420AD1D1F8041301F01F011029E8D36D
:1011F00003E0816841F080418160002018BD00005B
:10120000E003002040420F00002301400020014085
:10121000002101400022014090F83C1001290CD02F
:10122000012180F83C1001688A6822F001028A607E
:1012300001688968C90702D007E002207047016C85
:1012400021F4885141F001010164002180F83C1033
:101250000846704770B54379012B1AD001264671B4
:101260000223037105682C6840F6FE7393409C438B
:10127000D1E900310B43934023432B6001680B6895
:10128000C0249440A3430B600671002141710846BD
:1012900070BD022070BD70B5040003D02079002518
:1012A00010B105E0012070BD6571204600F008F81E
:1012B00002202071256101202071002070BD0000F6
:1012C00010B586B0044614216846FEF7B1FF1149F7
:1012D000206888421CD110480021026842F0005268
:1012E0000260006800F0005005900B48103802685A
:1012F00042F001020260006800F001000590102039
:1013000000900320CDE901016946044800F028F867
:1013100006B010BD0074004040380240000002409A
:1013200070B5044600F00AF90546601C02D0044876
:101330000078044400F002F9401BA042FAD370BDCB
:10134000D403002070470000044910B50A68024227
:1013500002D00860FFF7F6FF10BD0000143C01400A
:101360002DE9F84F00224FF0010803254FF00F0E32
:101370000B6808FA02F42340A3426ED14E68012E96
:1013800005D0022E03D0112E01D0122E12D1866864
:101390004FEA420C05FA0CF7BE43CF6807FA0CF788
:1013A000374387604668A6430C79C4F30014944021
:1013B00034434460C668570005FA07FC8C6826EA87
:1013C0000C06BC403443C4604C68022C01D0122C83
:1013D00013D1D40800EB8404A346D4F8209054071A
:1013E0004FEAD46A0EFA0AF629EA06090E6906FAE5
:1013F0000AF646EA0906CBF8206006680C7926EA68
:101400000C0604F00304BC40344304604C68E40060
:1014100065D5364C266846F480462660246822F05E
:10142000030604F480440094314C3444A446D4F8B8
:1014300008489607370F0EFA07F6B4432D4EB04210
:1014400001D1002624E02C4EB04201D101261FE03C
:101450002A4EB04202D102261AE040E0284EB042A5
:1014600001D1032614E0274EB04201D104260FE03B
:10147000254EB04201D105260AE0244EB04201D1EA
:10148000062605E0224EB04201D1072600E00826DC
:10149000BE402643CCF808681E4E34684F689C4313
:1014A000FF0300D51C4334601A4C241D26684F6886
:1014B0009E43BF0300D51E432660164E083634688F
:1014C0004F689C43FF0200D51C433460114E0C361C
:1014D00034684F689C43BF0200D51C433460521CE3
:1014E000102AFFF445AFBDE8F88F000044380240F1
:1014F00000300140000002400004024000080240A9
:10150000000C02400010024000140240001802408B
:10151000001C0240003C01400069084000D001204E
:101520007047426931EA020200D1090481617047C3
:101530000AB1816170470904FBE700000148806837
:1015400070470000D403002070B5040025D094F843
:101550003D00002520B984F83C50204600F0B8F842
:10156000242084F83D002068016821F00101016019
:101570002068016841F4004101602068016821F49D
:101580000041016000F00EFA4D4A6168914201D8B5
:101590004C4900E04C49884201D2012070BD4B49C2
:1015A0002368B0FBF1F15E6826F03F060E435E60F3
:1015B0006368934206D94FF4967359434FF47A7394
:1015C000B1FBF3F12368491C1E6A26F03F06314344
:1015D00019626168914210D84900401EB0FBF1F2D7
:1015E000521CC2F30B02042A01D2042022E0B0FBF9
:1015F000F1F0401CC0F30B001CE0A268F2B301EB59
:10160000C10303EB0116431EB3FBF6F35B1C43F46B
:1016100080431B0549D092B301EBC10202EB0111DB
:10162000401EB0FBF1F0401CC0F30B0040F48040C2
:1016300040F400402168CA694CF6FF739A43104396
:10164000C861D4E9071001432068026822F0C00293
:1016500011430160D4E9030101432068826848F224
:10166000FF339A4311438160D4E90501084321689F
:10167000CA6822F0FF021043C86001E00EE016E0E5
:101680002068016841F0010101602564202084F890
:101690003D00256384F83E50002070BD01EB4106FB
:1016A000431EB3FBF6F35B1CB3E70120C2E701EB7B
:1016B0004101401EB0FBF1F0401CC0F30B00B7E746
:1016C000A086010080841E0000093D0040420F00FA
:1016D00010B586B0044614216846FEF7A9FD1449EA
:1016E0002068884221D11348016841F0020101605D
:1016F0000068694600F0020005904FF410700090F9
:1017000012200190012002900320039004200490F5
:101710000948FFF725FE07481030016841F4001121
:101720000160006800F40010059006B010BD0000D4
:1017300000540040303802400004024002488168F2
:101740000278114481607047D40300200B4810B523
:10175000016841F400710160016841F48061016039
:10176000016841F480710160032000F06FF80020EF
:1017700000F006F800F024F8002010BD003C024004
:1017800070B50D4D04464FF47A712878B1FBF0F036
:101790000A490968B1FBF0F000F09AFB48B9102C37
:1017A00007D200222146501E00F030F800206C6065
:1017B00070BD012070BD0000D4030020E0030020B4
:1017C0000A4808B5016841F480410160006800F4EE
:1017D000804000900548001F016841F08051016081
:1017E000006800F08050009008BD000044380240BE
:1017F000002809DB00F01F02012191404009800010
:1018000000F1E020C0F8001170470000F0B40E4B6A
:101810001B680C46C3F30223C3F10705042D00D94E
:101820000425191D072901D2002300E0DB1E012633
:1018300006FA05F1491E214099409E40761E164049
:101840003143F0BC02F015BF0CED00E0064900F09A
:10185000070208684FF6FF03184040EA0220034AD7
:1018600010430860704700000CED00E00000FA052E
:101870002DE9F0470E46050065D0DFF81481D8F851
:101880000000F7B200F00F00B04207D288F80070F5
:10189000D8F8000000F00F00B04254D128683D4C49
:1018A000810712D5400703D5206840F4E05020603E
:1018B0002878000703D5206840F460402060206845
:1018C000A96820F0F000084320602878C0072DD0D8
:1018D000304968680839012812D0022813D003283B
:1018E00011D00968890700292DDA216821F0030148
:1018F00001432160FFF722FE814641F2883A0EE063
:1019000009688903EFE709688901ECE7FFF716FE2C
:10191000A0EB0901514502D90320BDE8F0872068FA
:10192000696800F00C00B0EB810FEFD1D8F800101F
:10193000404601F00F01B14207D90770006800F07E
:101940000F00B04201D00120E7E72878400705D515
:101950002068E96820F4E0500843206028780007F8
:1019600006D52068296920F4604040EAC100206063
:1019700000F038F82168084AC1F30311515CC840EF
:101980000649086006480068FFF7FAFE0020C4E731
:10199000003C024008380240345E0008E0030020AA
:1019A000D80300200448054900680968044AC1F3C7
:1019B0008221515CC8407047E00300200838024093
:1019C000445E00080448054900680968044AC1F3F8
:1019D0004231515CC8407047E003002008380240A3
:1019E000445E0008154810B5006810F00C02144859
:1019F00013D04110042A0FD0082A0ED10F4C241FF7
:101A00002268236802F03F025B0207D52068C0F31A
:101A10008810A0FB010106E0084610BD2168C1F353
:101A20008811A1FB00010023FEF7CAFB2168C1F366
:101A30000141491C4900B0FBF1F010BD08380240DB
:101A40000024F4002DE9F84F04006ED02078DFF870
:101A50003C93C007A9F104054AD009F104000168CC
:101A6000C1F38101012908D00068C0F38100022878
:101A70000AD1D9F80000400206D52868800337D57E
:101A800060680028E1D033E06068B0F5803F10D096
:101A9000B0F5A02F286810D020F480302860286886
:101AA00020F4802028606068A8B1FFF747FD064653
:101AB0000DE0286840F48030F4E740F4802028608E
:101AC000F7E700BFFFF73AFD801B642873D828684A
:101AD0008003F7D50CE0FFF731FD064605E000BFB7
:101AE000FFF72CFD801B6428F0D828688003F7D40A
:101AF0002078DFF89C8280074FF0000A3ED5A3488B
:101B0000001D016811F00C0F08D00068C0F38100BF
:101B100002280BD1D9F80000400207D428688007BA
:101B200016D5E068012800D112E02BE1E068B8B1D9
:101B30000120C8F80000FFF701FD064605E000BFE0
:101B4000FFF7FCFC801B0228C0D828688007F7D567
:101B50002868216920F0F80040EAC10028600DE003
:101B6000C8F800A0FFF7EAFC064604E0FFF7E6FC31
:101B7000801B02281FD828688007F7D42078000728
:101B800022D5824E83486169703671B101210160AE
:101B9000FFF7D4FC074604E0FFF7D0FCC01B022887
:101BA00009D830688007F7D50EE0C0F800A0FFF72D
:101BB000C5FC074605E082E0FFF7C0FCC01B022819
:101BC0007DD830688007F7D42078400768D5DFF8E3
:101BD000BCB100270BF13C0BDBF80000C0000BD4BC
:101BE000DBF8001041F08051CBF80010DBF800006A
:101BF000012700F080500090674E3068C00510D477
:101C0000306840F480703060FFF798FC009005E089
:101C1000FFF794FC0099401A022850D83068C0059C
:101C2000F6D55A4EA0686C3601280FD005283068CA
:101C300010D020F001003060306820F004003060E7
:101C4000A068B8B1FFF77AFC00900FE0306840F070
:101C50000100F4E740F004003060F7E7FFF76EFCA6
:101C60000099411A41F28830814266D83068800775
:101C7000F4D50EE0FFF762FC009007E0FFF75EFC92
:101C80000099411A41F28830814256D83068800765
:101C9000F4D42FB1DBF8001021F08051CBF8001004
:101CA000A069C8B33949091D0968C1F38101022936
:101CB0004AD00228504607D0C8F8600000E03CE057
:101CC000FFF73CFC04463BE04746C8F86000FFF7DE
:101CD00035FC064605E000BFFFF730FC801B0228FC
:101CE0002BD828688001F7D4D4E907010843A16AFA
:101CF0002A4A490802EB0141626A41EA821108431B
:101D000094F82C1040EA0161C9F8001001203866EF
:101D1000FFF714FC044606E036E000BFFFF70EFCB8
:101D2000001B022809D828688001F7D52CE000BFE5
:101D3000FFF704FC001B022802D90320BDE8F88F3E
:101D400028688001F4D41FE00128F7D0D9F80000FA
:101D5000E26900F48001914214D1226A00F03F014F
:101D600091420FD147F6C071626A0140914209D198
:101D7000A26A00F44031914204D1E16A00F070603F
:101D8000884201D00120D9E70020D7E7043802407B
:101D900000004742800E4742007000400000FFFFF5
:101DA00070B5040005D00025A56294F8510010B16B
:101DB00006E0012070BD84F85050204600F030F855
:101DC000022084F851002068016821F04001016080
:101DD000D4E901010843D4E90312114308436169BE
:101DE0000843218B01F400710843E1690843216A2B
:101DF0000843A16A084321680860A069042101EA38
:101E00001040616A0843216848602068C16921F474
:101E10000061C1616565012084F85100002070BD3A
:101E200070B586B0044614216846FEF701FA234EC9
:101E3000226800212248022303240525B2421AD138
:101E40001F4A1432166846F480561660126802F46F
:101E500080520592026842F001020260006802AA04
:101E600000F00100059082E83200E020CDE9000397
:101E7000694614481DE0144EB2421CD1104A10327B
:101E8000166846F480461660126802F48042059295
:101E9000026842F002020260006802AA00F002003A
:101EA000059082E832004FF47040CDE900036946A6
:101EB0000648FFF755FA06B070BD0000003001403B
:101EC0003038024000000240003800400004024068
:101ED00010B5401EB0F1807F01D3012010BD4FF03E
:101EE000E02460610F21601702F0C3FB0020A061B5
:101EF00007202061002010BD7047704770B590F832
:101F00003C20012A32D0012480F83C40022280F893
:101F10003D2003685A689D6822F070060A683243C3
:101F20005A60134B02689A4214D0B2F1804F11D01C
:101F3000104B9A420ED0104B9A420BD00F4B9A4244
:101F400008D00F4B9A4205D00E4B9A4202D00E4B4E
:101F50009A4204D1496825F080031943916080F8C2
:101F60003D40002180F83C10084670BD022070BD45
:101F7000000001400004004000080040000C004048
:101F800000040140004001400018004010B504006A
:101F900003D094F83D0010B107E0012010BD0020EF
:101FA00084F83C00204600F00DF8022084F83D0043
:101FB000211D206802F0C8F9012084F83D000020AE
:101FC00010BD000008B50168304881420FD130488B
:101FD000016841F0010101600068002200F0010089
:101FE000009001211920FFF711FC192048E0284832
:101FF000001FB1F1804F11D0264A91421DD10168D6
:1020000041F0020101600068002200F0020000902F
:1020100001211D20FFF7FAFB1D2031E0016841F08E
:10202000010101600068002200F001000090012120
:102030001C20FFF7EBFB1C2022E0174A91420ED137
:10204000016841F0040101600068002200F0040012
:10205000009001211E20FFF7D9FB1E2010E00F4A3F
:10206000914211D1016841F04001016000680022F5
:1020700000F04000009001212B20FFF7C7FB2B2030
:10208000BDE80840FFF7B4BB08BD000000000140F8
:10209000443802400004004000080040001800409E
:1020A0000168CA6842F00102CA600068816801F0F4
:1020B0000701062903D0016841F0010101600020F9
:1020C000704770B5044690F83C00012817D00125F0
:1020D00084F83C50022084F83D002068826822F099
:1020E000770222F47F4282600868502830D00DDCED
:1020F00020284DD005DC98B310283BD148E00220C1
:1021000070BD302844D0402834D139E0602828D030
:10211000702806D0B0F5805F2CD0B0F5005F29D1D3
:102120000AE0CB68D1E90121206802F071F920684A
:10213000816841F0770109E0CB68D1E9012120688D
:1021400002F066F92068816841F48041816011E005
:10215000CA684968206802F06DF95021206807E0DC
:1021600016E0CA684968206802F075F960212068A5
:1021700002F058F984F83D50002084F83C0070BD0E
:10218000CA684968206802F055F940212068EFE7E5
:10219000226801461046EBE7704770B504460068B8
:1021A00001694FF00005C943890715D4C168C943C7
:1021B000890711D4E91E0161012020772068806918
:1021C0008007204602D0FFF7E7FF04E000F098F810
:1021D000204600F096F8257720680169C943490731
:1021E00017D4C168C943490713D46FF004010161D2
:1021F000022020772068806910F4407F204602D0BA
:10220000FFF7CAFF04E000F07BF8204600F079F801
:10221000257720680169C943090716D4C168C943F5
:10222000090712D46FF008010161042020772068AB
:10223000C0698007204602D0FFF7AEFF04E000F03F
:102240005FF8204600F05DF8257720680169C943F2
:10225000C90617D4C168C943C90613D46FF0100169
:102260000161082020772068C06910F4407F204673
:1022700002D0FFF791FF04E000F042F8204600F0A2
:1022800040F8257720680169C943C90708D1C168AA
:10229000C943C90704D1891E0161204600F032F804
:1022A00020680169C943090609D4C168C943090600
:1022B00005D46FF0800101612046FFF71DFE206804
:1022C0000169C943490609D4C168C943490605D40F
:1022D0006FF040010161204600F015F820680169A7
:1022E000C94389060BD4C168C943890607D46FF076
:1022F000200101612046BDE87040FFF7FEBD70BDC2
:10230000704770477047704770B5040004D094F868
:102310003900002510B106E0012070BD84F8385066
:10232000204600F023F8242084F839002068C16892
:1023300021F40051C160204602F0A0F82068016934
:1023400021F4904101612068416921F02A01416135
:102350002068C16841F40051C160E563202084F821
:10236000390084F83A00002070BD00002DE9F047E4
:1023700086B0044614216846FDF75AFF6249614F52
:1023800023680024604A1039032502265F484FF075
:102390000809BB4217D1136843F400231360126885
:1023A00002F4002205920A6842F001020A600968FC
:1023B00002AB01F001010591CDE90056012183E84E
:1023C0002202694637E0DFF84881DFF83CC1072781
:1023D000DFF840A10CF1040C434531D1DCF80020BA
:1023E00042F01002CCF80020DCF8002002F01002CD
:1023F00005920A6842F001020A600A6802F00102CE
:1024000005920A6842F002020A60096802AA01F015
:10241000020105914FF40071CDE9001682E8B00089
:102420006946FEF79DFF8020CDE9000602AA6946B5
:1024300082E8B0005046FEF793FF06B0BDE8F08793
:10244000DFF8D480434521D1136843F4003313608F
:10245000126802F4003205920A6842F001020A6032
:10246000096802AB01F0010105910C21CDE90016CC
:1024700083E8B0006946FEF773FF0022114626206C
:10248000FFF7C4F92620FFF7B3F9D6E723488342C4
:1024900019D1106840F480201060106800F480208A
:1024A0000590086840F002000860086802AB00F080
:1024B000020005904FF44060CDE9000683E8B000CB
:1024C00069465046B7E716488342B6D1DCF80000AB
:1024D00040F02000CCF80000DCF8000000F0200004
:1024E0000590086840F004000860086802AA00F03F
:1024F00004000590C020CDE9000682E8300269465C
:10250000084898E7004C0040403802400000024074
:102510000010014000040240004400400048004018
:1025200000140140000802402DE9F843044690F8E9
:1025300039001F4616460D46202850D1B5B1AEB120
:1025400094F8380001284AD0012084F838004FF070
:102550000008C4F83C80212084F83900FEF7EEFF23
:10256000A6848146E68484F8388026E00120BDE810
:10257000F883E08C401EE084A0684B46B0F5805F95
:102580004FF000024FF080012046009703D002F088
:1025900009F8E8B90DE002F005F8C8B92888216803
:1025A000C0F308004860206908B16D1C05E0AD1C4F
:1025B00003E0216815F8010B4860E08C0028D8D1B1
:1025C0004B46002240212046009701F0EBFF08B166
:1025D0000320CCE7202084F839000020C7E7022040
:1025E000C5E7FEE77FB500241248009401940294E9
:1025F0000F49039401604FF44031C0E901140461B4
:10260000047680F820400C49C0E90A140125C56110
:10261000C46080F830404561FEF7C9FC0420CDE974
:102620000005694602940348FEF718FC7FBD0000D0
:1026300000220140C80400200100000F2DE9F04FE6
:1026400087B014216846FDF7F3FD72480024016845
:1026500041F010010160016801F01001059101686D
:1026600041F020010160016801F02001059101683D
:1026700041F004010160016801F004010591016865
:1026800041F001010160016801F00101059101685B
:1026900041F002010160016801F002010591016849
:1026A00041F008010160016801F00801059101682D
:1026B00041F0400101600068DFF85C9100F04000EB
:1026C00048F6F0350590002229464846FEF730FFCF
:1026D000DFF848A143F60306002231465046FEF7D4
:1026E00027FFDFF83CB1002220215846FEF720FFEB
:1026F0004FF44C47002239464A48FEF719FF0022A2
:1027000047F2FC014848FEF713FF4FF4807800229F
:1027100041464648FEF70CFF00950125CDE90154DE
:10272000694648460394FEF71BFE0096CDE9015426
:10273000694650460394FEF713FE1020CDE90004CD
:10274000694658460294FEF70BFE20200090CDE922
:102750000154694658460394FEF702FE0097CDE9FE
:10276000015469462F480394FEF7FAFD41F2FC003C
:102770000090CDE9015469462B480394FEF7F0FD23
:102780004FF41060CDE90004694627480294FEF733
:10279000E7FDCDF80080CDE9015469462348039454
:1027A000FEF7DEFD680200902148CDE9010469468C
:1027B0001D48FEF7D5FDA80200901E48CDE9010492
:1027C00069461948FEF7CCFD6803CDE900050320F2
:1027D000CDE9025069461448FEF7C2FDA803CDE9D1
:1027E0000005CDE9025469460F48FEF7B9FD002205
:1027F00001211720FFF70AF81720FEF7F9FF002242
:1028000001212820FFF702F82820FEF7F1FF07B08A
:10281000BDE8F08F30380240001002400014024042
:1028200000080240000C0240001802400000024074
:1028300000002110000011100B480A494FF40072EB
:1028400001604FF48271416000218160C1600161CB
:10285000C0E90512C1610162416281620A21C1625F
:10286000FFF79EBA00300140780500200A48094968
:1028700001604FF48271416000218160C16001619B
:1028800041618161C1610162416281620A21C1626B
:10289000FFF786BA00380040D005002010B586B09A
:1028A00000241348009401940294039404940F4963
:1028B000059401604FF4C871C0E901146421C0E9B6
:1028C000031444618461FFF761FB4FF48050009072
:1028D00069460748FFF7F5FB2020CDE9040404A969
:1028E0000348FFF70BFB06B010BD000000000140DD
:1028F0002806002010B586B00024124800940194E8
:102900000294039404944FF080410594016041F6D1
:10291000DF31C0E901146421C0E903148461FFF7C9
:1029200035FB4FF48050009069460648FFF7C9FB1D
:102930002020CDE9040404A90248FFF7DFFA06B01D
:1029400010BD00006806002010B586B000241248B3
:10295000009401940294039404940E490594016038
:1029600041F6DF31C0E901146421C0E90314846138
:10297000FFF70CFB4FF48050009069460648FFF7C4
:10298000A0FB2020CDE9040404A90348FFF7B6FA10
:1029900006B010BD00040040A806002010B586B0A7
:1029A00000241248009401940294039404940E4964
:1029B000059401604FF4E151C0E901140A21C0E916
:1029C00003148461FFF7E2FA4FF4805000906946E7
:1029D0000648FFF776FB2020CDE9040404A903484C
:1029E000FFF78CFA06B010BD00080040E806002092
:1029F000FEE700002DE9F04FE84841F270712DED3F
:102A00000A8B93B00068E64E91FBF0F1E548B160A7
:102A100090ED000ADFEDE40A20EE200ABDEEC00AC8
:102A200010EE100A0D1AE1497561F06009688046E0
:102A300001EB81018900F161401A0B913061DC48A2
:102A400000680C90FDF787FD9FEDDAAB53EC1A2B75
:102A5000FDF712FD9FEDD91B53EC112BFDF79AFCEE
:102A6000FDF78AFD0746F063D6480068FDF773FD61
:102A70009FEDD5BB53EC1B2BFDF7FEFC9FEDCF1B51
:102A800053EC112BFDF786FCFDF776FD7063D04803
:102A900000680390FDF75FFD9FEDCB1B53EC112BFE
:102AA000FDF7EAFC9FEDC51B53EC112BFDF772FC03
:102AB000FDF762FDC74908600D90C7480068814670
:102AC000FDF749FD9FEDC01B53EC112BFDF7D4FC26
:102AD0009FEDBA1B53EC112BFDF75CFCFDF74CFD91
:102AE000DFF8F8A20446CAF80000706D8346FDF7CF
:102AF00062FD9FEDBBCB53EC1C2BFDF745FCFDF7B6
:102B00003BFD08EE900AB064B74800680490FDF7FA
:102B100022FD9FEDB61B53EC112BFDF73BFC41EC66
:102B2000190B5846FDF747FD53EC1C2BFDF72CFC09
:102B300053EC192BFDF728FCFDF71EFD706496ED94
:102B4000169A08EE100A19EE100AFDF734FD9FEDF3
:102B5000A91B53EC112BFDF776FBFDF70DFDB1EE34
:102B6000000AF06439EE000A0890A64A4FF0010B03
:102B7000BDEEC00A10EE100A306507909F4812683B
:102B800001689F4806680C980E92101A6422504300
:102B9000012933D0002970D1814F9B497E6291ED8C
:102BA000000A9A49B1EE409A87ED0C9A09684942A9
:102BB0008846F962FDF7CFFC53EC1A2BFDF75CFC5D
:102BC000FDF7DAFC3860A6EB090064214843FDF705
:102BD000C2FC53EC1B2BFDF74FFCFDF7CDFCB8639B
:102BE0008B49049A8C4F0B688A49012A69DDDDF80C
:102BF0001CC0E04577DCB8EEC80ABCE08749DFF8C6
:102C0000A0A10968CAF82010894606918449CAF82B
:102C1000246055460968CAF82810FDF79CFC53EC5F
:102C20001A2BFDF729FCFDF7A7FC06462860039840
:102C30006421A9EB00004843FDF78DFC53EC1B2BEE
:102C4000FDF71AFCFDF798FC6860764A764D014660
:102C500010780C9B2D68DFF8D4918BB300283DD100
:102C60000C980E9B3238834202DDC9F8001033E025
:102C70005446BE4202DD206C02E02FE0B81B206407
:102C8000B84200DD2764206CFDF765FC9FED681BF2
:102C900053EC112BFDF77EFBFDF76EFC90FBF8F17A
:102CA0005B4AC9F80010491BC2F800800B9891FBE1
:102CB000F0F0A06110B95846C4F818B001462AE0F7
:102CC00000E051E0002809D1039B069E5B1E5046A0
:102CD0009E4209DDC9F8004082F800B013B0BDEC97
:102CE0000A8BBDE8F08F4BE00D9B3A4A994201DD1B
:102CF000116801E0591A11604900454BC9F80010EC
:102D00004A1BC3F800800B9992FBF1F1816111B964
:102D10005946C0F818B048480160DFE7DAF800000B
:102D200001E0201A1060404A10605819401C0D60E4
:102D3000386007E0DAF8000001E0201A10603A4A33
:102D400010600D603D493E4A00200B7803B3A9F1A5
:102D500002039E4201DC1070087009F102039E42DA
:102D6000BCDD82F800B017E00ED1DDF820C0E045F0
:102D700006DCB8EEE80AB4EEC09AF1EE10FA03D21F
:102D80005246A042CDDDC9E75246A042D5DDD1E78B
:102D9000B9EB460FA2DB107008709FE72C010020F2
:102DA00078030020740100200000C84228010020A0
:102DB000440100200000000000E0954000000000F9
:102DC00000005940400100200000000000804B40FE
:102DD0002001002008020020240100200C02002015
:102DE000333333333333D33F3C0100209A999999DD
:102DF0009999B93F0000000000000C404C000020F1
:102E00005800002084000020740000206000002092
:102E10004400002048000020B4000020540000209E
:102E20005C000020F90000203C0000203800002059
:102E30000000000000C0684040000020F8000020B2
:102E4000EC000020704700002DE9F04FEA4841F205
:102E500070712DED088B85B0D0F800A0DFF89C9341
:102E600091FBFAF04D467821C5E916017838C9F88A
:102E70006000E348006800EB80008000C9F80800AB
:102E80000390E04800680746FDF765FB9FEDDEBB59
:102E900053EC1B2BFDF7F0FA9FEDDD1B53EC112BD0
:102EA000FDF778FAFDF768FB0446E864DA48006845
:102EB000FDF751FB9FEDD9AB53EC1A2BFDF7DCFA74
:102EC0009FEDD31B53EC112BFDF764FAFDF754FB78
:102ED000A862D44800680190FDF73DFB9FEDCF1B31
:102EE00053EC112BFDF7C8FA9FEDC91B53EC112BC6
:102EF000FDF750FAFDF740FB0646E861CA48006856
:102F0000FDF729FB9FEDC51B53EC112BFDF7B4FA20
:102F10009FEDBF1B53EC112BFDF73CFAFDF72CFB8B
:102F20006862E86B8046FDF746FB9FEDC01B53ECE3
:102F3000112BFDF729FAFDF71FFB08EE900A286315
:102F4000BC4800688346FDF706FB9FEDBB1B53ECB6
:102F5000112BFDF71FFA41EC190B4046FDF72BFB37
:102F60009FEDB21B53EC112BFDF70EFA53EC192B0E
:102F7000FDF70AFAFDF700FBE86295ED109A08EEFE
:102F8000100A19EE100AFDF716FB9FEDAD1B53EC6E
:102F9000112BFDF758F9FDF7EFFAB1EE000A68635F
:102FA00039EE000AA848AA4A4FF00008BDEEC00A50
:102FB00085ED0E0A0168A548A64D002903686EDD5F
:102FC000A548A84A01684846C1600091A349036129
:102FD00009684161A2488946006802901368A0EB25
:102FE000030000FB01F04FF0640190FBF1F19E48FB
:102FF000036819440160029810608A48964A8B461B
:10300000006812685FEA0A01A2EB00004FF0640258
:1030100000FB02F004908E48D0F800A023D0ABEB68
:10302000070064214843FDF796FA53EC1B2BFDF78C
:1030300023FAFDF7A1FA7149814688640498FDF7E7
:103040008AFA53EC1A2BFDF717FAFDF795FA6B493C
:10305000002F0862014673D0BB456FDA674EA14569
:103060004ADD306D4BE0654C0498FDF774FA53EC83
:103070001A2BFDF701FAFDF77FFA20625FB1676551
:10308000626D934536DCDDE9001291422FDCB042DF
:1030900006DDE06906E04FF4AF616165F0E769E0E5
:1030A000301AE061A0EB0A012860039891FBF0F070
:1030B000606008B90120606001466C4801606C499D
:1030C0000868814506DDC1F8009005B0BDEC088BAD
:1030D000BDE8F08F0028F8DDA0EB09016422514320
:1030E00091FBF0F06349096849428842EDDB0C200E
:1030F00028603BE00D20FBE7A4EB09003065A0420F
:1031000000DD3465306DFDF726FA9FED5B1B53EC57
:10311000112BFDF73FF9FDF72FFA316890FBF1F025
:10312000A0EB0A012860039891FBF0F0706008B9E9
:1031300001207060014614E002E0FFE70E20D7E7AF
:103140002E48B14201DDC16901E0711AC161A1EBF4
:103150000A022960039992FBF1F1416009B901214A
:1031600041604248016002987828AEDD444981F808
:103170000080AAE7A9D13E494046BBF1010FC1F842
:103180000080C9F810303F4B49461B68C9F8183019
:103190003D4B93ED000AB1EE400A89ED110A0AD0C9
:1031A000F8EEC80AB4EEE00AF1EE10FA06D20120F9
:1031B00048662E6006E0F8EEE80AF3E70C234B625F
:1031C000486613602E4ABAF1000F1070D1DD2F4807
:1031D000006800EBC00202EB00102D4A1268B2EB4F
:1031E000800FC6DDD9F864000028C2D1244901202F
:1031F0002E60087069E700000C010020C00200206A
:10320000040100201C0100200000000000E09540A7
:1032100000000000000059401401002000000000E0
:1032200000804B40FC00002000010020333333338A
:103230003333D33F080100209A9999999999B93F5E
:103240000000000000000C404C000020580000204E
:103250003C00002038000020540000205C000020CA
:10326000B4000020B00000208C00002040000020AE
:10327000CC000020180100200000000000C06840C1
:10328000D000002060000020740000201001002009
:10329000BC000020704700002DE9F04FF74841F2D4
:1032A00070712DED0A8B93B00068F54D91FBF0F035
:1032B000F449286191ED000ADFEDF30A41F27071E3
:1032C000642220EE200ABDEEC00A10EE104A6C61A6
:1032D000001B0894A8610D90EC4810EE104A00689D
:1032E00091FBF0F000EB8001090191FBF2F1C5E9DF
:1032F0000001061B0F91E648C5E9024600680490EC
:10330000FDF729F99FEDE39B53EC192BFDF7B4F87A
:103310009FEDE28B53EC182BFDF73CF8FDF72CF9F1
:103320008346E862DF4800688246FDF714F953ECF3
:10333000192BFDF7A1F853EC182BFDF72BF8FDF72F
:103340001BF907466863D84800680690FDF703F943
:103350009FEDD6BB53EC1B2BFDF78EF853EC182BCF
:10336000FDF718F8FDF708F98146E865286D059026
:10337000FDF721F99FEDCFCB53EC1C2BFCF763FF3E
:10338000FDF7FAF808EE900A6864CC4800681090DF
:10339000FDF7E1F89FEDCA1B53EC112BFCF7FAFF88
:1033A00041EC1A0B0598FDF706F953EC1C2BFCF7C2
:1033B0004AFF53EC1A2BFCF746FFFDF7DDF82864B3
:1033C00095ED158A0AEE100A18EE100AFDF7F3F8CB
:1033D0009FEDBD1B53EC112BFCF735FFFDF7CCF82F
:1033E000B1EE000AA86438EE000A0A90BDEEC00AE9
:1033F00010EE100AE8640990B548B64D006801283F
:103400004FD000287ED1B4489D499D4A006808628B
:10341000B2498346A0EB0A0091ED008A984981EDFC
:10342000168AAF4909684942884691626421484337
:10343000FDF791F853EC192BFDF71EF8FDF79CF8FA
:103440008F49AA4B4FF0000EC863A649D1F800C0BF
:10345000A549C1F800C0109AA549012A76DD424667
:10346000DDF82480424507DCB8EECA0A844AB4EE8F
:10347000C08AF1EE10FA6ADD01221A60DDF83C80A4
:103480007F4AC4450CDDB84201DC381A50639948C4
:103490002E600460506B0860924AA019401C1060B6
:1034A000AAE0954807687648C7619448016874485F
:1034B000416293480699D0F800A0AAEB010064216C
:1034C0004843FDF748F853EC1B2BFCF7D5FFFDF7FD
:1034D00053F86B498046086304986421381A4843BE
:1034E000FDF739F853EC192BFCF7C6FFFDF744F84C
:1034F00063496D4A8863834912680F688249323A8A
:103500000B7800E02CE01FB3002B29D1924523DC7F
:103510005B48C84502DCA9EB08010166026E4A451A
:1035200001DDC0F86090006EFDF715F89FED771B88
:1035300053EC112BFCF72EFFFDF71EF890FBF4F176
:10354000744801606B490898086019E027E019E0A9
:10355000002B05D1924508DD6E4A106001200870ED
:1035600013B0BDEC0A8BBDE8F08F4549584502DC2D
:10357000ABEB0000C8626748C96A01605D4804603F
:103580002E60EDE7C3F800E0B84201DD506B01E0CA
:10359000381A5063086057482E6004602CE02BD125
:1035A0004246DDF82880424507DCB8EEE80A344A96
:1035B000B4EEC08AF1EE10FA13DD01221A60DDF8D4
:1035C0003C802F4AC44517DDB84201DC381A5063ED
:1035D00048482E60434A0460A019401C106019201E
:1035E00009E0C3F800E0B84201DC381A50634148F2
:1035F0002E600460506B08604748006800EBC00212
:1036000002EB0010454A1268B2EB800F10DD18681B
:1036100070B94048374A3B4CC0F800900898106099
:103620000D9A2A60104401232E4A401C236010602A
:103630003B483C4B0278002A114A14D0AAF10204FC
:10364000A34505DC546B0C6083F800E080F800E0D3
:103650000AF10204A34583DD526B0A60012119704F
:1036600080F800E07CE7BAEB4B0F8ADB526B0A6014
:1036700083F800E080F800E072E700009C01002081
:10368000140200207C0100200000C84288010020B4
:10369000800100200000000000804B40000000007E
:1036A0000000594084010020A40100200000000017
:1036B00000E09540333333333333D33F9801002058
:1036C0009A9999999999B93F0000000000000C401F
:1036D0004C0000204800002058000020740000200A
:1036E00060000020B4000020B0000020E4000020B2
:1036F0003C00002044000020540000205C0000201A
:1037000088000020E8000020F900002000000000F0
:1037100000C0684038000020A0010020C000002048
:10372000F8000020EC00002005494FF4FA70086012
:10373000044908600449052008600449086070478E
:103740004400002048000020380000203C000020F9
:103750007047FDF7F3BF000030B593B030216846E5
:10376000FCF766FD14210CA8FCF762FD1848002543
:10377000016841F080510160006800F080501190B4
:103780001448016841F4804101600068022400F49B
:103790008040119001200390102004900094069422
:1037A0000820CDE907504820CDE9090403200B90FB
:1037B0006846FEF747F90CA90F2081E83100E002C6
:1037C0000F90109002210CA8FEF752F813B030BDF4
:1037D00040380240007000400548016841F4700123
:1037E000016003494FF000608039086070470000B5
:1037F00088ED00E00D4910B50868401C0860642899
:1038000001D100200860024609484FF400610368B6
:1038100008489A4201DA012200E00022FDF788FE02
:10382000BDE810400448FEF7B8BC0000400300208B
:103830000400002000100240280600200148FEF786
:10384000ACBC0000680600202DE9F05FFE48FF4F89
:10385000DFF8FCA3FF4DDFF80094DFF800B400248C
:103860002DED028B0178FE4E052969D0DAF80000B3
:10387000DFF8F083401CFC4BCAF80000D8F80020A9
:103880001B681344834232DC3868401C3860F748B8
:103890000460F748C9F80040CBF800400460F548E0
:1038A0000460F5480460F5480460F5480460F54894
:1038B0000460F5480460F5480460F54804600120A0
:1038C000F44B1870F44B1870F448CAF80040F44BED
:1038D00007687F1C07601B6803F1640C674500DD07
:1038E000046007689F4202DDEE4B1C700460DAF84A
:1038F0000000ED4F90420DDCEC483C600068F06049
:1039000031B1012904D001225102E948FDF710FE2E
:1039100001202860DAF80010D8F8000081424CDD60
:10392000E4480470D3480460D4480460D548046077
:10393000E1480068F0602C603868401C38603EE068
:103940003169DFF8788323290ADD00224FF4007102
:10395000D7483461FDF7ECFD98F8000030B920E05D
:1039600098F80020D648BAB134610460CF480068A6
:10397000F060B548007830B1012804D0012251022E
:10398000CB48FDF7D5FDDAF80010491CCAF8001045
:1039900001203C6028601CE0491C31610168491C21
:1039A00001606FF06300CAF800403860C2480068E8
:1039B000F060C4482C6004600BE0286848B9B54842
:1039C0000078002879D000224FF40071B848FDF744
:1039D000AFFDF068002804DB642800DD642002F0FD
:1039E00019F8B94FF461386801F0CCFEBDEEC00A99
:1039F000F16910EE100A0844F061386801F0C2FE67
:103A0000BDEEC00AF16910EE100A0844F061386892
:103A100001F0B8FEBDEEC00AF16910EE100A0844CC
:103A2000F061386801F0AEFEBDEEC00AF16910EE3B
:103A3000100A0844F061386801F0A4FEBDEEC00A27
:103A4000F16910EE100A0844F061386801F09AFE3E
:103A5000BDEEC00AF16910EE100A0844F061386842
:103A600001F090FEBDEEC00AF16910EE100A0844A4
:103A7000F061386801F086FEBDEEC00AF16910EE13
:103A8000100A0844F061386801F07CFEBDEEC00AFF
:103A9000F16910EE100A0844F061386801F072FE16
:103AA000BDEEC00AF16910EE100A0844F06100286A
:103AB00005DC864804600AE0FFE7012284E700EBAA
:103AC00080008100642091FBF0F180480160804F0C
:103AD000F461386801F056FEBDEEC00AF16910EEDF
:103AE000100A0844F061386801F04CFEBDEEC00ACF
:103AF000F16910EE100A0844F061386801F042FEE6
:103B0000BDEEC00AF16910EE100A0844F061386891
:103B100001F038FEBDEEC00AF16910EE100A08444B
:103B2000F061386801F02EFEBDEEC00AF16910EEBA
:103B3000100A0844F061386801F024FEBDEEC00AA6
:103B4000F16910EE100A0844F061386801F01AFEBD
:103B5000BDEEC00AF16910EE100A0844F061386841
:103B600001F010FEBDEEC00AF16910EE100A084423
:103B7000F061386801F006FEBDEEC00AF16910EE92
:103B8000100A0844F061386801F0FCFDBDEEC00A7F
:103B9000F16910EE100A0844F061002802DC4D487B
:103BA000046007E0572148434FF47A7190FBF1F12C
:103BB000484801609FED488A484F86ED068A38687C
:103BC00001F0E0FDD6ED060A30EE200A86ED060A89
:103BD000386801F0D7FDD6ED060A30EE200A86EDF2
:103BE000060A386801F0CEFDD6ED060A30EE200A4E
:103BF00086ED060A386801F0C5FDD6ED060A30EEFE
:103C0000200A86ED060A386801F0BCFDD6ED060AEA
:103C100030EE200A86ED060A386801F0B3FDD6EDD5
:103C2000060A30EE200A86ED060A386801F0AAFD81
:103C3000D6ED060A30EE200A86ED060A386801F055
:103C4000A1FDD6ED060A4BE0FA000020E0000020BE
:103C5000B40000204C0000208000002084000020E0
:103C6000400300204400002048000020B000002055
:103C70008800002094000020980000209C00002074
:103C8000A0000020A8000020AC0000203803002085
:103C90003C030020EC000020F8000020DC000020A5
:103CA00064010020D8000020C0000020380000205F
:103CB00000100240F90000203C000020D00000204D
:103CC000BC0000208C0000202400002054000020B4
:103CD0002800002058000020000000002C000020D8
:103CE00030EE200A86ED060A386801F04BFDD6ED6D
:103CF000060A30EE200A86ED060A386801F042FD19
:103D0000D6ED060A30EE200A86ED060AFE48B5EE2C
:103D1000C00AF1EE10FA02D880ED008A05E0F5EE57
:103D2000000A20EE200A80ED000AF84FF46138689E
:103D300001F006FBBDEEC00AF16910EE100A08445E
:103D4000F061386801F0FCFABDEEC00AF16910EECE
:103D5000100A0844F061386801F0F2FABDEEC00ABA
:103D6000F16910EE100A0844F061386801F0E8FAD1
:103D7000BDEEC00AF16910EE100A0844F06138681F
:103D800001F0DEFABDEEC00AF16910EE100A084437
:103D9000F061386801F0D4FABDEEC00AF16910EEA6
:103DA000100A0844F061386801F0CAFABDEEC00A92
:103DB000F16910EE100A0844F061386801F0C0FAA9
:103DC000BDEEC00AF16910EE100A0844F0613868CF
:103DD00001F0B6FABDEEC00AF16910EE100A08440F
:103DE000F061386801F0ACFABDEEC00AF16910EE7E
:103DF000100A0844C649F061002801DC0C6003E0A9
:103E00000A2290FBF2F00860884609686E2251434E
:103E1000642291FBF2F1BF4FC8F80010F4613868DA
:103E200001F08EFABDEEC00AF16910EE100A0844E6
:103E3000F061386801F084FABDEEC00AF16910EE55
:103E4000100A0844F061386801F07AFABDEEC00A41
:103E5000F16910EE100A0844F061386801F070FA58
:103E6000BDEEC00AF16910EE100A0844F06138682E
:103E700001F066FABDEEC00AF16910EE100A0844BE
:103E8000F061386801F05CFABDEEC00AF16910EE2D
:103E9000100A0844F061386801F052FABDEEC00A19
:103EA000F16910EE100A0844F061386801F048FA30
:103EB000BDEEC00AF16910EE100A0844F0613868DE
:103EC00001F03EFABDEEC00AF16910EE100A084496
:103ED000F061386801F034FABDEEC00AF169DFF82C
:103EE00038C210EE100A0844F061002802DCCCF859
:103EF000004004E00A2190FBF1F0CCF8000070696A
:103F0000864A401C70612F6831468646012F3DD09D
:103F10001368DCF80050824A95FBF3F016683044D1
:103F20001060D9F80060864202DB301AC9F8000040
:103F300095FBF3F27B48066832440260DBF80060D0
:103F4000B21A002A01DDCBF8002095FBF3F2764887
:103F500003681A440260754803689A1A002A00DD53
:103F60000260BEF10A0F7ADB8A6A052092FBF0F24A
:103F70006F4B1A600A6B92FBF0F56E4805608C621D
:103F80006D48CC620C63027822B306E1D8F80000D9
:103F900012686A4B90FBF2F51E6835441D60C9F843
:103FA000005090FBF2F5664B1E6835441D60CBF85F
:103FB000005090FBF2F5634B90FBF2F01E68624AF2
:103FC00035441D60594B1D601368184410605F4AEA
:103FD0001060C6E7DFF878B1DBF800200A2A7BDA48
:103FE000FF235C48012F0AD05B4EC2EBC20700EBF7
:103FF00047073668002E19DA3B71764217E0574EB4
:10400000C2EBC20700EB47073668002E02DA3B71AD
:10401000764200E03C717E71D8F80060002E0BDB28
:10402000C2EBC20700EB4707BC711EE03C717E711A
:10403000DCF80060002E13DAC2EBC20700EB470881
:1040400077424FEAE77C07EB1C6C88F806304FEAB2
:104050001C2788F80770764288F808600EE09EE01A
:10406000C2EBC20700EB4707BB714FEAE67C06EBE9
:104070001C684FEA182C87F807C03E724E6AC2EBE4
:10408000C207002E00EB47070ADA76424FEAE67CC9
:1040900006EB1C667B72360ABE72D9F8006008E037
:1040A0004FEAE67C06EB1C687C724FEA182C87F816
:1040B0000AC0FE72002DC2EBC2060EDA00EB460704
:1040C0006E424FEAE67C06EB1C6C3B734FEA1C2603
:1040D0007E736D42BD730AE05AE000EB4606EF17AF
:1040E00005EB176C34734FEA1C277773B5731C4DBF
:1040F0002D68002D3CDAC2EBC20600EB4600C3730C
:104100006B42DE172EE0000074000020300000201B
:104110005C0000203400002060000020900000209F
:1041200098000020A0000020AC00002088000020A3
:10413000640000206800002070000020940000202F
:104140009C000020A8000020A40000208C0000207B
:10415000F00000203404002058000020540000200B
:104160006C00002003EB16631E0A06746B420AE023
:10417000C2EBC20300EB4300EB1705EB13631E0A0F
:10418000C47306742B464374521CCBF8002004E021
:104190002C4A127882F0010202704C6120E02A4819
:1041A0000078022806D0032807D0042808D0052864
:1041B00008D00AE0D9F8000006E0DBF8000003E0D0
:1041C000224800E022480068486222488A6A006863
:1041D00010448862CA6AD8F800001044C1E90B0490
:1041E0008868401C88600A2808D11B484FF4167361
:1041F00002685A43194B1A6004608C604868401C7E
:104200004860B0F5967F08D14FF400711448FDF76F
:1042100083F910B1134901200870DAF80010642006
:1042200091FBF0F200FB121008B1002100E0012127
:10423000062001F0C1F8BDEC028B0B48BDE8F05F31
:10424000FDF7ABBF22000020FA000020880000200C
:104250008C00002054000020180000205000002096
:104260000018024078000020A8060020164A10B569
:104270001068401C1060322811D1144800211160D0
:104280000078012810D0052811D0032812D0022868
:1042900013D0042814D00E4801600E480160BDE818
:1042A00010400D48FDF779BFFFF73EFAF7E7FEF73C
:1042B000CBFDF4E7FEF79EFBF1E7FCF7AFFAEEE784
:1042C000FEF7EAFFEBE70000B8000020FA0000204C
:1042D000380000203C000020E80600202DE9F041D5
:1042E00013480178F9B10021124C01700120124FDE
:1042F000124D134E206212E017F8202002212846AA
:10430000FDF716F9012211462846FDF711F90022A2
:1043100001212846FDF70CF9206A401C2062316813
:10432000091D8842E8DBBDE8F0410648FDF735BFCE
:104330007900002040030020E40300200014024024
:104340007C00002028070020F0B50268254C264D8F
:10435000264E274F274B4FF0804CA04209D0604596
:1043600007D0A84205D0B04203D0B84201D098424D
:1043700004D122F0700E4A6842EA0E02A0421BD01D
:10438000604519D0A84217D0B04215D0B84213D01A
:10439000984211D0184DA8420ED0184DA8420BD00B
:1043A000174DA84208D0174DA84205D0164DA84277
:1043B00002D0164DA84203D122F44075CA682A43A0
:1043C0004D6922F080022A4302608A68C2620A684C
:1043D0008262A04201D0984201D1096901630121A2
:1043E0004161F0BD000001400004004000080040B1
:1043F000000C004000040140004001400044014026
:104400000048014000180040001C0040002000400F
:1044100010B5846842EA032224F47F440A4322430D
:10442000826010BD826822F070020A4342F00701E8
:104430008160704710B5036A046A24F001040462C5
:10444000846924F0F00444EA021423F00A020A43C7
:104450008461026210BD10B5036A23F01003036289
:104460008369046A23F4704343EA023224F0A00310
:1044700043EA01118261016210BD00002DE9F041A3
:10448000044600680169E26821F44051114301616A
:104490002169A068E2690843616911430843216802
:1044A000CA6849F20C639A430243CA6020684169B2
:1044B000A26921F4407111434161E0691927642523
:1044C0003226B0F5004F354A354920684FF00008D4
:1044D00006D0884201D0904236D1FDF773FA35E01C
:1044E000884201D0904202D1FDF76CFA01E0FDF75D
:1044F00059FA61684A18A0FB070148EB0803FBF76B
:104500005FFE0146B0FBF5F00201B1FBF5F06FF084
:104510001803584301EB800006EBC000B0FBF5F038
:1045200000F0F80002EB4002B1FBF5F0584301EB5C
:10453000800006EBC000B0FBF5F000F0070021683A
:1045400010448860BDE8F081FDF72CFA61688B0F9C
:104550008A00A0FB0701FBF733FE0146B0FBF5F034
:104560006FF01802504301EB800006EB0010B0FB27
:10457000F5F000F0F002B1FBF5F002EB0012B1FB38
:10458000F5F06FF01803584301EB800006EB0010C4
:10459000B0FBF5F000F00F00D1E70000001401407F
:1045A000001001402DE9F041984617460E4604469A
:1045B000069D1DE0681C1BD02DB1FCF7BFFFA0EBD2
:1045C0000800A84214D92068C16821F4D071C160E4
:1045D0002068416921F001014161202084F83900FF
:1045E00084F83A00002084F838000320BDE8F08108
:1045F0002068006836EA000004D00020B842D9D014
:104600000020F3E70120F9E710B5144C2068C068DA
:10461000800610D50121022001F0F0F920684368DE
:1046200010490F4A08681354401C0860B0F5FA7F1F
:1046300002DB0020086010BD0028FCDD104410F8EB
:10464000021CFF29F7D110F8010C0A28F3D1064902
:10465000012008600549087010BD0000E80700202F
:10466000A8080020300300202C0300202200002096
:10467000FEE70907090E002804DB00F1E02080F8BE
:104680000014704700F00F0000F1E02080F8141DC6
:10469000704702E008C8121F08C1002AFAD170470B
:1046A0007047002001E001C1121F002AFBD17047B2
:1046B00070B51E4C1E492DED028B207908601D49F6
:1046C000607908601C49A07908601C49E07908609D
:1046D0001B49207A08601B48657A1B490560A07A4F
:1046E0000860FBF738FF9FED191B53EC112BFBF70C
:1046F000C3FE41EC180B2846FBF72DFF53EC182B9B
:10470000FBF7A1FDFBF76AFF124908601249E07A46
:1047100008601249207B0860A07B617B00EB0120D0
:104720000F490860BDEC028B70BD0000A808002096
:104730002001002024010020280100202C0100205D
:10474000300100203401002038010020000000006A
:1047500000002440740100203C01002040010020A2
:10476000440100200B480C4A017911600B4A417941
:1047700011600B4A817911600A4AC17911600A4AB5
:10478000017A1160817A407A01EB002007490860C4
:1047900070470000A8080020D8010020DC0100209C
:1047A000E0010020E4010020E8010020EC010020ED
:1047B00070B52A4C2A492DED048B207908602949CF
:1047C000607908602849A07908602849E079086084
:1047D0002748257A27490560607A0860FBF7BBFE09
:1047E0009FED259B53EC192BFBF746FE41EC180B74
:1047F0002846FBF7B0FE53EC182BFBF724FDFBF724
:10480000EDFE1F4908601F49A07A08601E49E07A42
:104810000860257B607BFBF79EFE53EC192BFBF7B2
:104820002BFE41EC180B2846FBF795FE53EC182B9A
:10483000FBF709FDFBF7D2FE14490860E07BA17B82
:1048400000EB012012490860607C217C00EB012014
:1048500010490860BDEC048B70BD0000A808002062
:10486000480100204C01002050010020540100208C
:10487000580100205C0100200000000000002440DE
:1048800078010020600100206801002070010020F4
:10489000640100206C010020F0B44FF48063194DD6
:1048A0005C00194E9F0001290AD001281ED0022861
:1048B0001FD0032820D0042821D10022394611E03E
:1048C000012807D0022807D0032809D0042816D1D0
:1048D0000122F3E701220AE001220BE0284602E070
:1048E00001220AE03046F0BCFCF722BE0022194645
:1048F000F4E700222146F1E700222146F2E7F0BC6E
:1049000070470000000C0240001402402DE9F047FF
:10491000FE4CFF4E19202060306041F28830FCF7D9
:10492000FFFC01210220FFF7B7FFFA4801270068CA
:1049300008B9F948077000252560F84C3560F84E35
:104940002560306800F01EFFD4ED000AF8EEE00AA2
:1049500030EE200ABDEEC00A84ED000A306800F097
:1049600011FFD4ED000AF8EEE00A30EE200ABDEEA9
:10497000C00A84ED000A306800F004FFD4ED000A9C
:10498000F8EEE00A30EE200ABDEEC00A84ED000A1F
:10499000306800F0F7FED4ED000AF8EEE00A30EEE1
:1049A000200ABDEEC00A84ED000A306800F0EAFE7D
:1049B000D4ED000AF8EEE00A30EE200ABDEEC00A9F
:1049C00084ED000A306800F0DDFED4ED000AF8EE58
:1049D000E00A30EE200ABDEEC00A84ED000A30681D
:1049E00000F0D0FED4ED000AF8EEE00A30EE200A26
:1049F000BDEEC00A84ED000A306800F0C3FED4EDBD
:104A0000000AF8EEE00A30EE200ABDEEC00A84ED9E
:104A1000000A306800F0B6FED4ED000AF8EEE00AB5
:104A200030EE200ABDEEC00A84ED000A306800F0C6
:104A3000A9FED4ED000A4FF00A084FF0FF39F8EE56
:104A4000E00A30EE200ABDEEC00A10EE100A206027
:104A500090FBF8F0484501DAB2480770B24E256085
:104A6000306800F08FFED4ED000AF8EEE00A30EE78
:104A7000200ABDEEC00A84ED000A306800F082FE14
:104A8000D4ED000AF8EEE00A30EE200ABDEEC00ACE
:104A900084ED000A306800F075FED4ED000AF8EEEF
:104AA000E00A30EE200ABDEEC00A84ED000A30684C
:104AB00000F068FED4ED000AF8EEE00A30EE200ABD
:104AC000BDEEC00A84ED000A306800F05BFED4ED54
:104AD000000AF8EEE00A30EE200ABDEEC00A84EDCE
:104AE000000A306800F04EFED4ED000AF8EEE00A4D
:104AF00030EE200ABDEEC00A84ED000A306800F0F6
:104B000041FED4ED000AF8EEE00A30EE200ABDEED8
:104B1000C00A84ED000A306800F034FED4ED000ACB
:104B2000F8EEE00A30EE200ABDEEC00A84ED000A7D
:104B3000306800F027FED4ED000AF8EEE00A30EE0F
:104B4000200ABDEEC00A84ED000A306800F01AFEAB
:104B5000D4ED000AF8EEE00A30EE200ABDEEC00AFD
:104B600010EE100A206090FBF8F0484501DA6F481B
:104B700007706F4E2560306800F0E2FBD4ED000A4C
:104B8000F8EEE00A30EE200ABDEEC00A84ED000A1D
:104B9000306800F0D5FBD4ED000AF8EEE00A30EE04
:104BA000200ABDEEC00A84ED000A306800F0C8FBA0
:104BB000D4ED000AF8EEE00A30EE200ABDEEC00A9D
:104BC00084ED000A306800F0BBFBD4ED000AF8EE7B
:104BD000E00A30EE200ABDEEC00A84ED000A30681B
:104BE00000F0AEFBD4ED000AF8EEE00A30EE200A49
:104BF000BDEEC00A84ED000A306800F0A1FBD4EDE0
:104C0000000AF8EEE00A30EE200ABDEEC00A84ED9C
:104C1000000A306800F094FBD4ED000AF8EEE00AD8
:104C200030EE200ABDEEC00A84ED000A306800F0C4
:104C300087FBD4ED000AF8EEE00A30EE200ABDEE64
:104C4000C00A84ED000A306800F07AFBD4ED000A57
:104C5000F8EEE00A30EE200ABDEEC00A84ED000A4C
:104C6000306800F06DFBD4ED000A4FF06408F8EEF8
:104C7000E00A30EE200ABDEEC00A10EE100A2060F5
:104C800090FBF8F0484501DA2A4807702A4E256063
:104C9000306800F055FBD4ED000AF8EEE00A30EE83
:104CA000200ABDEEC00A84ED000A306800F048FB1F
:104CB000D4ED000AF8EEE00A30EE200ABDEEC00A9C
:104CC00084ED000A306800F03BFBD4ED000AF8EEFA
:104CD000E00A30EE200ABDEEC00A84ED000A30681A
:104CE00000F02EFBD4ED000AF8EEE00A30EE200AC8
:104CF000BDEEC00A84ED000A306800F021FBD4ED5F
:104D0000000AF8EEE00A30EE200A17E03800002032
:104D10003C000020500000201C0000201002002059
:104D2000240000201D000020280000201E0000207C
:104D3000300000202000002034000020BDEEC00A1A
:104D400084ED000A306800F0FBFAD4ED000AF8EEBA
:104D5000E00A30EE200ABDEEC00A84ED000A306899
:104D600000F0EEFAD4ED000AF8EEE00A30EE200A88
:104D7000BDEEC00A84ED000A306800F0E1FAD4ED1F
:104D8000000AF8EEE00A30EE200ABDEEC00A84ED1B
:104D9000000A306800F0D4FAD4ED000AF8EEE00A18
:104DA00030EE200ABDEEC00A84ED000A306800F043
:104DB000C7FAD4ED000AF8EEE00A30EE200ABDEEA4
:104DC000C00A10EE100A206090FBF8F0484501DAA6
:104DD000084807704FF480710748FCF79DFB0749AE
:104DE00008B10F7000E00D70BDE8F047002102200F
:104DF000FFF752BD21000020001802401F000020D4
:104E000030B503464FF6FF700022074C08E09D5C6A
:104E10004540EDB2521C34F8255085EA102080B28E
:104E20008A42F4DB30BD0000345A00082DE9F0431B
:104E300087B0FE27DDE90F548DF8007008278DF844
:104E40000170284FDDF844900E9ED7F800C04CF258
:104E50005038C44503DD4FF0010CC7F800C08DF891
:104E600002C00CF1010CC7F800C08DF803008DF8EA
:104E700010008DF804108DF814608DF811108DF865
:104E800015508DF805208DF808508DF816408DF8D6
:104E900006308DF809408DF812208DF817908DF8A6
:104EA00007608DF80A908DF813309DF8011004A862
:104EB000FFF7A6FFB0F5807F01D8002100E0010ACE
:104EC0008DF80C00FF208DF80D000A208DF80B10D6
:104ED0008DF80E000F21684600F0F4FC07B0BDE825
:104EE000F0830000F40000201FB5FE228DF80020A2
:104EF00002228DF80120174A4CF250341368A34265
:104F000001DD012313608DF802305B1C13608DF806
:104F10000C008DF803008DF804108DF80D109DF82D
:104F2000011003A8FFF76CFFB0F5807F01D80021C6
:104F300000E0010A8DF805108DF80600FF208DF8BD
:104F400007000A208DF808000921684600F0BAFC25
:104F50001FBD0000F4000020704700002DE9FF5F36
:104F6000B54D4FF4FA796978494574DC2878FE2804
:104F700071D108006FD068180279FF2A6BD142798D
:104F80000A2A68D1C278807802EB002084B200201F
:104F900005F5FA7203E02B189B781354401C8842E5
:104FA000F9DBA648FFF72CFFA04254D1A878A44F04
:104FB00000246E2822D0A349A34EDFF89082DFF8A8
:104FC00090A2DFF890B2D0B3042879D0012872D033
:104FD000022871D003283ED1E87801286DD002283C
:104FE0006CD003286BD0042835D100F087FC042155
:104FF000032004B0BDE8F05FFFF776BF3C70E878AF
:10500000012801D1FFF782FC95499348974F0D780D
:105010000278944991480E780378934942EA030054
:10502000284309783043084301D1387848B13878AB
:10503000CDE90056CDE9021001216E2009E00CE017
:1050400009E000230094019402941A4619466E2048
:105050000394FFF7EBFEBDE8FF9F0C600120387062
:10506000002100F0CBFC0021022000F0C7FC002151
:10507000032000F0C3FC0021042000F0BFFC00214D
:10508000052000F0BBFC0121062000F0B7FC012147
:10509000072000F0B3FC3068C8F80000C6F80090A4
:1050A00073490C20CAF80090CBF80000086000217A
:1050B00008469EE704E02FE036E0B0E0B3E0B6E05B
:1050C0000C603C700021012000F098FC00210220BF
:1050D00000F094FC0021032000F090FC002104204B
:1050E00000F08CFC0021052000F088FC0121062046
:1050F00000F084FC0121072000F080FC3068C8F833
:105100000000C6F800905A48CAF80090CBF800405A
:105110000021046004206CE700210120FFF7E4FE79
:10512000BDE8FF5FFFF718BFDFF848A15248CAF893
:1051300000400C6004605148002104605048046045
:1051400050480460012000F059FC0021022000F0CA
:1051500055FC0021032000F051FC0021042000F048
:105160004DFC0021052000F049FC0021062000F044
:1051700045FC0021072000F041FC4348DFF8109176
:10518000047042480470C9F80040E878012812D041
:10519000022824D003282FD004287FF45CAF387075
:1051A0000121022000F02AFC3068C8F8000000F05D
:1051B000CBFB04211EE0052038700121084600F0D9
:1051C0001DFC30683349C8F80000012008703248DF
:1051D000CAF80040047000F03DFB01210AE0032002
:1051E0003870012100F00AFC3068C8F80000FFF7B1
:1051F0005FFA02210220FCE602203870012104201F
:1052000000F0FCFB0121052000F0F8FBC9F800408C
:105210003068C8F80000FFF7CBFA0321EAE700F096
:10522000EDFA0121E4E600F081FA0221E0E6FFF761
:1052300099FA0321DCE60000A80800209C0A00205F
:10524000FA000020E000002044000020B40000200C
:1052500048000020380000201C0000201D00002015
:105260001E00002020000020210000201F00002040
:105270003C0000204C000020800000208400002022
:10528000880000208C00002070000020D800002042
:10529000DC000020D4000020D000002070B5204B9E
:1052A000012000241F4D204E186007E0214645F8DC
:1052B000204000F0A3FB1868401C18603168891C6E
:1052C0008842F3DB002000F0A5FB1848FCF7E8FE5D
:1052D0001748FCF7E5FE1748FCF7E2FE1648FCF716
:1052E000DFFE164C012251032046FCF721F9012272
:1052F000950329462046FCF71BF91E20FCF710F801
:10530000002229462046FCF713F91E20FCF708F876
:1053100029462046BDE870400122FCF709B900008B
:1053200000000020E40300207C000020280600206C
:1053300068060020A8060020280700200018024068
:1053400010B5164C012805D0022805D0032822D01C
:10535000206805E00B2000E00420FBF735FD20600D
:10536000FBF7F9F89FED0E1B53EC112BFBF712F82E
:105370009FED0D1B53EC112BFBF706F89FED0C1B5B
:1053800053EC112BFBF700F8FBF728F900EE100A9D
:1053900084ED020A10BD0520DFE7000000000020B8
:1053A0005227A089B0E1D53F0000000000C06C404A
:1053B0000000000000406F4030B40A464FF48041C6
:1053C000224C4D00224B012A08D009283CD2DFE8AC
:1053D00000F03B2426292C2F32353800092833D2FF
:1053E000DFE800F03205070B0D1315171900012235
:1053F00001E0012214E0204604E0012213E0012232
:1054000014E0184630BCFCF793B8012211E00122E9
:1054100012E0012213E0012214E00022EBE7002257
:105420002946E8E700220421EBE700220821E8E70B
:1054300000221021E5E700222021E2E7002240219E
:10544000DFE700228021DCE730BC7047000C02401F
:10545000001802401FB5FCF779F9FEF77DF9FDF75A
:10546000EDF8FDF7BFF800249749009495480194A2
:1054700008600846FBF70FFF009400226946924837
:105480000194FBF7E7FEFDF7D7F9FDF7EFF9904838
:105490008E494FF416570160C0E901740C26C460B0
:1054A000C0E904468461C461FCF72EFF884889493D
:1054B00040300160C0E90174C460C0E90446846101
:1054C000C461FCF721FF824D8348803528604FF48A
:1054D000E130C5E90104EC60C5E90446AC61284649
:1054E000EC61FCF711FF05F140007C490160C0E967
:1054F0000174C460C0E904468461C461FCF704FF20
:1055000005F1800076490160C0E90174C460C0E91A
:1055100004468461C461FCF7F7FEA5F5317071495A
:1055200001607149C0E901144FF48048C0E90348A3
:1055300044618461C4610462FCF706F8FDF7AEF9CA
:10554000FDF7D8F9FDF700FAFDF728FAA5F1C0003C
:105550000094019402946549039401604FF4E15171
:10556000C0E901144FF47A71C0E903148461FCF7B7
:105570000DFD4FF4805000906946A5F1C000FCF786
:10558000A0FDFFF78BFEC820FBF7CAFEFFF7BEF9B0
:10559000A5F58070FCF784FD01210F2000F02EFAA4
:1055A0000121102000F02AFA2868C16841F020018A
:1055B000C160DFF83C91DFF83CB1DFF83CA14F4E11
:1055C0004F4D504F686801283ED0687800286AD057
:1055D00099F8000028B100210520FFF785FC89F823
:1055E00000404948007801284FD99BF80000C0B31B
:1055F000DFF818C1FE20464A8CF800008D218CF897
:10560000011010688CF80200401C142310608CF804
:1056100003304CF25033984201DD012010603D4AC6
:10562000EC60E8680CEB0003DB781354401CE86086
:105630008D28F6DB3748FFF7E3FBB0F5807F11D804
:10564000324901F8904F11E06C7001220421324878
:10565000FBF76EFFFFF782FC30480470AC606C60B3
:10566000B0E712E02949020A01F8902F4870274854
:10567000FF2100F8921F0A2141709421234800F075
:1056800021F9274804608BF800409AF8001051B1C6
:1056900001218AF80040084600F0B0F9214801686D
:1056A0006F20FFF721FC41461F48FBF73AFF2969AD
:1056B0003068814200DC286169693868814281DC98
:1056C00068617FE70074004010050020004C004036
:1056D00068070020001001400044004000480040DE
:1056E0000014014000540040A08601000018004052
:1056F0007800002070000020C4000020540000202A
:105700002803002058000020FA0000203404002064
:10571000F4000020840E0020001802402200002027
:10572000F0000020C8000020000C02400E480F4A84
:10573000017911600E4A417911600E4A8179116038
:10574000017AC27901EB02210B4A1160817A427A17
:1057500001EB0221094A1160017BC07A01EB0020B4
:105760000749086070470000A8080020C001002019
:10577000C4010020C8010020CC010020D00100207D
:10578000D401002010B5164C012805D0022805D000
:10579000032822D0206805E0082000E00620FBF75F
:1057A00013FB2060FAF7D7FE9FED0E1B53EC112B75
:1057B000FAF7F0FD9FED0D1B53EC112BFAF7E4FD0A
:1057C0009FED0C1B53EC112BFAF7E4FDFAF706FFE3
:1057D00000EE100A84ED020A10BD0A20DFE7000087
:1057E00000000020465B9544F641663F66666666AB
:1057F0006666DA3F00000000000024400E480F4AB1
:10580000017911600E4A417911600E4A8179116067
:10581000017AC27901EB02210B4A1160817A427A46
:1058200001EB0221094A1160017BC07A01EB0020E3
:105830000749086070470000A8080020A801002060
:10584000AC010020B0010020B4010020B80100200C
:10585000BC0100201148124A184B01791160114A0D
:1058600041791160104A81791160104AC179116043
:105870000F4A017A11600F4A417A11600E4A817A0B
:105880001160C27A017BFF2A00D149421960817BF5
:10589000407B01EB00200A4908607047A8080020FF
:1058A000FC0000200001002004010020080100206D
:1058B0000C0100201001002014010020180100201C
:1058C0001C0100202DE9F04107460A4D00200E463C
:1058D0002870044606E03919642301220648FCF7C3
:1058E00023FE641CB442F6DB012028706870BDE81A
:1058F000F081000028030020E80700200B480C4A34
:10590000017911600B4A417911600B4A817911606C
:105910000A4AC17911600A4A017A1160817A407A93
:1059200001EB00200749086070470000A80800202C
:10593000F0010020F4010020F8010020FC0100200B
:10594000000200200402002070B51E4C1E492DEDFF
:10595000028B207908601D49607908601C49A07994
:1059600008601C49E07908601B48257A1B490560DE
:10597000607A0860FAF7EFFD9FED191B53EC112BCD
:10598000FAF77AFD41EC180B2846FAF7E4FD53ECE0
:10599000182BFAF758FCFAF721FE1349086013494F
:1059A000A07A08601249E07A08601249207B0860FA
:1059B000A07B617B00EB01200F490860BDEC028BEE
:1059C00070BD0000A8080020800100208401002094
:1059D000880100208C01002090010020940100200B
:1059E00000000000000024407C01002098010020FD
:1059F0009C010020A0010020A4010020034A42F8DD
:105A0000201003490120087070470000E4030020C3
:105A1000790000200549064A4B6812681A44824200
:105A200001DD486070474A607047000000000020B8
:105A30007403002000000000C1C0000081C100000C
:105A40004001000001C30000C0030000800200000C
:105A500041C2000001C60000C0060000800700002F
:105A600041C7000000050000C1C5000081C400005E
:105A70004004000001CC0000C00C0000800D0000BC
:105A800041CD0000000F0000C1CF000081CE00001A
:105A9000400E0000000A0000C1CA000081CB0000D7
:105AA000400B000001C90000C00900008008000090
:105AB00041C8000001D80000C01800008019000093
:105AC00041D90000001B0000C1DB000081DA0000AA
:105AD000401A0000001E0000C1DE000081DF00004F
