:020000040800F2
:10000000981300209D010008432A000833260008A9
:10001000412A0008550E000859420008000000005F
:10002000000000000000000000000000F53500089E
:10003000570E00080000000011320008F7350008D4
:10004000B7010008B7010008B7010008B7010008B0
:10005000B7010008B7010008B7010008B7010008A0
:10006000B7010008B7010008B7010008B701000890
:10007000B7010008B7010008B7010008B701000880
:10008000B7010008B7010008B7010008B701000870
:10009000B7010008B7010008B70100086D0E00089D
:1000A000B701000899360008B7010008B701000839
:1000B000E1360008B13C0008553E0008B7010008D1
:1000C000B7010008B7010008B7010008B701000830
:1000D000B7010008B7010008F1410008B7010008A6
:1000E000590E0008B7010008B7010008C53E000816
:1000F000B7010008B7010008B7010008B701000800
:10010000B7010008B7010008B7010008B7010008EF
:10011000B7010008B7010008B7010008B7010008DF
:10012000B7010008B7010008B7010008B7010008CF
:10013000B7010008B7010008B7010008B7010008BF
:10014000B7010008B7010008B7010008B7010008AF
:10015000B7010008B7010008B7010008B70100089F
:10016000B7010008B7010008B7010008B70100088F
:10017000B7010008B7010008B7010008000000003F
:10018000B7010008B7010008DFF80CD000F056FBFB
:100190000048004779580008981300200648804717
:1001A00006480047FEE7FEE7FEE7FEE7FEE7FEE75C
:1001B000FEE7FEE7FEE7FEE77D360008890100085E
:1001C0002DE9F05F0546002092469B46884606468C
:1001D000814640241BE0284641464746224600F01F
:1001E0005EFA53465A46C01A914110D3114618463A
:1001F000224600F045FA2D1A67EB01084F462246C9
:100200000120002100F03CFA17EB00094E41201EAE
:10021000A4F10104DFDC484631462A464346BDE8E6
:10022000F09FD2B201E000F8012B491EFBD27047CB
:100230000022F6E710B513460A4604461946FFF7B2
:10024000F0FF204610BD421C10F8011B0029FBD115
:10025000801A70472DE9FE4F804681EA0300C00FE7
:100260000C46009021F0004123F00045B8EB02005D
:10027000A94105D24046214690461C460B460246FF
:1002800023F00040104347D0270DC7F30A00C3F303
:100290000A510290401A019040286BDAC3F3130010
:1002A00040F4801B0098924620B10023D2EB030A51
:1002B00063EB0B0B01985946C0F14002504600F029
:1002C000DFF906460D4650465946019A00F0F7F907
:1002D00010EB08006141002487EA115284EAE773B9
:1002E0001A4340D0009A62B3019A012A4FEA07529A
:1002F00015DC001B61EB02014FF0004202EA0752DD
:10030000CDE90042001C41F5801132462B4600F039
:100310002EFA03B0BDE8F08F40462146F9E7001BF6
:1003200061EB0201001C41F5801300185B412018AD
:10033000A2F5001747EB030140EAD570B6196D41ED
:1003400011E06D084FEA360645EAC0754FEA0752DC
:10035000001B61EB0201001C41F5801149084FEAC6
:1003600030000019514132462B4603B0BDE8F04F32
:1003700000F0EEB90098012240000023D0EB020209
:1003800063EBE073009821464FEAE074B8EB00009D
:1003900061EB0401E9E783F000435BE781F0004192
:1003A00058E72DE9FE4F81EA030404F0004421F0F0
:1003B000004100944FF0000B23F0004350EA010489
:1003C0005ED052EA03045BD0C3F30A54C1F30A556A
:1003D0002C44A4F2F3340194A0FB0254C1F31301A2
:1003E00041F48011C3F3130343F4801301FB02446F
:1003F00000FB034E840A970A44EA815447EA835774
:10040000A4FB076802958D0A05FB07854FEA932C2C
:1004100004FB0C542705029D4FEA065847EA16379D
:10042000B5EB08056EEB070C870E920E47EA8117B5
:1004300042EA8312A7FB0201B6EB0B0164EB000456
:100440002B0D43EA0C335E1844EB1C50DA46514640
:10045000E7FB0201C5F313044FEA0B3343EA1453DD
:100460004FEA0432019C43EA0603A4F10C0402940F
:10047000009CCDE900B400F07AF903B0BDE8F08F3C
:1004800000200146F9E72DE9F04D81EA030404F06C
:10049000004B21F0004514464FF0000A23F00041C4
:1004A00050EA050220D054EA01021DD0C5F30A57D4
:1004B0000246C5F31303C1F31300C1F30A5640F417
:1004C000801543F48013A7EB0608101BD64608F2EC
:1004D000FD3873EB050002D308F1010801E0921822
:1004E0005B41B8F1000F03DA00200146BDE8F08D52
:1004F00000204FF48011064684460EE0171B73EB74
:10050000050705D3121B63EB050306434CEA010CF8
:1005100049084FEA300092185B4150EA0107EDD1DB
:1005200052EA030012D082EA040083EA050108437C
:1005300005D0101BAB4106D20122002306E00022A9
:100540004FF0004302E06FF0010253101AEB060077
:100550004CEB085110EB0A0041EB0B01BDE8F04DEC
:1005600000F0F6B80EB5C10F80EAE0700844CA0783
:10057000002140F233438DE80E000A460B4600F09E
:10058000F6F803B000BD70B5C1F30A5201F00045A2
:100590000024C1F3130140F2FF3341F480119A4269
:1005A00001DA002070BD40F233439A42A2F2334296
:1005B00003DC524200F073F800E090402C43F1D08D
:1005C000404270BD00F0004230F000400AD0C10D42
:1005D00001F56071C0F3160042EA0151C2084007FC
:1005E00011437047002001467047000030B5041EDB
:1005F00071F1000404DB4FF00044404264EB010160
:10060000141E73F1000405DB1C464FF000435242F8
:1006100063EB0403994208BF904230BD01F00043F0
:1006200030B421F0004150EA010206D00A0DA2F5D3
:100630006072C1F31301002A02DC30BC0020704755
:10064000440F44EAC104C100E01830BC00EBC250C2
:1006500000F047B830B50B460146002020220124A7
:1006600009E021FA02F59D4205D303FA02F5491B80
:1006700004FA02F52844151EA2F10102F1DC30BD96
:10068000202A04DB203A00FA02F100207047914052
:10069000C2F1200320FA03F3194390407047202A47
:1006A00004DB203A21FA02F00021704721FA02F31C
:1006B000D040C2F120029140084319467047202AD9
:1006C00006DBCB17203A41FA02F043EAE07306E07A
:1006D00041FA02F3D040C2F120029140084319468A
:1006E00070470029A8BF7047401C490008BF20F090
:1006F0000100704710B4B0FA80FC00FA0CF050EA28
:10070000010404BF10BC704749B1CCF1200421FAA8
:1007100004F411FA0CF118BF012121430843A3EBA3
:100720000C01CB1D4FEA00614FEA102042BF0020B0
:1007300010BC704700EBC35010440029A4BF10BC8C
:100740007047401C490008BF20F0010010BC7047F2
:1007500010B5141E73F1000408DA401C41F10001C9
:1007600092185B411A4301D120F0010010BD2DE920
:10077000F04D92469B4611B1B1FA81F202E0B0FA17
:1007800080F220329046FFF77BFF04460F4640EA96
:100790000A0041EA0B0153465A46084313D011465A
:1007A00053EA010019D0C8F140025046FFF777FF25
:1007B00005460E46504659464246FFF761FF08433C
:1007C00005D0012004E020463946BDE8F08D002028
:1007D000054346EAE0762C4337430A986305E40A6A
:1007E000A0EB08000022FD0A44EA47540A3002D573
:1007F00000200146E9E7010510196941DDE90845D6
:1008000000196941BDE8F04DA2E7C1F30A52C1F3F6
:10081000130140F2FF3341F480119A4202DA0020C2
:100820000146704740F233439A42A2F2334202DC5F
:100830005242FFF734BFFFF723BF0000064C074DBD
:1008400006E0E06840F0010394E8070098471034A0
:10085000AC42F6D3FFF79CFCCC630008EC630008C5
:1008600070B58C1810F8015B15F0070301D110F872
:10087000013B2A1106D110F8012B03E010F8016B9F
:1008800001F8016B5B1EF9D12B0705D40023521E22
:100890000DD401F8013BFAE710F8013BCB1A921C8A
:1008A00003E013F8015B01F8015B521EF9D5A14288
:1008B000D8D3002070BD00002DE9F04FC74841F2A9
:1008C00070712DED0A8B85B064220068DFF810B3DB
:1008D00091FBF0F0C349CBF80000D84609684143CA
:1008E00091FBF2F6871BC048C8E90167D0F8009079
:1008F00009FB02F0FFF736FE9FEDBC9B53EC192B72
:10090000FFF7C1FDFFF73FFE0546C8F81C00B948D8
:100910006421006803904843FFF724FE9FEDB6BBB7
:1009200053EC1B2BFFF7AFFDFFF72DFE0446C8F875
:100930002800D8F840008246FFF744FE9FEDB0CB78
:1009400053EC1C2BFFF727FDFFF71DFE08EE100AE6
:10095000C8F83400AC4800680290FFF703FE9FED32
:10096000AB1B53EC112BFFF71CFD41EC1A0B50464F
:10097000FFF728FE53EC1C2BFFF70DFD53EC1A2B51
:10098000FFF709FDFFF7FFFDC8F8300098ED11AA49
:1009900008EE900A1AEE100AFFF714FE9FED9D1B59
:1009A00053EC112BFFF756FCFFF7EDFDB1EE000AFB
:1009B000C8F838003AEE000A0190DFF870A2DFF8BC
:1009C00074E2BDEEC00A10EE100AC8F83C000090B8
:1009D0009248DFF85C820660914807609148DEF833
:1009E0000020D8F80010D0F800C08F480368DAF86B
:1009F0000000101ABCF1010F37D0BCF1000F70D10C
:100A00008D4DCBF80C304FF0640C95ED000A8B4DFA
:100A1000D946B1EE409A8BED129A2D686D4268432B
:100A200090FBFCF0CBF818500844C8F80000CAF856
:100A300000200398F346181A00FB0CF0FFF792FD14
:100A400053EC1B2BFFF71FFDFFF79DFDC9F82C0092
:100A500002990F227A4B01297DDDDDF800C049465D
:100A6000654579DCB8EEE80AACE0764C27685C4670
:100A7000C4E90337744B1B68CBF814305843642324
:100A800090FBF3F00844C8F80000A0EB09005843BD
:100A9000CAF80020FFF766FD53EC192BFFF7F3FCB3
:100AA000FFF771FD6949206209689FED698BDFF8E6
:100AB000A88101291AD0A84201DD606A01E0281A44
:100AC0006062A84200DD6562606AFFF74BFD53EC8F
:100AD000182BFFF766FCFFF756FD90FBF6F1C8F800
:100AE000001005B0BDEC0A8BBDE8F08F5B4F5C4A8F
:100AF000396812688A46914219DCA84201DD606AB1
:100B000001E0281A6062A84200DD6562606AFFF7B2
:100B100029FD53EC182BFFF744FCFFF734FD90FB45
:100B2000F6F10AF10100C8F800103860D9E700EECC
:100B3000109A4C48B8EEC00AD0ED000A20EE200A08
:100B4000DFED490A20EE200A10EE100AFFF73AFD09
:100B500053EC192B01E02DE01CE0FFF794FCFFF7AC
:100B600012FD05466062012038603046FFF7FAFC4E
:100B700041EC190B2846FFF7F5FC53EC182BFFF757
:100B800010FC53EC192BFFF77EFCFFF7FCFCC8F8B8
:100B90000000A6E7A0421BDC201A88621860F0194A
:100BA000401CCBF800009CE7A04214DC201A8862AD
:100BB000186096E74946F7D1DDF804C06545E9DCE1
:100BC000B8EEC80AB4EEC09AF1EE10FAECD2E1E742
:100BD00010468A62E2E710468A62E9E720010020B7
:100BE00084020020240100203C01002000000000BD
:100BF00000E09540180100200000000000804B40FC
:100C0000333333333333D33F300100209A999999EA
:100C10009999B93F0000000000000C4044000020FA
:100C2000480000204C000020580000209C000020BC
:100C30008C000020A0000020800000206000002028
:100C40003C000020540000205C00002038010020FF
:100C50000000000000C0684038000020BC000020F8
:100C600034010020400100200000C8427FB500246C
:100C70001D490546009401940294039419480C619F
:100C800008600C7681F820400126CE611748CC60C0
:100C90008862084600F0B3F908B100F005F92D1F8D
:100CA000082D09D2DFE805F0040613081517191BF3
:100CB000042000E005200090CDE9016469460A485F
:100CC00000F0F4F8002801D000F0EEF87FBD062017
:100CD000F1E70820EFE70920EDE70A20EBE70B201A
:100CE000E9E7000000220140DC0500200100000FC0
:100CF000464910B54A6822F440324A604A6843685F
:100D00001A434A6001684A6822F480724A600168A6
:100D10004A68036942EA03224A6001684A6822F08D
:100D200040724A6001684A6883681A434A600168F1
:100D30008A6822F400628A6001688A68C3681A437C
:100D40008A60816A6FF07062D14201688A6822F01D
:100D500070628A6001688A680CD0836A1A438A606C
:100D600001688A6822F040528A6001688A68C36A12
:100D70001A4301E022F040528A6001688A6822F03A
:100D800002028A6001688A68037E42EA43028A603E
:100D900090F82010002901684A680FD042F40062E0
:100DA0004A6001684A6822F460424A6001684A6801
:100DB000174C436A04EB43331A4301E022F4006208
:100DC0004A600168CA6A22F47002CA620168CA6A8B
:100DD000838B104C04EB03531A43CA6201688A6880
:100DE00022F400728A6001688A6890F8303042EA22
:100DF00043228A6001688A6822F480628A600168FE
:100E00008A68406942EA8020886010BD0023014062
:100E100000E0FFFF0000F0FF10B50024FFF726FF01
:100E20000B4800F021FA0A490220C861084600F088
:100E3000E6F8074800F0A2F94FF4FA71044800F010
:100E40004BF918B9024800F0D7F80446204610BD07
:100E5000DC050020FEE7704703480168491C01607B
:100E60004FF4806000F098BA180000200B4910B5CC
:100E7000002048600A48007818B10021022003F0E1
:100E800003FF0848007818B10021022005F016F889
:100E9000BDE810404FF4007000F07EBA500300200F
:100EA000AD000020AE0000207047000078B500249F
:100EB000009490F83C20012A19D0012280F83C20AF
:100EC0000A6807230568092A13D9EE680A3A02EB73
:100ED000420293409E43EE600B788A680A3B03EB24
:100EE00043039A400368DD682A43DA6010E0022079
:100EF00078BD2E6902EB420293409E432E610B782F
:100F00008A6803EB43039A4003681D692A431A6108
:100F10004A681F23072A13D205686E6B521E02EB24
:100F2000820293409E436E630B790A885B1E92B2E5
:100F300003EB83039A4003685D6B2A435A6327E0FF
:100F400005680D2A12D22E6BD21F02EB820293404B
:100F50009E432E630B790A88DB1F92B203EB830357
:100F60009A4003681D6B2A431A6311E0EE6A0D3A3A
:100F700002EB820293409E43EE620B790A880D3B9E
:100F800092B203EB83039A400368DD6A2A43DA6274
:100F9000164B0568144A9D4206D10D68122D03D1E7
:100FA000556845F48005556005689D4218D10B6869
:100FB000102B01D0112B13D1536843F4000353605D
:100FC000096810290CD10A490A4A0968B1FBF2F1F3
:100FD00001EB8101490000E0491E00910029FBD18D
:100FE00080F83C40002078BD0023014000200140F3
:100FF0009403002040420F000068C06C704770B539
:1010000004004FF0000503D0206C002610B107E06B
:10101000012070BD204600F01DF8666484F83C6035
:10102000206CC00610D4206C20F4885040F00200E0
:1010300020642046FFF75CFE6664206C20F002000E
:1010400040F00100206400E0012584F83C6028465F
:1010500070BD000030B587B0044614216846FFF724
:10106000E7F81949206888422BD118480025016803
:1010700041F480610160006800F4806005901348CD
:101080001438016841F020010160016801F020017D
:101090000591016841F0040101600068032400F03B
:1010A000040005904FF4B9608DE8310069460848A6
:1010B00000F07EF9009469460648CDE9014500F04C
:1010C00077F907B030BD00000022014044380240EB
:1010D00000140240000802402DE9F0410446006877
:1010E0000D4681684FF0000749050BD58068C005A3
:1010F00008D5206C40F02000206484F83C7001206A
:10110000BDE8F08100F042FA06460FE0681C0DD001
:1011100025B100F03BFA801BA84207D9206C40F0B3
:101120000400206484F83C700320E9E7206800682C
:101130008007EBD521686FF012000860206C40F446
:10114000007020642068816811F0405F13D1217E17
:1011500089B9C16A11F4700F02D0806840050AD4C1
:10116000206C20F480702064206CC00403D4206CB8
:1011700040F0010020640020C2E7000018B5002103
:10118000009190F83C20012A07D0012280F83C20F1
:1011900002689368DB0702D011E0022018BD936853
:1011A00043F0010393602A4A2A4B1268B2FBF3F220
:1011B00002EB420200E0521E0092002AFBD10268BC
:1011C0009368DB0741D0036C40F20164A34343F40E
:1011D0008073036453685B0505D5036C23F40053E7
:1011E00043F480530364036CDB0404D5436C23F0A5
:1011F0000603436400E0416480F83C1016496FF038
:101200002203136049680068CA06144906D0884260
:101210001BD1816811F0405F13D016E08842F8D0EE
:101220000F4A904203D1D1F80423D206F1D00D4ADF
:1012300090420AD1D1F8041301F01F011029E8D31C
:1012400003E0816841F080418160002018BD00000A
:101250009403002040420F00002301400020014081
:10126000002101400022014090F83C1001290CD0DF
:10127000012180F83C1001688A6822F001028A602E
:1012800001688968C90702D007E002207047016C35
:1012900021F4885141F001010164002180F83C10E3
:1012A0000846704770B54379012B1AD00126467164
:1012B0000223037105682C6840F6FE7393409C433B
:1012C000D1E900310B43934023432B6001680B6845
:1012D000C0249440A3430B6006710021417108466D
:1012E00070BD022070BD70B5040003D020790025C8
:1012F00010B105E0012070BD6571204600F008F8CE
:1013000002202071256101202071002070BD0000A5
:1013100010B586B0044614216846FEF789FF1149CE
:10132000206888421CD110480021026842F0005217
:101330000260006800F0005005900B481038026809
:1013400042F001020260006800F0010005901020E8
:1013500000900320CDE901016946044800F028F817
:1013600006B010BD0074004040380240000002404A
:1013700070B5044600F00AF90546601C02D0044826
:101380000078044400F002F9401BA042FAD370BD7B
:101390008803002070470000044910B50A68024223
:1013A00002D00860FFF7F6FF10BD0000143C0140BA
:1013B0002DE9F84F00224FF0010803254FF00F0EE2
:1013C0000B6808FA02F42340A3426ED14E68012E46
:1013D00005D0022E03D0112E01D0122E12D1866814
:1013E0004FEA420C05FA0CF7BE43CF6807FA0CF738
:1013F000374387604668A6430C79C4F300149440D1
:1014000034434460C668570005FA07FC8C6826EA36
:101410000C06BC403443C4604C68022C01D0122C32
:1014200013D1D40800EB8404A346D4F820905407C9
:101430004FEAD46A0EFA0AF629EA06090E6906FA94
:101440000AF646EA0906CBF8206006680C7926EA17
:101450000C0604F00304BC40344304604C68E40010
:1014600065D5364C266846F480462660246822F00E
:10147000030604F480440094314C3444A446D4F868
:1014800008489607370F0EFA07F6B4432D4EB042C0
:1014900001D1002624E02C4EB04201D101261FE0EC
:1014A0002A4EB04202D102261AE040E0284EB04255
:1014B00001D1032614E0274EB04201D104260FE0EB
:1014C000254EB04201D105260AE0244EB04201D19A
:1014D000062605E0224EB04201D1072600E008268C
:1014E000BE402643CCF808681E4E34684F689C43C3
:1014F000FF0300D51C4334601A4C241D26684F6836
:101500009E43BF0300D51E432660164E083634683E
:101510004F689C43FF0200D51C433460114E0C36CB
:1015200034684F689C43BF0200D51C433460521C92
:10153000102AFFF445AFBDE8F88F000044380240A0
:101540000030014000000240000402400008024058
:10155000000C02400010024000140240001802403B
:10156000001C0240003C01400069084000D00120FE
:101570007047426931EA020200D109048161704773
:101580000AB1816170470904FBE7000001488068E7
:10159000704700008803002070B5040025D094F83F
:1015A0003D00002520B984F83C50204600F0B8F8F2
:1015B000242084F83D002068016821F001010160C9
:1015C0002068016841F4004101602068016821F44D
:1015D0000041016000F00EFA4D4A6168914201D865
:1015E0004C4900E04C49884201D2012070BD4B4972
:1015F0002368B0FBF1F15E6826F03F060E435E60A3
:101600006368934206D94FF4967359434FF47A7343
:10161000B1FBF3F12368491C1E6A26F03F063143F3
:1016200019626168914210D84900401EB0FBF1F286
:10163000521CC2F30B02042A01D2042022E0B0FBA8
:10164000F1F0401CC0F30B001CE0A268F2B301EB08
:10165000C10303EB0116431EB3FBF6F35B1C43F41B
:1016600080431B0549D092B301EBC10202EB01118B
:10167000401EB0FBF1F0401CC0F30B0040F4804072
:1016800040F400402168CA694CF6FF739A43104346
:10169000C861D4E9071001432068026822F0C00243
:1016A00011430160D4E9030101432068826848F2D4
:1016B000FF339A4311438160D4E90501084321684F
:1016C000CA6822F0FF021043C86001E00EE016E095
:1016D0002068016841F0010101602564202084F840
:1016E0003D00256384F83E50002070BD01EB4106AB
:1016F000431EB3FBF6F35B1CB3E70120C2E701EB2B
:101700004101401EB0FBF1F0401CC0F30B00B7E7F5
:10171000A086010080841E0000093D0040420F00A9
:1017200010B586B0044614216846FEF781FD1449C1
:101730002068884221D11348016841F0020101600C
:101740000068694600F0020005904FF410700090A8
:1017500012200190012002900320039004200490A5
:101760000948FFF725FE07481030016841F40011D1
:101770000160006800F40010059006B010BD000084
:1017800000540040303802400004024002488168A2
:101790000278114481607047880300200B4810B51F
:1017A000016841F400710160016841F480610160E9
:1017B000016841F480710160032000F06FF800209F
:1017C00000F006F800F024F8002010BD003C0240B4
:1017D00070B50D4D04464FF47A712878B1FBF0F0E6
:1017E0000A490968B1FBF0F000F09AFB48B9102CE7
:1017F00007D200222146501E00F030F800206C6015
:1018000070BD012070BD00008803002094030020FB
:101810000A4808B5016841F480410160006800F49D
:10182000804000900548001F016841F08051016030
:10183000006800F08050009008BD0000443802406D
:10184000002809DB00F01F020121914040098000BF
:1018500000F1E020C0F8001170470000F0B40E4B1A
:101860001B680C46C3F30223C3F10705042D00D9FE
:101870000425191D072901D2002300E0DB1E0126E3
:1018800006FA05F1491E214099409E40761E1640F9
:101890003143F0BC02F0F6BC0CED00E0064900F06C
:1018A000070208684FF6FF03184040EA0220034A87
:1018B00010430860704700000CED00E00000FA05DE
:1018C0002DE9F0470E46050065D0DFF81481D8F801
:1018D0000000F7B200F00F00B04207D288F80070A5
:1018E000D8F8000000F00F00B04254D128683D4CF9
:1018F000810712D5400703D5206840F4E0502060EE
:101900002878000703D5206840F4604020602068F4
:10191000A96820F0F000084320602878C0072DD087
:10192000304968680839012812D0022813D00328EA
:1019300011D00968890700292DDA216821F00301F7
:1019400001432160FFF722FE814641F2883A0EE012
:1019500009688903EFE709688901ECE7FFF716FEDC
:10196000A0EB0901514502D90320BDE8F0872068AA
:10197000696800F00C00B0EB810FEFD1D8F80010CF
:10198000404601F00F01B14207D90770006800F02E
:101990000F00B04201D00120E7E72878400705D5C5
:1019A0002068E96820F4E0500843206028780007A8
:1019B00006D52068296920F4604040EAC100206013
:1019C00000F038F82168084AC1F30311515CC8409F
:1019D0000649086006480068FFF7FAFE0020C4E7E1
:1019E000003C024008380240F462000894030020E2
:1019F0008C0300200448054900680968044AC1F3C3
:101A00008221515CC840704794030020083802408E
:101A1000046300080448054900680968044AC1F3E2
:101A20004231515CC840704794030020083802409E
:101A300004630008154810B5006810F00C02144843
:101A400013D04110042A0FD0082A0ED10F4C241FA6
:101A50002268236802F03F025B0207D52068C0F3CA
:101A60008810A0FB010106E0084610BD2168C1F303
:101A70008811A1FB00010023FEF7A2FB2168C1F33E
:101A80000141491C4900B0FBF1F010BD083802408B
:101A90000024F4002DE9F84F04006ED02078DFF820
:101AA0003C93C007A9F104054AD009F1040001687C
:101AB000C1F38101012908D00068C0F38100022828
:101AC0000AD1D9F80000400206D52868800337D52E
:101AD00060680028E1D033E06068B0F5803F10D046
:101AE000B0F5A02F286810D020F480302860286836
:101AF00020F4802028606068A8B1FFF747FD064603
:101B00000DE0286840F48030F4E740F4802028603D
:101B1000F7E700BFFFF73AFD801B642873D82868F9
:101B20008003F7D50CE0FFF731FD064605E000BF66
:101B3000FFF72CFD801B6428F0D828688003F7D4B9
:101B40002078DFF89C8280074FF0000A3ED5A3483A
:101B5000001D016811F00C0F08D00068C0F381006F
:101B600002280BD1D9F80000400207D4286880076A
:101B700016D5E068012800D112E02BE1E068B8B189
:101B80000120C8F80000FFF701FD064605E000BF90
:101B9000FFF7FCFC801B0228C0D828688007F7D517
:101BA0002868216920F0F80040EAC10028600DE0B3
:101BB000C8F800A0FFF7EAFC064604E0FFF7E6FCE1
:101BC000801B02281FD828688007F7D420780007D8
:101BD00022D5824E83486169703671B1012101605E
:101BE000FFF7D4FC074604E0FFF7D0FCC01B022837
:101BF00009D830688007F7D50EE0C0F800A0FFF7DD
:101C0000C5FC074605E082E0FFF7C0FCC01B0228C8
:101C10007DD830688007F7D42078400768D5DFF892
:101C2000BCB100270BF13C0BDBF80000C0000BD46B
:101C3000DBF8001041F08051CBF80010DBF8000019
:101C4000012700F080500090674E3068C00510D426
:101C5000306840F480703060FFF798FC009005E039
:101C6000FFF794FC0099401A022850D83068C0054C
:101C7000F6D55A4EA0686C3601280FD0052830687A
:101C800010D020F001003060306820F00400306097
:101C9000A068B8B1FFF77AFC00900FE0306840F020
:101CA0000100F4E740F004003060F7E7FFF76EFC56
:101CB0000099411A41F28830814266D83068800725
:101CC000F4D50EE0FFF762FC009007E0FFF75EFC42
:101CD0000099411A41F28830814256D83068800715
:101CE000F4D42FB1DBF8001021F08051CBF80010B4
:101CF000A069C8B33949091D0968C1F381010229E6
:101D00004AD00228504607D0C8F8600000E03CE006
:101D1000FFF73CFC04463BE04746C8F86000FFF78D
:101D200035FC064605E000BFFFF730FC801B0228AB
:101D30002BD828688001F7D4D4E907010843A16AA9
:101D40002A4A490802EB0141626A41EA82110843CA
:101D500094F82C1040EA0161C9F80010012038669F
:101D6000FFF714FC044606E036E000BFFFF70EFC68
:101D7000001B022809D828688001F7D52CE000BF95
:101D8000FFF704FC001B022802D90320BDE8F88FEE
:101D900028688001F4D41FE00128F7D0D9F80000AA
:101DA000E26900F48001914214D1226A00F03F01FF
:101DB00091420FD147F6C071626A0140914209D148
:101DC000A26A00F44031914204D1E16A00F07060EF
:101DD000884201D00120D9E70020D7E7043802402B
:101DE00000004742800E4742007000400000FFFFA5
:101DF00070B5040005D00025A56294F8510010B11B
:101E000006E0012070BD84F85050204600F030F804
:101E1000022084F851002068016821F0400101602F
:101E2000D4E901010843D4E903121143084361696D
:101E30000843218B01F400710843E1690843216ADA
:101E40000843A16A084321680860A069042101EAE7
:101E50001040616A0843216848602068C16921F424
:101E60000061C1616565012084F85100002070BDEA
:101E700070B586B0044614216846FEF7D9F9234EA2
:101E8000226800212248022303240525B2421AD1E8
:101E90001F4A1432166846F480561660126802F41F
:101EA00080520592026842F001020260006802AAB4
:101EB00000F00100059082E83200E020CDE9000347
:101EC000694614481DE0144EB2421CD1104A10322B
:101ED000166846F480461660126802F48042059245
:101EE000026842F002020260006802AA00F00200EA
:101EF000059082E832004FF47040CDE90003694656
:101F00000648FFF755FA06B070BD000000300140EA
:101F10003038024000000240003800400004024017
:101F200010B5401EB0F1807F01D3012010BD4FF0ED
:101F3000E02460610F21601702F0A4F90020A06185
:101F400007202061002010BD7047704770B590F8E1
:101F50003C20012A32D0012480F83C40022280F843
:101F60003D2003685A689D6822F070060A68324373
:101F70005A60134B02689A4214D0B2F1804F11D0CC
:101F8000104B9A420ED0104B9A420BD00F4B9A42F4
:101F900008D00F4B9A4205D00E4B9A4202D00E4BFE
:101FA0009A4204D1496825F080031943916080F872
:101FB0003D40002180F83C10084670BD022070BDF5
:101FC000000001400004004000080040000C0040F8
:101FD00000040140004001400018004010B504001A
:101FE00003D094F83D0010B107E0012010BD00209F
:101FF00084F83C00204600F00DF8022084F83D00F3
:10200000211D206801F094FF012084F83D0000208C
:1020100010BD000008B50168304881420FD130483A
:10202000016841F0010101600068002200F0010038
:10203000009001211920FFF711FC192048E02848E1
:10204000001FB1F1804F11D0264A91421DD1016885
:1020500041F0020101600068002200F002000090DF
:1020600001211D20FFF7FAFB1D2031E0016841F03E
:10207000010101600068002200F0010000900121D0
:102080001C20FFF7EBFB1C2022E0174A91420ED1E7
:10209000016841F0040101600068002200F00400C2
:1020A000009001211E20FFF7D9FB1E2010E00F4AEF
:1020B000914211D1016841F04001016000680022A5
:1020C00000F04000009001212B20FFF7C7FB2B20E0
:1020D000BDE80840FFF7B4BB08BD000000000140A8
:1020E000443802400004004000080040001800404E
:1020F0000168CA6842F00102CA600068816801F0A4
:102100000701062903D0016841F0010101600020A8
:10211000704770B5044690F83C00012817D001259F
:1021200084F83C50022084F83D002068826822F048
:10213000770222F47F4282600868502830D00DDC9C
:1021400020284DD005DC98B310283BD148E0022070
:1021500070BD302844D0402834D139E0602828D0E0
:10216000702806D0B0F5805F2CD0B0F5005F29D183
:102170000AE0CB68D1E90121206801F03DFF206829
:10218000816841F0770109E0CB68D1E9012120683D
:1021900001F032FF2068816841F48041816011E0E4
:1021A000CA684968206801F039FF5021206807E0BB
:1021B00016E0CA684968206801F041FF6021206884
:1021C00001F024FF84F83D50002084F83C0070BDED
:1021D000CA684968206801F021FF40212068EFE7C4
:1021E000226801461046EBE7704770B50446006868
:1021F00001694FF00005C943890715D4C168C94377
:10220000890711D4E91E01610120207720688069C7
:102210008007204602D0FFF7E7FF04E000F098F8BF
:10222000204600F096F8257720680169C9434907E0
:1022300017D4C168C943490713D46FF00401016181
:10224000022020772068806910F4407F204602D069
:10225000FFF7CAFF04E000F07BF8204600F079F8B1
:10226000257720680169C943090716D4C168C943A5
:10227000090712D46FF0080101610420207720685B
:10228000C0698007204602D0FFF7AEFF04E000F0EF
:102290005FF8204600F05DF8257720680169C943A2
:1022A000C90617D4C168C943C90613D46FF0100119
:1022B0000161082020772068C06910F4407F204623
:1022C00002D0FFF791FF04E000F042F8204600F052
:1022D00040F8257720680169C943C90708D1C1685A
:1022E000C943C90704D1891E0161204600F032F8B4
:1022F00020680169C943090609D4C168C9430906B0
:1023000005D46FF0800101612046FFF71DFE2068B3
:102310000169C943490609D4C168C943490605D4BE
:102320006FF040010161204600F015F82068016956
:10233000C94389060BD4C168C943890607D46FF025
:10234000200101612046BDE87040FFF7FEBD70BD71
:10235000704770477047704770B5040004D094F818
:102360003900002510B106E0012070BD84F8385016
:10237000204600F023F8242084F839002068C16842
:1023800021F40051C160204601F06CFE2068016913
:1023900021F4904101612068416921F02A014161E5
:1023A0002068C16841F40051C160E563202084F8D1
:1023B000390084F83A00002070BD00002DE9F04794
:1023C00086B0044614216846FDF732FF6249614F2A
:1023D00023680024604A1039032502265F484FF025
:1023E0000809BB4217D1136843F400231360126835
:1023F00002F4002205920A6842F001020A600968AC
:1024000002AB01F001010591CDE90056012183E8FD
:102410002202694637E0DFF84881DFF83CC1072730
:10242000DFF840A10CF1040C434531D1DCF8002069
:1024300042F01002CCF80020DCF8002002F010027C
:1024400005920A6842F001020A600A6802F001027D
:1024500005920A6842F002020A60096802AA01F0C5
:10246000020105914FF40071CDE9001682E8B00039
:102470006946FEF79DFF8020CDE9000602AA694665
:1024800082E8B0005046FEF793FF06B0BDE8F08743
:10249000DFF8D480434521D1136843F4003313603F
:1024A000126802F4003205920A6842F001020A60E2
:1024B000096802AB01F0010105910C21CDE900167C
:1024C00083E8B0006946FEF773FF0022114626201C
:1024D000FFF7C4F92620FFF7B3F9D6E72348834274
:1024E00019D1106840F480201060106800F480203A
:1024F0000590086840F002000860086802AB00F030
:10250000020005904FF44060CDE9000683E8B0007A
:1025100069465046B7E716488342B6D1DCF800005A
:1025200040F02000CCF80000DCF8000000F02000B3
:102530000590086840F004000860086802AA00F0EE
:1025400004000590C020CDE9000682E8300269460B
:10255000084898E7004C0040403802400000024024
:1025600000100140000402400044004000480040C8
:1025700000140140000802402DE9F843044690F899
:1025800039001F4616460D46202850D1B5B1AEB1D0
:1025900094F8380001284AD0012084F838004FF020
:1025A0000008C4F83C80212084F83900FEF7EEFFD3
:1025B000A6848146E68484F8388026E00120BDE8C0
:1025C000F883E08C401EE084A0684B46B0F5805F45
:1025D0004FF000024FF080012046009703D001F039
:1025E000D5FDE8B90DE001F0D1FDC8B92888216812
:1025F000C0F308004860206908B16D1C05E0AD1CFF
:1026000003E0216815F8010B4860E08C0028D8D160
:102610004B46002240212046009701F0B7FD08B14B
:102620000320CCE7202084F839000020C7E70220EF
:10263000C5E7FEE77FB50024124800940194029498
:102640000F49039401604FF44031C0E90114046163
:10265000047680F820400C49C0E90A140125C561C0
:10266000C46080F830404561FEF7C9FC0420CDE924
:102670000005694602940348FEF718FC7FBD000080
:1026800000220140DC0500200100000F2DE9F04F81
:1026900087B014216846FDF7CBFD7248002401681D
:1026A00041F010010160016801F01001059101681D
:1026B00041F020010160016801F0200105910168ED
:1026C00041F004010160016801F004010591016815
:1026D00041F001010160016801F00101059101680B
:1026E00041F002010160016801F0020105910168F9
:1026F00041F008010160016801F0080105910168DD
:1027000041F0400101600068DFF85C9100F040009A
:1027100048F6F0350590002229464846FEF730FF7E
:10272000DFF848A143F60306002231465046FEF783
:1027300027FFDFF83CB1002220215846FEF720FF9A
:102740004FF44C47002239464A48FEF719FF002251
:1027500047F2FC014848FEF713FF4FF4807800224F
:1027600041464648FEF70CFF00950125CDE901548E
:10277000694648460394FEF71BFE0096CDE90154D6
:10278000694650460394FEF713FE1020CDE900047D
:10279000694658460294FEF70BFE20200090CDE9D2
:1027A0000154694658460394FEF702FE0097CDE9AE
:1027B000015469462F480394FEF7FAFD41F2FC00EC
:1027C0000090CDE9015469462B480394FEF7F0FDD3
:1027D0004FF41060CDE90004694627480294FEF7E3
:1027E000E7FDCDF80080CDE9015469462348039404
:1027F000FEF7DEFD680200902148CDE9010469463C
:102800001D48FEF7D5FDA80200901E48CDE9010441
:1028100069461948FEF7CCFD6803CDE900050320A1
:10282000CDE9025069461448FEF7C2FDA803CDE980
:102830000005CDE9025469460F48FEF7B9FD0022B4
:1028400001211720FFF70AF81720FEF7F9FF0022F1
:1028500001212820FFF702F82820FEF7F1FF07B03A
:10286000BDE8F08F303802400010024000140240F2
:1028700000080240000C0240001802400000024024
:1028800000002110000011100B480A494FF400729B
:1028900001604FF48271416000218160C16001617B
:1028A000C0E90512C1610162416281620A21C1620F
:1028B000FFF79EBA003001408C0600200A48094903
:1028C00001604FF48271416000218160C16001614B
:1028D00041618161C1610162416281620A21C1621B
:1028E000FFF786BA00380040E406002010B586B035
:1028F00000241348009401940294039404940F4913
:10290000059401604FF4C871C0E901143221C0E997
:10291000031444618461FFF761FB4FF48050009021
:1029200069460748FFF7F5FB2020CDE9040404A918
:102930000348FFF70BFB06B010BD0000000001408C
:102940003C07002010B586B0002412480094019482
:102950000294039404944FF080410594016041F681
:10296000DF31C0E901146421C0E903148461FFF779
:1029700035FB4FF48050009069460648FFF7C9FBCD
:102980002020CDE9040404A90248FFF7DFFA06B0CD
:1029900010BD00007C07002010B586B0002412484E
:1029A000009401940294039404940E4905940160E8
:1029B00041F6DF31C0E901146421C0E903148461E8
:1029C000FFF70CFB4FF48050009069460648FFF774
:1029D000A0FB2020CDE9040404A90348FFF7B6FAC0
:1029E00006B010BD00040040BC07002010B586B042
:1029F00000241248009401940294039404940E4914
:102A0000059401604FF4E151C0E901140A21C0E9C5
:102A100003148461FFF7E2FA4FF480500090694696
:102A20000648FFF776FB2020CDE9040404A90348FB
:102A3000FFF78CFA06B010BD00080040FC0700202C
:102A4000FEE770472DE9F04FB64841F270712DED69
:102A5000068B83B00068B44C91FBF0F5B348A560D9
:102A600000686843FDF77EFD9FEDB11B53EC112B11
:102A7000FDF709FDFDF787FDE06007460190E81BC3
:102A800081466061AC48006800EB800080008046B1
:102A9000E061381A2061A94800680646FDF762FD2A
:102AA0009FEDA79B53EC192BFDF7EDFC9FEDA01BB1
:102AB00053EC112BFDF775FCFDF765FD0546E06352
:102AC000A1480068FDF74EFD9FEDA0AB53EC1A2B1B
:102AD000FDF7D9FC9FED961B53EC112BFDF761FC24
:102AE000FDF751FD60639B4800680090FDF73AFDDB
:102AF0009FED961B53EC112BFDF7C5FC9FED8C1B36
:102B000053EC112BFDF74DFCFDF73DFD924982463C
:102B10000860924800680290FDF724FD9FED8B1B32
:102B200053EC112BFDF7AFFC9FED811B53EC112BE8
:102B3000FDF737FCFDF727FD89490446DFF834E24D
:102B4000086088488849DFF834B207608748C1F8D0
:102B500000908949D0F800C085480A68DBF8001069
:102B60000368DEF80000101ABCF1010F3FD0BCF181
:102B7000000F74D16C4D9A466B62814B93ED000A45
:102B8000804BB1EE408A85ED0C8A1B685B4298460B
:102B90005843EB62642390FBF3F31944CBF8001025
:102BA000881B64214843CEF80020FDF7DBFC53EC82
:102BB000192BFDF768FCFDF7E6FC286002986421FC
:102BC000AAEB00004843FDF7CDFC53EC1A2BFDF7B0
:102BD0005AFCFDF7D8FC6C49A8630A680F21012A4A
:102BE00075DD2B6D984573DC95ED110A8BE0674C14
:102BF00027684D4CC4E90873654B1B68A3625843B2
:102C0000642390FBF3F31944CBF800100291881B66
:102C100064214843CEF80020FDF7A4FC53EC192BA7
:102C2000FDF731FCFDF7AFFC814620600098642180
:102C3000381A4843FDF796FC53EC1A2BFDF723FC9A
:102C4000FDF7A1FC53496060DFF84CB10F6856B343
:102C50000298B0421FDAA94502DD206C03E01DE0B6
:102C6000A5EB09002064A84200DD2564206CFDF777
:102C700079FC9FED4A1B53EC112BFDF792FBFDF7FE
:102C800082FC019990FBF1F1CBF80010C91B15E013
:102C90000120A06117E00E21CBF8001003B0BDECBD
:102CA000068BBDE8F08F2C49504501DD086802E035
:102CB000AAEB00000860C11BCBF8000091FBF8F004
:102CC000A0610028E4D0014636480160E6E714E040
:102CD00020E0201A106001E0084611602D490860CC
:102CE00007EB09002449401C05E0201A106001E0B0
:102CF0000846116027490860D0E70FD1EB6C984572
:102D000008DC95ED120AB8EEC00AB4EEC08AF1EE06
:102D100010FA03D2124AA042DEDCDAE7104AA042DF
:102D2000E6DCE2E7FC000020D401002000010020E6
:102D30000000000000005940F800002014010020AD
:102D40000000000000E0954010010020000000009D
:102D500000804B40F0000020CC010020F400002057
:102D6000D001002044000020480000204C0000203A
:102D7000580000209C000020A000002090000020AF
:102D800080000020600000200C0100205400002082
:102D90005C0000203C000020380000200000000003
:102DA00000C06840400000202DE9F04FF14841F29A
:102DB00070712DED088B87B0D0F800A0DFF8B893C4
:102DC00091FBFAF5C9F85C50D9F808004C46684305
:102DD000FDF7C8FB9FEDE91B53EC112BFDF753FBEF
:102DE000FDF7D1FB20660190281A6066E54800686F
:102DF00000EB80008000E0600490E3480068074634
:102E0000FDF7B0FB9FEDE1BB53EC1B2BFDF73BFB4C
:102E10009FEDDA1B53EC112BFDF7C3FAFDF7B3FB63
:102E200006462065DB480068FDF79CFB9FEDDAABAA
:102E300053EC1A2BFDF727FB9FEDD01B53EC112B06
:102E4000FDF7AFFAFDF79FFBE062D54800680390FD
:102E5000FDF788FB9FEDD01B53EC112BFDF713FB07
:102E60009FEDC61B53EC112BFDF79BFAFDF78BFB77
:102E700005462062CB480068FDF774FB9FEDC61B3A
:102E800053EC112BFDF7FFFA9FEDBC1B53EC112BFC
:102E9000FDF787FAFDF777FBA062206C8046FDF70F
:102EA00091FB9FEDC11B53EC112BFDF774FAFDF75D
:102EB0006AFB08EE900A6063BD4800688346FDF730
:102EC00051FB9FEDBC1B53EC112BFDF76AFA41EC53
:102ED000190B4046FDF776FB9FEDB31B53EC112B0E
:102EE000FDF759FA53EC192BFDF755FAFDF74BFB9B
:102EF000206394ED119A08EE100A19EE100AFDF7FE
:102F000061FB9FEDAE1B53EC112BFDF7A3F9FDF711
:102F10003AFBB1EE000AA06339EE000AA948AB4AB9
:102F20004FF00008BDEEC00A84ED0F0A0168A64804
:102F3000A74C002903686EDDA648A94A01684846E7
:102F400001610291A449436109688161A3488946EE
:102F5000006800901368A0EB030000FB01F04FF045
:102F6000640190FBF1F19F480368194401600098E7
:102F700010608B48974A8B46006812685FEA0A0126
:102F8000A2EB00004FF0640200FB02F005908F48B6
:102F9000D0F800A023D0ABEB070064214843FDF735
:102FA000E1FA53EC1B2BFDF76EFAFDF7ECFA7249D0
:102FB0008146C8640598FDF7D5FA53EC1A2BFDF746
:102FC00062FAFDF7E0FA6C49002F4862014673D0BF
:102FD000BB456FDA684DB1454ADD686D4BE0664E22
:102FE0000598FDF7BFFA53EC1A2BFDF74CFAFDF7E5
:102FF000CAFA70625FB1B765B26D934536DCDDE940
:10300000021291422FDCA84206DD306A06E04FF43E
:10301000AF61B165F0E76AE0281A3062A0EB0A01FF
:103020002060049891FBF0F0706008B90120706096
:1030300001466D4801606D490868814506DDC1F8AB
:10304000009007B0BDEC088BBDE8F08F0028F8DDDC
:10305000A0EB09016422514391FBF0F06449096837
:1030600049428842EDDB0C2020603CE00D20FBE76C
:10307000A6EB09006865B04200DD6E65686DFDF77E
:1030800071FA9FED5C1B53EC112BFDF78AF9FDF7EC
:103090007AFA296890FBF1F0A0EB0A01206004980D
:1030A00091FBF0F0686008B901206860014614E007
:1030B00002E0FFE70E20D7E72F48A94201DD016AB1
:1030C00001E0691A0162A1EB0A022160049992FBF6
:1030D000F1F1416009B90121416043480160DDE936
:1030E00000018842ADDD454981F80080A9E7A8D1FB
:1030F0003E494046BBF1010FC1F80080C9F81430C9
:103100003F4B49461B68C9F81C303E4B93ED000A03
:10311000B1EE400A89ED120A0BD0F8EEC80A00BFE2
:10312000B4EEE00AF1EE10FA06D2012088662560BE
:1031300006E0F8EEE80AF3E70C238B62886613607A
:103140002E4ABAF1000F1070D0DD2F48026802EB52
:10315000C20000EB02102D4A1268B2EB800FC5DDF1
:10316000D9F868000028C1D12449012025600870E1
:1031700067E70000DC000020D00200200000000013
:1031800000005940D4000020EC00002000000000A6
:1031900000E09540E40000200000000000804B406B
:1031A000CC000020D0000020333333333333D33FFF
:1031B000D80000209A9999999999B93F0000000088
:1031C00000000C404C000020580000203C00002073
:1031D00038000020540000205C000020A0000020E7
:1031E0009C0000209800002040000020B400002037
:1031F000E80000200000000000C06840B800002087
:103200006000002080000020E0000020A8000020D6
:10321000704700002DE9F04FC94841F270712DED63
:103220000A8B95B00068C74C91FBF0F000EB800171
:103230000A01642192FBF1F18B46C4E90001C24905
:1032400064220968414391FBF2F6A660801B089650
:103250008146E060BD4800680590FDF783F99FED69
:10326000BCAB53EC1A2BFDF70EF99FEDBB1B53ECD7
:10327000112BFDF796F8FDF786F982462062B848D3
:1032800000680D90FDF76EF99FEDB11B53EC112B0B
:10329000FDF7F9F89FEDB01B53EC112BFDF781F80A
:1032A000FDF771F90546A062AE4800688046FDF75B
:1032B00059F99FEDADBB53EC1B2BFDF7E4F89FEDE7
:1032C000A61B53EC112BFDF76CF8FDF75CF90746D4
:1032D0002065606C0690FDF775F99FEDA5CB53EC6A
:1032E0001C2BFCF7B7FFFDF74EF908EE900AA06320
:1032F000A14800681190FDF735F99FEDA01B53EC34
:10330000112BFDF74EF841EC190B0698FDF75AF911
:1033100053EC1C2BFCF79EFF53EC192BFCF79AFF88
:10332000FDF731F9606394ED129A08EE100A19EE78
:10333000100AFDF747F99FED931B53EC112BFCF797
:1033400089FFFDF720F9B1EE000AE06339EE000ACB
:1033500007908F49DFF844E2BDEEC00A10EE100A74
:1033600020640690894806608A48C1F800908C491C
:10337000D0F800C088480C680268DEF80000211A06
:103380008848BCF1010F03683FD0BCF1000F7CD12D
:10339000DFF8B081844F4FF0640CC8F8142097ED2B
:1033A000009A824F88ED139ADFF8F4A13F687F42BC
:1033B000794391FBFCF11944C8F81C7001600D9829
:1033C000101A00FB0CF0FDF7CDF853EC1A2BFDF7AB
:1033D0005AF8FDF7D8F87149C8F83000DFF8D0C1C5
:1033E0000C6011990F22734B012976DD41465C4533
:1033F0007EDD069CA74206DCB8EEC80AB4EEC09A91
:10340000F1EE10FA74DD022487E06B4DDFF83491A1
:103410002E68C9F8106001960696C9F81420674A0C
:103420004D461668C9F818607143642691FBF6F1A1
:1034300019440160A1EB08008B467043CEF80040B0
:10344000FDF790F853EC1B2BFDF71DF8FDF79BF8EB
:1034500004466862DDE90506301A64214843FDF739
:1034600081F853EC1A2BFDF70EF8FDF78CF8E862A3
:10347000534D0E220146B8F1000F1CD0C3452EDA81
:103480004846BC4202DD416D02E021E0391B416546
:10349000B94200DD4765D9F85400FDF763F89FEDA8
:1034A000491B53EC112BFCF77CFFFDF76CF80899D6
:1034B00090FBF1F00BE0059C019B4846A3420EDA1D
:1034C000514502DCAAEB01010162D9F82000286015
:1034D00015B0BDEC0A8BBDE8F08F0FE008E02A6064
:1034E000F6E7186006EB0900401CCAF80000EFE799
:1034F000A84222DC281A88621860E9E717D1414601
:103500005C45F5DD079CA74206DCB8EEE80AB4EEA0
:10351000C09AF1EE10FAEBDD0124CCF80040A8428D
:1035200002DC281A8862DCE710468A62D9E74FF08D
:10353000FF31CCF800104146DAE710468A62DBE73B
:103540004C0100202C0200205001002044010020EA
:103550000000000000804B400000000000005940C7
:1035600048010020680100200000000000E09540B4
:10357000333333333333D33F5C0100209A99999925
:103580009999B93F0000000000000C404400002061
:10359000480000204C000020580000209C00002023
:1035A000A000002094000020800000206000002087
:1035B000C40000203C000020540000205C000020DB
:1035C000380000200000000000C0684005494FF4AA
:1035D000FA70086004490860044900200860044942
:1035E0000860704744000020480000203800002098
:1035F0003C0000207047FEF7C9B8000030B593B01A
:1036000030216846FCF714FE14210CA8FCF710FECC
:1036100018480025016841F080510160006800F001
:10362000805011901448016841F4804101600068A5
:10363000022400F480401190012003901020049097
:10364000009406940820CDE907504820CDE90904EC
:1036500003200B906846FEF71DFA0CA90F2081E8A5
:103660003100E0020F90109002210CA8FEF728F91B
:1036700013B030BD4038024000700040054801687A
:1036800041F47001016003494FF000608039086027
:103690007047000088ED00E00D4910B50868401C37
:1036A0000860642801D100200860024609484FF4F0
:1036B0000061036808489A4201DA012200E0002212
:1036C000FDF75EFFBDE810400448FEF78EBD000028
:1036D0005003002004000020001002403C0700209E
:1036E0002DE9F047FF4C00252DED028BFE4EE561E4
:1036F000306802F0BDFABDEEC00AE16910EE100AB2
:103700000844E061306802F0B3FABDEEC00AE16936
:1037100010EE100A0844E061306802F0A9FABDEE2C
:10372000C00AE16910EE100A0844E061306802F056
:103730009FFABDEEC00AE16910EE100A0844E0618C
:10374000306802F095FABDEEC00AE16910EE100A89
:103750000844E061306802F08BFABDEEC00AE1690E
:1037600010EE100A0844E061306802F081FABDEE04
:10377000C00AE16910EE100A0844E061306802F006
:1037800077FABDEEC00AE16910EE100A0844E06164
:10379000306802F06DFABDEEC00AE16910EE100A61
:1037A0000844E061306802F063FABDEEC00AE169E6
:1037B000CE4F10EE100A4FF064090844E061002873
:1037C00001DC3D6005E000EB8000810091FBF9F039
:1037D0003860C74EE561306802F04AFABDEEC00AB3
:1037E000E16910EE100A0844E061306802F040FA26
:1037F000BDEEC00AE16910EE100A0844E0613068CD
:1038000002F036FABDEEC00AE16910EE100A084473
:10381000E061306802F02CFABDEEC00AE16910EEFA
:10382000100A0844E061306802F022FABDEEC00AD6
:10383000E16910EE100A0844E061306802F018FAFD
:10384000BDEEC00AE16910EE100A0844E06130687C
:1038500002F00EFABDEEC00AE16910EE100A08444B
:10386000E061306802F004FABDEEC00AE16910EED2
:10387000100A0844E061306802F0FAF9BDEEC00AAF
:10388000E16910EE100A0844E061306802F0F0F9D6
:10389000BDEEC00AE1694FF00A0810EE100A0844B4
:1038A0009449E061002801DC0D6002E090FBF8F033
:1038B00008609FED918A914E84ED068A306802F08F
:1038C000D7F9D4ED060A30EE200A84ED060A3068F6
:1038D00002F0CEF9D4ED060A30EE200A84ED060A95
:1038E000306802F0C5F9D4ED060A30EE200A84ED06
:1038F000060A306802F0BCF9D4ED060A30EE200A60
:1039000084ED060A306802F0B3F9D4ED060A30EE11
:10391000200A84ED060A306802F0AAF9D4ED060AFE
:1039200030EE200A84ED060A306802F0A1F9D4EDE9
:10393000060A30EE200A84ED060A306802F098F993
:10394000D4ED060A30EE200A84ED060A306802F053
:103950008FF9D4ED060A30EE200A84ED060A3068AD
:1039600002F086F9D4ED060A654830EE200A84EDAF
:10397000060AB5EEC00AF1EE10FA02D880ED008A10
:1039800005E0F5EE000A20EE200A80ED000A5D4E0B
:10399000E561306801F0E6FEBDEEC00AE16910EEB7
:1039A000100A0844E061306801F0DCFEBDEEC00A98
:1039B000E16910EE100A0844E061306801F0D2FEBF
:1039C000BDEEC00AE16910EE100A0844E0613068FB
:1039D00001F0C8FEBDEEC00AE16910EE100A08440D
:1039E000E061306801F0BEFEBDEEC00AE16910EE94
:1039F000100A0844E061306801F0B4FEBDEEC00A70
:103A0000E16910EE100A0844E061306801F0AAFE96
:103A1000BDEEC00AE16910EE100A0844E0613068AA
:103A200001F0A0FEBDEEC00AE16910EE100A0844E4
:103A3000E061306801F096FEBDEEC00AE16910EE6B
:103A4000100A0844E061306801F08CFEBDEEC00A47
:103A5000E16910EE100A08442B49E061002801DCFE
:103A60000D6002E090FBF8F008608A4609686E225B
:103A7000514391FBF9F1254ECAF80010E561306819
:103A800001F070FEBDEEC00AE16910EE100A0844B4
:103A9000E061306801F066FEBDEEC00AE16910EE3B
:103AA000100A0844E061306801F05CFEBDEEC00A17
:103AB000E16910EE100A0844E061306801F052FE3E
:103AC000BDEEC00AE16910EE100A0844E0613068FA
:103AD00001F048FEBDEEC00AE16910EE100A08448C
:103AE000E06115E050030020240000205400002075
:103AF0002800002058000020000000002C000020BA
:103B000080000020300000205C00002034000020F5
:103B1000306801F027FEBDEEC00AE16910EE100A20
:103B20000844E061306801F01DFEBDEEC00AE169A5
:103B300010EE100A0844E061306801F013FEBDEE9B
:103B4000C00AE16910EE100A0844E061306801F033
:103B500009FEBDEEC00AE16910EE100A0844E061FA
:103B6000306801F0FFFDBDEEC00AE16910EE100AF9
:103B700008443D49E061002801DC0D6002E090FB53
:103B8000F8F0086061693948491C6161026848467B
:103B900099FBF2F38B4237DC6561616A344B91FB30
:103BA000F0F191FBF2F1196032490B783249022BA6
:103BB00020D0032B20D0042B20D0052B20D00D604B
:103BC00009682163A16A2D4B91FBF0F191FBF2F1A1
:103BD00019602B492B4B097881F001011970E16ABA
:103BE00091FBF9F090FBF2F0274908606562A5624D
:103BF000E56214E0254B04E0254B02E0254B00E094
:103C0000254B1B680B60DBE7606A3968084460621B
:103C1000A16ADAF800000844A062206BE062A068A4
:103C2000401CA0600A2808D11C484FF41672016895
:103C300051431B4A11600560A5606068401C6060CC
:103C4000B0F5967F08D14FF400711648FDF78CFC53
:103C500010B11549012008701448BDEC028BBDE875
:103C6000F047FEF7C2BA0000600000207C00002090
:103C700064000020C80000206C00002068000020C4
:103C80002200002078000020700000209400002016
:103C9000900000208C0000209800002018000020D8
:103CA0005000002000180240840000207C07002003
:103CB0002DE9F05FDFF84C81DFF84CB1DFF84C9173
:103CC00098F800000024524F524D534E052853D00F
:103CD0002968DFF848C1491C514B2960DCF80020F5
:103CE0001B6813448B4211DCD9F800304D495B1C32
:103CF000C9F800302C600C604B490C604B490C60DB
:103D00004B490C604B490C604B490C602968E146FB
:103D100091420CDCDBF80010F16030B1012804D0D6
:103D2000012251024548FDF72BFC0120386029682B
:103D3000D9F80000814203DD414A1268F2603C601C
:103D40001E3081420ADD98F8000038B1012805D004
:103D500000224FF400713948FDF712FCF06800288A
:103D600001DB02F0B7F82868642190FBF1F201FB57
:103D70001200E8B300213DE03169DFF8C8A0232933
:103D80000ADD00224FF400712C483461FDF7F8FB86
:103D90009AF8000030B91FE09AF800202A48B2B122
:103DA00034610460DBF80000F06098F8000030B186
:103DB000012804D0012251022048FDF7E1FB2868C8
:103DC000401C28600120C9F800403860C6E7491C43
:103DD00031610168491C016019486FF063012C6072
:103DE000C9F800100068F06018483C600460B5E74E
:103DF000FFE70121062001F0F1FCBDE8F05F144867
:103E0000FEF7F3B9C800002038000020C0000020F1
:103E10004C000020A000002050030020440000209F
:103E2000480000209C0000208C0000209000002012
:103E300094000020480300204C03002000100240A2
:103E40003C000020B8000020A800002098000020BE
:103E5000BC070020164A10B51068401C10603228BC
:103E600011D11448002111600078012810D00528D4
:103E700011D0032812D0042813D0022814D00E48E1
:103E800001600E480160BDE810400D48FEF7ADB975
:103E9000FFF79CFBF7E7FEF787FFF4E7FEF7D2FD9D
:103EA000F1E7FCF709FDEEE7FFF7B4F9EBE70000F7
:103EB000A4000020C8000020380000203C000020A2
:103EC000FC0700202DE9F04113480178F9B10021E9
:103ED000124C01700120124F124D134E206212E05D
:103EE00017F8202002212846FDF74AFB012211463F
:103EF0002846FDF745FB002201212846FDF740FB3F
:103F0000206A401C20623168891C8842E8DBBDE8D9
:103F1000F0410648FEF769B98500002050030020F3
:103F20008C05002000140240880000203C0800207E
:103F3000F0B50268254C264D264E274F274B4FF0F3
:103F4000804CA04209D0604507D0A84205D0B042BD
:103F500003D0B84201D0984204D122F0700E4A68D2
:103F600042EA0E02A0421BD0604519D0A84217D0E9
:103F7000B04215D0B84213D0984211D0184DA84283
:103F80000ED0184DA8420BD0174DA84208D0174D9F
:103F9000A84205D0164DA84202D0164DA84203D122
:103FA00022F44075CA682A434D6922F080022A43F0
:103FB00002608A68C2620A688262A04201D09842A6
:103FC00001D10969016301214161F0BD0000014097
:103FD0000004004000080040000C004000040140C4
:103FE00000400140004401400048014000180040EA
:103FF000001C00400020004010B5846842EA032203
:1040000024F47F440A432243826010BD826822F078
:1040100070020A4342F007018160704710B5036ADD
:10402000046A24F001040462846924F0F00444EA80
:10403000021423F00A020A438461026210BD10B523
:10404000036A23F0100303628369046A23F4704354
:1040500043EA023224F0A00343EA011182610162C3
:1040600010BD00002DE9F041044600680169E268D6
:1040700021F44051114301612169A068E2690843BC
:104080006169114308432168CA6849F20C639A4385
:104090000243CA6020684169A26921F4407111435A
:1040A0004161E069192764253226B0F5004F354A91
:1040B000354920684FF0000806D0884201D0904270
:1040C00036D1FDF7A7FC35E0884201D0904202D1FD
:1040D000FDF7A0FC01E0FDF78DFC61684A18A0FB2C
:1040E000070148EB0803FCF76BF80146B0FBF5F05D
:1040F0000201B1FBF5F06FF01803584301EB8000AB
:1041000006EBC000B0FBF5F000F0F80002EB400257
:10411000B1FBF5F0584301EB800006EBC000B0FBAB
:10412000F5F000F00700216810448860BDE8F081D8
:10413000FDF760FC61688B0F8A00A0FB0701FCF7AC
:104140003FF80146B0FBF5F06FF01802504301EB69
:10415000800006EB0010B0FBF5F000F0F002B1FBC0
:10416000F5F002EB0012B1FBF5F06FF018035843C5
:1041700001EB800006EB0010B0FBF5F000F00F0043
:10418000D1E7000000140140001001402DE9F0418A
:10419000984617460E460446069D1DE0681C1BD037
:1041A0002DB1FDF7F3F9A0EB0800A84214D920685F
:1041B000C16821F4D071C1602068416921F001011A
:1041C0004161202084F8390084F83A00002084F806
:1041D00038000320BDE8F0812068006836EA00005E
:1041E00004D00020B842D9D00020F3E70120F9E73D
:1041F00010B5144C2068C068800610D5012102203B
:1042000001F05CFE2068436810490F4A08681354A7
:10421000401C0860B0F5FA7F02DB0020086010BD8A
:104220000028FCDD104410F8021CFF29F7D110F81B
:10423000010C0A28F3D106490120086005490870DD
:1042400010BD0000FC080020BC0900204403002031
:104250004003002022000020FEE700000FB4084BBE
:1042600010B504A902AA039800F0EEF8044602A9CA
:10427000002000F080FC204610BC5DF814FB00001C
:10428000774B00080907090E002804DB00F1E02045
:1042900080F80014704700F00F0000F1E02080F873
:1042A000141D704702E008C8121F08C1002AFAD185
:1042B00070477047002001E001C1121F002AFBD1A6
:1042C000704700002DE9FF5F82B00021DDE9043076
:1042D000020DDDF840B0034318D044F61050A2F2AE
:1042E000FF3242431514119801281FD0A5EB0B0093
:1042F000401C5FEA000A4FF000064E4FDFF838918D
:10430000B046504615D5CAF1000413E011980124B7
:104310004AA3012801D16FEA0B010298119AC0E962
:104320000031C0E9024206B0BDE8F09FCBF10000C9
:10433000DFE704460021404A491842EB0450CDE92A
:10434000001012E0E00707D032463B46404649469F
:10435000FCF727F88046894632463B461046194608
:10436000FCF71FF806460F466410002CEAD1DDE981
:104370000401DDE90023BAF1000F06DAFCF711F8B9
:1043800042464B46FCF70DF805E0FCF77CF8424648
:104390004B46FCF778F804460E460022284BFCF703
:1043A00025F903D84FF0FF30014607E00022254BE6
:1043B00020463146FBF74EFFFCF727FA102409E0B0
:1043C000002C0ADB0A220023FBF7FAFE039B3032A3
:1043D0001A55641E50EA0102F2D1641C039AC4F11A
:1043E00011031444119A012A03D0012208430DD16C
:1043F0000AE0084304D000204FF0110B119072E73F
:10440000A3EB0B056D1E0DE05B4504DD4FF00002D4
:1044100005F1010504E003DA4FF00002A5F1010502
:10442000002AECD002981199C0E90231C0E9004598
:1044300079E70000000014400000F03F3000000069
:104440000000F0430000E03F2DE9FF4F95B09B4690
:104450008946064600250FE2252877D10024274605
:10446000F84A0121059400E0044316F8013F203B7F
:1044700001FA03F01042F7D130782A2811D06FF0FA
:104480002F033078A0F13002092A16D8059A44F09B
:10449000020402EB820203EB42021044761C0590F8
:1044A000EFE759F8042B0592002A03DA504244F44E
:1044B0000054059044F00204761C30782E2816D162
:1044C00016F8010F44F004042A280DD06FF02F02D3
:1044D0003078A0F13003092B09D807EB870302EBF2
:1044E0004303C718761CF3E759F8047B761C307831
:1044F0006C280FD006DC4C2817D068280DD06A280D
:1045000014D104E0742810D07A280FD10DE044F4BF
:1045100000140AE044F4801401E044F4401472787A
:10452000824202D104F58014761C761C307866280D
:104530000BD013DC582877D009DC002875D045282B
:10454000F6D04628F4D047281AD19DE118E0632818
:1045500035D0642879D0652812D195E1702873D0C0
:1045600008DC6728F1D069286FD06E280DD06F283D
:1045700006D1B5E073282CD0752875D0782874D072
:104580005A46179990476D1C75E1C4F302500228F2
:1045900009D003280DD0D9F8001004280DD00D60E3
:1045A00009F1040967E1D9F80010EA17C1E90052DE
:1045B000F6E7D9F800100D80F2E70D70F0E719F872
:1045C000041B8DF8001000208DF80100EA46012040
:1045D00003E059F804AB4FF0FF3061074FF00001E2
:1045E00002D40DE008F101018846B9420FDA804596
:1045F000F8DB1AF808100029F4D108E008F10101ED
:1046000088468142FADB1AF808100029F6D105988D
:104610005B46A0EB080721463846179A00F094FA4B
:10462000284400EB080507E04DE029E10DE01AF809
:10463000010B5A4617999047B8F10108F7D25B462B
:1046400021463846179A13E142E00A220092C4F349
:1046500002524FF0000A022A08D059F804CB032A6C
:104660004FEAEC710AD00DE029E02AE009F10701D8
:1046700021F00702F2E802C1914609E00FFA8CFC32
:104680004FEAEC71042A03D14FFA8CFC4FEAEC712B
:10469000002907DA0A460021DCF1000C61EB020177
:1046A0002D2202E0220504D52B228DF804200122C0
:1046B00003E0E20701D02022F7E7904659E00A2103
:1046C00002E010220DE010214FF0000A00910BE0F3
:1046D00010224FF0000A44F004040827009203E07F
:1046E00008224FF0000A0092C4F30252022A05D0B9
:1046F00059F804CB0021032A08D009E009F1070189
:1047000021F00702F2E802C1914605E01FFA8CFC95
:10471000042A01D10CF0FF0C4FF00008220728D525
:10472000702806D0009B83F0100353EA0A0305D0DB
:104730000EE040228DF80420012208E05CEA01022C
:1047400006D030228DF804208DF805000222904614
:10475000009B83F0080353EA0A030AD15CEA0102D2
:1047600001D1620705D530228DF804204FF00108F1
:104770007F1E582804D034A003900EA802900DE0AC
:1047800036A0F9E753466046009AFBF719FD8446C8
:104790000398825C0298401E029002705CEA01005D
:1047A000F0D1029806A9081A00F1200A600702D584
:1047B00024F4803400E00127574502DDA7EB0A000E
:1047C00000E0002000EB0A01009005984144401AE7
:1047D0000590E00306D45B462146179A059800F041
:1047E000B3F90544002706E001A85A46C05D1799B1
:1047F00090476D1C7F1C4745F6DBE0030CD55B46FC
:104800002146179A059800F09FF9054404E03020EE
:104810005A46179990476D1C0099481E0090002930
:10482000F5DC08E0029802995A460078491C02918A
:10483000179990476D1CBAF10001AAF1010AF1DC49
:1048400065E1000009280100303132333435363754
:1048500038396162636465660000000030313233CC
:10486000343536373839414243444546000000006C
:1048700000F058F90544761C307800287FF4ECAD40
:1048800019B02846BDE8F08F620700D4062709F169
:10489000070222F0070CFCE80223E14603F000487F
:1048A0005FEA080C02D00FF2702C0DE05FEA045CA6
:1048B00002D50FF2682C07E05FEAC47C02D00FF249
:1048C000602C01E0AFF2700C4FF0FF3823F0004392
:1048D000CDF850C065280CD006DC452809D0462804
:1048E0001DD047283DD13DE0662818D067287ED1ED
:1048F00038E00021112F01DB112000E0781CCDE908
:10490000000106A90EA8FFF7DDFCDDE90F010E9AF4
:1049100003910021009207F1010A04914DE04FF04C
:1049200000400097CDE9011006A90EA8FFF7CAFCC8
:10493000DDE90F0203920E9B11990022DDF80CA015
:104940000093049211B9791C00EB010AB7EB0A003D
:1049500004D4C0F1FF3007F1010A0490AAEB07006C
:10496000019044E0012F00DA01270021112F01DD21
:10497000112000E03846CDE9000106A90EA8FFF796
:10498000A1FCDDE90F010E9A039100210491009230
:10499000BA4621070CD40399514500DA8A46BAF188
:1049A000010F05DD009AAAF10101515C302908D000
:1049B000B84202DA10F1040F06DA0121CDE9011044
:1049C00015E0AAF10101E9E7002805DC049901449A
:1049D0000491AAEB000102E0411C514500DD8A462A
:1049E0000499401A401C01904FF0004002902007AB
:1049F00004D40198504501DBCDF8048000208DF8E7
:104A00004F0002980DF14F07B0F1004F25D02B2039
:104A10000E9002984FF0020800280CDA40420290F3
:104A20002D200E9007E00A210298FBF713FE30318B
:104A3000029007F8011DB8F10001A8F10108F2DCAD
:104A400002980028EFD1791E0E980870307800F097
:104A5000200040F0450007F8020D12A8C01B00F12D
:104A600007081498007800B1012000EB0A010198B2
:104A700001EBE07105984144401A401E0590E003A7
:104A800006D45B462146179A059800F05DF8054468
:104A90001498007818B15A46179990476D1CE00396
:104AA00024D55B462146179A059800F04DF8054439
:104AB0001CE00498002807DBDDE90301884203DDE0
:104AC0000098405C179901E0179930205A469047AA
:104AD000049805F10105401C04900198401E0190C6
:104AE00004D12E205A46179990476D1CBAF1000147
:104AF000AAF1010ADDDC05E017F8010B5A46179907
:104B000090476D1CB8F10001A8F10108F4DC5B4688
:104B10002146179A0598ABE62D0000002B000000F7
:104B2000200000002DE9F041044600251E461746EE
:104B3000880404D405E039462020B0476D1C641E6B
:104B4000F9D52846BDE8F0812DE9F041044600255D
:104B50001E469046C80301D5302700E02027880470
:104B600004D505E041463846B0476D1C641EF9D5B2
:104B70002846BDE8F0810A68531C0B60107070472E
:104B80000B480C4A017911600B4A417911600B4ABC
:104B9000817911600A4AC17911600A4A017A11606B
:104BA000817A407A01EB00200749086070470000D5
:104BB000BC0900209C010020A0010020A4010020CD
:104BC000A8010020AC010020B001002070B5204CED
:104BD00020492DED028B207908601F49607908601B
:104BE0001E49A07908601E49E07908601D49207AB5
:104BF00008601D49607A08601C49A07A08601C4959
:104C0000E07A0860257B607BFBF7ACFC9FED191B0D
:104C100053EC112BFBF737FC41EC180B2846FBF744
:104C2000A1FC53EC182BFBF715FBFBF7F7FC134922
:104C30000860E07BA17B00EB012011490860607CEB
:104C4000217C00EB01200F490860BDEC028B70BD98
:104C5000BC090020180100201C01002020010020B8
:104C600024010020280100202C0100203001002018
:104C70003801002000000000000024404001002016
:104C8000340100203C010020F0B44FF48063194D42
:104C90005C00194E9F0001290AD001281ED002286D
:104CA0001FD0032820D0042821D10022394611E04A
:104CB000012807D0022807D0032809D0042816D1DC
:104CC0000122F3E701220AE001220BE0284602E07C
:104CD00001220AE03046F0BCFCF752BC0022194623
:104CE000F4E700222146F1E700222146F2E7F0BC7A
:104CF00070470000000C0240001402402DE9F0470C
:104D0000FE4CFF4E19202060306041F28830FCF7E5
:104D10002FFB01210220FFF7B7FFFA4801270068A7
:104D200008B9F948077000252560F84C3560F84E41
:104D30002560306800F09CFFD4ED000AF8EEE00A30
:104D400030EE200ABDEEC00A84ED000A306800F0A3
:104D50008FFFD4ED000AF8EEE00A30EE200ABDEE37
:104D6000C00A84ED000A306800F082FFD4ED000A2A
:104D7000F8EEE00A30EE200ABDEEC00A84ED000A2B
:104D8000306800F075FFD4ED000AF8EEE00A30EE6E
:104D9000200ABDEEC00A84ED000A306800F068FF0A
:104DA000D4ED000AF8EEE00A30EE200ABDEEC00AAB
:104DB00084ED000A306800F05BFFD4ED000AF8EEE5
:104DC000E00A30EE200ABDEEC00A84ED000A306829
:104DD00000F04EFFD4ED000AF8EEE00A30EE200AB3
:104DE000BDEEC00A84ED000A306800F041FFD4ED4A
:104DF000000AF8EEE00A30EE200ABDEEC00A84EDAB
:104E0000000A306800F034FFD4ED000AF8EEE00A42
:104E100030EE200ABDEEC00A84ED000A306800F0D2
:104E200027FFD4ED000A4FF00A084FF0FF39F8EEE3
:104E3000E00A30EE200ABDEEC00A10EE100A206033
:104E400090FBF8F0484501DAB2480770B24E256091
:104E5000306800F00DFFD4ED000AF8EEE00A30EE05
:104E6000200ABDEEC00A84ED000A306800F000FFA1
:104E7000D4ED000AF8EEE00A30EE200ABDEEC00ADA
:104E800084ED000A306800F0F3FED4ED000AF8EE7D
:104E9000E00A30EE200ABDEEC00A84ED000A306858
:104EA00000F0E6FED4ED000AF8EEE00A30EE200A4B
:104EB000BDEEC00A84ED000A306800F0D9FED4EDE2
:104EC000000AF8EEE00A30EE200ABDEEC00A84EDDA
:104ED000000A306800F0CCFED4ED000AF8EEE00ADB
:104EE00030EE200ABDEEC00A84ED000A306800F002
:104EF000BFFED4ED000AF8EEE00A30EE200ABDEE67
:104F0000C00A84ED000A306800F0B2FED4ED000A59
:104F1000F8EEE00A30EE200ABDEEC00A84ED000A89
:104F2000306800F0A5FED4ED000AF8EEE00A30EE9D
:104F3000200ABDEEC00A84ED000A306800F098FE39
:104F4000D4ED000AF8EEE00A30EE200ABDEEC00A09
:104F500010EE100A206090FBF8F0484501DA6F4827
:104F600007706F4E2560306800F0FCFBD4ED000A3E
:104F7000F8EEE00A30EE200ABDEEC00A84ED000A29
:104F8000306800F0EFFBD4ED000AF8EEE00A30EEF6
:104F9000200ABDEEC00A84ED000A306800F0E2FB92
:104FA000D4ED000AF8EEE00A30EE200ABDEEC00AA9
:104FB00084ED000A306800F0D5FBD4ED000AF8EE6D
:104FC000E00A30EE200ABDEEC00A84ED000A306827
:104FD00000F0C8FBD4ED000AF8EEE00A30EE200A3B
:104FE000BDEEC00A84ED000A306800F0BBFBD4EDD2
:104FF000000AF8EEE00A30EE200ABDEEC00A84EDA9
:10500000000A306800F0AEFBD4ED000AF8EEE00ACA
:1050100030EE200ABDEEC00A84ED000A306800F0D0
:10502000A1FBD4ED000AF8EEE00A30EE200ABDEE56
:10503000C00A84ED000A306800F094FBD4ED000A49
:10504000F8EEE00A30EE200ABDEEC00A84ED000A58
:10505000306800F087FBD4ED000A4FF06408F8EEEA
:10506000E00A30EE200ABDEEC00A10EE100A206001
:1050700090FBF8F0484501DA2A4807702A4E25606F
:10508000306800F06FFBD4ED000AF8EEE00A30EE75
:10509000200ABDEEC00A84ED000A306800F062FB11
:1050A000D4ED000AF8EEE00A30EE200ABDEEC00AA8
:1050B00084ED000A306800F055FBD4ED000AF8EEEC
:1050C000E00A30EE200ABDEEC00A84ED000A306826
:1050D00000F048FBD4ED000AF8EEE00A30EE200ABA
:1050E000BDEEC00A84ED000A306800F03BFBD4ED51
:1050F000000AF8EEE00A30EE200A17E0380000203F
:105100003C000020500000201C000020280200204D
:10511000240000201D000020280000201E00002088
:10512000300000202000002034000020BDEEC00A26
:1051300084ED000A306800F015FBD4ED000AF8EEAB
:10514000E00A30EE200ABDEEC00A84ED000A3068A5
:1051500000F008FBD4ED000AF8EEE00A30EE200A79
:10516000BDEEC00A84ED000A306800F0FBFAD4ED11
:10517000000AF8EEE00A30EE200ABDEEC00A84ED27
:10518000000A306800F0EEFAD4ED000AF8EEE00A0A
:1051900030EE200ABDEEC00A84ED000A306800F04F
:1051A000E1FAD4ED000AF8EEE00A30EE200ABDEE96
:1051B000C00A10EE100A206090FBF8F0484501DAB2
:1051C000084807704FF480710748FCF7CDF907498C
:1051D00008B10F7000E00D70BDE8F047002102201B
:1051E000FFF752BD21000020001802401F000020E0
:1051F00030B503464FF6FF700022074C08E09D5C77
:105200004540EDB2521C34F8255085EA102080B29A
:105210008A42F4DB30BD0000F45E0008F0B587B0D0
:105220000DF1300C9CE8F0004FF0FE0C8DF800C042
:105230004FF0080C8DF801C08DF802008DF80310B6
:105240008DF810008DF804208DF811108DF81440A1
:105250008DF805308DF815508DF806408DF80860F2
:105260008DF812208DF816608DF807508DF80970B2
:105270008DF813308DF81770614604A8FFF7B8FF5A
:10528000B0F5807F01D8002100E0010A8DF80A10F6
:105290008DF80B00FF208DF80C000A208DF80D0012
:1052A0000E21684600F08EFD07B0F0BDF0B58BB062
:1052B000FE248DF800400F248DF80140DDE91067D1
:1052C000FF2400258DF80200002905DA48428DF8F8
:1052D00003408DF8040003E08DF803508DF80410AE
:1052E000002A09DA5042C11700EB11618DF8054020
:1052F0000A0A8DF8062008E0D01702EB1060010AB8
:105300008DF805508DF8061010468DF80700002B1B
:1053100009DA5842C11700EB11618DF808400A0AFA
:105320008DF8092008E0D81703EB1060010A8DF80A
:1053300008508DF8091018468DF80A00002E09DA79
:105340007042C11700EB11610A0A8DF80B408DF80D
:105350000C2008E0F01706EB1060010A8DF80B50E6
:105360008DF80C1030468DF80D00F81707EB106122
:10537000C1F307203946C9B2002F02DA8DF80E407A
:1053800001E08DF80E508DF80F009DF802008DF8A9
:1053900018009DF803008DF819009DF804008DF8A1
:1053A0001A009DF805008DF81B009DF806008DF889
:1053B0001C009DF807008DF81D009DF808008DF871
:1053C0001E009DF809008DF81F009DF80A008DF859
:1053D00020009DF80B008DF821009DF80C008DF841
:1053E00022008DF810109DF80E008DF824009DF815
:1053F0000F008DF82300C8B28DF826009DF801102B
:1054000006A8FFF7F5FEB0F5807F02D88DF81150A1
:1054100002E0010A8DF811108DF812000A208DF8B3
:1054200014008DF813401521684600F0CBFC0BB03A
:10543000F0BD0EB5FE228DF8002002228DF801206D
:105440008DF802008DF808008DF803108DF8091012
:10545000114602A8FFF7CCFEB0F5807F01D80021ED
:1054600000E0010A8DF804108DF80500FF208DF88A
:1054700006000A208DF807000821684600F0A2FC0B
:105480000EBD70472DE9FF47774D4FF4FA766978E6
:10549000B14278DC2878FE2875D1080073D06818EE
:1054A0000279FF2A6FD142790A2A6CD1C2788078BA
:1054B00002EB002084B2002005F5FA7203E02B18FD
:1054C0009B781354401C8842F9DB6848FFF790FE34
:1054D000A04258D1AF78664900246E2F26D0AA4644
:1054E000644D6548654B664ADFF89881DFF898910E
:1054F0004FF0010CDFB3042F56D0012F61D0022FE3
:1055000067D0032F3FD19AF8030001287ED00228EC
:105510007DD003287CD0042835D100F06FFC042115
:10552000032004B0BDE8F047FFF783BF0C70E878B4
:10553000012801D1FFF7E2FB554954480B78554942
:1055400002780D78544942EA030028430E78534903
:1055500030430F785249384301D1087848B1087870
:10556000CDE90056CDE9027001216E2009E00CE082
:1055700009E000230094019402941A4619466E2013
:105580000394FFF74BFEBDE8FF872C6081F800C055
:105590000168196006600C201660C8F80000002140
:1055A000C9F800000846BCE72C600C70016819605F
:1055B00006601660C8F8004000210420C9F80040C9
:1055C000AFE700210120FFF734FFBDE8FF47FFF7F9
:1055D00058BF344E34602C60334D2C60334D2C60FA
:1055E000334D2C60334D2C609AF80320012A10D0E3
:1055F000022A18D0032A1FD0042AC4D102220A701A
:105600000068186000F020FC042113E01FE022E095
:1056100025E005220A70006818602748047000F031
:1056200099FB012106E003220A700068186000F06F
:10563000E5FA0221022074E704220A701F49C1F82A
:1056400000C000681860FFF7C1FA0321F2E700F01C
:1056500055FB012164E700F0A5FA022160E7FFF79E
:105660008FFA03215CE70000BC090020B00B00208A
:10567000C8000020C000002044000020A00000203E
:1056800048000020380000203C0000201C000020C2
:105690001D0000201E00002020000020210000200E
:1056A0001F0000204C0000208C00002090000020F3
:1056B0009400002098000020B8000020BC000020CA
:1056C00070B5204B012000241F4D204E186007E0CC
:1056D000214645F8204000F0F1FB1868401C186096
:1056E0003168891C8842F3DB002000F0F3FB184886
:1056F000FCF7FEFC1748FCF7FBFC1748FCF7F8FC2E
:105700001648FCF7F5FC164C012251032046FBF726
:1057100037FF0122950329462046FBF731FF1E2063
:10572000FBF726FE002229462046FBF729FF1E2014
:10573000FBF71EFE29462046BDE870400122FBF71C
:105740001FBF0000000000208C0500208800002002
:105750003C0700207C070020BC0700203C080020FC
:105760000018024010B5164C012805D0022805D0BB
:10577000032822D0206805E00B2000E00420FBF77E
:105780004BFB2060FAF7EEFE9FED0E1B53EC112B46
:10579000FAF707FE9FED0D1B53EC112BFAF7FBFDFB
:1057A0009FED0C1B53EC112BFAF7F5FDFAF736FFC2
:1057B00000EE100A84ED020A10BD0520DFE70000AC
:1057C000000000205227A089B0E1D53F0000000072
:1057D00000C06C400000000000406F4030B40A463A
:1057E0004FF48041224C4D00224B012A08D0092859
:1057F0003CD2DFE800F03B2426292C2F323538003C
:10580000092833D2DFE800F03205070B0D13151716
:105810001900012201E0012214E0204604E00122E7
:1058200013E0012214E0184630BCFBF7A9BE0122A8
:1058300011E0012212E0012213E0012214E0002213
:10584000EBE700222946E8E700220421EBE70022EB
:105850000821E8E700221021E5E700222021E2E705
:1058600000224021DFE700228021DCE730BC7047C6
:10587000000C02400018024090B0FBF78FFFFDF7CC
:10588000BDFEFCF703FFFCF7D5FE00249E49009403
:105890009C48019408600846FBF725FD009400220F
:1058A000694699480194FBF7FDFCFCF7EDFFFDF715
:1058B00005F8974895494FF416570160C0E90174FF
:1058C0000C26C460C0E904468461C461FCF744FD51
:1058D0008F48904940300160C0E90174C460C0E95C
:1058E00004468461C461FCF737FD894D8A488035E0
:1058F00028604FF4E130C5E90104EC60C5E90446D5
:10590000AC612846EC61FCF727FD05F140008349B6
:105910000160C0E90174C460C0E904468461C461E7
:10592000FCF71AFD05F180007D490160C0E90174B2
:10593000C460C0E904468461C461FCF70DFDA5F5AF
:105940003170784901607849C0E901144FF4804B07
:10595000C0E9034B44618461C4610462FBF71CFE2F
:10596000FCF7C4FFFCF7EEFFFDF716F8FDF73EF875
:10597000A5F1C0000094019402946C490394016065
:105980004FF4E151C0E901144FF47A71C0E90314F6
:105990008461FCF723FB4FF4805000906946A5F129
:1059A000C000FCF7B6FBFFF78BFEC820FBF7E0FC5E
:1059B000FFF7A4F9A5F58070FCF79AFB01210720F9
:1059C00000F07CFA642000F085FA2868C16841F094
:1059D0002001C160564FDFF85C81DFF85C91DFF891
:1059E0005CA1786801287CD0787858B3544D287829
:1059F00020B100210520FFF71CFD2C7098F8000055
:105A0000012812D94F4D287878B14F494F4809687D
:105A10000068CDE900014E4803684E4802684E48D0
:105A200001681420FFF742FC2C704C48017849B102
:105A300004700121084600F041FA494801686F20CE
:105A4000FFF7F7FC59464748FBF793FDF968D9F88B
:105A50000060B14200DCFE603969DAF80050A9420A
:105A600000DC3D6140480068FAF7ACFD0CAA0F95D8
:105A700082E843003D483E493E4B006809681B6888
:105A80000DF1240C421A08938CE807003C483A4A6E
:105A90003A4900680DF1100C98F800301268096856
:105AA0008CE80F0037483949BB68026836480968F6
:105AB0000068CDE90202CDE9003135487B783549EF
:105AC00002683548FEF7CAFB3348FAF7BCFB0146CB
:105AD000314800F009F94FF4FA70FBF749FC80E710
