:020000040800F2
:10000000301300209D010008832C00086F28000891
:10001000812C0008610E0008F53D0008000000007A
:100020000000000000000000000000006936000829
:10003000630E000800000000893200086B360008DB
:10004000B7010008B7010008B7010008B7010008B0
:10005000B7010008B7010008B7010008B7010008A0
:10006000B7010008B7010008B7010008B701000890
:10007000B7010008B7010008B7010008B701000880
:10008000B7010008B7010008B7010008B701000870
:10009000B7010008B7010008B7010008790E000891
:1000A000B70100080D370008B7010008B7010008C4
:1000B00055370008B937000829390008B70100088A
:1000C000B7010008B7010008B7010008B701000830
:1000D000B7010008B7010008E93D0008B7010008B2
:1000E000650E0008B7010008B7010008993900083B
:1000F000B7010008B7010008B7010008B701000800
:10010000B7010008B7010008B7010008B7010008EF
:10011000B7010008B7010008B7010008B7010008DF
:10012000B7010008B7010008B7010008B7010008CF
:10013000B7010008B7010008B7010008B7010008BF
:10014000B7010008B7010008B7010008B7010008AF
:10015000B7010008B7010008B7010008B70100089F
:10016000B7010008B7010008B7010008B70100088F
:10017000B7010008B7010008B7010008000000003F
:10018000B7010008B7010008DFF80CD000F056FBFB
:10019000004800476551000830130020064880479A
:1001A00006480047FEE7FEE7FEE7FEE7FEE7FEE75C
:1001B000FEE7FEE7FEE7FEE7F136000889010008EA
:1001C0002DE9F05F0546002092469B46884606468C
:1001D000814640241BE0284641464746224600F01F
:1001E0005EFA53465A46C01A914110D3114618463A
:1001F000224600F045FA2D1A67EB01084F462246C9
:100200000120002100F03CFA17EB00094E41201EAE
:10021000A4F10104DFDC484631462A464346BDE8E6
:10022000F09FD2B201E000F8012B491EFBD27047CB
:100230000022F6E710B513460A4604461946FFF7B2
:10024000F0FF204610BD421C10F8011B0029FBD115
:10025000801A70472DE9FE4F804681EA0300C00FE7
:100260000C46009021F0004123F00045B8EB02005D
:10027000A94105D24046214690461C460B460246FF
:1002800023F00040104347D0270DC7F30A00C3F303
:100290000A510290401A019040286BDAC3F3130010
:1002A00040F4801B0098924620B10023D2EB030A51
:1002B00063EB0B0B01985946C0F14002504600F029
:1002C000DFF906460D4650465946019A00F0F7F907
:1002D00010EB08006141002487EA115284EAE773B9
:1002E0001A4340D0009A62B3019A012A4FEA07529A
:1002F00015DC001B61EB02014FF0004202EA0752DD
:10030000CDE90042001C41F5801132462B4600F039
:100310002EFA03B0BDE8F08F40462146F9E7001BF6
:1003200061EB0201001C41F5801300185B412018AD
:10033000A2F5001747EB030140EAD570B6196D41ED
:1003400011E06D084FEA360645EAC0754FEA0752DC
:10035000001B61EB0201001C41F5801149084FEAC6
:1003600030000019514132462B4603B0BDE8F04F32
:1003700000F0EEB90098012240000023D0EB020209
:1003800063EBE073009821464FEAE074B8EB00009D
:1003900061EB0401E9E783F000435BE781F0004192
:1003A00058E72DE9FE4F81EA030404F0004421F0F0
:1003B000004100944FF0000B23F0004350EA010489
:1003C0005ED052EA03045BD0C3F30A54C1F30A556A
:1003D0002C44A4F2F3340194A0FB0254C1F31301A2
:1003E00041F48011C3F3130343F4801301FB02446F
:1003F00000FB034E840A970A44EA815447EA835774
:10040000A4FB076802958D0A05FB07854FEA932C2C
:1004100004FB0C542705029D4FEA065847EA16379D
:10042000B5EB08056EEB070C870E920E47EA8117B5
:1004300042EA8312A7FB0201B6EB0B0164EB000456
:100440002B0D43EA0C335E1844EB1C50DA46514640
:10045000E7FB0201C5F313044FEA0B3343EA1453DD
:100460004FEA0432019C43EA0603A4F10C0402940F
:10047000009CCDE900B400F07AF903B0BDE8F08F3C
:1004800000200146F9E72DE9F04D81EA030404F06C
:10049000004B21F0004514464FF0000A23F00041C4
:1004A00050EA050220D054EA01021DD0C5F30A57D4
:1004B0000246C5F31303C1F31300C1F30A5640F417
:1004C000801543F48013A7EB0608101BD64608F2EC
:1004D000FD3873EB050002D308F1010801E0921822
:1004E0005B41B8F1000F03DA00200146BDE8F08D52
:1004F00000204FF48011064684460EE0171B73EB74
:10050000050705D3121B63EB050306434CEA010CF8
:1005100049084FEA300092185B4150EA0107EDD1DB
:1005200052EA030012D082EA040083EA050108437C
:1005300005D0101BAB4106D20122002306E00022A9
:100540004FF0004302E06FF0010253101AEB060077
:100550004CEB085110EB0A0041EB0B01BDE8F04DEC
:1005600000F0F6B80EB5C10F80EAE0700844CA0783
:10057000002140F233438DE80E000A460B4600F09E
:10058000F6F803B000BD70B5C1F30A5201F00045A2
:100590000024C1F3130140F2FF3341F480119A4269
:1005A00001DA002070BD40F233439A42A2F2334296
:1005B00003DC524200F073F800E090402C43F1D08D
:1005C000404270BD00F0004230F000400AD0C10D42
:1005D00001F56071C0F3160042EA0151C2084007FC
:1005E00011437047002001467047000030B5041EDB
:1005F00071F1000404DB4FF00044404264EB010160
:10060000141E73F1000405DB1C464FF000435242F8
:1006100063EB0403994208BF904230BD01F00043F0
:1006200030B421F0004150EA010206D00A0DA2F5D3
:100630006072C1F31301002A02DC30BC0020704755
:10064000440F44EAC104C100E01830BC00EBC250C2
:1006500000F047B830B50B460146002020220124A7
:1006600009E021FA02F59D4205D303FA02F5491B80
:1006700004FA02F52844151EA2F10102F1DC30BD96
:10068000202A04DB203A00FA02F100207047914052
:10069000C2F1200320FA03F3194390407047202A47
:1006A00004DB203A21FA02F00021704721FA02F31C
:1006B000D040C2F120029140084319467047202AD9
:1006C00006DBCB17203A41FA02F043EAE07306E07A
:1006D00041FA02F3D040C2F120029140084319468A
:1006E00070470029A8BF7047401C490008BF20F090
:1006F0000100704710B4B0FA80FC00FA0CF050EA28
:10070000010404BF10BC704749B1CCF1200421FAA8
:1007100004F411FA0CF118BF012121430843A3EBA3
:100720000C01CB1D4FEA00614FEA102042BF0020B0
:1007300010BC704700EBC35010440029A4BF10BC8C
:100740007047401C490008BF20F0010010BC7047F2
:1007500010B5141E73F1000408DA401C41F10001C9
:1007600092185B411A4301D120F0010010BD2DE920
:10077000F04D92469B4611B1B1FA81F202E0B0FA17
:1007800080F220329046FFF77BFF04460F4640EA96
:100790000A0041EA0B0153465A46084313D011465A
:1007A00053EA010019D0C8F140025046FFF777FF25
:1007B00005460E46504659464246FFF761FF08433C
:1007C00005D0012004E020463946BDE8F08D002028
:1007D000054346EAE0762C4337430A986305E40A6A
:1007E000A0EB08000022FD0A44EA47540A3002D573
:1007F00000200146E9E7010510196941DDE90845D6
:1008000000196941BDE8F04DA2E7C1F30A52C1F3F6
:10081000130140F2FF3341F480119A4202DA0020C2
:100820000146704740F233439A42A2F2334202DC5F
:100830005242FFF734BFFFF723BF0000064C074DBD
:1008400006E0E06840F0010394E8070098471034A0
:10085000AC42F6D3FFF79CFCD05F0008F05F0008C5
:1008600070B58C1810F8015B15F0070301D110F872
:10087000013B2A1106D110F8012B03E010F8016B9F
:1008800001F8016B5B1EF9D12B0705D40023521E22
:100890000DD401F8013BFAE710F8013BCB1A921C8A
:1008A00003E013F8015B01F8015B521EF9D5A14288
:1008B000D8D3002070BD00002DE9F04FCA4841F2A6
:1008C00070712DED0A8B85B064220068DFF81CB3CF
:1008D00091FBF0F0C649CBF80000D84609684143C7
:1008E00091FBF2F6871BC348C8E90167D0F8009076
:1008F00009FB02F0FFF736FE9FEDBF9B53EC192B6F
:10090000FFF7C1FDFFF73FFE0446C8F81C00BC48D6
:100910006421006803904843FFF724FE9FEDB9ABC4
:1009200053EC1A2BFFF7AFFDFFF72DFE0546C8F875
:100930002800D8F840008246FFF744FE9FEDB3CB75
:1009400053EC1C2BFFF727FDFFF71DFE08EE100AE6
:10095000C8F83400AF4800680290FFF703FE9FED2F
:10096000AE1B53EC112BFFF71CFD41EC1B0B50464B
:10097000FFF728FE53EC1C2BFFF70DFD53EC1B2B50
:10098000FFF709FDFFF7FFFDC8F8300098ED11BA39
:1009900008EE900A1BEE100AFFF714FE9FEDA01B55
:1009A00053EC112BFFF756FCFFF7EDFDB1EE000AFB
:1009B000C8F838003BEE000A0190DFF87CA2DFF8AF
:1009C00080E2BDEEC00A10EE100AC8F83C000090AC
:1009D0009548DFF868820660944807609448DEF81E
:1009E0000020D8F80010D0F800C092480368DAF868
:1009F0000000101ABCF1010F3DD0BCF1000F76D100
:100A0000DFF840C2CBF80C305C469CED000ADFF802
:100A100038C2B1EE409A8BED129ADCF800C0CCF1EE
:100A2000000CE146CBF818C0D4F814C0F34600FB24
:100A30000CF04FF0640C90FBFCF00844C8F8000088
:100A4000CAF800200398181A00FB0CF0FFF78AFD83
:100A500053EC1A2BFFF717FDFFF795FDE062029BA1
:100A60000F217A4A012B7CDDDDF800C0E14579DCFD
:100A7000B8EEE80AABE0764D2F685D46C5E903376E
:100A8000744B1B68CBF814305843642390FBF3F08D
:100A90000844C8F80000A0EB09005843CAF8002039
:100AA000FFF760FD53EC192BFFF7EDFCFFF76BFD33
:100AB0006949286209689FED698BDFF8A8810129DF
:100AC0001AD0A04201DD686A01E0201A6862A042E3
:100AD00000DD6C62686AFFF745FD53EC182BFFF7E9
:100AE00060FCFFF750FD90FBF6F1C8F8001005B070
:100AF000BDEC0A8BBDE8F08F5B4F5C4A3968126829
:100B00008A46914219DCA04201DD686A01E0201AA0
:100B10006862A04200DD6C62686AFFF723FD53EC57
:100B2000182BFFF73EFCFFF72EFD90FBF6F10AF1C4
:100B30000100C8F800103860D9E700EE109A4C4860
:100B4000B8EEC00AD0ED000A20EE200ADFED490A17
:100B500020EE200A10EE100AFFF734FD53EC192B9B
:100B600001E02DE01CE0FFF78EFCFFF70CFD0446D2
:100B70006862012038603046FFF7F4FC41EC190B45
:100B80002046FFF7EFFC53EC182BFFF70AFC53EC61
:100B9000192BFFF778FCFFF7F6FCC8F80000A6E772
:100BA000A8421ADC281AA0621060F019401CCBF889
:100BB00000009CE7A84213DC281AA062106096E7A8
:100BC000F8D1DDF804C0E145EADCB8EEC80AB4EEBD
:100BD000C09AF1EE10FAEDD2E2E70846A162E3E72F
:100BE0000846A162EAE70000EC0000208402002031
:100BF000F0000020080100200000000000E0954007
:100C0000E40000200000000000804B403333333309
:100C10003333D33FFC0000209A9999999999B93FB1
:100C20000000000000000C403000002034000020D4
:100C300038000020440000206C0000205C000020F0
:100C400070000020500000204C00002028000020F0
:100C500040000020480000200401002000000000A7
:100C600000C068402400002088000020000100200F
:100C70000C0100200000C8427FB500241D49054634
:100C8000009401940294039419480C6108600C7656
:100C900081F820400126CE611748CC608862084662
:100CA00000F0B3F908B100F005F92D1F082D09D2A5
:100CB000DFE805F0040613081517191B042000E0EF
:100CC00005200090CDE9016469460A4800F0F4F877
:100CD000002801D000F0EEF87FBD0620F1E70820E3
:100CE000EFE70920EDE70A20EBE70B20E9E700003A
:100CF00000220140740500200100000F464910B594
:100D00004A6822F440324A604A6843681A434A609B
:100D100001684A6822F480724A6001684A6803697F
:100D200042EA03224A6001684A6822F040724A603F
:100D300001684A6883681A434A6001688A6822F435
:100D400000628A6001688A68C3681A438A60816A9F
:100D50006FF07062D14201688A6822F070628A6026
:100D600001688A680CD0836A1A438A6001688A68BD
:100D700022F040528A6001688A68C36A1A4301E01F
:100D800022F040528A6001688A6822F002028A607A
:100D900001688A68037E42EA43028A6090F8201064
:100DA000002901684A680FD042F400624A60016875
:100DB0004A6822F460424A6001684A68174C436AF4
:100DC00004EB43331A4301E022F400624A600168F5
:100DD000CA6A22F47002CA620168CA6A838B104C24
:100DE00004EB03531A43CA6201688A6822F4007252
:100DF0008A6001688A6890F8303042EA43228A604B
:100E000001688A6822F480628A6001688A684069A1
:100E100042EA8020886010BD0023014000E0FFFF0F
:100E20000000F0FF10B50024FFF726FF0B4800F08C
:100E300021FA0A490220C861084600F0E6F807488E
:100E400000F0A2F94FF4FA71044800F04BF918B918
:100E5000024800F0D7F80446204610BD7405002073
:100E6000FEE7704703480168491C01604FF4806049
:100E700000F0AABA180000200B4910B50020486005
:100E80000A48007818B10021022003F0CBFC084882
:100E9000007818B10021022004F016FEBDE81040D1
:100EA0004FF4007000F090BA6C020020790000202E
:100EB0007A0000207047000078B50024009490F874
:100EC0003C20012A19D0012280F83C200A6807231F
:100ED0000568092A13D9EE680A3A02EB42029340E8
:100EE0009E43EE600B788A680A3B03EB43039A400B
:100EF0000368DD682A43DA6010E0022078BD2E69BD
:100F000002EB420293409E432E610B788A6803EB0A
:100F100043039A4003681D692A431A614A681F23E4
:100F2000072A13D205686E6B521E02EB82029340B1
:100F30009E436E630B790A885B1E92B203EB8303B8
:100F40009A4003685D6B2A435A6327E005680D2ABF
:100F500012D22E6BD21F02EB820293409E432E636D
:100F60000B790A88DB1F92B203EB83039A40036874
:100F70001D6B2A431A6311E0EE6A0D3A02EB8202FE
:100F800093409E43EE620B790A880D3B92B203EBCD
:100F900083039A400368DD6A2A43DA62164B0568C8
:100FA000144A9D4206D10D68122D03D1556845F4AF
:100FB0008005556005689D4218D10B68102B01D043
:100FC000112B13D1536843F40003536009681029AF
:100FD0000CD10A490A4A0968B1FBF2F101EB81011F
:100FE000490000E0491E00910029FBD180F83C40F7
:100FF000002078BD00230140002001402C03002088
:1010000040420F000068C06C704770B504004FF09C
:10101000000503D0206C002610B107E0012070BD50
:10102000204600F01DF8666484F83C60206CC00621
:1010300010D4206C20F4885040F002002064204638
:10104000FFF75CFE6664206C20F0020040F00100B7
:10105000206400E0012584F83C60284670BD000053
:1010600030B587B0044614216846FFF7E1F8194906
:10107000206888422BD118480025016841F480611E
:101080000160006800F4806005901348143801681E
:1010900041F020010160016801F020010591016823
:1010A00041F0040101600068032400F00400059091
:1010B0004FF4B9608DE831006946084800F090F9B6
:1010C000009469460648CDE9014500F089F907B06A
:1010D00030BD0000002201404438024000140240AC
:1010E000000802402DE9F041044600680D46816881
:1010F0004FF0000749050BD58068C00508D5206C66
:1011000040F02000206484F83C700120BDE8F081AC
:1011100000F054FA06460FE0681C0DD025B100F02F
:101120004DFA801BA84207D9206C40F004002064CF
:1011300084F83C700320E9E7206800688007EBD55D
:1011400021686FF012000860206C40F40070206489
:101150002068816811F0405F13D1217E89B9C16A8E
:1011600011F4700F02D0806840050AD4206C20F47E
:1011700080702064206CC00403D4206C40F0010017
:1011800020640020C2E7000018B50021009190F80B
:101190003C20012A07D0012280F83C200268936895
:1011A000DB0702D011E0022018BD936843F0010371
:1011B00093602A4A2A4B1268B2FBF3F202EB420216
:1011C00000E0521E0092002AFBD102689368DB0700
:1011D00041D0036C40F20164A34343F48073036481
:1011E00053685B0505D5036C23F4005343F4805327
:1011F0000364036CDB0404D5436C23F006034364EF
:1012000000E0416480F83C1016496FF0220313603F
:1012100049680068CA06144906D088421BD1816813
:1012200011F0405F13D016E08842F8D00F4A904288
:1012300003D1D1F80423D206F1D00D4A90420AD14D
:10124000D1F8041301F01F011029E8D303E08168ED
:1012500041F080418160002018BD00002C03002077
:1012600040420F00002301400020014000210140C6
:101270000022014090F83C1001290CD0012180F897
:101280003C1001688A6822F001028A60016889685E
:10129000C90702D007E002207047016C21F4885191
:1012A00041F001010164002180F83C1008467047BC
:1012B00070B54379012B1AD00126467102230371C0
:1012C00005682C6840F6FE7393409C43D1E90031D9
:1012D0000B43934023432B6001680B68C024944068
:1012E000A3430B60067100214171084670BD0220C6
:1012F00070BD70B5040003D02079002510B105E061
:10130000012070BD6571204600F008F802202071B0
:10131000256101202071002070BD000010B586B04D
:10132000044614216846FEF783FF1149206888426D
:101330001CD110480021026842F00052026000688F
:1013400000F0005005900B481038026842F001028E
:101350000260006800F0010005901020009003205A
:10136000CDE901016946044800F03AF806B010BD25
:1013700000740040403802400000024090F83510F0
:10138000022903D08021416501207047052180F8A2
:1013900035100068016821F00101016000207047EC
:1013A00070B5044600F00AF90546601C02D00448F6
:1013B0000078044400F002F9401BA042FAD370BD4B
:1013C0002003002070470000044910B50A6802425B
:1013D00002D00860FFF7F6FF10BD0000143C01408A
:1013E0002DE9F84F00224FF0010803254FF00F0EB2
:1013F0000B6808FA02F42340A3426ED14E68012E16
:1014000005D0022E03D0112E01D0122E12D18668E3
:101410004FEA420C05FA0CF7BE43CF6807FA0CF707
:10142000374387604668A6430C79C4F300149440A0
:1014300034434460C668570005FA07FC8C6826EA06
:101440000C06BC403443C4604C68022C01D0122C02
:1014500013D1D40800EB8404A346D4F82090540799
:101460004FEAD46A0EFA0AF629EA06090E6906FA64
:101470000AF646EA0906CBF8206006680C7926EAE7
:101480000C0604F00304BC40344304604C68E400E0
:1014900065D5364C266846F480462660246822F0DE
:1014A000030604F480440094314C3444A446D4F838
:1014B00008489607370F0EFA07F6B4432D4EB04290
:1014C00001D1002624E02C4EB04201D101261FE0BC
:1014D0002A4EB04202D102261AE040E0284EB04225
:1014E00001D1032614E0274EB04201D104260FE0BB
:1014F000254EB04201D105260AE0244EB04201D16A
:10150000062605E0224EB04201D1072600E008265B
:10151000BE402643CCF808681E4E34684F689C4392
:10152000FF0300D51C4334601A4C241D26684F6805
:101530009E43BF0300D51E432660164E083634680E
:101540004F689C43FF0200D51C433460114E0C369B
:1015500034684F689C43BF0200D51C433460521C62
:10156000102AFFF445AFBDE8F88F00004438024070
:101570000030014000000240000402400008024028
:10158000000C02400010024000140240001802400B
:10159000001C0240003C01400069084000D00120CE
:1015A0007047426931EA020200D109048161704743
:1015B0000AB1816170470904FBE7000001488068B7
:1015C000704700002003002070B5040025D094F877
:1015D0003D00002520B984F83C50204600F0B8F8C2
:1015E000242084F83D002068016821F00101016099
:1015F0002068016841F4004101602068016821F41D
:101600000041016000F00EFA4D4A6168914201D834
:101610004C4900E04C49884201D2012070BD4B4941
:101620002368B0FBF1F15E6826F03F060E435E6072
:101630006368934206D94FF4967359434FF47A7313
:10164000B1FBF3F12368491C1E6A26F03F063143C3
:1016500019626168914210D84900401EB0FBF1F256
:10166000521CC2F30B02042A01D2042022E0B0FB78
:10167000F1F0401CC0F30B001CE0A268F2B301EBD8
:10168000C10303EB0116431EB3FBF6F35B1C43F4EB
:1016900080431B0549D092B301EBC10202EB01115B
:1016A000401EB0FBF1F0401CC0F30B0040F4804042
:1016B00040F400402168CA694CF6FF739A43104316
:1016C000C861D4E9071001432068026822F0C00213
:1016D00011430160D4E9030101432068826848F2A4
:1016E000FF339A4311438160D4E90501084321681F
:1016F000CA6822F0FF021043C86001E00EE016E065
:101700002068016841F0010101602564202084F80F
:101710003D00256384F83E50002070BD01EB41067A
:10172000431EB3FBF6F35B1CB3E70120C2E701EBFA
:101730004101401EB0FBF1F0401CC0F30B00B7E7C5
:10174000A086010080841E0000093D0040420F0079
:1017500010B586B0044614216846FEF769FD1449A9
:101760002068884221D11348016841F002010160DC
:101770000068694600F0020005904FF41070009078
:101780001220019001200290032003900420049075
:101790000948FFF725FE07481030016841F40011A1
:1017A0000160006800F40010059006B010BD000054
:1017B0000054004030380240000402400248816872
:1017C0000278114481607047200300200B4810B557
:1017D000016841F400710160016841F480610160B9
:1017E000016841F480710160032000F06FF800206F
:1017F00000F006F800F024F8002010BD003C024084
:1018000070B50D4D04464FF47A712878B1FBF0F0B5
:101810000A490968B1FBF0F000F09AFB48B9102CB6
:1018200007D200222146501E00F030F800206C60E4
:1018300070BD012070BD0000200300202C0300209B
:101840000A4808B5016841F480410160006800F46D
:10185000804000900548001F016841F08051016000
:10186000006800F08050009008BD0000443802403D
:10187000002809DB00F01F0201219140400980008F
:1018800000F1E020C0F8001170470000F0B40E4BEA
:101890001B680C46C3F30223C3F10705042D00D9CE
:1018A0000425191D072901D2002300E0DB1E0126B3
:1018B00006FA05F1491E214099409E40761E1640C9
:1018C0003143F0BC02F0ACBA0CED00E0064900F088
:1018D000070208684FF6FF03184040EA0220034A57
:1018E00010430860704700000CED00E00000FA05AE
:1018F0002DE9F0470E46050065D0DFF81481D8F8D1
:101900000000F7B200F00F00B04207D288F8007074
:10191000D8F8000000F00F00B04254D128683D4CC8
:10192000810712D5400703D5206840F4E0502060BD
:101930002878000703D5206840F4604020602068C4
:10194000A96820F0F000084320602878C0072DD057
:10195000304968680839012812D0022813D00328BA
:1019600011D00968890700292DDA216821F00301C7
:1019700001432160FFF722FE814641F2883A0EE0E2
:1019800009688903EFE709688901ECE7FFF716FEAC
:10199000A0EB0901514502D90320BDE8F08720687A
:1019A000696800F00C00B0EB810FEFD1D8F800109F
:1019B000404601F00F01B14207D90770006800F0FE
:1019C0000F00B04201D00120E7E72878400705D595
:1019D0002068E96820F4E050084320602878000778
:1019E00006D52068296920F4604040EAC1002060E3
:1019F00000F038F82168084AC1F30311515CC8406F
:101A00000649086006480068FFF7FAFE0020C4E7B0
:101A1000003C024008380240005F00082C03002010
:101A2000240300200448054900680968044AC1F3FA
:101A30008221515CC84070472C03002008380240C6
:101A4000105F00080448054900680968044AC1F3AA
:101A50004231515CC84070472C03002008380240D6
:101A6000105F0008154810B5006810F00C0214480B
:101A700013D04110042A0FD0082A0ED10F4C241F76
:101A80002268236802F03F025B0207D52068C0F39A
:101A90008810A0FB010106E0084610BD2168C1F3D3
:101AA0008811A1FB00010023FEF78AFB2168C1F326
:101AB0000141491C4900B0FBF1F010BD083802405B
:101AC0000024F4002DE9F84F04006ED02078DFF8F0
:101AD0003C93C007A9F104054AD009F1040001684C
:101AE000C1F38101012908D00068C0F381000228F8
:101AF0000AD1D9F80000400206D52868800337D5FE
:101B000060680028E1D033E06068B0F5803F10D015
:101B1000B0F5A02F286810D020F480302860286805
:101B200020F4802028606068A8B1FFF747FD0646D2
:101B30000DE0286840F48030F4E740F4802028600D
:101B4000F7E700BFFFF73AFD801B642873D82868C9
:101B50008003F7D50CE0FFF731FD064605E000BF36
:101B6000FFF72CFD801B6428F0D828688003F7D489
:101B70002078DFF89C8280074FF0000A3ED5A3480A
:101B8000001D016811F00C0F08D00068C0F381003F
:101B900002280BD1D9F80000400207D4286880073A
:101BA00016D5E068012800D112E02BE1E068B8B159
:101BB0000120C8F80000FFF701FD064605E000BF60
:101BC000FFF7FCFC801B0228C0D828688007F7D5E7
:101BD0002868216920F0F80040EAC10028600DE083
:101BE000C8F800A0FFF7EAFC064604E0FFF7E6FCB1
:101BF000801B02281FD828688007F7D420780007A8
:101C000022D5824E83486169703671B1012101602D
:101C1000FFF7D4FC074604E0FFF7D0FCC01B022806
:101C200009D830688007F7D50EE0C0F800A0FFF7AC
:101C3000C5FC074605E082E0FFF7C0FCC01B022898
:101C40007DD830688007F7D42078400768D5DFF862
:101C5000BCB100270BF13C0BDBF80000C0000BD43B
:101C6000DBF8001041F08051CBF80010DBF80000E9
:101C7000012700F080500090674E3068C00510D4F6
:101C8000306840F480703060FFF798FC009005E009
:101C9000FFF794FC0099401A022850D83068C0051C
:101CA000F6D55A4EA0686C3601280FD0052830684A
:101CB00010D020F001003060306820F00400306067
:101CC000A068B8B1FFF77AFC00900FE0306840F0F0
:101CD0000100F4E740F004003060F7E7FFF76EFC26
:101CE0000099411A41F28830814266D830688007F5
:101CF000F4D50EE0FFF762FC009007E0FFF75EFC12
:101D00000099411A41F28830814256D830688007E4
:101D1000F4D42FB1DBF8001021F08051CBF8001083
:101D2000A069C8B33949091D0968C1F381010229B5
:101D30004AD00228504607D0C8F8600000E03CE0D6
:101D4000FFF73CFC04463BE04746C8F86000FFF75D
:101D500035FC064605E000BFFFF730FC801B02287B
:101D60002BD828688001F7D4D4E907010843A16A79
:101D70002A4A490802EB0141626A41EA821108439A
:101D800094F82C1040EA0161C9F80010012038666F
:101D9000FFF714FC044606E036E000BFFFF70EFC38
:101DA000001B022809D828688001F7D52CE000BF65
:101DB000FFF704FC001B022802D90320BDE8F88FBE
:101DC00028688001F4D41FE00128F7D0D9F800007A
:101DD000E26900F48001914214D1226A00F03F01CF
:101DE00091420FD147F6C071626A0140914209D118
:101DF000A26A00F44031914204D1E16A00F07060BF
:101E0000884201D00120D9E70020D7E704380240FA
:101E100000004742800E4742007000400000FFFF74
:101E200070B5040005D00025A56294F8510010B1EA
:101E300006E0012070BD84F85050204600F030F8D4
:101E4000022084F851002068016821F040010160FF
:101E5000D4E901010843D4E903121143084361693D
:101E60000843218B01F400710843E1690843216AAA
:101E70000843A16A084321680860A069042101EAB7
:101E80001040616A0843216848602068C16921F4F4
:101E90000061C1616565012084F85100002070BDBA
:101EA00070B586B0044614216846FEF7C1F9234E8A
:101EB000226800212248022303240525B2421AD1B8
:101EC0001F4A1432166846F480561660126802F4EF
:101ED00080520592026842F001020260006802AA84
:101EE00000F00100059082E83200E020CDE9000317
:101EF000694614481DE0144EB2421CD1104A1032FB
:101F0000166846F480461660126802F48042059214
:101F1000026842F002020260006802AA00F00200B9
:101F2000059082E832004FF47040CDE90003694625
:101F30000648FFF755FA06B070BD000000300140BA
:101F400030380240000002400038004000040240E7
:101F500010B5401EB0F1807F01D3012010BD4FF0BD
:101F6000E02460610F21601701F05AFF0020A0619A
:101F700007202061002010BD7047704770B590F8B1
:101F80003C20012A32D0012480F83C40022280F813
:101F90003D2003685A689D6822F070060A68324343
:101FA0005A60134B02689A4214D0B2F1804F11D09C
:101FB000104B9A420ED0104B9A420BD00F4B9A42C4
:101FC00008D00F4B9A4205D00E4B9A4202D00E4BCE
:101FD0009A4204D1496825F080031943916080F842
:101FE0003D40002180F83C10084670BD022070BDC5
:101FF000000001400004004000080040000C0040C8
:1020000000040140004001400018004010B50400E9
:1020100003D094F83D0010B107E0012010BD00206E
:1020200084F83C00204600F00DF8022084F83D00C2
:10203000211D206801F0E6FC012084F83D0000200D
:1020400010BD000008B50168304881420FD130480A
:10205000016841F0010101600068002200F0010008
:10206000009011461920FFF711FC192048E028487C
:10207000001FB1F1804F11D0264A91421DD1016855
:1020800041F0020101600068002200F002000090AF
:1020900011461D20FFF7FAFB1D2031E0016841F0D9
:1020A000010101600068002200F00100009011466B
:1020B0001C20FFF7EBFB1C2022E0174A91420ED1B7
:1020C000016841F0040101600068002200F0040092
:1020D000009011461E20FFF7D9FB1E2010E00F4A8A
:1020E000914211D1016841F0400101600068002275
:1020F00000F04000009011462B20FFF7C7FB2B207B
:10210000BDE80840FFF7B4BB08BD00000000014077
:10211000443802400004004000080040001800401D
:102120000168CA6842F00102CA600068816801F073
:102130000701062903D0016841F001010160002078
:10214000704770B5044690F83C00012817D001256F
:1021500084F83C50022084F83D002068826822F018
:10216000770222F47F4282600868502830D00DDC6C
:1021700020284DD005DC98B310283BD148E0022040
:1021800070BD302844D0402834D139E0602828D0B0
:10219000702806D0B0F5805F2CD0B0F5005F29D153
:1021A0000AE0CB68D1E90121206801F08FFC2068AA
:1021B000816841F0770109E0CB68D1E9012120680D
:1021C00001F084FC2068816841F48041816011E065
:1021D000CA684968206801F08BFC5021206807E03C
:1021E00016E0CA684968206801F093FC6021206805
:1021F00001F076FC84F83D50002084F83C0070BD6E
:10220000CA684968206801F073FC40212068EFE744
:10221000226801461046EBE7704770B50446006837
:1022200001694FF00005C943890715D4C168C94346
:10223000890711D4E91E0161012020772068806997
:102240008007204602D0FFF7E7FF04E000F098F88F
:10225000204600F096F8257720680169C9434907B0
:1022600017D4C168C943490713D46FF00401016151
:10227000022020772068806910F4407F204602D039
:10228000FFF7CAFF04E000F07BF8204600F079F881
:10229000257720680169C943090716D4C168C94375
:1022A000090712D46FF0080101610420207720682B
:1022B000C0698007204602D0FFF7AEFF04E000F0BF
:1022C0005FF8204600F05DF8257720680169C94372
:1022D000C90617D4C168C943C90613D46FF01001E9
:1022E0000161082020772068C06910F4407F2046F3
:1022F00002D0FFF791FF04E000F042F8204600F022
:1023000040F8257720680169C943C90708D1C16829
:10231000C943C90704D1891E0161204600F032F883
:1023200020680169C943090609D4C168C94309067F
:1023300005D46FF0800101612046FFF71DFE206883
:102340000169C943490609D4C168C943490605D48E
:102350006FF040010161204600F015F82068016926
:10236000C94389060BD4C168C943890607D46FF0F5
:10237000200101612046BDE87040FFF7FEBD70BD41
:1023800070477047704770477047000070B502682B
:1023900004461068D168536910F00F0F52D003F053
:1023A000010501F490762E435FD0C20705D0CA051F
:1023B00003D5E26B42F00102E263420705D5DA077A
:1023C00003D0E26B42F00202E263820705D5DA072E
:1023D00003D0E26B42F00402E263020707D501F08A
:1023E00020022A4303D0E26B42F00802E263E26B70
:1023F000002A33D0800604D5880602D5204601F095
:10240000B0FB20684069E16BC0F38010090700D47D
:1024100028B3204601F097FB2068416949061AD588
:10242000416921F040014161606BA0B11B49016528
:10243000606BFEF7A3FF002810D0606B016DBDE854
:1024400070400847830610D58B060ED52046BDE8A0
:10245000704001F086BB2046FFF796FF70BD204616
:10246000FFF792FF0020E06370BD030606D50B0660
:1024700004D52046BDE8704001F052BC4006F3D5BB
:102480004806F1D5D168204621F04001D1602021D5
:1024900084F8391000F0EAF970BD0000373B0008FD
:1024A00070B5040004D094F83900002510B106E09E
:1024B000012070BD84F83850204600F023F8242015
:1024C00084F839002068C16821F40051C1602046B9
:1024D00001F092FB2068016921F4904101612068BC
:1024E000416921F02A0141612068C16841F400512D
:1024F000C160E563202084F8390084F83A000020A8
:1025000070BD00002DE9F04786B0044614216846EE
:10251000FDF78EFE6249614F23680024604A10393E
:10252000032502265F484FF00809BB4217D1136804
:1025300043F400231360126802F4002205920A6833
:1025400042F001020A60096802AB01F00101059145
:10255000CDE90056012183E82202694637E0DFF821
:102560004881DFF83CC10727DFF840A10CF1040CDB
:10257000434531D1DCF8002042F01002CCF80020B5
:10258000DCF8002002F0100205920A6842F0010215
:102590000A600A6802F0010205920A6842F002022B
:1025A0000A60096802AA01F0020105914FF4007166
:1025B000CDE9001682E8B0006946FEF711FF8020E1
:1025C000CDE9000602AA694682E8B0005046FEF74F
:1025D00007FF06B0BDE8F087DFF8D480434521D17E
:1025E000136843F400331360126802F4003205925A
:1025F0000A6842F001020A60096802AB01F00101B9
:1026000005910C21CDE9001683E8B0006946FEF77C
:10261000E7FE002211462620FFF738F92620FFF7B3
:1026200027F9D6E72348834219D1106840F4802067
:102630001060106800F480200590086840F00200E7
:102640000860086802AB00F0020005904FF440609B
:10265000CDE9000683E8B00069465046B7E7164862
:102660008342B6D1DCF8000040F02000CCF8000036
:10267000DCF8000000F020000590086840F004003D
:102680000860086802AA00F004000590C020CDE9A7
:10269000000682E830026946084898E7004C00408E
:1026A0004038024000000240001001400004024097
:1026B000004400400048004000140140000802406F
:1026C00090F83A30202B22D1F9B1F2B190F838309D
:1026D000012B1CD081628285C2850021C163222228
:1026E00080F83A2080F838100168CA6842F4807295
:1026F000CA6001684A6942F001024A610068C16823
:1027000041F02001C1600020704701207047022085
:102710007047000000681449884223D11348144AC6
:10272000816843785354491C8160B1F5FA7F02DD1A
:10273000002181600CE000290ADD114411F8022C0F
:10274000FF2A05D111F8011C0A2901D1012141609C
:102750000078002806D0054905480122491CC038E8
:10276000FFF7AEBF70470000004400406002002049
:10277000540900202DE9F843044690F839001F461B
:1027800016460D46202850D1B5B1AEB194F83800A8
:1027900001284AD0012084F838004FF00008C4F81E
:1027A0003C80212084F83900FEF708FFA68481468A
:1027B000E68484F8388026E00120BDE8F883E08CC8
:1027C000401EE084A0684B46B0F5805F4FF00002E9
:1027D0004FF080012046009703D001F0D2FAE8B90B
:1027E0000DE001F0CEFAC8B928882168C0F30800CE
:1027F0004860206908B16D1C05E0AD1C03E021684C
:1028000015F8010B4860E08C0028D8D14B46002217
:1028100040212046009701F0B4FA08B10320CCE72C
:10282000202084F839000020C7E70220C5E790F88F
:102830003930202B18D1A9B1A2B190F83830012B32
:1028400012D001628284C2840021C163212280F8F7
:10285000392080F838100068C16841F08001C160FB
:102860000020704701207047022070477047FEE744
:102870007FB5002412480094019402940F490394F8
:1028800001604FF44031C0E901140461047680F81E
:1028900020400C49C0E90A140125C561C46080F8D4
:1028A00030404561FEF7B1FB0420CDE900056946E3
:1028B00002940348FEF700FB7FBD000000220140A8
:1028C000740500200100000F2DE9F04F87B014219E
:1028D0006846FDF7ADFC72480024016841F0100124
:1028E0000160016801F010010591016841F02001CB
:1028F0000160016801F020010591016841F00401C7
:102900000160016801F004010591016841F00101D5
:102910000160016801F001010591016841F00201C7
:102920000160016801F002010591016841F00801B0
:102930000160016801F008010591016841F0400162
:1029400001600068DFF85C9100F0400048F6F03567
:102950000590002229464846FEF72AFEDFF848A1E6
:1029600043F60306002231465046FEF721FEDFF80B
:102970003CB1002220215846FEF71AFE4FF44C4786
:10298000002239464A48FEF713FE002247F2FC01B6
:102990004848FEF70DFE4FF4807800224146464835
:1029A000FEF706FE00950125CDE90154694648462B
:1029B0000394FEF715FD0096CDE901546946504693
:1029C0000394FEF70DFD1020CDE90004694658463A
:1029D0000294FEF705FD20200090CDE901546946E0
:1029E00058460394FEF7FCFC0097CDE90154694674
:1029F0002F480394FEF7F4FC41F2FC000090CDE96F
:102A0000015469462B480394FEF7EAFC4FF410602A
:102A1000CDE90004694627480294FEF7E1FCCDF8B1
:102A20000080CDE90154694623480394FEF7D8FCA1
:102A3000680200902148CDE9010469461D48FEF76F
:102A4000CFFCA80200901E48CDE901046946194850
:102A5000FEF7C6FC6803CDE900050320CDE902506E
:102A600069461448FEF7BCFCA803CDE90005CDE992
:102A7000025469460F48FEF7B3FC002211461720A6
:102A8000FEF704FF1720FEF7F3FE00221146282070
:102A9000FEF7FCFE2820FEF7EBFE07B0BDE8F08F46
:102AA000303802400010024000140240000802408A
:102AB000000C0240001802400000024000002110FB
:102AC000000011100B480A494FF4007201604FF4E6
:102AD0008271416000218160C1600161C0E905121D
:102AE000C1610162416281620A21C162FFF798B946
:102AF00000300140240600200A48094901604FF4D3
:102B00008271416000218160C16001614161816128
:102B1000C1610162416281620A21C162FFF780B92D
:102B2000003800407C06002010B586B00024134811
:102B3000009401940294039404940F490594016055
:102B40004FF4C871C0E901143221C0E90314446193
:102B50008461FFF75BFA4FF48050009069460748A4
:102B6000FFF7EFFA2020CDE9040404A90348FFF79A
:102B700005FA06B010BD000000000140D406002098
:102B800010B586B000241248009401940294039476
:102B900004944FF080410594016041F6DF31C0E9B3
:102BA00001146421C0E903148461FFF72FFA4FF484
:102BB0008050009069460648FFF7C3FA2020CDE90F
:102BC000040404A90248FFF7D9F906B010BD0000BB
:102BD0001407002010B586B0002412480094019418
:102BE0000294039404940E490594016041F6DF3188
:102BF000C0E901146421C0E903148461FFF706FAF7
:102C00004FF48050009069460648FFF79AFA20205A
:102C1000CDE9040404A90348FFF7B0F906B010BDDC
:102C2000000400405407002010B586B0002413486B
:102C3000009401940294039404940F490594016054
:102C40004FF4E151C0E901144FF4AF71C0E903142E
:102C50008461FFF7DBF94FF4805000906946074824
:102C6000FFF76FFA2020CDE9040404A90348FFF719
:102C700085F906B010BD0000000800409407002050
:102C8000FEE770472DE9F04FA54841F270712DED38
:102C9000048B8FB00068A34D91FBF0F4A248AC60A8
:102CA00000686043FDF75EFC9FEDA01B53EC112B09
:102CB000FDF7E9FBFDF767FCE86007460890E01BBD
:102CC000804668619B48006800EB80008100781AAC
:102CD000E96128619848894600680646FDF742FC8C
:102CE0009FED968B53EC182BFDF7CDFB9FED8F1BC3
:102CF00053EC112BFDF755FBFDF745FC04466863CB
:102D000090480068FDF72EFC9FED8F9B53EC192B2C
:102D1000FDF7B9FB9FED851B53EC112BFDF741FB34
:102D2000FDF731FC28638A4800680990FDF71AFC1A
:102D30009FED851B53EC112BFDF7A5FB9FED7B1B36
:102D400053EC112BFDF72DFBFDF71DFC814982464D
:102D50000860814800688346FDF704FC9FED7A1BFC
:102D600053EC112BFDF78FFB9FED701B53EC112BD8
:102D7000FDF717FBFDF707FC784905467B4A08601D
:102D800077487849DFF8F0E107607748C1F80080BC
:102D90007849D0F800C07648D2F800800F68026801
:102DA000DEF80000391A7548BCF1010F036825D020
:102DB000BCF1000F7ED152424FF47A7C92FBFCF2C0
:102DC000584C5143C4F82480E262642291FBF2F132
:102DD00019440160881B5043CEF80070FDF7C2FB18
:102DE00053EC182BFDF74FFBFDF7CDFB2060D845CA
:102DF00074DB5A49A84272DD281A88E0604DDFF87A
:102E000024B15143D5F800C0CBF820C0CDF810C094
:102E1000CDF814C0CBF82480CDF82880CBF828203A
:102E2000642291FBF2F1194401600391881B5D4615
:102E30005043CEF80070FDF795FB53EC182BFDF7CF
:102E400022FBFDF7A0FB28600746DDF814C00998B7
:102E50006421ACEB00004843FDF784FB53EC192BD5
:102E6000FDF711FBFDF78FFB014668604548DFF871
:102E700018810E2205683EB30398B04243DA5E46DD
:102E8000A74201DDB06B01E0E01BB063A04200DDB2
:102E9000B463B06BFDF766FB9FED3C1B53EC112B4D
:102EA000FDF77FFAFDF76FFB089990FBF1F1C8F889
:102EB000001000E022E0491B91FBF9F0B06108B975
:102EC0000120B061014617E0049C0A9B5846A342CA
:102ED00019DC204A514503DD116804E01CE015E0CF
:102EE000AAEB010111604A1BC8F8001092FBF9F12E
:102EF000816109B901218161264801600FB0BDECF3
:102F0000048BBDE8F08FC8F80020F7E700200860C8
:102F10001C490860A169EFE71A490A200860EDE73B
:102F2000C8000020A0010020CC000020000000000C
:102F300000005940C4000020E00000200000000014
:102F400000E09540DC0000200000000000804B40C5
:102F5000BC00002098010020C00000209C0100203F
:102F60003000002034000020380000204400002001
:102F70004C000020700000206C0000206000002049
:102F80004000002028000020240000200000000055
:102F900000C068402C0000202DE9F04F99489A4C61
:102FA0002DED088B85B0006800EB80008000E060AC
:102FB000039096480068FDF7D5FA9FED95AB53EC6A
:102FC0001A2BFDF760FA9FED941B53EC112BFDF7C4
:102FD000E8F9FDF7D8FAE062914800680090FDF743
:102FE000C1FA9FED8B1B53EC112BFDF74CFA9FEDB3
:102FF0008A1B53EC112BFDF7D4F9FDF7C4FA0646F2
:10300000206288480068FDF7ADFA9FED811B53EC04
:10301000112BFDF738FA9FED801B53EC112BFDF7B8
:10302000C0F9FDF7B0FAA062206C0546FDF7CAFAB8
:103030009FED7DBB53EC1B2BFDF7ADF9FDF7A3FA1C
:1030400008EE900A60637A4800680190FDF78AFAFA
:103050009FED781B53EC112BFDF7A3F941EC190BF5
:103060002846FDF7AFFA53EC1B2BFDF794F953EC10
:10307000192BFDF790F9FDF786FA206394ED119A6C
:1030800008EE100A19EE100AFDF79CFA9FED6B1B73
:1030900053EC112BFDF7DEF8FDF775FAB1EE000ADF
:1030A000A06339EE000A67486B4FDFF8B0A1BDEEB0
:1030B000C00A4FF0010B4FF00C0984ED0F0A216894
:1030C0000160614960684FF0000808605F4860492E
:1030D000026860480968002A05686CDD6048624A39
:1030E000006820610190C4E905155E4909680491F2
:1030F0001268A1EB020101FB05F14FF0640291FBA4
:10310000F2F15A4A13681944116002910099A0EB38
:1031100001004FF0640100FB01F0FDF723FA53ECCE
:103120001A2BFDF7B0F9FDF72EFA514A60620299A9
:103130001268914239DADDE900128A422FDCB0428E
:1031400001DD206A01E0301A20623860DAF80010F0
:10315000411A039891FBF0F0A06010B95846C4F8EA
:1031600008B04449086044490868854205DD0D609F
:1031700005B0BDEC088BBDE8F08F0499E164002830
:10318000F6DD411B6422514391FBF0F03B49096895
:1031900049428842ECDB3A4981F80080E8E7384947
:1031A00081F80080C7F80090E2E735490D2081F8EA
:1031B00000803860DCE7DBD12F4A4046C2F800804F
:1031C000E56161612F4991ED000AB1EE400A84ED9D
:1031D000120A019901290BD0F8EEC80AB4EEE00AF0
:1031E000F1EE10FA07D226493E6081F800B0BFE741
:1031F000F8EEE80AF2E72249C4F82890CAF80090ED
:103200000870B5E7A0000020D0020020B000002028
:103210000000000000804B4000000000000059400A
:10322000980000209C000020333333333333D33FE6
:10323000A40000209A9999999999B93F000000003B
:1032400000000C4030000020340000203800002036
:10325000440000204C000020240000202800002012
:1032600040000020700000206C000020680000205A
:10327000B80000202C00002080000020B4000020B6
:103280008400002050000020704700002DE9F04F1E
:10329000C94841F270712DED088B87B00068C74FA7
:1032A00091FBF0F000EB80010A01642192FBF1F147
:1032B0008B46C7E90001C24964220968414391FB7A
:1032C000F2F6BE60801B03968046F860BD48006839
:1032D0000090FDF747F99FEDBCAB53EC1A2BFDF7BF
:1032E000D2F89FEDBB1B53EC112BFDF75AF8FDF7FD
:1032F0004AF982463862B84800680490FDF732F90E
:103300009FEDB11B53EC112BFDF7BDF89FEDB01BEA
:1033100053EC112BFDF745F8FDF735F90546B8627A
:10332000AE4800688146FDF71DF99FEDADBB53EC3B
:103330001B2BFDF7A8F89FEDA61B53EC112BFDF7F7
:1033400030F8FDF720F904463865786C0290FDF7F7
:1033500039F99FEDA51B53EC112BFCF77BFFFDF713
:1033600012F908EE900AB863A14800680190FDF7D1
:10337000F9F89FEDA01B53EC112BFDF712F841EC6F
:10338000190B0298FDF71EF99FED971B53EC112BBB
:10339000FCF760FF53EC192BFCF75CFFFDF7F3F82B
:1033A000786397ED129A08EE100A19EE100AFDF7ED
:1033B00009F99FED921B53EC112BFCF74BFFFDF726
:1033C000E2F8B1EE000AF86339EE000A05908E4982
:1033D000924ABDEEC00ADFF848E210EE100A3864E7
:1033E0000290884806608948C1F800808849D0F872
:1033F00000C088480B68176801688748DEF800201D
:103400000068381ABCF1010F3DD0BCF1000F7BD130
:103410006A4CDFF810C2494263619CED009A89460C
:1034200084ED139AE161A169DFF8F0A148436421BA
:1034300090FBF1F11144CEF8001004986421181AA1
:103440004843FDF78FF853EC1A2BFDF71CF8FDF7F6
:103450009AF871492063744B0F60DDF804C00F21A6
:10346000724ABCF1010F77DD5F4576DDDDF808C0FB
:10347000E14506DCB8EEC80AB4EEC09AF1EE10FAE7
:1034800075DD022788E06A4DDFF830814843D5F8C2
:1034900000C0C8F810C04546CDF808C0CDF804C03B
:1034A000C5E90531642190FBF1F010445A4BCEF888
:1034B00000008346A0EB090048431F60FDF752F867
:1034C00053EC1B2BFCF7DFFFFDF75DF80646686247
:1034D000DDE9000CACEB000064214843FDF742F845
:1034E00053EC1A2BFCF7CFFFFDF74DF8E862514D76
:1034F0000E220146B9F1000F1CD0CB452EDA404612
:10350000A64202DD416D02E021E0A11B4165A1421E
:1035100000DD4465D8F85400FDF724F89FED461B04
:1035200053EC112BFCF73DFFFDF72DF8039990FBB1
:10353000F1F00BE0009C029B4046A3420EDA51459D
:1035400002DCAAEB01010162D8F82000286007B074
:10355000BDEC088BBDE8F08F0FE008E02A60F6E7CD
:10356000106006EB0800401CCAF80000EFE7A84214
:103570001FDD281AA0621060E9E716D15F45F6DD6D
:10358000DDF814C0E14506DCB8EEE80AB4EEC09AF6
:10359000F1EE10FAEBDD01271F60A84202DD281AC8
:1035A000A062DDE70846A162DAE74FF0FF361E6051
:1035B000DDE70846A162DEE71801002008020020CE
:1035C0001C010020100100200000000000804B4082
:1035D00000000000000059401401002034010020C8
:1035E0000000000000E09540333333333333D33FE2
:1035F000280100209A9999999999B93F00000000F3
:1036000000000C4030000020340000203800002072
:10361000440000204C0000206C00002070000020BE
:1036200064000020500000209000002028000020AE
:1036300040000020240000200000000000C068407E
:1036400005494FF4FA7008600449086004490C20E9
:1036500008600449086070473000002034000020F2
:1036600024000020280000207047FEF7A7B80000C3
:1036700030B593B030216846FCF7DAFD14210CA870
:10368000FCF7D6FD18480025016841F08051016023
:10369000006800F0805011901448016841F48041A6
:1036A00001600068022400F4804011900120039022
:1036B00010200490009406940820CDE9075048207B
:1036C000CDE9090403200B906846FEF7FBF90CA92D
:1036D0000F2081E83100E0020F90109002210CA829
:1036E000FEF706F913B030BD4038024000700040CC
:1036F0000548016841F47001016003494FF0006022
:10370000803908607047000088ED00E00D4910B571
:103710000868401C0860642801D100200860024647
:1037200009484FF40061036808489A4201DA01220F
:1037300000E00022FDF73CFFBDE810400448FEF722
:103740006CBD00006C02002004000020001002404C
:10375000D4060020124810B58168491C81600A29EE
:1037600009D110494FF416730A685A430E4B1A6078
:1037700000220A6082604168491C4160B1F5967F71
:1037800008D14FF400710948FDF706FF10B1084950
:1037900001200870BDE810400648FEF73EBD00005D
:1037A0006C020020180000203C000020001802409D
:1037B00054000020140700202DE9F05FDFF824A159
:1037C0004948DFF828919AF8001000680025484F12
:1037D000484C494E052954D02268DFF82081521CFC
:1037E000DFF81CC12260D8F80030DCF800C0DFF838
:1037F00014B19C4494450EDCD9F800C0424A0CF147
:10380000010CC9F800C025601560404ACBF8005093
:1038100015603F4A156022689A420ADCF06031B1B7
:10382000012904D0012251023A48FDF7C1FE0120CE
:1038300038602168D8F80000814205DD364A1268F8
:10384000F2603D60CBF800501E3081420BDD00BFBE
:103850009AF8000038B1012805D000224FF4007119
:103860002C48FDF7A5FEF068002801DB02F038F9CE
:103870002068642190FBF1F201FB120040B30021AB
:1038800027E0DFF8988098F8001081B10122F060FD
:1038900051022048FDF78CFE21480560C9F8005010
:1038A00001202560386098F8000040B10CE01A480B
:1038B0006FF06301C9F800100068F0603D60206897
:1038C000232801DD2560C3E72068401C2060CAE78B
:1038D0000121062001F0F8FBBDE8F05F1148FEF77A
:1038E0009CBC000094000020240000208C000020DC
:1038F00038000020700000206C0200203000002002
:10390000340000205C0000206C00002060000020DB
:1039100064000020001002402800002084000020E5
:103920006800002054070020164A10B51068401C9B
:103930001060322811D1144800211160007801284C
:1039400010D0052811D0032812D0042813D0022843
:1039500014D00E4801600E480160BDE810400D48CB
:10396000FEF75BBCFFF76CFEF7E7FFF715FBF4E72C
:10397000FFF788F9F1E7FCF79FFFEEE7FFF786FC1A
:10398000EBE70000740000209400002024000020D9
:1039900028000020940700202DE9F0411348017809
:1039A000F9B10021124C01700120124F124D134E3B
:1039B000206112E017F8202002212846FDF7F8FDCB
:1039C000012211462846FDF7F3FD00220121284679
:1039D000FDF7EEFD2069401C20613168891C88429A
:1039E000E8DBBDE8F0410648FEF717BC55000020B3
:1039F0006C02002024050020001402405800002022
:103A0000D4070020F0B50268254C264D264E274FDE
:103A1000274B4FF0804CA04209D0604507D0A84208
:103A200005D0B04203D0B84201D0984204D122F070
:103A3000700E4A6842EA0E02A0421BD0604519D0BF
:103A4000A84217D0B04215D0B84213D0984211D036
:103A5000184DA8420ED0184DA8420BD0174DA842C1
:103A600008D0174DA84205D0164DA84202D0164DD9
:103A7000A84203D122F44075CA682A434D6922F056
:103A800080022A4302608A68C2620A688262A04297
:103A900001D0984201D10969016301214161F0BD62
:103AA000000001400004004000080040000C0040FD
:103AB0000004014000400140004401400048014032
:103AC00000180040001C00400020004010B5846831
:103AD00042EA032224F47F440A432243826010BD59
:103AE000826822F070020A4342F007018160704749
:103AF00010B5036A046A24F001040462846924F0A6
:103B0000F00444EA021423F00A020A4384610262C8
:103B100010BD10B5036A23F0100303628369046AC1
:103B200023F4704343EA023224F0A00343EA011174
:103B30008261016210BD10B5806B0021C185C18416
:103B4000FEF722FC10BD0168CA6822F49072CA60B8
:103B500001684A6922F001024A61202180F83A1086
:103B6000704710B590F83A10222901D0022010BDFC
:103B70008168B1F5805F11D00169002901681FD00B
:103B8000496801F07F03816A4A1C82620B70C18D13
:103B9000491E0904090CC18518D02BE00269816A0D
:103BA000002A0268526805D0D2B20A80816A491C94
:103BB0008162ECE7C2F308020A80816A891CF7E798
:103BC0004A68816A4B1C83620A70E0E70168CA6830
:103BD00022F02002CA600168CA6822F48072CA60BA
:103BE00001684A6922F001024A61202180F83A10F6
:103BF000FEF790FD002010BD2DE9F041044600685D
:103C00000169E26821F44051114301612169A06812
:103C1000E26908436169114308432168CA6849F2AF
:103C20000C639A430243CA6020684169A26921F487
:103C3000407111434161E069192764253226B0F5CE
:103C4000004F354A354920684FF0000806D08842B9
:103C500001D0904236D1FDF7F5FE35E0884201D023
:103C6000904202D1FDF7EEFE01E0FDF7DBFE616858
:103C70004A18A0FB070148EB0803FCF7A1FA01462C
:103C8000B0FBF5F00201B1FBF5F06FF018035843FB
:103C900001EB800006EBC000B0FBF5F000F0F8008F
:103CA00002EB4002B1FBF5F0584301EB800006EB5C
:103CB000C000B0FBF5F000F00700216810448860F8
:103CC000BDE8F081FDF7AEFE61688B0F8A00A0FBB6
:103CD0000701FCF775FA0146B0FBF5F06FF018022A
:103CE000504301EB800006EB0010B0FBF5F000F054
:103CF000F002B1FBF5F002EB0012B1FBF5F06FF052
:103D00001803584301EB800006EB0010B0FBF5F000
:103D100000F00F00D1E70000001401400010014046
:103D200090F83910212901D0022070478168B1F53F
:103D3000805F016A0BD04A1C0262026809785160F8
:103D4000C18C491E0904090CC1840ED017E00988F2
:103D50000268C1F30801516001690029016A02D0BB
:103D6000491C0162ECE7891CFBE70168CA6822F084
:103D70008002CA600068C16841F04001C160002053
:103D800070472DE9F041984617460E460446069DB9
:103D90001DE0681C1BD02DB1FDF710FCA0EB080046
:103DA000A84214D92068C16821F4D071C16020688C
:103DB000416921F001014161202084F8390084F833
:103DC0003A00002084F838000320BDE8F081206824
:103DD000006836EA000004D00020B842D9D00020A4
:103DE000F3E70120F9E700000148FEF7CFBA000031
:103DF00094080020FEE700000FB4084B10B504A99A
:103E000002AA039800F0EEF8044602A9002000F090
:103E100080FC204610BC5DF814FB0000134700082E
:103E20000907090E002804DB00F1E02080F80014E7
:103E3000704700F00F0000F1E02080F8141D70477B
:103E400002E008C8121F08C1002AFAD17047704763
:103E5000002001E001C1121F002AFBD170470000C1
:103E60002DE9FF5F82B00021DDE90430020DDDF8AD
:103E700040B0034318D044F61050A2F2FF32424340
:103E80001514119801281FD0A5EB0B00401C5FEA08
:103E9000000A4FF000064E4FDFF83891B04650460A
:103EA00015D5CAF1000413E0119801244AA3012892
:103EB00001D16FEA0B010298119AC0E90031C0E903
:103EC000024206B0BDE8F09FCBF10000DFE70446F8
:103ED0000021404A491842EB0450CDE9001012E09D
:103EE000E00707D032463B4640464946FCF759FAC0
:103EF0008046894632463B4610461946FCF751FA41
:103F000006460F466410002CEAD1DDE90401DDE924
:103F10000023BAF1000F06DAFCF743FA42464B469B
:103F2000FCF73FFA05E0FCF7AEFA42464B46FCF7D9
:103F3000AAFA04460E460022284BFCF757FB03D88A
:103F40004FF0FF30014607E00022254B2046314666
:103F5000FCF780F9FCF759FC102409E0002C0ADB7F
:103F60000A220023FCF72CF9039B30321A55641EF9
:103F700050EA0102F2D1641C039AC4F11103144403
:103F8000119A012A03D0012208430DD10AE0084307
:103F900004D000204FF0110B119072E7A3EB0B053A
:103FA0006D1E0DE05B4504DD4FF0000205F10105DB
:103FB00004E003DA4FF00002A5F10105002AECD07D
:103FC00002981199C0E90231C0E9004579E7000083
:103FD000000014400000F03F300000000000F043FB
:103FE0000000E03F2DE9FF4F95B09B46894606460D
:103FF00000250FE2252877D100242746F84A012121
:10400000059400E0044316F8013F203B01FA03F059
:104010001042F7D130782A2811D06FF02F03307872
:10402000A0F13002092A16D8059A44F0020402EBE6
:10403000820203EB42021044761C0590EFE759F828
:10404000042B0592002A03DA504244F400540590F0
:1040500044F00204761C30782E2816D116F8010F91
:1040600044F004042A280DD06FF02F023078A0F11C
:104070003003092B09D807EB870302EB4303C7186A
:10408000761CF3E759F8047B761C30786C280FD047
:1040900006DC4C2817D068280DD06A2814D104E01B
:1040A000742810D07A280FD10DE044F400140AE0EF
:1040B00044F4801401E044F440147278824202D146
:1040C00004F58014761C761C307866280BD013DC3F
:1040D000582877D009DC002875D04528F6D0462826
:1040E000F4D047281AD19DE118E0632835D0642820
:1040F00079D0652812D195E1702873D008DC672843
:10410000F1D069286FD06E280DD06F2806D1B5E0A8
:1041100073282CD0752875D0782874D05A461799F2
:1041200090476D1C75E1C4F30250022809D00328A2
:104130000DD0D9F8001004280DD00D6009F1040944
:1041400067E1D9F80010EA17C1E90052F6E7D9F89B
:1041500000100D80F2E70D70F0E719F8041B8DF8E0
:10416000001000208DF80100EA46012003E059F814
:1041700004AB4FF0FF3061074FF0000102D40DE0B7
:1041800008F101018846B9420FDA8045F8DB1AF8D8
:1041900008100029F4D108E008F1010188468142A5
:1041A000FADB1AF808100029F6D105985B46A0EB57
:1041B000080721463846179A00F094FA284400EB85
:1041C000080507E04DE029E10DE01AF8010B5A4619
:1041D00017999047B8F10108F7D25B462146384657
:1041E000179A13E142E00A220092C4F302524FF000
:1041F000000A022A08D059F804CB032A4FEAEC71CE
:104200000AD00DE029E02AE009F1070121F00702B8
:10421000F2E802C1914609E00FFA8CFC4FEAEC711A
:10422000042A03D14FFA8CFC4FEAEC71002907DA1B
:104230000A460021DCF1000C61EB02012D2202E0B4
:10424000220504D52B228DF80420012203E0E20789
:1042500001D02022F7E7904659E00A2102E010221F
:104260000DE010214FF0000A00910BE010224FF0FA
:10427000000A44F004040827009203E008224FF0EB
:10428000000A0092C4F30252022A05D059F804CB66
:104290000021032A08D009E009F1070121F00702F3
:1042A000F2E802C1914605E01FFA8CFC042A01D114
:1042B0000CF0FF0C4FF00008220728D5702806D01C
:1042C000009B83F0100353EA0A0305D00EE040225E
:1042D0008DF80420012208E05CEA010206D03022B9
:1042E0008DF804208DF8050002229046009B83F093
:1042F000080353EA0A030AD15CEA010201D162070A
:1043000005D530228DF804204FF001087F1E582873
:1043100004D034A003900EA802900DE036A0F9E777
:1043200053466046009AFBF74BFF84460398825C35
:104330000298401E029002705CEA0100F0D10298DF
:1043400006A9081A00F1200A600702D524F4803477
:1043500000E00127574502DDA7EB0A0000E000203E
:1043600000EB0A01009005984144401A0590E003D3
:1043700006D45B462146179A059800F0B3F9054428
:10438000002706E001A85A46C05D179990476D1CAA
:104390007F1C4745F6DBE0030CD55B462146179AA8
:1043A000059800F09FF9054404E030205A4617991B
:1043B00090476D1C0099481E00900029F5DC08E02C
:1043C000029802995A460078491C02911799904721
:1043D0006D1CBAF10001AAF1010AF1DC65E10000EF
:1043E00009280100303132333435363738396162CB
:1043F000636465660000000030313233343536378F
:1044000038394142434445460000000000F058F965
:104410000544761C307800287FF4ECAD19B02846AE
:10442000BDE8F08F620700D4062709F1070222F0E9
:10443000070CFCE80223E14603F000485FEA080CA1
:1044400002D00FF2702C0DE05FEA045C02D50FF28F
:10445000682C07E05FEAC47C02D00FF2602C01E018
:10446000AFF2700C4FF0FF3823F00043CDF850C08E
:1044700065280CD006DC452809D046281DD04728E1
:104480003DD13DE0662818D067287ED138E0002174
:10449000112F01DB112000E0781CCDE9000106A9F5
:1044A0000EA8FFF7DDFCDDE90F010E9A0391002154
:1044B000009207F1010A04914DE04FF0004000978F
:1044C000CDE9011006A90EA8FFF7CAFCDDE90F022D
:1044D00003920E9B11990022DDF80CA00093049228
:1044E00011B9791C00EB010AB7EB0A0004D4C0F142
:1044F000FF3007F1010A0490AAEB0700019044E0A5
:10450000012F00DA01270021112F01DD112000E029
:104510003846CDE9000106A90EA8FFF7A1FCDDE9A8
:104520000F010E9A0391002104910092BA462107CF
:104530000CD40399514500DA8A46BAF1010F05DD22
:10454000009AAAF10101515C302908D0B84202DA80
:1045500010F1040F06DA0121CDE9011015E0AAF1EE
:104560000101E9E7002805DC049901440491AAEB64
:10457000000102E0411C514500DD8A460499401AC1
:10458000401C01904FF000400290200704D4019895
:10459000504501DBCDF8048000208DF84F000298D3
:1045A0000DF14F07B0F1004F25D02B200E9002984F
:1045B0004FF0020800280CDA404202902D200E90A5
:1045C00007E00A210298FCF745F83031029007F81D
:1045D000011DB8F10001A8F10108F2DC02980028E1
:1045E000EFD1791E0E980870307800F0200040F06E
:1045F000450007F8020D12A8C01B00F10708149827
:10460000007800B1012000EB0A01019801EBE07194
:1046100005984144401A401E0590E00306D45B46CD
:104620002146179A059800F05DF805441498007823
:1046300018B15A46179990476D1CE00324D55B4684
:104640002146179A059800F04DF805441CE004989F
:10465000002807DBDDE90301884203DD0098405CA8
:10466000179901E0179930205A469047049805F1B0
:104670000105401C04900198401E019004D12E2099
:104680005A46179990476D1CBAF10001AAF1010A28
:10469000DDDC05E017F8010B5A46179990476D1CB1
:1046A000B8F10001A8F10108F4DC5B462146179A35
:1046B0000598ABE62D0000002B0000002000000054
:1046C0002DE9F041044600251E461746880404D40F
:1046D00005E039462020B0476D1C641EF9D52846F8
:1046E000BDE8F0812DE9F041044600251E469046C4
:1046F000C80301D5302700E02027880404D505E051
:1047000041463846B0476D1C641EF9D52846BDE8C1
:10471000F0810A68531C0B60107070470B480C4AFC
:10472000017911600B4A417911600B4A817911605E
:104730000A4AC17911600A4A017A1160817A407A85
:1047400001EB002007490860704700005409002071
:10475000680100206C01002070010020740100201D
:10476000780100207C01002070B5204C20492DEDFF
:10477000028B207908601F49607908601E49A07982
:1047800008601E49E07908601D49207A08601D49CB
:10479000607A08601C49A07A08601C49E07A0860C9
:1047A000257B607BFBF7DEFE9FED191B53EC112B85
:1047B000FBF769FE41EC180B2846FBF7D3FE53ECE0
:1047C000182BFBF747FDFBF729FF13490860E07B37
:1047D000A17B00EB012011490860607C217C00EB8B
:1047E00001200F490860BDEC028B70BD5409002008
:1047F000E4000020E8000020EC000020F000002091
:10480000F4000020F8000020FC000020040100203B
:1048100000000000000024400C01002000010020E6
:1048200008010020F0B44FF48063194D5C00194E6C
:104830009F0001290AD001281ED002281FD003287A
:1048400020D0042821D10022394611E0012807D0C8
:10485000022807D0032809D0042816D10122F3E743
:1048600001220AE001220BE0284602E001220AE0D0
:104870003046F0BCFCF79CBE00221946F4E700224B
:104880002146F1E700222146F2E7F0BC7047000024
:10489000000C0240001402402DE9F041E74CE84FC3
:1048A0000C202DED028B2060386041F28830FCF73F
:1048B00077FD01210220FFF7B5FFE24801250068DE
:1048C00008B9E1480570002626609FEDE00AE04C3B
:1048D0003E60012084ED0A0A00F0D8FFBDEEC00A58
:1048E000012084ED000A00F0D1FFBDEEC00A0120D6
:1048F00084ED010A00F0CAFFBDEEC00A012084ED7C
:10490000020A00F0C3FFBDEEC00A012084ED030AD5
:1049100000F0BCFFBDEEC00A012084ED040A00F0E7
:10492000B5FFBDEEC00A012084ED050A00F0AEFF20
:10493000BDEEC00A012084ED060A00F0A7FFBDEE1F
:10494000C00A012084ED070A00F0A0FFBDEEC00AF6
:10495000012084ED080A00F099FFBDEEC00AB2EE16
:10496000048ABC4F10EE100A6062D4E900121144B0
:10497000A2681144E2681144226911446269114439
:10498000A2691144E2691144226A1144084400EE0C
:10499000100AB8EEC00A84ED0A0AC0EE080A10EE4A
:1049A000900AB84201D9AC480570022000F06EFFB1
:1049B000BDEEC00A022084ED000A00F067FFBDEEE4
:1049C000C00A022084ED010A00F060FFBDEEC00ABB
:1049D000022084ED020A00F059FFBDEEC00A022059
:1049E00084ED030A00F052FFBDEEC00A022084ED00
:1049F000040A00F04BFFBDEEC00A022084ED050A58
:104A000000F044FFBDEEC00A022084ED060A00F06B
:104A10003DFFBDEEC00A022084ED070A00F036FF1C
:104A2000BDEEC00A022084ED080A00F02FFFBDEEA3
:104A3000C00A10EE100A6062D4E900121144A268A4
:104A40001144E26811442269114462691144A26967
:104A50001144E2691144226A1144084400EE100A2C
:104A6000B8EEC00A84ED0A0AC0EE080A10EE900AF9
:104A7000B84201D979480570012000F0E9FABDEE8D
:104A8000C00A012084ED000A00F0E2FABDEEC00A7F
:104A9000012084ED010A00F0DBFABDEEC00A01201E
:104AA00084ED020A00F0D4FABDEEC00A012084EDC4
:104AB000030A00F0CDFABDEEC00A012084ED040A1D
:104AC00000F0C6FABDEEC00A012084ED050A00F030
:104AD000BFFABDEEC00A012084ED060A00F0B8FA64
:104AE000BDEEC00A012084ED070A00F0B1FABDEE68
:104AF000C00A012084ED080A00F0AAFABDEEC00A3F
:104B000010EE100A6062D4E900121144A268114448
:104B1000E26811442269114462691144A269114496
:104B2000E2691144226A1144084400EE100AB8EE0A
:104B3000C00A84ED0A0A9FED4A8AC0EE080A10EE08
:104B4000900AB84201D947480570022000F080FA67
:104B5000BDEEC00A022084ED000A00F079FABDEE35
:104B6000C00A022084ED010A00F072FABDEEC00A0C
:104B7000022084ED020A00F06BFABDEEC00A0220AA
:104B800084ED030A00F064FABDEEC00A022084ED51
:104B9000040A00F05DFABDEEC00A022084ED050AA9
:104BA00000F056FABDEEC00A022084ED060A00F0BD
:104BB0004FFABDEEC00A022084ED070A00F048FA61
:104BC000BDEEC00A022084ED080A00F041FABDEEF5
:104BD000C00A10EE100A6062D4E900121144A26803
:104BE0001144E26811442269114462691144A269C6
:104BF0001144E2691144226A1144084400EE100A8B
:104C0000B8EEC00A84ED0A0AC0EE080A10EE900A57
:104C1000B84201D9144805704FF480711348FCF76D
:104C2000BBFC134908B10D7000E00E700021BDEC13
:104C3000028B0220BDE8F041FFF7F4BD2400002004
:104C4000280000203C0000201C0000200000000084
:104C5000DC010020000080BF1D0000201E0000209D
:104C60000000C8422000002021000020001802405F
:104C70001F00002030B503464FF6FF700022074C9E
:104C800008E09D5C4540EDB2521C34F8255085EAA1
:104C9000102080B28A42F4DB30BD0000005B0008C7
:104CA000F0B587B00DF1300C9CE8F0004FF0FE0C31
:104CB0008DF800C04FF0080C8DF801C08DF802008F
:104CC0008DF803108DF810008DF804208DF8111068
:104CD0008DF814408DF805308DF815508DF806408C
:104CE0008DF808608DF812208DF816608DF8075049
:104CF0008DF809708DF813308DF81770614604A88F
:104D0000FFF7B8FFB0F5807F01D8002100E0010A6D
:104D10008DF80A108DF80B00FF208DF80C000A208A
:104D20008DF80D000E21684600F052FE07B0F0BD70
:104D30000EB5FE228DF8002002228DF801208DF89C
:104D400002008DF808008DF803108DF80910114647
:104D500002A8FFF78FFFB0F5807F01D8002100E0A7
:104D6000010A8DF804108DF80500FF208DF806006B
:104D70000A208DF807000821684600F029FE0EBDC4
:104D8000704700002DE9FF47744D4FF4FA766978BB
:104D9000B14276DC2878FE2873D1080071D06818FB
:104DA0000279FF2A6DD142790A2A6AD1C2788078C5
:104DB00002EB002084B2002005F5FA7203E02B1804
:104DC0009B781354401C8842F9DB6548FFF752FF7B
:104DD000A04256D1AF78634900246E2F26D0AA4650
:104DE000614D6248624B634ADFF88C81DFF88C9139
:104DF0004FF0010CCFB3042F54D0012F5FD0022FFE
:104E000065D0032F3DD19AF8030001287AD00228FB
:104E100079D0032878D0042833D100F0F5FD04219F
:104E2000032004B0BDE8F047FFF782BF0C70E878BC
:104E3000012801D1FFF730FD52495148534D0B78FD
:104E400051490278524E097842EA03002D7808430E
:104E5000367828434F4F304301D1387838B138780D
:104E600003908DE86200012108E00CE009E00023D6
:104E70000094019402941A46194603946E20FFF799
:104E80000FFFBDE8FF872C6081F800C00168196042
:104E900006600C201660C8F800000021C9F8000068
:104EA0000846BEE72C600C70016819600660166049
:104EB000C8F8004000210420C9F80040B1E70021F3
:104EC0000120FFF735FFBDE8FF47FFF759BF2C6012
:104ED000314D2C60314D2C60314D2C60314D2C60AA
:104EE0009AF80320012A10D0022A16D0032A1DD0D6
:104EF000042AC6D102220A700068186000F0AAFDD8
:104F0000042111E01DE020E023E005220A70006882
:104F1000186000F02DFD012106E003220A700068F0
:104F2000186000F079FC022102207AE704220A705E
:104F30001D49C1F800C000681860FFF715FC032187
:104F4000F2E700F0E9FC01216AE700F039FC0221F8
:104F500066E7FFF7E3FB032162E700005409002046
:104F6000480B0020940000208C000020300000201E
:104F700070000020340000202400002028000020C1
:104F80001C0000201D0000201E000020200000202A
:104F9000210000201F0000205C0000206000002095
:104FA00064000020680000208800002070B5204BBD
:104FB000012000241F4D204E186007E0214645F8CF
:104FC000204000F081FD1868401C18603168891C81
:104FD0008842F3DB002000F083FD1848FDF7A0F8BD
:104FE0001748FDF79DF81748FDF79AF81648FDF7A2
:104FF00097F8164C012251032046FCF7D9FA0122FA
:10500000950329462046FCF7D3FA1E20FCF7C8F981
:10501000002229462046FCF7CBFA1E20FCF7C0F9F7
:1050200029462046BDE870400122FCF7C1BA0000C5
:10503000000000202405002058000020D406002095
:105040001407002054070020D40700200018024055
:1050500010B5164C012805D0022805D0032822D00F
:10506000206805E00B2000E00420FBF7DBFE206059
:10507000FBF778FA9FED0E1B53EC112BFBF791F920
:105080009FED0D1B53EC112BFBF785F99FED0C1BCE
:1050900053EC112BFBF77FF9FBF7C0FA00EE100A77
:1050A00084ED020A10BD0520DFE7000000000020AB
:1050B0005227A089B0E1D53F0000000000C06C403D
:1050C0000000000000406F4030B40A464FF48041B9
:1050D000224C4D00224B012A08D009283CD2DFE89F
:1050E00000F03B2426292C2F32353800092833D2F2
:1050F000DFE800F03205070B0D1315171900012228
:1051000001E0012214E0204604E0012213E0012224
:1051100014E0184630BCFCF74BBA012211E0012222
:1051200012E0012213E0012214E00022EBE700224A
:105130002946E8E700220421EBE700220821E8E7FE
:1051400000221021E5E700222021E2E70022402191
:10515000DFE700228021DCE730BC7047000C024012
:10516000001802402DED0A8B90B0FCF72FFBFEF7E4
:105170007FFAFDF7A9FBFDF77BFB0024FF490094B4
:10518000FD48019408600846FCF7B3F8009400223B
:105190006946FA480194FCF78BF8FDF793FCFDF79C
:1051A000ABFCF848F6494FF416560160C0E90164BB
:1051B0000C25C460C0E904458461C461FDF770F941
:1051C000F048F14940300160C0E90164C460C0E9C1
:1051D00004458461C461FDF763F9EA48EB49803016
:1051E00001604FF4E131C0E90114C460C0E9044535
:1051F0008461C461FDF754F9E248E549C0300160BB
:10520000C0E90164C460C0E904458461C461FDF77C
:1052100047F9E148DF490160C0E90164C460C0E9C1
:1052200004458461C461FDF73BF9D448DB4914307F
:105230004FF480460160DA49C0E90114C0E9034631
:1052400044618461C4610462FCF7BEF9FDF76CFC43
:10525000FDF796FCFDF7BEFCFDF7E6FCC94800949F
:10526000403801940294CF49039401604FF4E15116
:10527000C0E901144FF49671C0E903148461FCF78E
:10528000C5FEB0100090BF4869464038FCF759FF92
:10529000BC480122C4498030FDF712FA00259FED79
:1052A000C38AFFF783FEC820FCF77AF8FFF7F4FA09
:1052B000B4488038FCF734FFB2EE04CA0121042060
:1052C00000F002FCBA4E307820B100210520FFF733
:1052D0002FFD3470B748017849B1047001210846A8
:1052E00000F0F2FBB44801686F20FFF721FD0120B8
:1052F00000F0CCFABDEEC00A012010EE106A00F0FA
:10530000C5FABDEEC00A012010EE107A00F0BEFA18
:10531000BDEEC00A012010EE10AA00F0B7FABDEEF3
:10532000C00A012010EE109A00F0B0FABDEEC00ADB
:10533000012010EE108A00F0A9FABDEEC00A01208B
:1053400010EE101A009100F0A1FABDEEC00A012083
:1053500010EE101A019100F099FA012000F096FA6F
:10536000BDEEC00A012010EE10BA00F08FFAF2195B
:105370005244BDEEC00A4A44009942440A4410EE29
:10538000100A01991144014401EB0B00284409283B
:1053900002DC8A48046006E0C0EB0010642190FB48
:1053A000F1F186480160032000F070FABDEEC00AFA
:1053B000032010EE106A00F069FABDEEC00A032067
:1053C00010EE107A00F062FABDEEC00A032010EE73
:1053D000108A00F05BFABDEEC00A032010EE109AAE
:1053E00000F054FABDEEC00A032010EE10AA00F03F
:1053F0004DFABDEEC00A032010EE101A009100F025
:1054000045FABDEEC00A032010EE101A019100F01B
:105410003DFA032000F03AFABDEEC00A032010EE78
:1054200010BA00F033FAF2194244BDEEC00A4A4401
:10543000009952440A4410EE100A019911440144A3
:1054400001EB0B002844092802DC5D48046004E0FD
:105450000A2190FBF1F15A480160022000F016FA8F
:10546000F0EE400A0220F0EE60AA00F00FFAB0EE73
:10547000401A0220B0EE41BA00F008FAB0EE409AAD
:10548000022000F003FAF0EE408A022000F0FEF95C
:10549000B0EE40AA022000F0F9F9F0EE400A022036
:1054A000F0EE60BA00F0F2F9F0EE400A0220F0EE01
:1054B00060CA00F0EBF9022000F0E8F9F0EE409A43
:1054C000022000F0E3F97AEE8B0A70EE890A70EEA2
:1054D000A80A70EE8A0A70EEAB0A70EEAC0A30EEE3
:1054E000800A70EE290AB0EE480A70EE800A80EE5B
:1054F0008C0AB5EEC00AF1EE10FA01D8B0EE480AF7
:10550000304880ED000A0120FFF7A2FDBDEEC00A81
:10551000012010EE106AFFF79BFDBDEEC00A0120CE
:1055200010EE10BAFFF794FDBDEEC00A012010EE98
:10553000109AFFF78DFDBDEEC00A012010EE107A23
:10554000FFF786FDBDEEC00A012010EE108AFFF7BE
:105550007FFDBDEEC00A012010EE10AAFFF778FD16
:10556000BDEEC00A012010EE101A0091FFF770FD89
:105570000120FFF76DFD27E000740040BC0500200E
:10558000004C00401408002000100140004400407E
:10559000004800400014014014090020005400405D
:1055A000A0860100001800406102002000000000F9
:1055B00054000020780000207C00002040000020E3
:1055C0004400002050000020BDEEC00A10EE100A7A
:1055D00001900120FFF73CFD06EB0B02BDEEC00A77
:1055E00002EB0901CA1910EE100A42440099524414
:1055F00011440144019808442844092802DC5C480D
:10560000046004E00A2190FBF1F159480160022096
:10561000FFF71EFDBDEEC00A022010EE106AFFF774
:1056200017FDBDEEC00A022010EE108AFFF710FD34
:10563000BDEEC00A022010EE101A0091FFF708FD1F
:10564000BDEEC00A022010EE107AFFF701FDBDEE9C
:10565000C00A022010EE10AAFFF7FAFCBDEEC00A45
:10566000022010EE101A0191FFF7F2FCBDEEC00A05
:10567000022010EE109AFFF7EBFC0220FFF7E8FC87
:10568000BDEEC00A022010EE10BAFFF7E1FC00994F
:1056900006EB0802BDEEC00A1144CA19019910EECA
:1056A000100A52440A4402EB0901014401EB0B00C9
:1056B0002844092802DC2F48046004E00A2190FBFA
:1056C000F1F12C4801602B4E294F4FF48041306896
:1056D00038602948FBF765FF28480068FAF772FF31
:1056E0000DF1300C33683A688CE80F0024482549E6
:1056F000254B006809681B680DF1200C421A0793BE
:105700008CE8070021480278214801682148036895
:1057100021480068CDE90303CDE905121F48214A5D
:1057200001681F48126800680092CDE901011E4817
:105730001F4903681D4802681E48FEF75DFB1D48AF
:10574000FAF781FD01461B4800F0DCF86420FBF706
:1057500027FE194E706801287FF4B0AD0421174868
:105760007460FBF71EFFFFF70DFBB460A6E50000B9
:10577000480000204C000020000C02405000002097
:105780004000002044000020380000209400002049
:105790003C000020280000202400002034000020CD
:1057A0003000002090000020700000208C000020BD
:1057B000185F00083003002060020020001802403B
:1057C0000E480F4A017911600E4A417911600E4A64
:1057D00081791160017AC27901EB02210B4A1160D3
:1057E000817A427A01EB0221094A1160017BC07A79
:1057F00001EB0020074908607047000054090020B1
:105800005001002054010020580100205C010020BC
:1058100060010020640100201148124A01791160E2
:10582000114A41791160114A81791160104AC17998
:105830001160104A017A11600F4A417A11600F4AD3
:10584000817A11600E4AC17A11600E4A017B1160A3
:10585000817B407B01EB00200B4908607047000012
:1058600054090020BC000020C0000020C40000201B
:10587000C8000020CC000020D0000020D400002070
:10588000D8000020DC000020E000002010B5164CFD
:10589000012805D0022805D0032822D0206805E081
:1058A000082000E00620FBF7BDFA2060FAF75AFE58
:1058B0009FED0E1B53EC112BFAF773FD9FED0D1BA3
:1058C00053EC112BFAF767FD9FED0C1B53EC112BDA
:1058D000FAF767FDFAF7A2FE00EE100A84ED020A5D
:1058E00010BD0A20DFE7000000000020465B954461
:1058F000F641663F666666666666DA3F000000004F
:10590000000024408AB201464FF47A730148FCF744
:1059100031BF0000540800200E480F4A0179116081
:105920000E4A417911600E4A81791160017AC2797B
:1059300001EB02210B4A1160817A427A01EB0221CC
:10594000094A1160017BC07A01EB00200749086019
:105950007047000054090020380100203C0100205D
:105960004001002044010020480100204C0100209B
:105970000E480F4A017911600E4A417911600E4AB2
:10598000817911600D4AC17911600D4A017A116067
:105990000C4A417A11600C4A817A1160C17A007B0D
:1059A0000A4AFF2900D14042106070475409002084
:1059B000980000209C000020A0000020A4000020EF
:1059C000A8000020AC000020B0000020B40000209F
:1059D0002DE9F04107460A4E00200D46307004467E
:1059E00008E0391901220748FCF721FF0A20FBF7DC
:1059F000D7FC641CAC42F4DB01203070BDE8F081C0
:105A000060020020940800200B480C4A01791160C4
:105A10000B4A417911600B4A817911600A4AC179B8
:105A200011600A4A017A1160817A407A01EB002004
:105A300007490860704700005409002080010020D9
:105A400084010020880100208C01002090010020AA
:105A5000940100201148124A01791160114A4179DC
:105A60001160114A81791160104AC1791160104AA0
:105A7000017A11600F4A417A11600F4A817A1160F0
:105A80000E4AC17A11600E4A017B1160817B407B16
:105A900001EB00200B49086070470000540900200A
:105AA0001001002014010020180100201C0100201A
:105AB0002001002024010020280100202C010020CA
:105AC0003001002034010020034A42F8201003492D
:105AD00001200870704700002405002055000020B8
