:020000040800F2
:10000000E81200209D0100085F2B00084B27000824
:100010005D2B00083D0D000881390008000000003C
:10002000000000000000000000000000893200080D
:100030003F0D0008000000004D3000088B32000822
:10004000B7010008B7010008B7010008B7010008B0
:10005000B7010008B7010008B7010008B7010008A0
:10006000B7010008B7010008B7010008B701000890
:10007000B7010008B7010008B7010008B701000880
:10008000B7010008B7010008B7010008B701000870
:10009000B7010008B7010008B7010008550D0008B6
:1000A000B70100082D330008B7010008B7010008A8
:1000B00075330008D9330008B5340008B7010008CB
:1000C000B7010008B7010008B7010008B701000830
:1000D000B7010008B701000875390008B70100082A
:1000E000410D0008B7010008B701000825350008D8
:1000F000B7010008B7010008B7010008B701000800
:10010000B7010008B7010008B7010008B7010008EF
:10011000B7010008B7010008B7010008B7010008DF
:10012000B7010008B7010008B7010008B7010008CF
:10013000B7010008B7010008B7010008B7010008BF
:10014000B7010008B7010008B7010008B7010008AF
:10015000B7010008B7010008B7010008B70100089F
:10016000B7010008B7010008B7010008B70100088F
:10017000B7010008B7010008B7010008000000003F
:10018000B7010008B7010008DFF80CD000F024FB2D
:100190000048004749450008E8120020064880470B
:1001A00006480047FEE7FEE7FEE7FEE7FEE7FEE75C
:1001B000FEE7FEE7FEE7FEE71133000889010008CD
:1001C0002DE9F05F0546002092469B46884606468C
:1001D000814640241BE0284641464746224600F01F
:1001E00045FA53465A46C01A914110D31146184653
:1001F000224600F02CFA2D1A67EB01084F462246E2
:100200000120002100F023FA17EB00094E41201EC7
:10021000A4F10104DFDC484631462A464346BDE8E6
:10022000F09FD2B201E000F8012B491EFBD27047CB
:100230000022F6E710B513460A4604461946FFF7B2
:10024000F0FF204610BD421C10F8011B0029FBD115
:10025000801A70472DE9FE4F804681EA0300C00FE7
:100260000C46009021F0004123F00045B8EB02005D
:10027000A94105D24046214690461C460B460246FF
:1002800023F00040104347D0270DC7F30A00C3F303
:100290000A510290401A019040286BDAC3F3130010
:1002A00040F4801B0098924620B10023D2EB030A51
:1002B00063EB0B0B01985946C0F14002504600F029
:1002C000C6F906460D4650465946019A00F0DEF939
:1002D00010EB08006141002487EA115284EAE773B9
:1002E0001A4340D0009A62B3019A012A4FEA07529A
:1002F00015DC001B61EB02014FF0004202EA0752DD
:10030000CDE90042001C41F5801132462B4600F039
:1003100015FA03B0BDE8F08F40462146F9E7001B0F
:1003200061EB0201001C41F5801300185B412018AD
:10033000A2F5001747EB030140EAD570B6196D41ED
:1003400011E06D084FEA360645EAC0754FEA0752DC
:10035000001B61EB0201001C41F5801149084FEAC6
:1003600030000019514132462B4603B0BDE8F04F32
:1003700000F0D5B90098012240000023D0EB020222
:1003800063EBE073009821464FEAE074B8EB00009D
:1003900061EB0401E9E783F000435BE781F0004192
:1003A00058E72DE9FE4F81EA030404F0004421F0F0
:1003B000004100944FF0000B23F0004350EA010489
:1003C0005ED052EA03045BD0C3F30A54C1F30A556A
:1003D0002C44A4F2F3340194A0FB0254C1F31301A2
:1003E00041F48011C3F3130343F4801301FB02446F
:1003F00000FB034E840A970A44EA815447EA835774
:10040000A4FB076802958D0A05FB07854FEA932C2C
:1004100004FB0C542705029D4FEA065847EA16379D
:10042000B5EB08056EEB070C870E920E47EA8117B5
:1004300042EA8312A7FB0201B6EB0B0164EB000456
:100440002B0D43EA0C335E1844EB1C50DA46514640
:10045000E7FB0201C5F313044FEA0B3343EA1453DD
:100460004FEA0432019C43EA0603A4F10C0402940F
:10047000009CCDE900B400F061F903B0BDE8F08F55
:1004800000200146F9E72DE9F04D81EA030404F06C
:10049000004B21F0004514464FF0000A23F00041C4
:1004A00050EA050220D054EA01021DD0C5F30A57D4
:1004B0000246C5F31303C1F31300C1F30A5640F417
:1004C000801543F48013A7EB0608101BD64608F2EC
:1004D000FD3873EB050002D308F1010801E0921822
:1004E0005B41B8F1000F03DA00200146BDE8F08D52
:1004F00000204FF48011064684460EE0171B73EB74
:10050000050705D3121B63EB050306434CEA010CF8
:1005100049084FEA300092185B4150EA0107EDD1DB
:1005200052EA030012D082EA040083EA050108437C
:1005300005D0101BAB4106D20122002306E00022A9
:100540004FF0004302E06FF0010253101AEB060077
:100550004CEB085110EB0A0041EB0B01BDE8F04DEC
:1005600000F0DDB80EB5C10F80EAE0700844CA079C
:10057000002140F233438DE80E000A460B4600F09E
:10058000DDF803B000BD70B5C1F30A5201F00045BB
:100590000024C1F3130140F2FF3341F480119A4269
:1005A00001DA002070BD40F233439A42A2F2334296
:1005B00003DC524200F05AF800E090402C43F1D0A6
:1005C000404270BD00F0004230F000400AD0C10D42
:1005D00001F56071C0F3160042EA0151C2084007FC
:1005E0001143704700200146704701F0004330B4CA
:1005F00021F0004150EA010206D00A0DA2F5607216
:10060000C1F31301002A02DC30BC00207047440F04
:1006100044EAC104C100E01830BC00EBC25000F055
:1006200047B830B50B46014600202022012409E0DE
:1006300021FA02F59D4205D303FA02F5491B04FA9B
:1006400002F52844151EA2F10102F1DC30BD202A7A
:1006500004DB203A00FA02F1002070479140C2F119
:10066000200320FA03F3194390407047202A04DB4B
:10067000203A21FA02F00021704721FA02F3D0401B
:10068000C2F120029140084319467047202A06DB38
:10069000CB17203A41FA02F043EAE07306E041FA50
:1006A00002F3D040C2F1200291400843194670473E
:1006B0000029A8BF7047401C490008BF20F0010076
:1006C000704710B4B0FA80FC00FA0CF050EA010454
:1006D00004BF10BC704749B1CCF1200421FA04F4E6
:1006E00011FA0CF118BF012121430843A3EB0C01BF
:1006F000CB1D4FEA00614FEA102042BF002010BC22
:10070000704700EBC35010440029A4BF10BC7047D1
:10071000401C490008BF20F0010010BC704710B514
:10072000141E73F1000408DA401C41F10001921814
:100730005B411A4301D120F0010010BD2DE9F04DBD
:1007400092469B4611B1B1FA81F202E0B0FA80F212
:1007500020329046FFF77BFF04460F4640EA0A002E
:1007600041EA0B0153465A46084313D0114653EA57
:10077000010019D0C8F140025046FFF777FF054647
:100780000E46504659464246FFF761FF084305D0E2
:10079000012004E020463946BDE8F08D00200543E5
:1007A00046EAE0762C4337430A986305E40AA0EB57
:1007B00008000022FD0A44EA47540A3002D500200E
:1007C0000146E9E7010510196941DDE9084500190D
:1007D0006941BDE8F04DA2E7064C074D06E0E06830
:1007E00040F0010394E8070098471034AC42F6D378
:1007F000FFF7CEFCD4520008F452000870B58C18F4
:1008000010F8015B15F0070301D110F8013B2A1124
:1008100006D110F8012B03E010F8016B01F8016B11
:100820005B1EF9D12B0705D40023521E0DD401F80D
:10083000013BFAE710F8013BCB1A921C03E013F8D6
:10084000015B01F8015B521EF9D5A142D8D300200B
:1008500070BD00002DE9F04F9F4841F270712DED01
:10086000068B87B064220068DFF870B291FBF0F06D
:100870009B49CBF80000D8460968414391FBF2F54B
:10088000471BC8E901579748BA4600680646FFF774
:1008900069FE9FED95AB53EC1A2BFFF7F4FD9FED2E
:1008A000949B53EC192BFFF77CFDFFF76CFE814600
:1008B000C8F81C00904800680590FFF753FE9FEDB4
:1008C0008F1B53EC112BFFF7DEFD9FED891B53ECC3
:1008D000112BFFF766FDFFF756FE0446C8F820000F
:1008E000D8F834000746FFF76DFE9FED861B53ECEA
:1008F000112BFFF750FDFFF746FEC8F828000490C3
:10090000824800680390FFF72DFE9FED811B53EC9A
:10091000112BFFF746FD41EC180B3846FFF752FE4E
:100920009FED781B53EC112BFFF735FD53EC182B83
:10093000FFF731FDFFF727FEC8F82400029098ED7D
:100940000E8A18EE100AFFF73DFE9FED731B53EC65
:10095000112BFFF77FFCFFF716FEB1EE000AC8F877
:100960002C0038EE000A0190724A734BBDEEC00AAB
:1009700057466E4910EE100ADFF8C0E1C8F83000A3
:100980000090674805606748C0F800A06648126894
:10099000D3F800A0D0F800806548AAEB02030968EC
:1009A00000680A22DEF800C0B8F1010F2ED0B8F1BD
:1009B000000F51D15E464042CBF80C10CBF8180026
:1009C000D6F81480DFF86C9103FB08F34FF064084D
:1009D00093FBF8F8C444CEF800C0C9F800A0464B19
:1009E000DFF84881DDF80CC01B68D8F80080DFF81C
:1009F00048B1DFF84C91A8EB0303BCF1010F5ADDBD
:100A0000DDF800C0604549DC02985AE04D4C434394
:100A1000642593FBF5F327685C46CBF80C10C4E91A
:100A20000470DFF810816344CEF80030464DC8F8FA
:100A300000A0B94230DC454AE16B1268914210D007
:100A40009B1B4B4503DC821BA9EB0200E061491CA8
:100A5000E163DBF81C00286007B0BDEC068BBDE845
:100A6000F08F00EE106A3A48B8EEC00AD0ED000AE6
:100A700020EE200A10EE100AFFF7A4FD53EC1A2B0B
:100A8000FFF701FD53EC192BFFF78BFCFFF77BFD04
:100A90000121E163E061DEE72A60DDE7E819401C3F
:100AA000CBF80000D8E7A34214DDE01A3062316AC7
:100AB000C9F80010D0E707D1DDF804C06045EDDCCF
:100AC00004988142EFDAE9E705988142EBDAC9F848
:100AD0000020C1E73262EAE7CC000020400200209B
:100AE000D0000020E40000200000000000E095405D
:100AF0000000000000005940C40000200000000079
:100B000000804B40333333333333D33FDC0000209A
:100B10009A9999999999B93F0000000000000C40FA
:100B20003000002034000020380000204400002065
:100B30004C000020640000206800002060000020BD
:100B4000280000204000002024000020E0000020B9
:100B5000E80000207FB500241D490546009401945B
:100B60000294039419480C6108600C7681F82040C7
:100B70000126CE611748CC608862084600F0B3F9C0
:100B800008B100F005F92D1F082D09D2DFE805F0A6
:100B9000040613081517191B042000E00520009017
:100BA000CDE9016469460A4800F0F4F8002801D054
:100BB00000F0EEF87FBD0620F1E70820EFE70920FE
:100BC000EDE70A20EBE70B20E9E7000000220140F7
:100BD000280500200100000F464910B54A6822F49C
:100BE00040324A604A6843681A434A6001684A686A
:100BF00022F480724A6001684A68036942EA03226B
:100C00004A6001684A6822F040724A6001684A6896
:100C100083681A434A6001688A6822F400628A6025
:100C200001688A68C3681A438A60816A6FF07062DB
:100C3000D14201688A6822F070628A6001688A681D
:100C40000CD0836A1A438A6001688A6822F0405295
:100C50008A6001688A68C36A1A4301E022F0405240
:100C60008A6001688A6822F002028A6001688A68E4
:100C7000037E42EA43028A6090F82010002901684E
:100C80004A680FD042F400624A6001684A6822F460
:100C900060424A6001684A68174C436A04EB433378
:100CA0001A4301E022F400624A600168CA6A22F431
:100CB0007002CA620168CA6A838B104C04EB03534A
:100CC0001A43CA6201688A6822F400728A60016865
:100CD0008A6890F8303042EA43228A6001688A6864
:100CE00022F480628A6001688A68406942EA802052
:100CF000886010BD0023014000E0FFFF0000F0FF0E
:100D000010B50024FFF726FF0B4800F021FA0A492E
:100D10000220C861084600F0E6F8074800F0A2F992
:100D20004FF4FA71044800F04BF918B9024800F08A
:100D3000D7F80446204610BD28050020FEE770477E
:100D400003480168491C01604FF4806000F0AABAB2
:100D5000180000200B4910B5002048600A480078B0
:100D600018B10021012002F071FF0848007818B185
:100D70000021012004F03AF8BDE810404FF4007063
:100D800000F090BA280200207100002072000020BC
:100D90007047000078B50024009490F83C20012AA8
:100DA00019D0012280F83C200A6807230568092A27
:100DB00013D9EE680A3A02EB420293409E43EE607A
:100DC0000B788A680A3B03EB43039A400368DD68AB
:100DD0002A43DA6010E0022078BD2E6902EB42025D
:100DE00093409E432E610B788A6803EB43039A403D
:100DF00003681D692A431A614A681F23072A13D210
:100E000005686E6B521E02EB820293409E436E6336
:100E10000B790A885B1E92B203EB83039A40036846
:100E20005D6B2A435A6327E005680D2A12D22E6BA8
:100E3000D21F02EB820293409E432E630B790A88F5
:100E4000DB1F92B203EB83039A4003681D6B2A43B6
:100E50001A6311E0EE6A0D3A02EB820293409E4360
:100E6000EE620B790A880D3B92B203EB83039A4042
:100E70000368DD6A2A43DA62164B0568144A9D420C
:100E800006D10D68122D03D1556845F480055560D3
:100E900005689D4218D10B68102B01D0112B13D17E
:100EA000536843F400035360096810290CD10A49C0
:100EB0000A4A0968B1FBF2F101EB8101490000E047
:100EC000491E00910029FBD180F83C40002078BDEC
:100ED0000023014000200140E002002040420F00BA
:100EE0000068C06C704770B504004FF0000503D077
:100EF000206C002610B107E0012070BD204600F0F4
:100F00001DF8666484F83C60206CC00610D4206C28
:100F100020F4885040F0020020642046FFF75CFE79
:100F20006664206C20F0020040F00100206400E0C4
:100F3000012584F83C60284670BD000030B587B0BC
:100F4000044614216846FFF773F91949206888425E
:100F50002BD118480025016841F4806101600068C8
:100F600000F48060059013481438016841F02001B6
:100F70000160016801F020010591016841F0040160
:100F800001600068032400F0040005904FF4B9608C
:100F90008DE831006946084800F090F900946946F0
:100FA0000648CDE9014500F089F907B030BD0000E1
:100FB0000022014044380240001402400008024070
:100FC0002DE9F041044600680D4681684FF00007A6
:100FD00049050BD58068C00508D5206C40F020007D
:100FE000206484F83C700120BDE8F08100F054FAE0
:100FF00006460FE0681C0DD025B100F04DFA801BAD
:10100000A84207D9206C40F00400206484F83C70AA
:101010000320E9E7206800688007EBD521686FF0BE
:1010200012000860206C40F4007020642068816821
:1010300011F0405F13D1217E89B9C16A11F4700F9C
:1010400002D0806840050AD4206C20F480702064AF
:10105000206CC00403D4206C40F001002064002008
:10106000C2E7000018B50021009190F83C20012A49
:1010700007D0012280F83C2002689368DB0702D089
:1010800011E0022018BD936843F0010393602A4ADF
:101090002A4B1268B2FBF3F202EB420200E0521E4E
:1010A0000092002AFBD102689368DB0741D0036CF1
:1010B00040F20164A34343F48073036453685B0507
:1010C00005D5036C23F4005343F480530364036C8D
:1010D000DB0404D5436C23F00603436400E0416461
:1010E00080F83C1016496FF02203136049680068CD
:1010F000CA06144906D088421BD1816811F0405FAE
:1011000013D016E08842F8D00F4A904203D1D1F8AC
:101110000423D206F1D00D4A90420AD1D1F804132B
:1011200001F01F011029E8D303E0816841F08041FC
:101130008160002018BD0000E002002040420F0046
:101140000023014000200140002101400022014015
:1011500090F83C1001290CD0012180F83C10016866
:101160008A6822F001028A6001688968C90702D092
:1011700007E002207047016C21F4885141F0010121
:101180000164002180F83C100846704770B543792F
:10119000012B1AD0012646710223037105682C68C1
:1011A00040F6FE7393409C43D1E900310B439340DA
:1011B00023432B6001680B68C0249440A3430B6059
:1011C000067100214171084670BD022070BD70B5E6
:1011D000040003D02079002510B105E0012070BD86
:1011E0006571204600F008F8022020712561012079
:1011F0002071002070BD000010B586B00446142197
:101200006846FFF715F81149206888421CD110483C
:101210000021026842F000520260006800F00050B5
:1012200005900B481038026842F001020260006825
:1012300000F001000590102000900320CDE901018D
:101240006946044800F03AF806B010BD007400404A
:10125000403802400000024090F83510022903D0C7
:101260008021416501207047052180F83510006814
:10127000016821F0010101600020704770B504464B
:1012800000F00AF90546601C02D0044800780444C6
:1012900000F002F9401BA042FAD370BDD402002036
:1012A00070470000044910B50A68024202D0086085
:1012B000FFF7F6FF10BD0000143C01402DE9F84F88
:1012C00000224FF0010803254FF00F0E0B6808FABB
:1012D00002F42340A3426ED14E68012E05D0022EA7
:1012E00003D0112E01D0122E12D186684FEA420C83
:1012F00005FA0CF7BE43CF6807FA0CF7374387604F
:101300004668A6430C79C4F3001494403443446007
:10131000C668570005FA07FC8C6826EA0C06BC4034
:101320003443C4604C68022C01D0122C13D1D40871
:1013300000EB8404A346D4F8209054074FEAD46A03
:101340000EFA0AF629EA06090E6906FA0AF646EACC
:101350000906CBF8206006680C7926EA0C0604F032
:101360000304BC40344304604C68E40065D5364C4B
:10137000266846F480462660246822F0030604F4BA
:1013800080440094314C3444A446D4F8084896076D
:10139000370F0EFA07F6B4432D4EB04201D10026A6
:1013A00024E02C4EB04201D101261FE02A4EB0426B
:1013B00002D102261AE040E0284EB04201D10326B5
:1013C00014E0274EB04201D104260FE0254EB04272
:1013D00001D105260AE0244EB04201D1062605E0DF
:1013E000224EB04201D1072600E00826BE40264327
:1013F000CCF808681E4E34684F689C43FF0300D544
:101400001C4334601A4C241D26684F689E43BF035A
:1014100000D51E432660164E083634684F689C433C
:10142000FF0200D51C433460114E0C3634684F68FF
:101430009C43BF0200D51C433460521C102AFFF4A9
:1014400045AFBDE8F88F000044380240003001404D
:10145000000002400004024000080240000C02406C
:10146000001002400014024000180240001C02401C
:10147000003C01400069084000D0012070474269EB
:1014800031EA020200D10904816170470AB1816129
:1014900070470904FBE700000148806870470000BE
:1014A000D402002070B5040025D094F83D0000253A
:1014B00020B984F83C50204600F0B8F8242084F885
:1014C0003D002068016821F0010101602068016889
:1014D00041F4004101602068016821F4004101608D
:1014E00000F00EFA4D4A6168914201D84C4900E083
:1014F0004C49884201D2012070BD4B492368B0FBA2
:10150000F1F15E6826F03F060E435E606368934229
:1015100006D94FF4967359434FF47A73B1FBF3F144
:101520002368491C1E6A26F03F0631431962616830
:10153000914210D84900401EB0FBF1F2521CC2F398
:101540000B02042A01D2042022E0B0FBF1F0401C7F
:10155000C0F30B001CE0A268F2B301EBC10303EB84
:101560000116431EB3FBF6F35B1C43F480431B05DB
:1015700049D092B301EBC10202EB0111401EB0FB56
:10158000F1F0401CC0F30B0040F4804040F40040F8
:101590002168CA694CF6FF739A431043C861D4E9C5
:1015A000071001432068026822F0C0021143016065
:1015B000D4E9030101432068826848F2FF339A436B
:1015C00011438160D4E9050108432168CA6822F00B
:1015D000FF021043C86001E00EE016E020680168D9
:1015E00041F0010101602564202084F83D0025635D
:1015F00084F83E50002070BD01EB4106431EB3FB52
:10160000F6F35B1CB3E70120C2E701EB4101401E8A
:10161000B0FBF1F0401CC0F30B00B7E7A08601005F
:1016200080841E0000093D0040420F0010B586B0C6
:10163000044614216846FEF7FBFD144920688842E1
:1016400021D11348016841F0020101600068694638
:1016500000F0020005904FF41070009012200190ED
:101660000120029003200390042004900948FFF712
:1016700025FE07481030016841F400110160006840
:1016800000F40010059006B010BD000000540040AA
:101690003038024000040240024881680278114458
:1016A00081607047D40200200B4810B5016841F4F6
:1016B00000710160016841F480610160016841F4DA
:1016C00080710160032000F06FF8002000F006F840
:1016D00000F024F8002010BD003C024070B50D4D14
:1016E00004464FF47A712878B1FBF0F00A49096892
:1016F000B1FBF0F000F09AFB48B9102C07D20022A1
:101700002146501E00F030F800206C6070BD0120B2
:1017100070BD0000D4020020E00200200A4808B595
:10172000016841F480410160006800F4804000904D
:101730000548001F016841F080510160006800F019
:101740008050009008BD000044380240002809DBAA
:1017500000F01F02012191404009800000F1E020CB
:10176000C0F8001170470000F0B40E4B1B680C4627
:10177000C3F30223C3F10705042D00D90425191D65
:10178000072901D2002300E0DB1E012606FA05F13D
:10179000491E214099409E40761E16403143F0BCC0
:1017A00002F004B90CED00E0064900F007020868F9
:1017B0004FF6FF03184040EA0220034A1043086036
:1017C000704700000CED00E00000FA052DE9F0473D
:1017D0000E46050065D0DFF81481D8F80000F7B296
:1017E00000F00F00B04207D288F80070D8F800006F
:1017F00000F00F00B04254D128683D4C810712D54B
:10180000400703D5206840F4E050206028780007A6
:1018100003D5206840F4604020602068A96820F06B
:10182000F000084320602878C0072DD03049686850
:101830000839012812D0022813D0032811D00968D2
:10184000890700292DDA216821F003010143216075
:10185000FFF722FE814641F2883A0EE009688903CB
:10186000EFE709688901ECE7FFF716FEA0EB090135
:10187000514502D90320BDE8F0872068696800F06F
:101880000C00B0EB810FEFD1D8F80010404601F00A
:101890000F01B14207D90770006800F00F00B04295
:1018A00001D00120E7E72878400705D52068E968DE
:1018B00020F4E050084320602878000706D520680F
:1018C000296920F4604040EAC100206000F038F847
:1018D0002168084AC1F30311515CC84006490860F9
:1018E00006480068FFF7FAFE0020C4E7003C02400B
:1018F0000838024024520008E0020020D8020020EC
:101900000448054900680968044AC1F38221515C12
:10191000C8407047E00200200838024034520008F6
:101920000448054900680968044AC1F34231515C22
:10193000C8407047E00200200838024034520008D6
:10194000154810B5006810F00C02144813D041106F
:10195000042A0FD0082A0ED10F4C241F22682368B6
:1019600002F03F025B0207D52068C0F38810A0FB9D
:10197000010106E0084610BD2168C1F38811A1FBF2
:1019800000010023FEF71CFC2168C1F30141491C42
:101990004900B0FBF1F010BD083802400024F4000B
:1019A0002DE9F84F04006ED02078DFF83C93C00793
:1019B000A9F104054AD009F104000168C1F38101CD
:1019C000012908D00068C0F3810002280AD1D9F8A3
:1019D0000000400206D52868800337D560680028DB
:1019E000E1D033E06068B0F5803F10D0B0F5A02FB3
:1019F000286810D020F480302860286820F48020E7
:101A000028606068A8B1FFF747FD06460DE028682A
:101A100040F48030F4E740F480202860F7E700BF0E
:101A2000FFF73AFD801B642873D828688003F7D538
:101A30000CE0FFF731FD064605E000BFFFF72CFD87
:101A4000801B6428F0D828688003F7D42078DFF85A
:101A50009C8280074FF0000A3ED5A348001D016814
:101A600011F00C0F08D00068C0F3810002280BD1E0
:101A7000D9F80000400207D42868800716D5E0682E
:101A8000012800D112E02BE1E068B8B10120C8F8CC
:101A90000000FFF701FD064605E000BFFFF7FCFC74
:101AA000801B0228C0D828688007F7D528682169DC
:101AB00020F0F80040EAC10028600DE0C8F800A05E
:101AC000FFF7EAFC064604E0FFF7E6FC801B02286D
:101AD0001FD828688007F7D42078000722D5824EC7
:101AE00083486169703671B101210160FFF7D4FC50
:101AF000074604E0FFF7D0FCC01B022809D8306875
:101B00008007F7D50EE0C0F800A0FFF7C5FC074638
:101B100005E082E0FFF7C0FCC01B02287DD83068DA
:101B20008007F7D42078400768D5DFF8BCB10027DC
:101B30000BF13C0BDBF80000C0000BD4DBF800100D
:101B400041F08051CBF80010DBF80000012700F0D5
:101B500080500090674E3068C00510D4306840F463
:101B600080703060FFF798FC009005E0FFF794FC70
:101B70000099401A022850D83068C005F6D55A4E50
:101B8000A0686C3601280FD00528306810D020F0EE
:101B900001003060306820F004003060A068B8B107
:101BA000FFF77AFC00900FE0306840F00100F4E7A6
:101BB00040F004003060F7E7FFF76EFC0099411A2F
:101BC00041F28830814266D830688007F4D50EE053
:101BD000FFF762FC009007E0FFF75EFC0099411AF6
:101BE00041F28830814256D830688007F4D42FB152
:101BF000DBF8001021F08051CBF80010A069C8B3C9
:101C00003949091D0968C1F3810102294AD0022816
:101C1000504607D0C8F8600000E03CE0FFF73CFC0D
:101C200004463BE04746C8F86000FFF735FC06462F
:101C300005E000BFFFF730FC801B02282BD8286886
:101C40008001F7D4D4E907010843A16A2A4A490868
:101C500002EB0141626A41EA8211084394F82C10B8
:101C600040EA0161C9F8001001203866FFF714FC52
:101C7000044606E036E000BFFFF70EFC001B02281A
:101C800009D828688001F7D52CE000BFFFF704FCD5
:101C9000001B022802D90320BDE8F88F28688001C4
:101CA000F4D41FE00128F7D0D9F80000E26900F46D
:101CB0008001914214D1226A00F03F0191420FD17C
:101CC00047F6C071626A0140914209D1A26A00F4EC
:101CD0004031914204D1E16A00F07060884201D045
:101CE0000120D9E70020D7E704380240000047422E
:101CF000800E4742007000400000FFFF70B50400F6
:101D000005D00025A56294F8510010B106E001202D
:101D100070BD84F85050204600F030F8022084F85E
:101D200051002068016821F040010160D4E90101FF
:101D30000843D4E903121143084361690843218B26
:101D400001F400710843E1690843216A0843A16A6C
:101D5000084321680860A069042101EA1040616A13
:101D60000843216848602068C16921F40061C161AD
:101D70006565012084F85100002070BD70B586B003
:101D8000044614216846FEF753FA234E22680021C8
:101D90002248022303240525B2421AD11F4A1432D5
:101DA000166846F480561660126802F48052059256
:101DB000026842F001020260006802AA00F001001D
:101DC000059082E83200E020CDE90003694614481E
:101DD0001DE0144EB2421CD1104A1032166846F46F
:101DE00080461660126802F480420592026842F052
:101DF00002020260006802AA00F00200059082E878
:101E000032004FF47040CDE9000369460648FFF701
:101E100055FA06B070BD0000003001403038024075
:101E200000000240003800400004024010B5401E8F
:101E3000B0F1807F01D3012010BD4FF0E02460613C
:101E40000F21601701F0B2FD0020A0610720206182
:101E5000002010BD7047704770B590F83C20012AF3
:101E600032D0012480F83C40022280F83D200368F3
:101E70005A689D6822F070060A6832435A60134B14
:101E800002689A4214D0B2F1804F11D0104B9A429E
:101E90000ED0104B9A420BD00F4B9A4208D00F4BEA
:101EA0009A4205D00E4B9A4202D00E4B9A4204D170
:101EB000496825F080031943916080F83D40002176
:101EC00080F83C10084670BD022070BD0000014043
:101ED0000004004000080040000C004000040140E5
:101EE000004001400018004010B5040003D094F8F1
:101EF0003D0010B107E0012010BD002084F83C0037
:101F0000204600F00DF8022084F83D00211D2068D5
:101F100001F03EFB012084F83D00002010BD0000D0
:101F200008B50168304881420FD13048016841F05E
:101F3000010101600068002200F0010000901146DC
:101F40001920FFF711FC192048E02848001FB1F1C3
:101F5000804F11D0264A91421DD1016841F0020103
:101F600001600068002200F00200009011461D2070
:101F7000FFF7FAFB1D2031E0016841F0010101602B
:101F80000068002200F00100009011461C20FFF7BD
:101F9000EBFB1C2022E0174A91420ED1016841F070
:101FA000040101600068002200F004000090114666
:101FB0001E20FFF7D9FB1E2010E00F4A914211D1DD
:101FC000016841F0400101600068002200F040001B
:101FD000009011462B20FFF7C7FB2B20BDE80840DF
:101FE000FFF7B4BB08BD00000000014044380240C8
:101FF0000004004000080040001800400168CA6862
:1020000042F00102CA600068816801F007010629F8
:1020100003D0016841F0010101600020704770B5F4
:10202000044690F83C00012817D0012584F83C5064
:10203000022084F83D002068826822F0770222F4B2
:102040007F4282600868502830D00DDC20284DD0B7
:1020500005DC98B310283BD148E0022070BD302841
:1020600044D0402834D139E0602828D0702806D0E8
:10207000B0F5805F2CD0B0F5005F29D10AE0CB68C5
:10208000D1E90121206801F0E7FA2068816841F078
:10209000770109E0CB68D1E90121206801F0DCFA81
:1020A0002068816841F48041816011E0CA68496814
:1020B000206801F0E3FA5021206807E016E0CA68C2
:1020C0004968206801F0EBFA6021206801F0CEFA3F
:1020D00084F83D50002084F83C0070BDCA6849680F
:1020E000206801F0CBFA40212068EFE72268014622
:1020F0001046EBE7704770B50446006801694FF081
:102100000005C943890715D4C168C943890711D49B
:10211000E91E016101202077206880698007204640
:1021200002D0FFF7E7FF04E000F098F8204600F047
:1021300096F8257720680169C943490717D4C16813
:10214000C943490713D46FF00401016102202077CD
:102150002068806910F4407F204602D0FFF7CAFF54
:1021600004E000F07BF8204600F079F8257720683D
:102170000169C943090716D4C168C943090712D4C4
:102180006FF008010161042020772068C069800792
:10219000204602D0FFF7AEFF04E000F05FF82046D3
:1021A00000F05DF8257720680169C943C90617D496
:1021B000C168C943C90613D46FF01001016108203A
:1021C00020772068C06910F4407F204602D0FFF7D6
:1021D00091FF04E000F042F8204600F040F8257737
:1021E00020680169C943C90708D1C168C943C90743
:1021F00004D1891E0161204600F032F8206801698F
:10220000C943090609D4C168C943090605D46FF05A
:10221000800101612046FFF71DFE20680169C94366
:10222000490609D4C168C943490605D46FF0400185
:102230000161204600F015F820680169C94389064C
:102240000BD4C168C943890607D46FF0200101612E
:102250002046BDE87040FFF7FEBD70BD7047704777
:10226000704770477047000070B5026804461068F8
:10227000D168536910F00F0F52D003F0010501F43B
:1022800090762E435FD0C20705D0CA0503D5E26B16
:1022900042F00102E263420705D5DA0703D0E26BA0
:1022A00042F00202E263820705D5DA0703D0E26B4F
:1022B00042F00402E263020707D501F020022A433C
:1022C00003D0E26B42F00802E263E26B002A33D0F3
:1022D000800604D5880602D5204601F008FA206859
:1022E0004069E16BC0F38010090700D428B3204691
:1022F00001F0EFF92068416949061AD5416921F0DA
:1023000040014161606BA0B11B490165606BFEF744
:10231000A3FF002810D0606B016DBDE87040084736
:10232000830610D58B060ED52046BDE8704001F01F
:10233000DEB92046FFF796FF70BD2046FFF792FFFB
:102340000020E06370BD030606D50B0604D52046C9
:10235000BDE8704001F0AABA4006F3D54806F1D5B1
:10236000D168204621F04001D160202184F8391045
:1023700000F0EAF970BD0000C336000870B5040033
:1023800004D094F83900002510B106E0012070BD9A
:1023900084F83850204600F023F8242084F83900CF
:1023A0002068C16821F40051C160204601F0EAF9BB
:1023B0002068016921F4904101612068416921F0A0
:1023C0002A0141612068C16841F40051C160E563A0
:1023D000202084F8390084F83A00002070BD000005
:1023E0002DE9F04786B0044614216846FDF720FF2A
:1023F0006249614F23680024604A10390325022690
:102400005F484FF00809BB4217D1136843F400231B
:102410001360126802F4002205920A6842F0010279
:102420000A60096802AB01F001010591CDE900568F
:10243000012183E82202694637E0DFF84881DFF8AE
:102440003CC10727DFF840A10CF1040C434531D112
:10245000DCF8002042F01002CCF80020DCF800206C
:1024600002F0100205920A6842F001020A600A684E
:1024700002F0010205920A6842F002020A6009684D
:1024800002AA01F0020105914FF40071CDE9001696
:1024900082E8B0006946FEF711FF8020CDE9000612
:1024A00002AA694682E8B0005046FEF707FF06B070
:1024B000BDE8F087DFF8D480434521D1136843F4A9
:1024C00000331360126802F4003205920A6842F089
:1024D00001020A60096802AB01F0010105910C21BB
:1024E000CDE9001683E8B0006946FEF7E7FE00225A
:1024F00011462620FFF738F92620FFF727F9D6E7FF
:102500002348834219D1106840F48020106010687D
:1025100000F480200590086840F002000860086818
:1025200002AB00F0020005904FF44060CDE90006D8
:1025300083E8B00069465046B7E716488342B6D1F3
:10254000DCF8000040F02000CCF80000DCF80000CF
:1025500000F020000590086840F00400086008685A
:1025600002AA00F004000590C020CDE9000682E830
:1025700030026946084898E7004C00404038024065
:1025800000000240001001400004024000440040EE
:1025900000480040001401400008024090F83A3022
:1025A000202B22D1F9B1F2B190F83830012B1CD098
:1025B00081628285C2850021C163222280F83A208F
:1025C00080F838100168CA6842F48072CA600168F5
:1025D0004A6942F001024A610068C16841F0200185
:1025E000C160002070470120704702207047000042
:1025F00000681449884223D11348144A81684378FB
:102600005354491C8160B1F5FA7F02DD00218160DD
:102610000CE000290ADD114411F8022CFF2A05D133
:1026200011F8011C0A2901D101214160007800281C
:1026300006D0054905480122491CC038FFF7AEBF46
:1026400070470000004400401C02002008090020E0
:102650002DE9F843044690F839001F4616460D460A
:10266000202850D1B5B1AEB194F8380001284AD035
:10267000012084F838004FF00008C4F83C80212085
:1026800084F83900FEF708FFA6848146E68484F8C2
:10269000388026E00120BDE8F883E08C401EE0840D
:1026A000A0684B46B0F5805F4FF000024FF080010C
:1026B0002046009703D001F02AF9E8B90DE001F0B7
:1026C00026F9C8B928882168C0F308004860206945
:1026D00008B16D1C05E0AD1C03E0216815F8010B85
:1026E0004860E08C0028D8D14B460022402120468B
:1026F000009701F00CF908B10320CCE7202084F802
:1027000039000020C7E70220C5E790F83930202BB8
:1027100018D1A9B1A2B190F83830012B12D00162C2
:102720008284C2840021C163212280F8392080F88C
:1027300038100068C16841F08001C1600020704716
:1027400001207047022070477047FEE77FB50024E4
:1027500012480094019402940F49039401604FF4CD
:102760004031C0E901140461047680F820400C492E
:10277000C0E90A140125C561C46080F83040456194
:10278000FEF7B1FB0420CDE9000569460294034839
:10279000FEF700FB7FBD000000220140280500205D
:1027A0000100000F2DE9F04F87B014216846FDF7B6
:1027B0003FFD72480024016841F01001016001688A
:1027C00001F010010591016841F0200101600168EC
:1027D00001F020010591016841F0040101600168E8
:1027E00001F004010591016841F0010101600168F7
:1027F00001F001010591016841F0020101600168E9
:1028000001F002010591016841F0080101600168D1
:1028100001F008010591016841F040010160006884
:10282000DFF85C9100F0400048F6F035059000229A
:1028300029464846FEF72AFEDFF848A143F603067C
:10284000002231465046FEF721FEDFF83CB100225F
:1028500020215846FEF71AFE4FF44C470022394615
:102860004A48FEF713FE002247F2FC014848FEF7F3
:102870000DFE4FF48078002241464648FEF706FEE2
:1028800000950125CDE90154694648460394FEF7B9
:1028900015FD0096CDE90154694650460394FEF7B4
:1028A0000DFD1020CDE90004694658460294FEF75C
:1028B00005FD20200090CDE9015469465846039457
:1028C000FEF7FCFC0097CDE9015469462F480394BC
:1028D000FEF7F4FC41F2FC000090CDE9015469469A
:1028E0002B480394FEF7EAFC4FF41060CDE9000496
:1028F000694627480294FEF7E1FCCDF80080CDE957
:102900000154694623480394FEF7D8FC68020090FE
:102910002148CDE9010469461D48FEF7CFFCA80215
:1029200000901E48CDE9010469461948FEF7C6FC2F
:102930006803CDE900050320CDE90250694614483B
:10294000FEF7BCFCA803CDE90005CDE902546946B9
:102950000F48FEF7B3FC002211461720FEF704FFD4
:102960001720FEF7F3FE002211462820FEF7FCFE9A
:102970002820FEF7EBFE07B0BDE8F08F30380240AC
:10298000001002400014024000080240000C024007
:102990000018024000000240000021100000111049
:1029A0000B480A494FF4007201604FF48271416094
:1029B00000218160C1600161C0E90512C16101624D
:1029C000416281620A21C162FFF798B9003001407B
:1029D000D80500200A48094901604FF4827141601E
:1029E00000218160C160016141618161C161016259
:1029F000416281620A21C162FFF780B9003800405C
:102A00003006002010B586B00024134800940194CD
:102A10000294039404940F49059401604FF4C87123
:102A2000C0E901143221C0E9031444618461FFF755
:102A30005BFA4FF48050009069460748FFF7EFFAC1
:102A40002020CDE9040404A90348FFF705FA06B0E5
:102A500010BD0000000001408806002010B586B0BF
:102A600000241248009401940294039404944FF0BB
:102A700080410594016041F6DF31C0E90114642111
:102A8000C0E903148461FFF72FFA4FF480500090DF
:102A900069460648FFF7C3FA2020CDE9040404A9DB
:102AA0000248FFF7D9F906B010BD0000C8060020A3
:102AB00010B586B000241248009401940294039447
:102AC00004940E490594016041F6DF31C0E9011418
:102AD0006421C0E903148461FFF706FA4FF48050C3
:102AE000009069460648FFF79AFA2020CDE90404D1
:102AF00004A90348FFF7B0F906B010BD0004004078
:102B00000807002010B586B00024134800940194F3
:102B10000294039404940F49059401604FF4E15129
:102B2000C0E901144FF4AF71C0E903148461FFF7E9
:102B3000DBF94FF48050009069460748FFF76FFAC1
:102B40002020CDE9040404A90348FFF785F906B065
:102B500010BD00000008004048070020FEE7704755
:102B60002DE9FE4F774841F27071774C006891FB78
:102B7000F0F57648256000686843FDF7F3FC9FEDAB
:102B8000741B53EC112BFDF77EFCFDF7FCFC074694
:102B90006060E81B8146E0606F48006800EB8000E1
:102BA0008600B81B6661A0606C4800688346FDF72C
:102BB000D9FC9FED6B1B53EC112BFDF764FC9FEDD3
:102BC000641B53EC112BFDF7ECFBFDF7DCFC2063E1
:102BD0000290654800680190FDF7C4FC9FED631BFF
:102BE00053EC112BFDF74FFC9FED591B53EC112BB0
:102BF000FDF7D7FBFDF7C7FCE0625E480068009078
:102C0000FDF7B0FC9FED591B53EC112BFDF73BFC7E
:102C10009FED4F1B53EC112BFDF7C3FBFDF7B3FCEE
:102C2000554905460860554800688046FDF79AFCFE
:102C30009FED4E1B53EC112BFDF725FC9FED441B24
:102C400053EC112BFDF7ADFBFDF79DFC4C49024603
:102C5000504B08604B484C494FF00A0A07604B48FC
:102C6000C1F800904C49D0F800C04948DFF82C91D9
:102C70001B68006809684FF47A77BCF1010F14D023
:102C8000BCF1000F51D15B4293FBF7F3A362E0610B
:102C9000256A404503FB0151216251DBA0EB08018D
:102CA0003748914243DD511A42E03D4A93FBF7F326
:102CB0001268C4E906206362276ADFF8E48003FB38
:102CC000017121622B4F384B8E463F68D8F8008047
:102CD00034491B68A8EB0707BBF1000F17D0DDF8DC
:102CE00004C0624521DA009A90421CDCAF4201DD4B
:102CF000206B04E00298AEEB0B02801A20630860A0
:102D0000C01A90FBF6F0206150B1014615E09042E8
:102D100009DC1948AF4201DCEA1B02600068EEE7FB
:102D200001202061F1E7C1F800A0BDE8FE8F00217D
:102D3000016008461C4908602169C9F80010F4E7E1
:102D40001949F0E7A80000207C010020AC00002019
:102D50000000000000005940A4000020C000002036
:102D60000000000000E09540BC00002000000000D2
:102D700000804B409C00002074010020A000002037
:102D800078010020300000203400002038000020AE
:102D9000440000204C000020680000202C0000208F
:102DA0004000002024000020280000202DE9F04FE2
:102DB0008A488B4C2DED048B87B0006800EB8000B7
:102DC0008000E060059087480068FDF7CBFB9FED31
:102DD000868B53EC182BFDF756FB9FED859B53EC30
:102DE000192BFDF7DEFAFDF7CEFBA06282480068E2
:102DF0008046FDF7B7FB53EC182BFDF744FB53EC73
:102E0000192BFDF7CEFAFDF7BEFB064620627B4884
:102E10000068FDF7A7FB53EC182BFDF734FB53ECD0
:102E2000192BFDF7BEFAFDF7AEFB05466062E06BBD
:102E30000746FDF7C7FB9FED729B53EC192BFDF77F
:102E4000AAFAFDF7A0FB206304906F480068039086
:102E5000FDF788FB9FED6D1B53EC112BFDF7A1FADD
:102E600041EC180B3846FDF7ADFB53EC192BFDF781
:102E700092FA53EC182BFDF78EFAFDF784FBE06213
:102E8000029094ED108A18EE100AFDF79BFB9FED5F
:102E9000611B53EC112BFDF7DDF9FDF774FBB1EE6F
:102EA000000A606338EE000A0190DFF87491DFF8E1
:102EB0007CB1BDEEC00ADFF878E14FF0010A10EEF8
:102EC000100AA06300905548216801606168C9F844
:102ED000001055495348636C0A6800680021012BB3
:102EE00021D0002B45D1002843D152486261DFF840
:102EF00038810068E0612046DDF80CC0D0E900327E
:102F0000076986693D481344D8F800800068521C60
:102F10005B1CA8EB0000BCF1010F42D0DDF800C043
:102F2000664544DC53E0012823D14348444B4245E5
:102F300005684248C4E904520068A0612EDCA5EB94
:102F40000802B24201DD226A01E0B21A22621A606E
:102F5000DBF80030D31A059A93FBF2F2A26012B9A3
:102F60005246C4F808A0374B1A60A26C904205DDA7
:102F7000A06407B0BDEC048BBDE8F08FC4E912106B
:102F8000DEF800202265424264235A4392FBF0F0AF
:102F90002D4A12689042ECDB6164EAE70A2018606F
:102FA000E7E7DDF804C0664501DC049E10E0CEF8DA
:102FB0000030C4F844A0DCE7A8420CDD281A014622
:102FC000C4F82400CBF80010C9F80020D1E7029E15
:102FD000B742F1DDEBE76162F4E700008400002016
:102FE00080020020940000200000000000804B4080
:102FF00000000000000059407C00002080000020FC
:10300000333333333333D33F880000209A9999996F
:103010009999B93F0000000000000C4030000020EA
:103020003400002038000020440000202800002048
:10303000680000204C0000204000002048000020D4
:10304000240000202C000020980000207047000081
:103050002DE9F04F684841F270712DED048B83B07B
:103060000068664C91FBF0F505EB850001016420DA
:1030700091FBF0F1C4E9005189466149096869434F
:1030800091FBF0F08046A060281AE06002905D4855
:1030900000688346FDF766FA9FED5B8B53EC182BB7
:1030A000FDF7F1F99FED5A9B53EC192BFDF779F9D8
:1030B000FDF769FA0746206257480068FDF752FAA3
:1030C00053EC182BFDF7DFF953EC192BFDF769F9D9
:1030D000FDF759FA06466062606B8246FDF772FAA8
:1030E0009FED4E9B53EC192BFDF755F9FDF74BFA6D
:1030F000E06201904B4800680090FDF733FA9FEDC5
:103100004A1B53EC112BFDF74CF941EC180B5046C0
:10311000FDF758FA53EC192BFDF73DF953EC182B3A
:10312000FDF739F9FDF72FFAA06294ED0E8A824679
:1031300018EE100AFDF746FA9FED3D1B53EC112BDC
:10314000FDF788F8FDF71FFAB1EE000A3A4938EEAC
:10315000000AE063BDEEC00A84ED0C0AC1F80080ED
:1031600036490298086036480168364801290068E7
:1031700015D000292ED160613348DFF8C8C0334B29
:103180000068E0612448009FDCF800C00068304A15
:10319000ACEB0000012F16D0A94526DC1FE02D491D
:1031A0002D4A5845096821611268A2612B4A08DC42
:1031B000A1EB0B00B84201DD206A14E0381A20624E
:1031C00011E00A200FE0A94509DD2769019DAF4202
:1031D00005DD196003B0BDEC048BBDE8F08FB04293
:1031E00007DD301A60621060F4E727695745F6DDA5
:1031F000EFE708466162F6E7F4000020DC010020FA
:10320000F8000020EC0000200000000000804B408F
:103210000000000000005940F00000203333333339
:103220003333D33F040100209A9999999999B93F72
:103230000000000000000C4030000020340000209E
:1032400038000020440000205400002068000020C6
:103250002800002040000020500000202400002012
:1032600005494FF4FA7008600449086004490C20CD
:1032700008600449086070473000002034000020D6
:1032800024000020280000207047FEF705BA000047
:1032900030B593B030216846FCF7CAFF14210CA862
:1032A000FCF7C6FF18480025016841F08051016015
:1032B000006800F0805011901448016841F480418A
:1032C00001600068022400F4804011900120039006
:1032D00010200490009406940820CDE9075048205F
:1032E000CDE9090403200B906846FEF759FB0CA9B1
:1032F0000F2081E83100E0020F90109002210CA80D
:10330000FEF764FA13B030BD403802400070004050
:103310000548016841F47001016003494FF0006005
:10332000803908607047000088ED00E00D4910B555
:103330000868401C0860642801D10020086002462B
:1033400009484FF40061036808489A4201DA0122F3
:1033500000E00022FEF79AF8BDE810400448FEF7AE
:10336000CABE000028020020040000200010024015
:1033700088060020124810B58168491C81600A291E
:1033800009D110494FF416730A685A430E4B1A605C
:1033900000220A6082604168491C4160B1F5967F55
:1033A00008D14FF400710948FEF764F810B10849DC
:1033B00001200870BDE810400648FEF79CBE0000E2
:1033C00028020020180000203C00002000180240C5
:1033D00058000020C80600202DE9F05F2A4CDFF8D5
:1033E000AC802B4A20680026401C2060D8F80010D2
:1033F0001268DFF8A0B01144DFF89C90274F284DE9
:103400004FF4007A814211DC264826600660264887
:103410000068E860387830B1012804D001225146B4
:103420005846FEF733F80121C9F800102168D8F892
:103430000000814204D11D4A1268EA60C9F80060A8
:103440001E30814208D1387830B1012804D00022E2
:1034500051465846FEF71AF8E868002801DB01F0EB
:10346000D1FC2068642190FBF1F201FB120008B14D
:10347000002100E00121062001F018F8BDE8F05F0E
:103480000B48FEF738BE0000680000203000002026
:103490003400002000100240380000207800002096
:1034A00028020020640000202400002028000020C2
:1034B00008070020164A10B51068401C106032281A
:1034C00011D11448002111600078012810D0022881
:1034D00011D0032812D0042813D0052814D00E4888
:1034E00001600E480160BDE810400D48FEF703BEC4
:1034F000FFF7B6FEF7E7FFF759FCF4E7FFF730FBFD
:10350000F1E7FDF7A7F9EEE7FFF7A2FDEBE7000013
:103510006C000020780000202400002028000020FB
:10352000480700202DE9F04113480178F9B1002146
:10353000124C01700120124F124D134E206112E007
:1035400017F8202002212846FDF7A0FF012211468E
:103550002846FDF79BFF002201212846FDF796FF34
:103560002069401C20613168891C8842E8DBBDE885
:10357000F0410648FEF7BFBD590000202802002098
:10358000D8040020001402405C00002088070020BE
:10359000F0B50268254C264D264E274F274B4FF09D
:1035A000804CA04209D0604507D0A84205D0B04267
:1035B00003D0B84201D0984204D122F0700E4A687C
:1035C00042EA0E02A0421BD0604519D0A84217D093
:1035D000B04215D0B84213D0984211D0184DA8422D
:1035E0000ED0184DA8420BD0174DA84208D0174D49
:1035F000A84205D0164DA84202D0164DA84203D1CC
:1036000022F44075CA682A434D6922F080022A4399
:1036100002608A68C2620A688262A04201D098424F
:1036200001D10969016301214161F0BD0000014040
:103630000004004000080040000C0040000401406D
:103640000040014000440140004801400018004093
:10365000001C00400020004010B5846842EA0322AC
:1036600024F47F440A432243826010BD826822F022
:1036700070020A4342F007018160704710B5036A87
:10368000046A24F001040462846924F0F00444EA2A
:10369000021423F00A020A438461026210BD10B5CD
:1036A000036A23F0100303628369046A23F47043FE
:1036B00043EA023224F0A00343EA0111826101626D
:1036C00010BD10B5806B0021C185C184FEF7CAFD15
:1036D00010BD0168CA6822F49072CA6001684A6924
:1036E00022F001024A61202180F83A10704710B59B
:1036F00090F83A10222901D0022010BD8168B1F55E
:10370000805F11D00169002901681FD0496801F06C
:103710007F03816A4A1C82620B70C18D491E0904B5
:10372000090CC18518D02BE00269816A002A026861
:10373000526805D0D2B20A80816A491C8162ECE7E6
:10374000C2F308020A80816A891CF7E74A68816A25
:103750004B1C83620A70E0E70168CA6822F020020D
:10376000CA600168CA6822F48072CA6001684A6946
:1037700022F001024A61202180F83A10FEF738FF5A
:10378000002010BD2DE9F041044600680169E2689F
:1037900021F44051114301612169A068E2690843A5
:1037A0006169114308432168CA6849F20C639A436E
:1037B0000243CA6020684169A26921F44071114343
:1037C0004161E069192764253226B0F5004F354A7A
:1037D000354920684FF0000806D0884201D0904259
:1037E00036D1FEF79DF835E0884201D0904202D1F3
:1037F000FEF796F801E0FEF783F861684A18A0FB2F
:10380000070148EB0803FCF7DBFC0146B0FBF5F0D1
:103810000201B1FBF5F06FF01803584301EB800093
:1038200006EBC000B0FBF5F000F0F80002EB400240
:10383000B1FBF5F0584301EB800006EBC000B0FB94
:10384000F5F000F00700216810448860BDE8F081C1
:10385000FEF756F861688B0F8A00A0FB0701FCF7A2
:10386000AFFC0146B0FBF5F06FF01802504301EBDE
:10387000800006EB0010B0FBF5F000F0F002B1FBA9
:10388000F5F002EB0012B1FBF5F06FF018035843AE
:1038900001EB800006EB0010B0FBF5F000F00F002C
:1038A000D1E70000001401400010014090F83910E9
:1038B000212901D0022070478168B1F5805F016A3B
:1038C0000BD04A1C0262026809785160C18C491E03
:1038D0000904090CC1840ED017E009880268C1F3FD
:1038E0000801516001690029016A02D0491C016286
:1038F000ECE7891CFBE70168CA6822F08002CA6015
:103900000068C16841F04001C160002070472DE9A6
:10391000F041984617460E460446069D1DE0681C79
:103920001BD02DB1FDF7B8FDA0EB0800A84214D9BB
:103930002068C16821F4D071C1602068416921F01C
:1039400001014161202084F8390084F83A00002008
:1039500084F838000320BDE8F0812068006836EA6A
:10396000000004D00020B842D9D00020F3E70120A5
:10397000F9E700000148FEF777BC00004808002086
:10398000FEE700000FB4084B10B504A902AA039883
:1039900000F02CF8044602A9002000F0D1F82046DF
:1039A00010BC5DF814FB0000413B00080907090E3C
:1039B000002804DB00F1E02080F80014704700F0DC
:1039C0000F0000F1E02080F8141D704702E008C8E5
:1039D000121F08C1002AFAD170477047002001E089
:1039E00001C1121F002AFBD1704700002DE9FF4FD3
:1039F00089B09B460446002506E025280BD05A4690
:103A00000B999047641C6D1C20780028F5D10DB0EF
:103A10002846BDE8F08F0027B8460122474900E05C
:103A2000074314F8013F203B02FA03F00842F7D1A4
:103A300020782E2819D114F8010F47F004072A28FE
:103A40000ED06FF02F022078A0F1300109290CD898
:103A500008EB880102EB410100EB0108641CF2E76E
:103A60000A98641C50F8048B0A9020780028CED065
:103A7000642808D0692806D075281ED05A460B99AC
:103A800090476D1C58E00A994FF00A0901C90A9144
:103A9000002802DA40422D2102E0390504D52B210D
:103AA0008DF82010012103E0F90704D02021F7E769
:103AB0008A4608AE0DE00021FAE70A994FF00A099C
:103AC00001C90A91F7E74946FCF7ABFD303106F82A
:103AD000011D0028F7D1ADEB060000F120097807A1
:103AE00001D44FF00108C84502DDA8EB090000E051
:103AF00000208046002706E008A85A46C05D0B99C2
:103B000090476D1C7F1C5745F6DB04E030205A4679
:103B10000B9990476D1CB8F10001A8F10108F5DC84
:103B200005E016F8010B5A460B9990476D1CB9F148
:103B30000001A9F10109F4DC641C65E70928010012
:103B40000A68531C0B601070704700000B480C4A49
:103B5000017911600B4A417911600B4A817911603A
:103B60000A4AC17911600A4A017A1160817A407A61
:103B700001EB0010074908607047000008090020A9
:103B800044010020480100204C0100205001002089
:103B9000540100205801002070B51F4C1F492DED25
:103BA000028B207908601E49607908601D49A07960
:103BB00008601D49E07908601C49207A08601C49AA
:103BC000607A08601B49A07A0860E57A207BFCF7E0
:103BD000C9FC9FED191B53EC112BFCF754FC41EC75
:103BE000180B2846FCF7BEFC53EC182BFCF732FBF5
:103BF000FCF7FBFC12490860A07B617B00EB012015
:103C000010490860207CE17B00EB01200E49086030
:103C1000BDEC028B70BD000008090020C40000202C
:103C2000C8000020CC000020D0000020D4000020DC
:103C3000D8000020DC00002000000000000024402C
:103C4000E8000020E0000020E4000020F0B44FF481
:103C50008063194D5C00194E9F0001290AD001288C
:103C60001ED002281FD0032820D0042821D10022F2
:103C7000394611E0012807D0022807D0032809D0CF
:103C8000042816D10122F3E701220AE001220BE009
:103C9000284602E001220AE03046F0BCFDF7F6BB00
:103CA00000221946F4E700222146F1E700222146CE
:103CB000F2E7F0BC70470000000C02400014024024
:103CC0002DE9F041E74CE84F0C202DED028B2060F0
:103CD000386041F28830FDF7D1FA01210220FFF768
:103CE000B5FFE2480125006808B9E14805700026E3
:103CF00026609FEDE00AE04C3E60012084ED0A0A58
:103D000000F056FFBDEEC00A012084ED000A00F06D
:103D10004FFFBDEEC00A012084ED010A00F048FF0C
:103D2000BDEEC00A012084ED020A00F041FFBDEEA5
:103D3000C00A012084ED030A00F03AFFBDEEC00A7C
:103D4000012084ED040A00F033FFBDEEC00A01201B
:103D500084ED050A00F02CFFBDEEC00A012084EDC1
:103D6000060A00F025FFBDEEC00A012084ED070A17
:103D700000F01EFFBDEEC00A012084ED080A00F02D
:103D800017FFBDEEC00AB2EE048ABC4F10EE100A57
:103D90006062D4E900121144A2681144E26811443F
:103DA0002269114462691144A2691144E269114413
:103DB000226A1144084400EE100AB8EEC00A84EDED
:103DC0000A0AC0EE080A10EE900AB84201D9AC48BF
:103DD0000570022000F0ECFEBDEEC00A022084ED6A
:103DE000000A00F0E5FEBDEEC00A022084ED010AE3
:103DF00000F0DEFEBDEEC00A022084ED020A00F0F3
:103E0000D7FEBDEEC00A022084ED030A00F0D0FE0A
:103E1000BDEEC00A022084ED040A00F0C9FEBDEE2A
:103E2000C00A022084ED050A00F0C2FEBDEEC00A01
:103E3000022084ED060A00F0BBFEBDEEC00A02209F
:103E400084ED070A00F0B4FEBDEEC00A022084ED46
:103E5000080A00F0ADFEBDEEC00A10EE100A606266
:103E6000D4E900121144A2681144E26811442269A5
:103E7000114462691144A2691144E2691144226A41
:103E80001144084400EE100AB8EEC00A84ED0A0A94
:103E9000C0EE080A10EE900AB84201D979480570C0
:103EA000012000F0C7FABDEEC00A012084ED000A2F
:103EB00000F0C0FABDEEC00A012084ED010A00F056
:103EC000B9FABDEEC00A012084ED020A00F0B2FA90
:103ED000BDEEC00A012084ED030A00F0ABFABDEE8E
:103EE000C00A012084ED040A00F0A4FABDEEC00A65
:103EF000012084ED050A00F09DFABDEEC00A012004
:103F000084ED060A00F096FABDEEC00A012084EDA9
:103F1000070A00F08FFABDEEC00A012084ED080AFE
:103F200000F088FABDEEC00A10EE100A6062D4E913
:103F300000121144A2681144E2681144226911443C
:103F400062691144A2691144E2691144226A114470
:103F5000084400EE100AB8EEC00A84ED0A0A9FED8C
:103F60004A8AC0EE080A10EE900AB84201D94748C2
:103F70000570022000F05EFABDEEC00A022084ED5A
:103F8000000A00F057FABDEEC00A022084ED010AD3
:103F900000F050FABDEEC00A022084ED020A00F0E3
:103FA00049FABDEEC00A022084ED030A00F042FA8D
:103FB000BDEEC00A022084ED040A00F03BFABDEE1B
:103FC000C00A022084ED050A00F034FABDEEC00AF2
:103FD000022084ED060A00F02DFABDEEC00A022090
:103FE00084ED070A00F026FABDEEC00A022084ED37
:103FF000080A00F01FFABDEEC00A10EE100A606257
:10400000D4E900121144A2681144E2681144226903
:10401000114462691144A2691144E2691144226A9F
:104020001144084400EE100AB8EEC00A84ED0A0AF2
:10403000C0EE080A10EE900AB84201D91448057083
:104040004FF480711348FDF715FA134908B10D704C
:1040500000E00E700021BDEC028B0220BDE8F041B3
:10406000FFF7F4BD24000020280000203C000020C1
:104070001C00002000000000B0010020000080BFF4
:104080001D0000201E0000200000C842200000206B
:1040900021000020001802401F00002030B5034618
:1040A0004FF6FF700022074C09E09D5C4540EDB2E1
:1040B000521C34F82550D2B285EA102080B28A42D0
:1040C000F3D330BD244E00082DE9FF410446DDE95D
:1040D0000A764FF0FE0CDDE90C508DF800C04FF071
:1040E000080C8DF804208DF801C08DF805308DF88E
:1040F00002408DF806708DF808508DF803108DF889
:1041000007608DF8090004709DF8031041709DF858
:10411000041081709DF80510C1709DF806100171A2
:104120009DF8071041719DF8081081719DF80910E4
:10413000C1710721FFF7B2FFFF21FF2803D800223A
:104140008DF80A2007E0B0FBF1F28DF80A20B0FBF1
:10415000F1F201FB12008DF80B008DF80C100A2013
:104160008DF80D000E21684600F0C4FDBDE8FF810A
:104170001CB5FE228DF8002002228DF801208DF85A
:1041800002008DF8031000709DF803104170114675
:10419000FFF784FFFF21FF2803D800228DF80420B9
:1041A00007E0B0FBF1F28DF80420B0FBF1F201FB67
:1041B00012008DF805008DF806100A208DF8070012
:1041C0000821684600F096FD1CBD70472DE9FF41AF
:1041D000624C4FF4FA766178B1426FDC2078FE28A9
:1041E0006CD108006AD060180279FF2A66D1427942
:1041F0000A2A63D1C278807802EB002085B20020C1
:1042000004F5FA7203E023189B781354401C88428B
:10421000F9DB5348FFF742FFA8424FD1A07851493C
:1042200000256E281FD0504A504B514FDFF844C133
:10423000C8B304284FD0012856D002285CD00328E8
:104240003CD1E07801287CD002287ED0032871D0B0
:10425000042833D100F06AFD0421032004B0BDE836
:10426000F041FFF785BF0D70E078012801D1FFF71D
:1042700027FD42494048444E0B7841490278367840
:104280000C78404942EA0300204309783F4F084335
:10429000304301D1387838B13878CDE90041CDE9E3
:1042A0000260012107E00BE00023009501950295D3
:1042B0001A46194603956E20FFF706FFBDE8FF81F9
:1042C0000120087016600C201E6038600021CCF8B8
:1042D00000000846C2E70D7016601E603D600021B8
:1042E0000420CCF80050B9E700210120FFF740FF7F
:1042F000BDE8FF41FFF769BFE07801280BD0022835
:104300000FD0032817D00428D8D10520087000F05A
:1043100033FD04210AE00220087000F0BBFC0121FB
:1043200004E00320087000F009FC0221022095E758
:1043300007E00AE00DE004200870FFF72DFC0321E0
:10434000F4E700F07BFC012187E700F0CBFB0221C2
:1043500083E7FFF7FBFB03217FE70000080900204C
:10436000FC0A0020780000203000002034000020EB
:1043700024000020280000201C0000201D00002038
:104380001E00002020000020210000201F0000202F
:1043900070B5204B012000241F4D204E186007E00F
:1043A000214645F8204000F021FD1868401C1860A7
:1043B0003168891C8842F3DB002000F023FD184897
:1043C000FDF71CFE1748FDF719FE1748FDF716FE0E
:1043D0001648FDF713FE164C012251032046FDF747
:1043E00055F80122950329462046FDF74FF81E2077
:1043F000FCF744FF002229462046FDF747F81E201F
:10440000FCF73CFF29462046BDE870400122FDF73D
:104410003DB8000000000020D80400205C0000200F
:1044200088060020C8060020080700208807002012
:104430000018024010B5164C012805D0022805D0FE
:10444000032822D0206805E00B2000E00420FCF7C0
:1044500057FC2060FCF786F89FED0E1B53EC112BE8
:10446000FBF79FFF9FED0D1B53EC112BFBF793FF09
:104470009FED0C1B53EC112BFBF78DFFFCF7B5F8F0
:1044800000EE100A84ED020A10BD0520DFE70000EF
:10449000000000205227A089B0E1D53F00000000B5
:1044A00000C06C400000000000406F4030B40A467D
:1044B0004FF48041224C4D00224B012A08D009289C
:1044C0003CD2DFE800F03B2426292C2F323538007F
:1044D000092833D2DFE800F03205070B0D1315175A
:1044E0001900012201E0012214E0204604E001222B
:1044F00013E0012214E0184630BCFCF7C7BF0122CC
:1045000011E0012212E0012213E0012214E0002256
:10451000EBE700222946E8E700220421EBE700222E
:104520000821E8E700221021E5E700222021E2E748
:1045300000224021DFE700228021DCE730BC704709
:10454000000C0240001802408CB0FDF7ADF8FEF7F9
:104550009FFEFEF727F9FEF7F9F80024FF490094C3
:10456000FD48019408600846FCF731FE00940022E3
:104570006946FA480194FCF709FEFEF711FAFEF7C6
:1045800029FAF848F6494FF416560160C0E901646B
:104590000C25C460C0E904458461C461FDF7EEFEEA
:1045A000F048F14940300160C0E90164C460C0E9ED
:1045B00004458461C461FDF7E1FEEA48EB498030BF
:1045C00001604FF4E131C0E90114C460C0E9044561
:1045D0008461C461FDF7D2FEE248E549C030016064
:1045E000C0E90164C460C0E904458461C461FDF7A9
:1045F000C5FEE148DF490160C0E90164C460C0E96B
:1046000004458461C461FDF7B9FED448DB49143028
:104610004FF480450160DA49C0E90114C0E903455F
:1046200044618461C4610462FCF73CFFFEF7EAF96F
:10463000FEF714FAFEF73CFAFEF764FAC948009454
:10464000403801940294CF49039401604FF4E15142
:10465000C0E901147111C0E903148461FDF744FC41
:10466000A8100090BF4869464038FDF7D8FCBD4807
:104670000122C5498030FDF791FF00263746FFF73C
:1046800087FEC820FCF7FAFDFFF71AFBB548803813
:10469000FDF7B4FC0121042000F0A8FB0121042057
:1046A00000F0A4FBB94D287820B100210520FFF7C8
:1046B0005FFD2C70B648017869B10470012108468D
:1046C000FFF7C4FA0121084600F090FBB1480168E9
:1046D0006F20FFF74DFD012000F06AFABDEEC00A21
:1046E000012010EE109A00F063FABDEEC00A01201E
:1046F00010EE10AA00F05CFABDEEC00A012010EE28
:1047000010BA00F055FABDEEC00A012010EE101AE2
:10471000009100F04DFABDEEC00A012010EE105AD3
:1047200000F046FABDEEC00A012010EE101A019109
:1047300000F03EFABDEEC00A012010EE101A029100
:1047400000F036FA012000F033FABDEEC00A012075
:1047500010EE108A00F02CFA09EB0A0200995A4474
:1047600011444A19BDEEC00A01990A4410EE100A1C
:1047700002991144014401EB08003044092802DC8D
:104780008548046004E00A2190FBF1F18248016051
:10479000022000F00DFABDEEC00A022010EE108AD1
:1047A00000F006FABDEEC00A022010EE109A00F0EA
:1047B000FFF9BDEEC00A022010EE10BA00F0F8F9C1
:1047C000BDEEC00A022010EE105A00F0F1F9BDEE65
:1047D000C00A022010EE101A009100F0E9F9BDEEB7
:1047E000C00A022010EE101A019100F0E1F9BDEEAE
:1047F000C00A022010EE101A029100F0D9F902202E
:1048000000F0D6F9BDEEC00A022010EE10AA00F0AA
:10481000CFF908EB090202EB0B014A190099BDEE32
:10482000C00A0A44019910EE100A0A440299114480
:10483000014401EB0A003044092802DC57480460B7
:1048400004E00A2190FBF1F1544801600120FFF7D8
:10485000F1FDBDEEC00A012010EE108AFFF7EAFD5F
:10486000BDEEC00A012010EE105AFFF7E3FDBDEEC9
:10487000C00A012010EE10BAFFF7DCFDBDEEC00A41
:10488000012010EE109AFFF7D5FDBDEEC00A012001
:1048900010EE101A0191FFF7CDFDBDEEC00A012008
:1048A00010EE101A0091FFF7C5FDBDEEC00A012001
:1048B00010EE10AAFFF7BEFD0120FFF7BBFDBDEE15
:1048C000C00A10EE100A02900120FFF7B3FD08EBBA
:1048D00005025A440199BDEEC00A4A440A440099AF
:1048E00010EE100A0A4402EB0A010144029808443F
:1048F0003044092802DC2A48046004E00A2190FBC5
:10490000F1F1274801600220FFF794FDBDEEC00AD7
:10491000022010EE105AFFF78DFDBDEEC00A0220F6
:1049200010EE10AAFFF786FDBDEEC00A022010EEC1
:10493000108AFFF77FFDBDEEC00A022010EE109A2C
:10494000FFF778FDBDEEC00A022010EE101A0191AB
:10495000FFF770FD26E000000074004070050020A5
:10496000004C0040C80700200010014000440040F7
:104970000048004000140140C808002000540040D6
:10498000A0860100001800401D02002058000020F1
:10499000700000207400002040000020440000202F
:1049A00048000020BDEEC00A022010EE101A00914F
:1049B000FFF740FDBDEEC00A022010EE10BAFFF76F
:1049C00039FD0220FFF736FDBDEEC00A10EE100AD9
:1049D00002900220FFF72EFD05EB0A0242440199E6
:1049E000BDEEC00A4A440A44009910EE100A0A4477
:1049F00002EB0B010144029808443044092802DC10
:104A00002748046004E00A2190FBF1F1244801608A
:104A10004FF480412348FCF732FD214802682248C8
:104A200001682248036822480068CDE9070321484D
:104A3000CDE909120268204801682048037820481F
:104A40000068CDE903031F48CDE9051201681E483F
:104A500002681E480068CDE900021D4802913A46EE
:104A600003687F1C1B491C48FEF78CFF1A48FBF7A4
:104A7000EAFB0146184800F0D7F84FF4FA70FCF74B
:104A8000FDFB164D686801287FF408AE0421144828
:104A90006C60FCF7F4FCFFF799FBAC60FEE50000EE
:104AA0004C000020000C0240480000204400002080
:104AB000400000202C00002038000020780000205A
:104AC0003C000020280000202400002034000020AA
:104AD000300000203C520008E40200201C020020AC
:104AE000001802400E480F4A017911600E4A4179C0
:104AF00011600E4A81791160017AC27901EB0211CD
:104B00000B4A1160817A427A01EB0211094A116065
:104B1000017BC07A01EB0010074908607047000074
:104B2000080900202C010020300100203401002061
:104B3000380100203C010020400100201148124AA9
:104B400001791160114A41791160114A817911602E
:104B5000104AC1791160104A017A11600F4A417AF6
:104B600011600F4A817A11600E4AC17A11600E4AB3
:104B7000017B1160817B407B01EB00200B490860C9
:104B800070470000080900209C000020A0000020C1
:104B9000A4000020A8000020AC000020B0000020ED
:104BA000B4000020B8000020BC000020C00000209D
:104BB00010B5164C012805D0022805D0032822D0B4
:104BC000206805E0082000E00620FCF799F8206046
:104BD000FBF7C8FC9FED0E1B53EC112BFBF7E1FB21
:104BE0009FED0D1B53EC112BFBF7D5FB9FED0C1B21
:104BF00053EC112BFBF7D5FBFBF7F7FC00EE100A8B
:104C000084ED020A10BD0A20DFE70000000000204A
:104C1000465B9544F641663F666666666666DA3FC1
:104C200000000000000024408AB201464FF47A736D
:104C30000148FDF70DBD0000080800200E480F4A8E
:104C4000017911600E4A417911600E4A8179116033
:104C5000017AC27901EB02110B4A1160817A427A22
:104C600001EB0211094A1160017BC07A01EB0010CF
:104C7000074908607047000008090020140100205F
:104C8000180100201C010020200100202401002028
:104C9000280100200E480F4A017911600E4A41791F
:104CA00011600E4A817911600D4AC17911600D4A77
:104CB000017A11600C4A417A11600C4A817A1160C4
:104CC000C17A007B0A4AFF2900D140421060704738
:104CD000080900207C0000208000002084000020C3
:104CE000880000208C00002090000020940000200C
:104CF000980000202DE9F04107460A4E00200D469D
:104D00003070044608E0391901220748FDF7FDFC20
:104D10000A20FCF7B3FA641CAC42F4DB01203070CB
:104D2000BDE8F0811C020020480800200B480C4A16
:104D3000017911600B4A417911600B4A8179116048
:104D40000A4AC17911600A4A017A1160817A407A6F
:104D500001EB0010074908607047000008090020B7
:104D60005C01002060010020640100206801002037
:104D70006C010020700100201148124A0179116075
:104D8000114A41791160114A81791160104AC17943
:104D90001160104A017A11600F4A417A11600F4A7E
:104DA000817A11600E4AC17A11600E4A017B11604E
:104DB000817B407B01EB00200B49086070470000BD
:104DC00008090020EC000020F0000020F400002082
:104DD000F8000020FC000020000100200401002059
:104DE000080100200C01002010010020034A42F8B5
:104DF000201003490120087070470000D8040020EB
:104E0000590000200549064A4B6812681A4482423C
:104E100001DD486070474A607047000000000020D4
:104E20003C02002000000000C1C0000081C1000061
:104E30004001000001C30000C00300008002000028
:104E400041C2000001C60000C0060000800700004B
:104E500041C7000000050000C1C5000081C400007A
:104E60004004000001CC0000C00C0000800D0000D8
:104E700041CD0000000F0000C1CF000081CE000036
:104E8000400E0000000A0000C1CA000081CB0000F3
:104E9000400B000001C90000C009000080080000AC
:104EA00041C8000001D80000C018000080190000AF
:104EB00041D90000001B0000C1DB000081DA0000C6
:104EC000401A0000001E0000C1DE000081DF00006B
:104ED000401F000001DD0000C01D0000801C00001C
:104EE00041DC000000140000C1D4000081D50000A6
:104EF0004015000001D70000C01700008016000018
:104F000041D6000001D20000C01200008013000052
:104F100041D3000000110000C1D1000081D0000089
:104F20004010000001F00000C0300000803100009F
:104F300041F1000000330000C1F3000081F20000E5
:104F40004032000000360000C1F6000081F700008A
:104F50004037000001F50000C0350000803400003B
:104F600041F40000003C0000C1FC000081FD000095
:104F7000403D000001FF0000C03F0000803E0000F7
:104F800041FE000001FA0000C03A0000803B000032
:104F900041FB000000390000C1F9000081F8000069
:104FA0004038000000280000C1E8000081E900004E
:104FB0004029000001EB0000C02B0000802A000007
:104FC00041EA000001EE0000C02E0000802F00002A
:104FD00041EF0000002D0000C1ED000081EC000059
:104FE000402C000001E40000C024000080250000E7
:104FF00041E5000000270000C1E7000081E6000055
:105000004026000000220000C1E2000081E3000011
:105010004023000001E10000C021000080200000CA
:1050200041E0000001A00000C060000080610000BD
:1050300041A1000000630000C1A3000081A20000A4
:105040004062000000660000C1A6000081A70000C9
:105050004067000001A50000C065000080640000FA
:1050600041A40000006C0000C1AC000081AD000054
:10507000406D000001AF0000C06F0000806E0000B6
:1050800041AE000001AA0000C06A0000806B000071
:1050900041AB000000690000C1A9000081A8000028
:1050A0004068000000780000C1B8000081B900002D
:1050B0004079000001BB0000C07B0000807A000046
:1050C00041BA000001BE0000C07E0000807F0000E9
:1050D00041BF0000007D0000C1BD000081BC000098
:1050E000407C000001B40000C07400008075000026
:1050F00041B5000000770000C1B7000081B6000094
:105100004076000000720000C1B2000081B30000D0
:105110004073000001B10000C07100008070000009
:1051200041B0000000500000C190000081910000DB
:105130004051000001930000C05300008052000065
:105140004192000001960000C05600008057000008
:105150004197000000550000C195000081940000B7
:1051600040540000019C0000C05C0000805D000015
:10517000419D0000005F0000C19F0000819E000073
:10518000405E0000005A0000C19A0000819B0000B0
:10519000405B000001990000C059000080580000E9
:1051A0004198000001880000C048000080490000CC
:1051B00041890000004B0000C18B0000818A000083
:1051C000404A0000004E0000C18E0000818F0000A8
:1051D000404F0000018D0000C04D0000804C0000D9
:1051E000418C000000440000C18400008185000063
:1051F0004045000001870000C047000080460000D5
:105200004186000001820000C0420000804300008F
:105210004183000000410000C18100008180000046
:1052200040400000000000000000000001020304F4
:105230000607080900000000010203040C20636E49
:10524000743D2564202C20496E733D2564202C205C
:105250004578703D2564202C20745F7370645F492D
:105260006E733D2564202C20745F7370645F4578F5
:10527000703D256420202C745F7370643D2564208C
:105280002C204D6F64653D2564202D2069735F4996
:105290006E733D2564202C2072616973655F7374A1
:1052A00065703D25642050313D2564202C2050320E
:1052B0003D256420202C2046313D2564202C2046AD
:1052C000323D256420202020202020202020202066
:1052D00020202000F452000800000020E40200001A
:1052E000FC07000828530008E40200200410000016
:1052F000DC3900084102270A32644BF40104190327
:1053000001210A29075C01FF510283642566669624
:10531000C043A0410A5501B06964091E60092AAC66
:08532000C1295882101324F486
:040000050800018965
:00000001FF
