:020000040800F2
:10000000581300209D010008592E0008F72500080C
:10001000052A0008050E00087947000800000000C6
:10002000000000000000000000000000C5370008CC
:10003000070E000800000000C9320008C73700089A
:10004000B7010008B7010008B7010008B7010008B0
:10005000B7010008B7010008B7010008B7010008A0
:10006000B7010008B7010008B7010008B701000890
:10007000B7010008B7010008B7010008B701000880
:10008000B7010008B7010008B7010008B701000870
:10009000B7010008B7010008B70100081D0E0008ED
:1000A000B701000869380008B7010008B701000867
:1000B000B1380008BD38000881430008B7010008C6
:1000C000B7010008B7010008B7010008B701000830
:1000D000B7010008B70100081D470008B701000874
:1000E000090E0008B7010008B7010008F143000835
:1000F000B7010008B7010008B7010008B701000800
:10010000B7010008B7010008B7010008B7010008EF
:10011000B7010008B7010008B7010008B7010008DF
:10012000B7010008B7010008B7010008B7010008CF
:10013000B7010008B7010008B7010008B7010008BF
:10014000B7010008B7010008B7010008B7010008AF
:10015000B7010008B7010008B7010008B70100089F
:10016000B7010008B7010008B7010008B70100088F
:10017000B7010008B7010008B7010008000000003F
:10018000B7010008B7010008DFF80CD000F008FB49
:1001900000480047C955000858130020064880470A
:1001A00006480047FEE7FEE7FEE7FEE7FEE7FEE75C
:1001B000FEE7FEE7FEE7FEE74D380008890100088C
:1001C0002DE9F05F0546002092469B46884606468C
:1001D000814640241BE0284641464746224600F01F
:1001E00028FA53465A46C01A914110D31146184670
:1001F000224600F00FFA2D1A67EB01084F462246FF
:100200000120002100F006FA17EB00094E41201EE4
:10021000A4F10104DFDC484631462A464346BDE8E6
:10022000F09FD2B201E000F8012B491EFBD27047CB
:100230000022F6E710B513460A4604461946FFF7B2
:10024000F0FF204610BD2DE9FE4F804681EA0300F5
:10025000C00F0C46009021F0004123F00045B8EBA0
:100260000200A94105D24046214690461C460B4655
:10027000024623F00040104347D0270DC7F30A0081
:10028000C3F30A510290401A019040286BDAC3F37D
:10029000130040F4801B0098924620B10023D2EB5B
:1002A000030A63EB0B0B01985946C0F1400250461C
:1002B00000F0B0F906460D4650465946019A00F046
:1002C000C8F910EB08006141002487EA115284EA62
:1002D000E7731A4340D0009A62B3019A012A4FEAA9
:1002E000075215DC001B61EB02014FF0004202EAED
:1002F0000752CDE90042001C41F5801132462B46E1
:1003000000F0FFF903B0BDE8F08F40462146F9E761
:10031000001B61EB0201001C41F5801300185B41DA
:100320002018A2F5001747EB030140EAD570B61973
:100330006D4111E06D084FEA360645EAC0754FEA97
:100340000752001B61EB0201001C41F580114908B6
:100350004FEA30000019514132462B4603B0BDE848
:10036000F04F00F0BFB90098012240000023D0EB0D
:10037000020263EBE073009821464FEAE074B8EBA9
:10038000000061EB0401E9E783F000435BE781F0E3
:10039000004158E72DE9FE4F81EA030404F00044D0
:1003A00021F0004100944FF0000B23F0004350EA8D
:1003B00001045ED052EA03045BD0C3F30A54C1F3D4
:1003C0000A552C44A4F2F3340194A0FB0254C1F367
:1003D000130141F48011C3F3130343F4801301FBB1
:1003E000024400FB034E840A970A44EA815447EA18
:1003F0008357A4FB076802958D0A05FB07854FEA22
:10040000932C04FB0C542705029D4FEA065847EA3B
:100410001637B5EB08056EEB070C870E920E47EA10
:10042000811742EA8312A7FB0201B6EB0B0164EBD2
:1004300000042B0D43EA0C335E1844EB1C50DA46E3
:100440005146E7FB0201C5F313044FEA0B3343EABD
:1004500014534FEA0432019C43EA0603A4F10C044E
:100460000294009CCDE900B400F04BF903B0BDE864
:10047000F08F00200146F9E72DE9F04D81EA0304F1
:1004800004F0004B21F0004514464FF0000A23F021
:10049000004150EA050220D054EA01021DD0C5F304
:1004A0000A570246C5F31303C1F31300C1F30A56FA
:1004B00040F4801543F48013A7EB0608101BD646C2
:1004C00008F2FD3873EB050002D308F1010801E0E2
:1004D00092185B41B8F1000F03DA00200146BDE835
:1004E000F08D00204FF48011064684460EE0171B65
:1004F00073EB050705D3121B63EB050306434CEAB8
:10050000010C49084FEA300092185B4150EA01079C
:10051000EDD152EA030012D082EA040083EA050119
:10052000084305D0101BAB4106D20122002306E090
:1005300000224FF0004302E06FF0010253101AEB6B
:1005400006004CEB085110EB0A0041EB0B01BDE833
:10055000F04D00F0C7B80EB5C10F80EAE070084456
:10056000CA07002140F233438DE80E000A460B46CD
:1005700000F0C7F803B000BD70B5C1F30A5201F036
:1005800000450024C1F3130140F2FF3341F4801110
:100590009A4201DA002070BD40F233439A42A2F23F
:1005A000334203DC524200F044F800E090402C4318
:1005B000F1D0404270BD00F0004230F000400AD05F
:1005C000C10D01F56071C0F3160042EA0151C20885
:1005D00040071143704700200146704701F0004377
:1005E00030B421F0004150EA010206D00A0DA2F514
:1005F0006072C1F31301002A02DC30BC0020704796
:10060000440F44EAC104C100E01830BC00EBC25002
:1006100000F031B8202A04DB203A00FA02F1002071
:1006200070479140C2F1200320FA03F31943904030
:100630007047202A04DB203A21FA02F0002170479B
:1006400021FA02F3D040C2F120029140084319463A
:100650007047202A06DBCB17203A41FA02F043EA22
:10066000E07306E041FA02F3D040C2F1200291406B
:100670000843194670470029A8BF7047401C49002D
:1006800008BF20F00100704710B4B0FA80FC00FAF7
:100690000CF050EA010404BF10BC704749B1CCF122
:1006A000200421FA04F411FA0CF118BF01212143AE
:1006B0000843A3EB0C01CB1D4FEA00614FEA102069
:1006C00042BF002010BC704700EBC350104400290B
:1006D000A4BF10BC7047401C490008BF20F00100B7
:1006E00010BC704710B5141E73F1000408DA401CEA
:1006F00041F1000192185B411A4301D120F0010041
:1007000010BD2DE9F04D92469B4611B1B1FA81F230
:1007100002E0B0FA80F220329046FFF77BFF0446F9
:100720000F4640EA0A0041EA0B0153465A46084385
:1007300013D0114653EA010019D0C8F140025046C7
:10074000FFF777FF05460E46504659464246FFF7EB
:1007500061FF084305D0012004E020463946BDE88A
:10076000F08D0020054346EAE0762C4337430A9893
:100770006305E40AA0EB08000022FD0A44EA47549E
:100780000A3002D500200146E9E701051019694148
:10079000DDE9084500196941BDE8F04DA2E7000018
:1007A000064C074D06E0E06840F0010394E80700BE
:1007B00098471034AC42F6D3FFF7EAFC806000089B
:1007C000A060000870B58C1810F8015B15F00703E5
:1007D00001D110F8013B2A1106D110F8012B03E0DA
:1007E00010F8016B01F8016B5B1EF9D12B0705D4E2
:1007F0000023521E0DD401F8013BFAE710F8013B2B
:10080000CB1A921C03E013F8015B01F8015B521E46
:10081000F9D5A142D8D3002070BD00002DE9F04FDA
:10082000D74841F270712DED0C8B85B00068DFF870
:10083000548391FBF0F0D449C8F8000091ED000A10
:10084000DFEDD2AA642120EE2A0ABDEEC00A10EE26
:10085000104A051BCE48C8E901450068009048438E
:10086000FFF779FE9FEDCB9B53EC192BFFF704FEAE
:10087000FFF782FE0746C8F81800C8486421D0F880
:10088000009009FB01F0FFF766FE9FEDC5BB53EC3E
:100890001B2BFFF7F1FDFFF76FFE0646C8F824009B
:1008A000D8F83C008246FFF786FE9FEDBFDB53EC95
:1008B0001D2BFFF769FDFFF75FFE08EE900AC8F8F1
:1008C0003000BB4800680390FFF745FE9FEDB91B61
:1008D00053EC112BFFF75EFD41EC1C0B5046FFF76C
:1008E0006AFE53EC1D2BFFF74FFD53EC1C2BFFF75B
:1008F0004BFDFFF741FEC8F82C0098ED10AA08EE5A
:10090000100A1AEE100AFFF756FE9FEDAC1B53ECCF
:10091000112BFFF798FCFFF72FFEB1EE000AC8F885
:1009200034003AEE000A0290A749DFF8A0A2BDEE1B
:10093000C00ADFF89CB210EE100AC8F83800019027
:10094000A048D1F80080006801282DD000287FD170
:100950008C488C49C0F80C809E4890ED000A89486C
:10096000B1EE409A80ED119A9B4800684042486180
:100970000746A8EB090064214843FFF7ECFD53EC60
:100980001B2BFFF779FDFFF7F7FD7E49934B944A48
:100990008862039901297DDDDDF804C07949674546
:1009A00079DCB8EEC80AD9E08E48DFF8D891006843
:1009B000C9E903808C480099D0F80080A8EB0100B9
:1009C00064214843FFF7C7FD53EC192BFFF754FD93
:1009D000FFF7D2FD0646C9F81C0084488449026826
:1009E0006B4891F8009000689FED828B3238012AA5
:1009F00007D182490968002903DD814A12688A42C9
:100A00002EDA7B49B9F1000F22D1804503DD7D4804
:100A100006600120B1E05B48BE421EDD016AB942BA
:100A200000DD0762006AFFF796FD53EC182BFFF715
:100A3000B1FCFFF7A1FD90FBF4F172480160724830
:100A4000CAF80040CBF80050007800E000E050B950
:100A500005B0BDEC0C8BBDE8F08FB91B0162DEE781
:100A60006949012008706249B9F1000FF0D100987E
:100A700000EE100A6548F8EEC00A90ED000A9FEDFE
:100A8000641A10EE801A00EE908AF8EEE00AB4EED6
:100A9000E01A01E05AE066E0F1EE10FAB7D30098F0
:100AA00000EE900AF8EEE00A20EE800A20EE2A0A14
:100AB00010EE100AFFF77FFD53EC192BFFF7DCFC5B
:100AC000FFF75AFD2F49064608622046FFF743FD0F
:100AD00041EC190B3046FFF73EFD53EC182BFFF7A6
:100AE00059FC53EC192BFFF7C7FCFFF745FD4549AF
:100AF0000860CAF80040CBF80050A9E7486A01E056
:100B0000301A48621060CAF800406019401CCBF8E7
:100B10000050186008E0486A01E0301A486210602E
:100B2000CAF80040CBF800503A493B4A00200B7805
:100B3000FBB1A9F10203984501DC1070087009F1BE
:100B40000203984584DD0123137016E00D490DD191
:100B5000DDF808C0674506DCB8EEE80AB4EEC09AD6
:100B6000F1EE10FA02D2B042CADDC7E7B042D4DDDE
:100B7000D1E7B9EB480FC0DB1070087068E70000E0
:100B800094010020BC020020BC0100200000C842EB
:100B9000B00100200000000000E095408C01002022
:100BA0000000000000804B40333333333333D33FF6
:100BB000A40100209A9999999999B93F00000000E1
:100BC00000000C408C0000209800002084000020D1
:100BD00088000020B4000020A0000020F8000020C1
:100BE0007C00002094000020C0000020AC01002008
:100BF0003D0100200000000000C06840A801002066
:100C000020010020780000201C010020B4010020F9
:100C1000000048423C010020300100207FB5002444
:100C20001D490546009401940294039419480C61EF
:100C300008600C7681F820400126CE611748CC6010
:100C40008862084600F0BDF908B100F00FF92D1FC9
:100C5000082D09D2DFE805F0040613081517191B43
:100C6000042000E005200090CDE9016469460A48AF
:100C700000F0FEF8002801D000F0F8F87FBD062053
:100C8000F1E70820EFE70920EDE70A20EBE70B206A
:100C9000E9E70000002201400C0500200100000FE0
:100CA000464910B54A6822F440324A604A684368AF
:100CB0001A434A6001684A6822F480724A600168F7
:100CC0004A68036942EA03224A6001684A6822F0DE
:100CD00040724A6001684A6883681A434A60016842
:100CE0008A6822F400628A6001688A68C3681A43CD
:100CF0008A60816A6FF07062D14201688A6822F06E
:100D000070628A6001688A680CD0836A1A438A60BC
:100D100001688A6822F040528A6001688A68C36A62
:100D20001A4301E022F040528A6001688A6822F08A
:100D300002028A6001688A68037E42EA43028A608E
:100D400090F82010002901684A680FD042F4006230
:100D50004A6001684A6822F460424A6001684A6851
:100D6000174C436A04EB43331A4301E022F4006258
:100D70004A600168CA6A22F47002CA620168CA6ADB
:100D8000838B104C04EB03531A43CA6201688A68D0
:100D900022F400728A6001688A6890F8303042EA72
:100DA00043228A6001688A6822F480628A6001684E
:100DB0008A68406942EA8020886010BD00230140B3
:100DC00000E0FFFF0000F0FF10B50024FFF726FF52
:100DD0000B4800F02BFA0A490220C861084600F0CF
:100DE000F0F8074800F0ACF94FF4FA71044800F04D
:100DF00055F918B9024800F0E1F80446204610BD44
:100E00000C050020FEE7704703480168491C01609B
:100E10004FF4806000F0A2BA180000200E4910B50F
:100E2000002048600D48007818B10021022003F02E
:100E3000B7FD0B48007848B10A480021006804F06B
:100E4000F7FE09480021006804F0F2FEBDE81040FA
:100E50004FF4007000F082BA8403002009010020E2
:100E60000A010020340000203800002070470000F4
:100E700078B50024009490F83C20012A19D0012272
:100E800080F83C200A6807230568092A13D9EE6810
:100E90000A3A02EB420293409E43EE600B788A6866
:100EA0000A3B03EB43039A400368DD682A43DA6098
:100EB00010E0022078BD2E6902EB420293409E436F
:100EC0002E610B788A6803EB43039A4003681D691F
:100ED0002A431A614A681F23072A13D205686E6BDA
:100EE000521E02EB820293409E436E630B790A8886
:100EF0005B1E92B203EB83039A4003685D6B2A4347
:100F00005A6327E005680D2A12D22E6BD21F02EB1E
:100F1000820293409E432E630B790A88DB1F92B2B4
:100F200003EB83039A4003681D6B2A431A6311E0A5
:100F3000EE6A0D3A02EB820293409E43EE620B7919
:100F40000A880D3B92B203EB83039A400368DD6A83
:100F50002A43DA62164B0568144A9D4206D10D6891
:100F6000122D03D1556845F48005556005689D42F2
:100F700018D10B68102B01D0112B13D1536843F4F7
:100F800000035360096810290CD10A490A4A09680C
:100F9000B1FBF2F101EB8101490000E0491E009133
:100FA0000029FBD180F83C40002078BD002301409F
:100FB000002001402404002040420F000068C06C63
:100FC000704770B504004FF0000503D0206C002678
:100FD00010B107E0012070BD204600F01DF86664E6
:100FE00084F83C60206CC00610D4206C20F488503B
:100FF00040F0020020642046FFF752FE6664206C39
:1010000020F0020040F00100206400E0012584F897
:101010003C60284670BD000030B587B004461421FE
:101020006846FFF705F91949206888422BD118480E
:101030000025016841F480610160006800F480606F
:10104000059013481438016841F0200101600168DF
:1010500001F020010591016841F004010160006880
:10106000032400F0040005904FF4B9608DE83100CE
:101070006946084800F07EF9009469460648CDE9C3
:10108000014500F077F907B030BD000000220140B3
:101090004438024000140240000802402DE9F041AB
:1010A000044600680D4681684FF0000749050BD5DE
:1010B0008068C00508D5206C40F02000206484F8CA
:1010C0003C700120BDE8F08100F042FA06460FE0D6
:1010D000681C0DD025B100F03BFA801BA84207D94F
:1010E000206C40F00400206484F83C700320E9E7A1
:1010F000206800688007EBD521686FF01200086057
:10110000206C40F4007020642068816811F0405F1A
:1011100013D1217E89B9C16A11F4700F02D08068A1
:1011200040050AD4206C20F480702064206CC00438
:1011300003D4206C40F0010020640020C2E70000CE
:1011400018B50021009190F83C20012A07D0012217
:1011500080F83C2002689368DB0702D011E002208F
:1011600018BD936843F0010393602A4A2A4B126822
:10117000B2FBF3F202EB420200E0521E0092002AA0
:10118000FBD102689368DB0741D0036C40F2016435
:10119000A34343F48073036453685B0505D5036C74
:1011A00023F4005343F480530364036CDB0404D53D
:1011B000436C23F00603436400E0416480F83C1074
:1011C00016496FF02203136049680068CA06144983
:1011D00006D088421BD1816811F0405F13D016E021
:1011E0008842F8D00F4A904203D1D1F80423D206A6
:1011F000F1D00D4A90420AD1D1F8041301F01F0139
:101200001029E8D303E0816841F08041816000202B
:1012100018BD00002404002040420F0000230140BC
:1012200000200140002101400022014090F83C10C4
:1012300001290CD0012180F83C1001688A6822F055
:1012400001028A6001688968C90702D007E00220AC
:101250007047016C21F4885141F0010101640021C3
:1012600080F83C100846704770B54379012B1AD0BE
:10127000012646710223037105682C6840F6FE734F
:1012800093409C43D1E900310B43934023432B60AF
:1012900001680B68C0249440A3430B6006710021D1
:1012A0004171084670BD022070BD70B5040003D0C6
:1012B0002079002510B105E0012070BD6571204640
:1012C00000F008F802202071256101202071002023
:1012D00070BD000010B586B0044614216846FEF7C4
:1012E000A7FF1149206888421CD1104800210268DC
:1012F00042F000520260006800F0005005900B4878
:101300001038026842F001020260006800F001003B
:101310000590102000900320CDE9010169460448A2
:1013200000F028F806B010BD0074004040380240BC
:101330000000024070B5044600F00AF90546601C42
:1013400002D004480078044400F002F9401BA04297
:10135000FAD370BD1804002070470000044910B58E
:101360000A68024202D00860FFF7F6FF10BD0000D5
:10137000143C01402DE9F84F00224FF001080325ED
:101380004FF00F0E0B6808FA02F42340A3426ED10F
:101390004E68012E05D0022E03D0112E01D0122E40
:1013A00012D186684FEA420C05FA0CF7BE43CF68AB
:1013B00007FA0CF7374387604668A6430C79C4F3F5
:1013C0000014944034434460C668570005FA07FC93
:1013D0008C6826EA0C06BC403443C4604C68022C7E
:1013E00001D0122C13D1D40800EB8404A346D4F806
:1013F000209054074FEAD46A0EFA0AF629EA060941
:101400000E6906FA0AF646EA0906CBF82060066875
:101410000C7926EA0C0604F00304BC403443046053
:101420004C68E40065D5364C266846F48046266054
:10143000246822F0030604F480440094314C3444C0
:10144000A446D4F808489607370F0EFA07F6B443B7
:101450002D4EB04201D1002624E02C4EB04201D1E5
:1014600001261FE02A4EB04202D102261AE040E0D7
:10147000284EB04201D1032614E0274EB04201D1DC
:1014800004260FE0254EB04201D105260AE0244E85
:10149000B04201D1062605E0224EB04201D1072616
:1014A00000E00826BE402643CCF808681E4E34688B
:1014B0004F689C43FF0300D51C4334601A4C241D25
:1014C00026684F689E43BF0300D51E432660164E14
:1014D000083634684F689C43FF0200D51C433460D3
:1014E000114E0C3634684F689C43BF0200D51C4334
:1014F0003460521C102AFFF445AFBDE8F88F00009D
:101500004438024000300140000002400004024024
:1015100000080240000C024000100240001402408B
:1015200000180240001C0240003C014000690840D5
:1015300000D001207047426931EA020200D109045B
:10154000816170470AB1816170470904FBE70000BF
:1015500001488068704700001804002070B504003E
:1015600025D094F83D00002520B984F83C50204651
:1015700000F0B8F8242084F83D002068016821F0CC
:10158000010101602068016841F4004101602068A8
:10159000016821F40041016000F00EFA4D4A6168D3
:1015A000914201D84C4900E04C49884201D20120C7
:1015B00070BD4B492368B0FBF1F15E6826F03F0631
:1015C0000E435E606368934206D94FF496735943A5
:1015D0004FF47A73B1FBF3F12368491C1E6A26F0BD
:1015E0003F06314319626168914210D84900401E9C
:1015F000B0FBF1F2521CC2F30B02042A01D2042008
:1016000022E0B0FBF1F0401CC0F30B001CE0A2682C
:10161000F2B301EBC10303EB0116431EB3FBF6F378
:101620005B1C43F480431B0549D092B301EBC1021C
:1016300002EB0111401EB0FBF1F0401CC0F30B00A7
:1016400040F4804040F400402168CA694CF6FF73C2
:101650009A431043C861D4E9071001432068026827
:1016600022F0C00211430160D4E903010143206864
:10167000826848F2FF339A4311438160D4E905013F
:1016800008432168CA6822F0FF021043C86001E0E5
:101690000EE016E02068016841F001010160256458
:1016A000202084F83D00256384F83E50002070BD62
:1016B00001EB4106431EB3FBF6F35B1CB3E70120CD
:1016C000C2E701EB4101401EB0FBF1F0401CC0F34A
:1016D0000B00B7E7A086010080841E0000093D00D2
:1016E00040420F0010B586B0044614216846FEF74C
:1016F0009FFD14492068884221D11348016841F0B8
:10170000020101600068694600F0020005904FF494
:10171000107000901220019001200290032003908D
:10172000042004900948FFF725FE0748103001689F
:1017300041F400110160006800F40010059006B04B
:1017400010BD000000540040303802400004024048
:1017500002488168027811448160704718040020B3
:101760000B4810B5016841F400710160016841F453
:1017700080610160016841F480710160032000F024
:101780006FF8002000F006F800F024F8002010BDEB
:10179000003C024070B50D4D04464FF47A71287834
:1017A000B1FBF0F00A490968B1FBF0F000F09AFBD8
:1017B00048B9102C07D200222146501E00F030F804
:1017C00000206C6070BD012070BD00001804002076
:1017D000240400200A4808B5016841F480410160F2
:1017E000006800F4804000900548001F016841F047
:1017F00080510160006800F08050009008BD00003A
:1018000044380240002809DB00F01F02012191400A
:101810004009800000F1E020C0F80011704700008E
:10182000F0B40E4B1B680C46C3F30223C3F107054B
:10183000042D00D90425191D072901D2002300E039
:10184000DB1E012606FA05F1491E214099409E4003
:10185000761E16403143F0BC02F08FBF0CED00E065
:10186000064900F0070208684FF6FF03184040EAF7
:101870000220034A10430860704700000CED00E0AE
:101880000000FA052DE9F0470E46050065D0DFF8A7
:101890001481D8F80000F7B200F00F00B04207D270
:1018A00088F80070D8F8000000F00F00B04254D162
:1018B00028683D4C810712D5400703D5206840F4C5
:1018C000E05020602878000703D5206840F460408D
:1018D00020602068A96820F0F00008432060287884
:1018E000C0072DD0304968680839012812D0022875
:1018F00013D0032811D00968890700292DDA21683F
:1019000021F0030101432160FFF722FE814641F2ED
:10191000883A0EE009688903EFE709688901ECE776
:10192000FFF716FEA0EB0901514502D90320BDE8DF
:10193000F0872068696800F00C00B0EB810FEFD1F0
:10194000D8F80010404601F00F01B14207D90770E6
:10195000006800F00F00B04201D00120E7E72878CE
:10196000400705D52068E96820F4E050084320606E
:101970002878000706D52068296920F4604040EAED
:10198000C100206000F038F82168084AC1F3031153
:10199000515CC8400649086006480068FFF7FAFE37
:1019A0000020C4E7003C024008380240686000089C
:1019B000240400201C04002004480549006809682C
:1019C000044AC1F38221515CC840704724040020BE
:1019D0000838024078600008044805490068096832
:1019E000044AC1F34231515CC840704724040020CE
:1019F0000838024078600008154810B5006810F0FB
:101A00000C02144813D04110042A0FD0082A0ED11A
:101A10000F4C241F2268236802F03F025B0207D5A7
:101A20002068C0F38810A0FB010106E0084610BD45
:101A30002168C1F38811A1FB00010023FEF7C0FB60
:101A40002168C1F30141491C4900B0FBF1F010BD10
:101A5000083802400024F4002DE9F84F04006ED04D
:101A60002078DFF83C93C007A9F104054AD009F1BA
:101A700004000168C1F38101012908D00068C0F3A6
:101A8000810002280AD1D9F80000400206D5286852
:101A9000800337D560680028E1D033E06068B0F596
:101AA000803F10D0B0F5A02F286810D020F48030EF
:101AB0002860286820F4802028606068A8B1FFF7BB
:101AC00047FD06460DE0286840F48030F4E740F416
:101AD00080202860F7E700BFFFF73AFD801B6428ED
:101AE00073D828688003F7D50CE0FFF731FD064670
:101AF00005E000BFFFF72CFD801B6428F0D82868A4
:101B00008003F7D42078DFF89C8280074FF0000A2A
:101B10003ED5A348001D016811F00C0F08D00068E5
:101B2000C0F3810002280BD1D9F80000400207D48D
:101B30002868800716D5E068012800D112E02BE163
:101B4000E068B8B10120C8F80000FFF701FD0646C3
:101B500005E000BFFFF7FCFC801B0228C0D8286806
:101B60008007F7D52868216920F0F80040EAC10015
:101B700028600DE0C8F800A0FFF7EAFC064604E084
:101B8000FFF7E6FC801B02281FD828688007F7D4DF
:101B90002078000722D5824E83486169703671B182
:101BA00001210160FFF7D4FC074604E0FFF7D0FCF9
:101BB000C01B022809D830688007F7D50EE0C0F8AE
:101BC00000A0FFF7C5FC074605E082E0FFF7C0FC78
:101BD000C01B02287DD830688007F7D420784007E2
:101BE00068D5DFF8BCB100270BF13C0BDBF8000037
:101BF000C0000BD4DBF8001041F08051CBF800108E
:101C0000DBF80000012700F080500090674E30683C
:101C1000C00510D4306840F480703060FFF798FC45
:101C2000009005E0FFF794FC0099401A022850D874
:101C30003068C005F6D55A4EA0686C3601280FD022
:101C40000528306810D020F001003060306820F0A6
:101C500004003060A068B8B1FFF77AFC00900FE094
:101C6000306840F00100F4E740F004003060F7E72E
:101C7000FFF76EFC0099411A41F28830814266D824
:101C800030688007F4D50EE0FFF762FC009007E0B3
:101C9000FFF75EFC0099411A41F28830814256D824
:101CA00030688007F4D42FB1DBF8001021F08051A8
:101CB000CBF80010A069C8B33949091D0968C1F300
:101CC000810102294AD00228504607D0C8F8600096
:101CD00000E03CE0FFF73CFC04463BE04746C8F828
:101CE0006000FFF735FC064605E000BFFFF730FC5B
:101CF000801B02282BD828688001F7D4D4E907017B
:101D00000843A16A2A4A490802EB0141626A41EA92
:101D10008211084394F82C1040EA0161C9F80010C0
:101D200001203866FFF714FC044606E036E000BFE9
:101D3000FFF70EFC001B022809D828688001F7D5A0
:101D40002CE000BFFFF704FC001B022802D903208F
:101D5000BDE8F88F28688001F4D41FE00128F7D08F
:101D6000D9F80000E26900F48001914214D1226A9E
:101D700000F03F0191420FD147F6C071626A014005
:101D8000914209D1A26A00F44031914204D1E16A42
:101D900000F07060884201D00120D9E70020D7E729
:101DA0000438024000004742800E47420070004065
:101DB0000000FFFF70B5040005D00025A56294F86F
:101DC000510010B106E0012070BD84F8505020464B
:101DD00000F030F8022084F851002068016821F0FA
:101DE00040010160D4E901010843D4E90312114321
:101DF000084361690843218B01F400710843E169DC
:101E00000843216A0843A16A084321680860A06961
:101E1000042101EA1040616A084321684860206893
:101E2000C16921F40061C1616565012084F8510038
:101E3000002070BD70B586B0044614216846FEF7D8
:101E4000F7F9234E226800212248022303240525A6
:101E5000B2421AD11F4A1432166846F480561660F0
:101E6000126802F480520592026842F00102026098
:101E7000006802AA00F00100059082E83200E0202C
:101E8000CDE90003694614481DE0144EB2421CD14E
:101E9000104A1032166846F480461660126802F442
:101EA00080420592026842F002020260006802AAC3
:101EB00000F00200059082E832004FF47040CDE956
:101EC000000369460648FFF755FA06B070BD0000EA
:101ED000003001403038024000000240003800402D
:101EE0000004024010B5401EB0F1807F01D30120F4
:101EF00010BD4FF0E02460610F21601702F03DFC3F
:101F00000020A06107202061002010BD70477047AD
:101F100070B590F83C20012A32D0012480F83C4072
:101F2000022280F83D2003685A689D6822F07006FE
:101F30000A6832435A60134B02689A4214D0B2F1D5
:101F4000804F11D0104B9A420ED0104B9A420BD0BA
:101F50000F4B9A4208D00F4B9A4205D00E4B9A4233
:101F600002D00E4B9A4204D1496825F080031943F0
:101F7000916080F83D40002180F83C10084670BD1B
:101F8000022070BD00000140000400400008004035
:101F9000000C0040000401400040014000180040D7
:101FA00010B5040003D094F83D0010B107E0012003
:101FB00010BD002084F83C00204600F00DF80220FF
:101FC00084F83D00211D206802F048FA012084F8C1
:101FD0003D00002010BD000008B501683048814276
:101FE0000FD13048016841F0010101600068002212
:101FF00000F00100009001211920FFF711FC1920C9
:1020000048E02848001FB1F1804F11D0264A914284
:102010001DD1016841F0020101600068002200F05A
:102020000200009001211D20FFF7FAFB1D2031E086
:10203000016841F0010101600068002200F0010028
:10204000009001211C20FFF7EBFB1C2022E0174A27
:1020500091420ED1016841F0040101600068002244
:1020600000F00400009001211E20FFF7D9FB1E2084
:1020700010E00F4A914211D1016841F04001016026
:102080000068002200F04000009001212B20FFF7A3
:10209000C7FB2B20BDE80840FFF7B4BB08BD00001C
:1020A00000000140443802400004004000080040A5
:1020B000001800400168CA6842F00102CA60006866
:1020C000816801F00701062903D0016841F0010190
:1020D00001600020704770B5044690F83C0001286C
:1020E00017D0012584F83C50022084F83D00206878
:1020F000826822F0770222F47F42826008685028CA
:1021000030D00DDC20284DD005DC98B310283BD111
:1021100048E0022070BD302844D0402834D139E056
:10212000602828D0702806D0B0F5805F2CD0B0F59C
:10213000005F29D10AE0CB68D1E90121206802F0D3
:10214000F1F92068816841F0770109E0CB68D1E9B5
:102150000121206802F0E6F92068816841F480419D
:10216000816011E0CA684968206802F0EDF95021E9
:10217000206807E016E0CA684968206802F0F5F9AF
:102180006021206802F0D8F984F83D50002084F8DE
:102190003C0070BDCA684968206802F0D5F940214A
:1021A0002068EFE7226801461046EBE7704770B5FC
:1021B0000446006801694FF00005C943890715D43A
:1021C000C168C943890711D4E91E01610120207744
:1021D000206880698007204602D0FFF7E7FF04E00F
:1021E00000F098F8204600F096F8257720680169FD
:1021F000C943490717D4C168C943490713D46FF0CD
:1022000004010161022020772068806910F4407F7A
:10221000204602D0FFF7CAFF04E000F07BF820461A
:1022200000F079F8257720680169C943090716D4B9
:10223000C168C943090712D46FF008010161042085
:1022400020772068C0698007204602D0FFF7AEFFE4
:1022500004E000F05FF8204600F05DF82577206884
:102260000169C943C90617D4C168C943C90613D453
:102270006FF010010161082020772068C06910F418
:10228000407F204602D0FFF791FF04E000F042F8C3
:10229000204600F040F8257720680169C943C90746
:1022A00008D1C168C943C90704D1891E016120460C
:1022B00000F032F820680169C943090609D4C168F1
:1022C000C943090605D46FF0800101612046FFF77C
:1022D0001DFE20680169C943490609D4C168C94384
:1022E000490605D46FF040010161204600F015F861
:1022F00020680169C94389060BD4C168C9438906AE
:1023000007D46FF0200101612046BDE87040FFF75F
:10231000FEBD70BD704770477047704770B50400D0
:1023200004D094F83900002510B106E0012070BDFA
:1023300084F83850204600F023F8242084F839002F
:102340002068C16821F40051C160204602F020F9E4
:102350002068016921F4904101612068416921F000
:102360002A0141612068C16841F40051C160E56300
:10237000202084F8390084F83A00002070BD000065
:102380002DE9F04786B0044614216846FDF750FF5A
:102390006249614F23680024604A103903250226F0
:1023A0005F484FF00809BB4217D1136843F400237C
:1023B0001360126802F4002205920A6842F00102DA
:1023C0000A60096802AB01F001010591CDE90056F0
:1023D000012183E82202694637E0DFF84881DFF80F
:1023E0003CC10727DFF840A10CF1040C434531D173
:1023F000DCF8002042F01002CCF80020DCF80020CD
:1024000002F0100205920A6842F001020A600A68AE
:1024100002F0010205920A6842F002020A600968AD
:1024200002AA01F0020105914FF40071CDE90016F6
:1024300082E8B0006946FEF79DFF8020CDE90006E6
:1024400002AA694682E8B0005046FEF793FF06B044
:10245000BDE8F087DFF8D480434521D1136843F409
:1024600000331360126802F4003205920A6842F0E9
:1024700001020A60096802AB01F0010105910C211B
:10248000CDE9001683E8B0006946FEF773FF00222D
:1024900011462620FFF7C4F92620FFF7B3F9D6E747
:1024A0002348834219D1106840F4802010601068DE
:1024B00000F480200590086840F002000860086879
:1024C00002AB00F0020005904FF44060CDE9000639
:1024D00083E8B00069465046B7E716488342B6D154
:1024E000DCF8000040F02000CCF80000DCF8000030
:1024F00000F020000590086840F0040008600868BB
:1025000002AA00F004000590C020CDE9000682E890
:1025100030026946084898E7004C004040380240C5
:10252000000002400010014000040240004400404E
:102530000048004000140140000802402DE9F84323
:10254000044690F839001F4616460D46202850D103
:10255000B5B1AEB194F8380001284AD0012084F812
:1025600038004FF00008C4F83C80212084F839007E
:10257000FEF7EEFFA6848146E68484F8388026E0E4
:102580000120BDE8F883E08C401EE084A0684B4643
:10259000B0F5805F4FF000024FF0800120460097B9
:1025A00003D002F089F8E8B90DE002F085F8C8B967
:1025B00028882168C0F308004860206908B16D1CB4
:1025C00005E0AD1C03E0216815F8010B4860E08CC4
:1025D0000028D8D14B46002240212046009702F027
:1025E0006BF808B10320CCE7202084F839000020E4
:1025F000C7E70220C5E7FEE77FB500241248009434
:10260000019402940F49039401604FF44031C0E9F2
:1026100001140461047680F820400C49C0E90A14D2
:102620000125C561C46080F830404561FEF7C9FCF2
:102630000420CDE90005694602940348FEF718FC22
:102640007FBD0000002201400C0500200100000FAA
:102650002DE9F04F87B014216846FDF7E9FD724877
:102660000024016841F010010160016801F01001CF
:102670000591016841F020010160016801F020012D
:102680000591016841F004010160016801F0040155
:102690000591016841F001010160016801F001014B
:1026A0000591016841F002010160016801F0020139
:1026B0000591016841F008010160016801F008011D
:1026C0000591016841F0400101600068DFF85C910C
:1026D00000F0400048F6F0350590002229464846B3
:1026E000FEF730FFDFF848A143F60306002231462B
:1026F0005046FEF727FFDFF83CB100222021584664
:10270000FEF720FF4FF44C47002239464A48FEF7B7
:1027100019FF002247F2FC014848FEF713FF4FF46F
:102720008078002241464648FEF70CFF00950125BF
:10273000CDE90154694648460394FEF71BFE009616
:10274000CDE90154694650460394FEF713FE10206C
:10275000CDE90004694658460294FEF70BFE20209E
:102760000090CDE90154694658460394FEF702FEF5
:102770000097CDE9015469462F480394FEF7FAFD0E
:1027800041F2FC000090CDE9015469462B480394C6
:10279000FEF7F0FD4FF41060CDE9000469462748CC
:1027A0000294FEF7E7FDCDF80080CDE901546946BB
:1027B00023480394FEF7DEFD680200902148CDE92E
:1027C000010469461D48FEF7D5FDA80200901E4889
:1027D000CDE9010469461948FEF7CCFD6803CDE94F
:1027E00000050320CDE9025069461448FEF7C2FDFA
:1027F000A803CDE90005CDE9025469460F48FEF76C
:10280000B9FD002201211720FFF70AF81720FEF773
:10281000F9FF002201212820FFF702F82820FEF707
:10282000F1FF07B0BDE8F08F3038024000100240E1
:102830000014024000080240000C02400018024050
:102840000000024000002110000011100B480A494E
:102850004FF4007201604FF4827141600021816089
:10286000C1600161C0E90512C1610162416281621A
:102870000A21C162FFF79EBA00300140BC0500206A
:102880000A48094901604FF482714160002181606A
:10289000C160016141618161C16101624162816226
:1028A0000A21C162FFF786BA0038004014060020F2
:1028B00010B586B000241348009401940294039448
:1028C00004940F49059401604FF4C871C0E90114E4
:1028D0006421C0E9031444618461FFF761FB4FF494
:1028E0008050009069460748FFF7F5FB2020CDE9AE
:1028F000040404A90348FFF70BFB06B010BD000059
:10290000000001406C06002010B586B0002412487B
:10291000009401940294039404944FF08041059430
:10292000016041F6DF31C0E901146421C0E90314FC
:102930008461FFF735FB4FF48050009069460648EC
:10294000FFF7C9FB2020CDE9040404A90248FFF7E2
:10295000DFFA06B010BD0000AC06002010B586B04E
:1029600000241248009401940294039404940E49A4
:102970000594016041F6DF31C0E901146421C0E92A
:1029800003148461FFF70CFB4FF4805000906946FC
:102990000648FFF7A0FB2020CDE9040404A9034862
:1029A000FFF7B6FA06B010BD00040040EC060020A8
:1029B00010B586B000241248009401940294039448
:1029C00004940E49059401604FF4E151C0E90114EB
:1029D0000A21C0E903148461FFF7E2FA4FF4805042
:1029E000009069460648FFF776FB2020CDE90404F5
:1029F00004A90348FFF78CFA06B010BD0008004098
:102A00002C070020FEE700002DE9F04FE84841F2D6
:102A100070712DED0A8B93B00068E64E91FBF0F1DA
:102A2000E548B16090ED000ADFEDE40A20EE200AEF
:102A3000BDEEC00A10EE100A0D1AE1497561F06092
:102A40000968804601EB81018900F161401A0B9110
:102A50003061DC4800680C90FDF77DFD9FEDDAAB3E
:102A600053EC1A2BFDF708FD9FEDD91B53EC112BEE
:102A7000FDF790FCFDF780FD0746F063D64800683F
:102A8000FDF769FD9FEDD5BB53EC1B2BFDF7F4FC67
:102A90009FEDCF1B53EC112BFDF77CFCFDF76CFD7C
:102AA0007063D04800680390FDF755FD9FEDCB1B88
:102AB00053EC112BFDF7E0FC9FEDC51B53EC112BE4
:102AC000FDF768FCFDF758FDC74908600D90C74841
:102AD00000688146FDF73FFD9FEDC01B53EC112BB5
:102AE000FDF7CAFC9FEDBA1B53EC112BFDF752FC0E
:102AF000FDF742FDDFF8F8A20446CAF80000706D49
:102B00008346FDF758FD9FEDBBCB53EC1C2BFDF727
:102B10003BFCFDF731FD08EE900AB064B748006851
:102B20000490FDF718FD9FEDB61B53EC112BFDF73C
:102B300031FC41EC190B5846FDF73DFD53EC1C2BC5
:102B4000FDF722FC53EC192BFDF71EFCFDF714FDDD
:102B5000706496ED169A08EE100A19EE100AFDF749
:102B60002AFD9FEDA91B53EC112BFDF76CFBFDF724
:102B700003FDB1EE000AF06439EE000A0890A64A9F
:102B80004FF0010BBDEEC00A10EE100A3065079041
:102B90009F48126801689F4806680C980E92101AA8
:102BA00064225043012933D0002970D1814F9B49C1
:102BB0007E6291ED000A9A49B1EE409A87ED0C9A37
:102BC000096849428846F962FDF7C5FC53EC1A2BA7
:102BD000FDF752FCFDF7D0FC3860A6EB090064213C
:102BE0004843FDF7B8FC53EC1B2BFDF745FCFDF704
:102BF000C3FCB8638B49049A8C4F0B688A49012A3D
:102C000069DDDDF81CC0E04577DCB8EEC80ABCE041
:102C10008749DFF8A0A10968CAF820108946069103
:102C20008449CAF8246055460968CAF82810FDF797
:102C300092FC53EC1A2BFDF71FFCFDF79DFC06469A
:102C4000286003986421A9EB00004843FDF783FC4A
:102C500053EC1B2BFDF710FCFDF78EFC6860764AE9
:102C6000764D014610780C9B2D68DFF8D4918BB31C
:102C700000283DD10C980E9B3238834202DDC9F802
:102C8000001033E05446BE4202DD206C02E02FE02B
:102C9000B81B2064B84200DD2764206CFDF75BFCA4
:102CA0009FED681B53EC112BFDF774FBFDF764FCE3
:102CB00090FBF8F15B4AC9F80010491BC2F800808C
:102CC0000B9891FBF0F0A06110B95846C4F818B009
:102CD00001462AE000E051E0002809D1039B069E4E
:102CE0005B1E50469E4209DDC9F8004082F800B0E4
:102CF00013B0BDEC0A8BBDE8F08F4BE00D9B3A4A58
:102D0000994201DD116801E0591A11604900454BF3
:102D1000C9F800104A1BC3F800800B9992FBF1F12F
:102D2000816111B95946C0F818B048480160DFE721
:102D3000DAF8000001E0201A1060404A10605819CB
:102D4000401C0D60386007E0DAF8000001E0201A4E
:102D500010603A4A10600D603D493E4A00200B78F1
:102D600003B3A9F102039E4201DC1070087009F15F
:102D700002039E42BCDD82F800B017E00ED1DDF800
:102D800020C0E04506DCB8EEE80AB4EEC09AF1EEE9
:102D900010FA03D25246A042CDDDC9E75246A04206
:102DA000D5DDD1E7B9EB460FA2DB107008709FE7C5
:102DB00070010020BC030020B80100200000C842C0
:102DC0006C010020880100200000000000E0954018
:102DD00000000000000059408401002000000000B5
:102DE00000804B40640100204C020020680100205C
:102DF00050020020333333333333D33F800100207C
:102E00009A9999999999B93F0000000000000C40E7
:102E10008C00002098000020C4000020B400002096
:102E2000A00000208400002088000020F80000207E
:102E3000940000209C0000203D0100207C00002028
:102E4000780000200000000000C0684080000020E2
:102E50003C01002030010020704700002DE9F04FB8
:102E6000F14841F270712DED0A8B87B0D0F800B0B7
:102E7000DFF8B89391FBFBF4C9F85840D9F8080083
:102E80004D466043FDF767FB9FEDE91B53EC112BAB
:102E9000FDF7F2FAFDF770FBE8650190201A28664D
:102EA000E548006800EB80008000E8600590E3489A
:102EB00000688246FDF74FFB9FEDE1BB53EC1B2BF7
:102EC000FDF7DAFA9FEDDA1B53EC112BFDF762FAEE
:102ED000FDF752FB04462865DB480068FDF73BFB25
:102EE0009FEDDAAB53EC1A2BFDF7C6FA9FEDD01B22
:102EF00053EC112BFDF74EFAFDF73EFBE862D54887
:102F000000680390FDF727FB9FEDD01B53EC112BBE
:102F1000FDF7B2FA9FEDC61B53EC112BFDF73AFA01
:102F2000FDF72AFB07462862CB480068FDF713FB34
:102F30009FEDC61B53EC112BFDF79EFA9FEDBC1BBA
:102F400053EC112BFDF726FAFDF716FB0646A86297
:102F5000286C8046FDF72FFB9FEDC0CB53EC1C2B5C
:102F6000FDF712FAFDF708FB08EE900A6863BD480A
:102F700000680090FDF7EFFA9FEDBB1B53EC112B9F
:102F8000FDF708FA41EC190B4046FDF714FB53EC32
:102F90001C2BFDF7F9F953EC192BFDF7F5F9FDF7AB
:102FA000EBFA286395ED119A08EE100A19EE100A53
:102FB000FDF701FB9FEDAE1B53EC112BFDF743F921
:102FC000FDF7DAFAB1EE000AA86339EE000AAA4862
:102FD000AB494FF00008BDEEC00A85ED0F0A03684B
:102FE000A648A84D002B02687EDDA7480168484628
:102FF00001610291A5494261A64A09688161A4481C
:103000008946006800901368A0EB030000FB01F004
:103010004FF0640190FBF1F19F480368194401608F
:103020000491009810608B48974A5FEA0B01006892
:103030001268A2EB00004FF0640200FB02F0069061
:103040008F48D0F800B022D004986421A0EB0A0089
:103050004843FDF780FA53EC1B2BFDF70DFAFDF703
:103060008BFA72498146C8640698FDF774FA53ECEE
:103070001A2BFDF701FAFDF77FFA6C49BAF1000F40
:103080004862014669D00498504541DB3EE0674CF8
:103090000698FDF760FA53EC1A2BFDF7EDF9FDF7F2
:1030A0006BFA60620499514530DCDDE9021291420D
:1030B0002CDCB84201DD206A01E0381A2062A0EB66
:1030C0000B012860059891FBF0F0606008B90120C1
:1030D000606001467148016071490868814508DDFA
:1030E000C1F8009007B000E052E0BDEC0A8BBDE8EB
:1030F000F08F0028F6DDA0EB09016422514391FB1B
:10310000F0F06849096849428842EBDB2E603BE0F9
:10311000464EA14501DD706D02E0A4EB090070652B
:10312000A04200DD7465706DFDF715FA9FED5E1B22
:1031300053EC112BFDF72EF9FDF71EFA316890FBC9
:10314000F1F0A0EB0B012860059891FBF0F07060A6
:1031500008B901207060014610E03448B94201DD31
:10316000016A01E0791A0162A1EB0B02296005995D
:1031700092FBF1F1416009B90121416047480160CA
:10318000DDE900018842ADDD494981F80080A9E709
:10319000A8D1434B40464C46C3F80080C9F81420E0
:1031A000444A1268C9F81C20434A92ED000AB1EE65
:1031B000400A89ED120A009A012A0AD0F8EEC80ADC
:1031C000B4EEE00AF1EE10FA06D2012060662F603C
:1031D00004E0F8EEE80AF3E760660E603449BBF1FC
:1031E000000F0870354800680CDD3549096801EBAF
:1031F000C10202EB0111334A1268B2EB810F01DD0B
:10320000616E39B107B00021BDEC0A8BBDE8F04F0B
:1032100002F00EBD012102F00BFD206A2449286056
:10322000012008705EE70000500100200403002028
:10323000000000000000594048010020600100200B
:103240000000000000E09540580100200000000050
:1032500000804B40400100204401002033333333D1
:103260003333D33F4C0100209A9999999999B93FEA
:103270000000000000000C408C000020980000209E
:103280007C00002078000020940000209C0000209A
:10329000F8000020F4000020CC0000208000002076
:1032A000100100205C0100200000000000C0684008
:1032B00014010020A0000020B400002030000020F5
:1032C0005401002000010020704700002DE9F04F5C
:1032D000FD4841F270712DED0A8B87B00068DFF870
:1032E000ECA391FBF0F0FA49CAF81000554691EDB5
:1032F000000ADFEDF80A41F27071642220EE200A24
:10330000BDEEC00A10EE104A001BCAE90540F248A3
:1033100010EE104A006891FBF0F000EB800109010B
:1033200091FBF2F1CAF800006960061B0091EB48BE
:10333000C5E9024600680190FDF70DF99FEDE89B95
:1033400053EC192BFDF798F89FEDE78B53EC182BF6
:10335000FDF720F8FDF710F98146E862E4480068BF
:103360000690FDF7F8F853EC192BFDF785F853ECB0
:10337000182BFDF70FF8FDF7FFF807466863DD48E7
:1033800000680290FDF7E7F89FEDDBBB53EC1B2BC9
:10339000FDF772F853EC182BFCF7FCFFFDF7ECF887
:1033A0008046E865286D8346FDF705F99FEDD4CB8F
:1033B00053EC1C2BFCF747FFFDF7DEF80AEE100A72
:1033C0006864D14800680590FDF7C5F89FEDCF1BF4
:1033D00053EC112BFCF7DEFF41EC180B5846FDF7C0
:1033E000EAF853EC1C2BFCF72EFF53EC182BFCF7E0
:1033F0002AFFFDF7C1F8286495ED158A08EE900ABA
:1034000018EE100AFDF7D7F89FEDC21B53EC112BF5
:10341000FCF719FFFDF7B0F8B1EE000AA86438EE2A
:10342000000A04904FF0010BBDEEC00A10EE100A26
:10343000E8640390B948BA4D006801284DD00028CF
:103440007ED1B848B8490068CAF8200091ED008ADA
:10345000B6498AED168A096849428846CAF8281092
:103460000699401A64214843FDF775F853EC192B6F
:10347000FDF702F8FDF780F8AD49CAF83C00AE4A06
:103480000B68AC49DFF8B4920B60059901297CDD2B
:10349000C446DDF80C805146C44506DCB8EEE80AA7
:1034A000B4EEC08AF1EE10FA70DDC2F800B0DDF8BB
:1034B00000C0DFF87C8263450EDDB84201DC381ABB
:1034C00048639F482E600460DAF83410A019401C4D
:1034D000C9F80010C8F80000B0E09A487B490068BD
:1034E000C8610090984801687848416297480299FD
:1034F000D0F800A0AAEB010064214843FDF72BF8A7
:1035000053EC1B2BFCF7B8FFFDF736F86F49074665
:103510000863DDE90001401A64214843FDF71BF808
:1035200053EC192BFCF7A8FFFDF726F86749714A01
:10353000886387491268D1F800C086490B7800E09B
:103540002DE0323ABCF1000F21D0002B27D192455B
:1035500002DD8148076020E05C48474502DCA8EBBB
:1035600007010166026E424501DDC0F86080006E11
:10357000FCF7F1FF9FED791B53EC112BFCF70AFFD1
:10358000FCF7FAFF90FBF4F115E028E019E0002BBE
:1035900005D1924508DD704A106081F800B007B08F
:1035A000BDEC0A8BBDE8F08F4849484502DCA9EB29
:1035B0000000C862C96A68480160614804602E6002
:1035C000EDE700231360B84201DC381A4863DAF8EB
:1035D00034105B48C9F800102E6004602EE02DD135
:1035E000C446DDF810805146C44506DCB8EECA0A70
:1035F000B4EEC08AF1EE10FA13DDC2F800B0DDF8C7
:1036000000C0DFF82C81634518DDB84201DC381AB0
:1036100048634B482E600460A019401CC8F80000A5
:1036200008E000231360B84201DC381A48634448BC
:103630002E600460DAF83410C9F8001049480168B7
:1036400001EBC10000EB0111474803684748B3EBA9
:10365000810F006801DD1168F9B1002102F0E8FA7C
:103660004349444B087870B3214ADAF82050504659
:103670001268941EA54205DC466B0024C9F8006060
:103680001C700C70921C954289DDDAF83420C9F860
:10369000002083F800B000207CE0012102F0C8FA8D
:1036A0002D49DAF85C202A4B0A60254ADAF8141012
:1036B0001160DAF81800286001441D48491CC3F85D
:1036C00000B00160CCE757E0E00100205802002084
:1036D000C00100200000C842CC010020C40100202D
:1036E0000000000000804B40000000000000594036
:1036F000C8010020E80100200000000000E0954023
:10370000333333333333D33FDC0100209A99999913
:103710009999B93F0000000000000C408C00002087
:103720008800002098000020B4000020A0000020A5
:10373000F8000020F4000020280100207C00002078
:1037400084000020940000209C000020C80000207D
:103750002C0100203D010020780000200000000026
:1037600000C06840E4010020040100203000002077
:103770003C010020300100200748DAF820400268B0
:10378000B2EB440FFFF61CAFDAF834200020C9F882
:1037900000201870087002E7C801002005494FF4A6
:1037A000FA7008600449086004490120086004496F
:1037B0000860704784000020880000207800002006
:1037C0007C0000207047FDF7C3BF000030B593B008
:1037D00030216846FCF72CFD14210CA8FCF728FDCD
:1037E00018480025016841F080510160006800F030
:1037F000805011901448016841F4804101600068D4
:10380000022400F4804011900120039010200490C5
:10381000009406940820CDE907504820CDE909041A
:1038200003200B906846FEF717F90CA90F2081E8DA
:103830003100E0020F90109002210CA8FEF722F850
:1038400013B030BD403802400070004005480168A8
:1038500041F47001016003494FF000608039086055
:103860007047000088ED00E00D4910B50868401C65
:103870000860642801D100200860024609484FF41E
:103880000061036808489A4201DA012200E0002240
:10389000FDF758FEBDE810400448FEF788BC000064
:1038A0008403002004000020001002406C06002069
:1038B0000148FEF77CBC0000AC0600202DE9F05F5B
:1038C000FF48DFF80094DFF800A4DFF800B400241C
:1038D0002DED028B0178052979D0FD4DFD4FFE4A73
:1038E0002868FE4E401C2860D7F800C01268624469
:1038F000824237DCFA480268521C0260F9480460D0
:10390000F948CAF80040CBF800400460F748C9F80D
:1039100000400460F6480460F6480460F64804601D
:10392000F6480460F6480460F6480460F64804600F
:10393000F6480460F648046001203070F54A1070C3
:10394000F5482C60F54A03685B1C0360126802F1BD
:103950006408434500DD04600368934202DDF04AD9
:1039600014700460B8462868EE4F604511DCEE48DC
:103970003C600460ED480268ED48C26031B1012945
:1039800004D001225102EB48FDF7DCFDEA49012099
:1039900008602968D8F80000814257DDE7480470C4
:1039A000D2480460D3480460D4480460D548046019
:1039B000E3480168DE48C160DF4804603868401CA5
:1039C0003860D9480168491C016042E0FFE7D84DE2
:1039D000DC4E2869232809DD00224FF40071D54808
:1039E0002C61FDF7AFFD307828B921E03178C9B1FD
:1039F000CD482C610460CD480068E860B04800788C
:103A000030B1012804D001225102CA48FDF79AFDC5
:103A1000AF480168491C0160B14801210460C648F3
:103A2000016020E0401C2861BF480168491C01601A
:103A3000A748AB4904606FF063000860C0480068A5
:103A4000E860BD480460C9F800400CE0BA4800686E
:103A500048B9307800287ED05FF000024FF4007142
:103A6000B448FDF76FFDB24FF868002804DB642806
:103A700000DD642002F0E8F8B34DFC61286801F035
:103A80009BFFBDEEC00AF96910EE100A0844F86108
:103A9000286801F091FFBDEEC00AF96910EE100A26
:103AA0000844F861286801F087FFBDEEC00AF96993
:103AB00010EE100A0844F861286801F07DFFBDEEA1
:103AC000C00AF96910EE100A0844F861286801F08C
:103AD00073FFBDEEC00AF96910EE100A0844F861E0
:103AE000286801F069FFBDEEC00AF96910EE100AFE
:103AF0000844F861286801F05FFFBDEEC00AF9696B
:103B000010EE100A0844F861286801F055FFBDEE78
:103B1000C00AF96910EE100A0844F861286801F03B
:103B20004BFFBDEEC00AF96910EE100A0844F861B7
:103B3000286801F041FFBDEEC00AF969642610EE65
:103B4000100ADFF808820844F861002805DCC8F88C
:103B5000004009E0FFE7012280E700EB80008000E1
:103B600090FBF6F1C8F80010794DFC61286801F06F
:103B700023FFBDEEC00AF96910EE100A0844F8618F
:103B8000286801F019FFBDEEC00AF96910EE100AAD
:103B90000844F861286801F00FFFBDEEC00AF9691A
:103BA00010EE100A0844F861286801F005FFBDEE28
:103BB000C00AF96910EE100A0844F861286801F09B
:103BC000FBFEBDEEC00AF96910EE100A0844F86168
:103BD000286801F0F1FEBDEEC00AF96910EE100A86
:103BE0000844F861286801F0E7FEBDEEC00AF969F3
:103BF00010EE100A0844F861286801F0DDFEBDEE01
:103C0000C00AF96910EE100A0844F861286801F04A
:103C1000D3FEBDEEC00AF96910EE100A0844F8613F
:103C2000286801F0C9FEBDEEC00AF96910EE100A5D
:103C30000844F861002802DC4648046007E0572188
:103C400048434FF47A7190FBF1F1424801609FEDD7
:103C5000428A424D87ED068A286801F0ADFED7ED15
:103C6000060A30EE200A87ED060A286801F0A4FE55
:103C7000D7ED060A30EE200A87ED060A286801F023
:103C80009BFED7ED060A30EE200A87ED060A28686B
:103C900001F092FED7ED060A30EE200A87ED060A03
:103CA000286801F089FED7ED060A30EE200A87ED7C
:103CB000060A286801F080FED7ED060A50E00000F1
:103CC0003E010020CC000020C0000020C4000020E5
:103CD000F80000208400002088000020300100202F
:103CE00024010020F4000020C8000020D40000209F
:103CF000D8000020DC000020E0000020EC000020C4
:103D0000F0000020E4000020E80000207C030020F8
:103D1000800300203C01002020010020A801002099
:103D20001C01002004010020000100207800002078
:103D300084030020001002408C0000203D01002080
:103D40007C0000201401002060000020940000206E
:103D5000640000209800002000000000680000209F
:103D600030EE200A87ED060A286801F025FED7ED1F
:103D7000060A30EE200A87ED060A286801F01CFECC
:103D8000D7ED060A30EE200A87ED060A286801F012
:103D900013FED7ED060A30EE200A87ED060A2868E2
:103DA00001F00AFED7ED060A30EE200A87ED060A7A
:103DB000FE48B5EEC00AF1EE10FA02D880ED008A96
:103DC00005E0F5EE000A20EE200A80ED000AF84D2D
:103DD000FC61286801F06EFBBDEEC00AF96910EEC7
:103DE000100A0844F861286801F064FBBDEEC00ABF
:103DF000F96910EE100A0844F861286801F05AFBCE
:103E0000BDEEC00AF96910EE100A0844F86128688E
:103E100001F050FBBDEEC00AF96910EE100A08442B
:103E2000F861286801F046FBBDEEC00AF96910EEA2
:103E3000100A0844F861286801F03CFBBDEEC00A96
:103E4000F96910EE100A0844F861286801F032FBA5
:103E5000BDEEC00AF96910EE100A0844F86128683E
:103E600001F028FBBDEEC00AF96910EE100A084403
:103E7000F861286801F01EFBBDEEC00AF96910EE7A
:103E8000100A0844F861286801F014FBBDEEC00A6E
:103E9000F969C84D10EE100A0844F861002802DCE8
:103EA00020462C6003E00A2190FBF1F028606E218F
:103EB0004843642190FBF1F0BF4E2860FC613068FC
:103EC00001F0F8FABDEEC00AF96910EE100A0844D4
:103ED000F861306801F0EEFABDEEC00AF96910EE43
:103EE000100A0844F861306801F0E4FABDEEC00A37
:103EF000F96910EE100A0844F861306801F0DAFA46
:103F0000BDEEC00AF96910EE100A0844F861306885
:103F100001F0D0FABDEEC00AF96910EE100A0844AB
:103F2000F861306801F0C6FABDEEC00AF96910EE1A
:103F3000100A0844F861306801F0BCFABDEEC00A0E
:103F4000F96910EE100A0844F861306801F0B2FA1D
:103F5000BDEEC00AF96910EE100A0844F861306835
:103F600001F0A8FABDEEC00AF96910EE100A084483
:103F7000F861306801F09EFABDEEC00AF9698F4E13
:103F800010EE100A0844F861002801DC346003E0F8
:103F90000A2190FBF1F030607A698948521C7A61FD
:103FA000894BD0F800C087481B783946BCF1010F17
:103FB00008D0022B4FD0032B5ED0042B6CD0052BE6
:103FC0007BD007E0022B21D0032B28D0042B2FD04D
:103FD000052B37D07D48CAF80040CBF8004004607C
:103FE000C9F800400A2A67DB8A6A052092FBF0F2D2
:103FF000774B1A600A6B92FBF0F7764807608C6289
:104000007548CC620C630278AAB34FE12B68006854
:1040100093FBF0F3714807683B44036028E02B688A
:10402000006893FBF0F36E4807683B44036030E0A0
:104030002B68006893FBF0F36A4807683B44036011
:10404000624836E02B68006893FBF0F36648076827
:104050003B4403603EE03368006893FBF0F3634841
:1040600007683B440360DAF800709F42BADBFB1A32
:10407000CAF80030B6E730E03368006893FBF0F32D
:104080005B4807683B440360DBF80070FB1A002BB9
:10409000A8DDCBF80030A5E73368006893FBF0F3A8
:1040A000544807683B44036048480768FB1A002BE4
:1040B00098DD036096E700E0FAE03368006893FB60
:1040C000F0F34D4807683B440360D9F80070FB1AD1
:1040D000002B87DDC9F8003084E7DFF82091D9F89C
:1040E00000200A2A60DAFF234548BCF1010F0DD0F9
:1040F000444DD5F800C0C2EBC205BCF1000F00EB87
:1041000045051CDA2B71CCF1000C19E0D8F800C081
:10411000C2EBC206BCF1000F00EB460603DA3371B6
:10412000CCF1000C00E0347186F805C02D68002D3C
:104130000BDBC2EBC20600EB4606B4711DE02C712E
:1041400085F805C03568002D12DAC2EBC20600EB17
:1041500046086E424FEAE67C06EB1C6C88F8063097
:104160004FEA1C2688F807606D4288F808500DE079
:10417000C2EBC20600EB4606B3714FEAE57C05EBE5
:104180001C684FEA182C86F807C035724D6AC2EBDE
:10419000C206002D00EB46063BDA6D424FEAE57C95
:1041A000737205EB1C652FE07BE00000B40000207B
:1041B0006C0000209C00002070000020A000002067
:1041C0008C000020D00000203E010020C80000200C
:1041D000A4000020A8000020B0000020D40000208F
:1041E000DC000020EC000020E4000020D8000020CB
:1041F000E0000020F0000020E80000203401002052
:1042000078040020980000202D0AB572DAF80050DA
:1042100008E04FEAE57C05EB1C6874724FEA182C45
:1042200086F80AC0F572002FC2EBC2050DDA00EB6A
:1042300045067D424FEAE57C05EB1C6C33734FEA83
:104240001C2575737D42B5730AE000EB4505FE172A
:1042500007EB166C2C734FEA1C266E733E46AE734A
:104260003D4D2D68002D0CDAC2EBC20600EB460076
:10427000C3736B42DE1703EB16631E0A06746B42B0
:104280000AE0C2EBC20300EB4300EB1705EB13633C
:104290001E0AC47306742B464374521CC9F80020CE
:1042A00004E02E4A127882F0010202704C6120E094
:1042B0002B480078022806D0032807D0042808D00D
:1042C000052809D00BE0DAF8000007E0DBF8000071
:1042D00004E02448006801E0D9F8000048628A6AD6
:1042E000D8F8000010448862C86A2A681044C1E9FE
:1042F0000B048868401C88600A2808D11A484FF4CB
:10430000167302685A43194B1A6004608C6048683F
:10431000401C4860B0F5967F08D14FF400711448F6
:10432000FDF704F910B11349012008701248016823
:10433000642091FBF0F200FB121008B1002100E0B4
:104340000121062001F0F2F8BDEC028B0B48BDE81C
:10435000F05FFDF72CBF0000AC0000202200002021
:104360003E010020C800002018000020900000201E
:1043700000180240B8000020F8000020EC060020E1
:10438000164A10B51068401C1060322811D114482C
:10439000002111600078012810D0052811D00328D1
:1043A00012D0022813D0042814D00E4801600E4801
:1043B0000160BDE810400D48FDF7F9BEFFF7EEF9CA
:1043C000F7E7FEF74BFDF4E7FEF71EFBF1E7FCF71E
:1043D00025FAEEE7FEF77AFFEBE70000FC0000208D
:1043E0003E010020780000207C0000202C070020E7
:1043F0002DE9F04113480178F9B10021124C017008
:104400000120124F124D134E206212E017F82020A7
:1044100002212846FDF796F8012211462846FDF7AD
:1044200091F8002201212846FDF78CF8206A401CF3
:1044300020623168091D8842E8DBBDE8F04106488A
:10444000FDF7B5BEB9000020840300202804002039
:1044500000140240BC0000206C070020F0B5026888
:10446000254C264D264E274F274B4FF0804CA0421F
:1044700009D0604507D0A84205D0B04203D0B84269
:1044800001D0984204D122F0700E4A6842EA0E022E
:10449000A0421BD0604519D0A84217D0B04215D019
:1044A000B84213D0984211D0184DA8420ED0184DE2
:1044B000A8420BD0174DA84208D0174DA84205D0EE
:1044C000164DA84202D0164DA84203D122F44075E1
:1044D000CA682A434D6922F080022A4302608A6832
:1044E000C2620A688262A04201D0984201D1096981
:1044F000016301214161F0BD000001400004004062
:1045000000080040000C0040000401400040014051
:10451000004401400048014000180040001C0040D9
:104520000020004010B5846842EA032224F47F444E
:104530000A432243826010BD826822F070020A435F
:1045400042F007018160704710B5036A046A24F0E5
:1045500001040462846924F0F00444EA021423F0A4
:104560000A020A438461026210BD10B5036A23F097
:10457000100303628369046A23F4704343EA02323E
:1045800024F0A00343EA01118261016210BD000022
:104590002DE9F041044600680169E26821F44051C8
:1045A000114301612169A068E2690843616911430F
:1045B00008432168CA6849F20C639A430243CA60FF
:1045C00020684169A26921F4407111434161E069A9
:1045D000192764253226B0F5004F354A3549206841
:1045E0004FF0000806D0884201D0904236D1FDF746
:1045F000F3F935E0884201D0904202D1FDF7ECF9A1
:1046000001E0FDF7D9F961684A18A0FB070148EB02
:104610000803FBF7D5FD0146B0FBF5F00201B1FB45
:10462000F5F06FF01803584301EB800006EBC00073
:10463000B0FBF5F000F0F80002EB4002B1FBF5F042
:10464000584301EB800006EBC000B0FBF5F000F032
:104650000700216810448860BDE8F081FDF7ACF9DF
:1046600061688B0F8A00A0FB0701FBF7A9FD0146DB
:10467000B0FBF5F06FF01802504301EB800006EB41
:104680000010B0FBF5F000F0F002B1FBF5F002EB2A
:104690000012B1FBF5F06FF01803584301EB8000F6
:1046A00006EB0010B0FBF5F000F00F00D1E70000C2
:1046B00000140140001001402DE9F04198461746D2
:1046C0000E460446069D1DE0681C1BD02DB1FCF76C
:1046D0003FFFA0EB0800A84214D92068C16821F46C
:1046E000D071C1602068416921F001014161202041
:1046F00084F8390084F83A00002084F83800032058
:10470000BDE8F0812068006836EA000004D000208F
:10471000B842D9D00020F3E70120F9E7114800683A
:10472000C16889060BD5436810490F4A08681354BD
:10473000401C0860B0F5FA7F02DB0020086070477B
:104740000028FCDD104410F8021CFF29F7D110F8F6
:10475000010C0A28F3D106490120086005490870B8
:10476000704700002C080020EC0800207403002093
:104770007003002022000020FEE70907090E002830
:1047800004DB00F1E02080F80014704700F00F0017
:1047900000F1E02080F8141D704702E008C8121FE5
:1047A00008C1002AFAD170477047002001E001C11A
:1047B000121F002AFBD1704770B51E4C1E492DED0B
:1047C000028B207908601D49607908601C49A07936
:1047D00008601C49E07908601B49207A08601B4882
:1047E000657A1B490560A07A0860FBF7B4FE9FED6F
:1047F000191B53EC112BFBF73FFE41EC180B28461D
:10480000FBF7A9FE53EC182BFBF71DFDFBF7E6FEAB
:10481000124908601249E07A08601249207B08605A
:10482000A07B617B00EB01200F490860BDEC028B8F
:1048300070BD0000EC080020640100206801002029
:104840006C0100207001002074010020780100201C
:104850007C0100200000000000002440B80100207E
:104860008001002084010020880100200B480C4AB0
:10487000017911600B4A417911600B4A817911600D
:104880000A4AC17911600A4A017A1160817A407A34
:1048900001EB00200749086070470000EC08002089
:1048A0001C020020200200202402002028020020F8
:1048B0002C0200203002002070B52A4C2A492DED30
:1048C000048B207908602949607908602849A0791B
:1048D00008602849E07908602748257A274905605B
:1048E000607A0860FBF737FE9FED259B53EC192B90
:1048F000FBF7C2FD41EC180B2846FBF72CFE53ECEE
:10490000182BFBF7A0FCFBF769FE1F4908601F4945
:10491000A07A08601E49E07A0860257B607BFBF77F
:104920001AFE53EC192BFBF7A7FD41EC180B284698
:10493000FBF711FE53EC182BFBF785FCFBF74EFE43
:1049400014490860E07BA17B00EB0120124908605C
:10495000607C217C00EB012010490860BDEC048BD9
:1049600070BD0000EC0800208C01002090010020A8
:1049700094010020980100209C010020A00100204B
:104980000000000000002440BC010020A401002021
:10499000AC010020B4010020A8010020B0010020DB
:1049A000F0B44FF48063194D5C00194E9F0001294B
:1049B0000AD001281ED002281FD0032820D00428A6
:1049C00021D10022394611E0012807D0022807D062
:1049D000032809D0042816D10122F3E701220AE0B6
:1049E00001220BE0284602E001220AE03046F0BC3A
:1049F000FCF7A8BD00221946F4E700222146F1E7A2
:104A000000222146F2E7F0BC70470000000C024093
:104A1000001402402DE9F047FE4CFF4E19202060A3
:104A2000306041F28830FCF785FC01210220FFF75D
:104A3000B7FFFA480127006808B9F9480770002550
:104A40002560F84C3560F84E2560306800F0B4FF02
:104A5000D4ED000AF8EEE00A30EE200ABDEEC00AFE
:104A600084ED000A306800F0A7FFD4ED000AF8EEEC
:104A7000E00A30EE200ABDEEC00A84ED000A30687C
:104A800000F09AFFD4ED000AF8EEE00A30EE200ABA
:104A9000BDEEC00A84ED000A306800F08DFFD4ED51
:104AA000000AF8EEE00A30EE200ABDEEC00A84EDFE
:104AB000000A306800F080FFD4ED000AF8EEE00A4A
:104AC00030EE200ABDEEC00A84ED000A306800F026
:104AD00073FFD4ED000AF8EEE00A30EE200ABDEED6
:104AE000C00A84ED000A306800F066FFD4ED000AC9
:104AF000F8EEE00A30EE200ABDEEC00A84ED000AAE
:104B0000306800F059FFD4ED000AF8EEE00A30EE0C
:104B1000200ABDEEC00A84ED000A306800F04CFFA8
:104B2000D4ED000AF8EEE00A30EE200ABDEEC00A2D
:104B300084ED000A306800F03FFFD4ED000A4FF02A
:104B40000A084FF0FF39F8EEE00A30EE200ABDEE19
:104B5000C00A10EE100A206090FBF8F0484501DA18
:104B6000B2480770B24E2560306800F025FFD4EDE2
:104B7000000AF8EEE00A30EE200ABDEEC00A84ED2D
:104B8000000A306800F018FFD4ED000AF8EEE00AE1
:104B900030EE200ABDEEC00A84ED000A306800F055
:104BA0000BFFD4ED000AF8EEE00A30EE200ABDEE6D
:104BB000C00A84ED000A306800F0FEFED4ED000A61
:104BC000F8EEE00A30EE200ABDEEC00A84ED000ADD
:104BD000306800F0F1FED4ED000AF8EEE00A30EEA5
:104BE000200ABDEEC00A84ED000A306800F0E4FE41
:104BF000D4ED000AF8EEE00A30EE200ABDEEC00A5D
:104C000084ED000A306800F0D7FED4ED000AF8EE1B
:104C1000E00A30EE200ABDEEC00A84ED000A3068DA
:104C200000F0CAFED4ED000AF8EEE00A30EE200AE9
:104C3000BDEEC00A84ED000A306800F0BDFED4ED80
:104C4000000AF8EEE00A30EE200ABDEEC00A84ED5C
:104C5000000A306800F0B0FED4ED000AF8EEE00A79
:104C600030EE200ABDEEC00A10EE100A206090FB64
:104C7000F8F0484501DA6F4807706F4E25603068DC
:104C800000F018FCD4ED000AF8EEE00A30EE200A3D
:104C9000BDEEC00A84ED000A306800F00BFCD4EDD4
:104CA000000AF8EEE00A30EE200ABDEEC00A84EDFC
:104CB000000A306800F0FEFBD4ED000AF8EEE00ACE
:104CC00030EE200ABDEEC00A84ED000A306800F024
:104CD000F1FBD4ED000AF8EEE00A30EE200ABDEE5A
:104CE000C00A84ED000A306800F0E4FBD4ED000A4D
:104CF000F8EEE00A30EE200ABDEEC00A84ED000AAC
:104D0000306800F0D7FBD4ED000AF8EEE00A30EE90
:104D1000200ABDEEC00A84ED000A306800F0CAFB2C
:104D2000D4ED000AF8EEE00A30EE200ABDEEC00A2B
:104D300084ED000A306800F0BDFBD4ED000AF8EE07
:104D4000E00A30EE200ABDEEC00A84ED000A3068A9
:104D500000F0B0FBD4ED000AF8EEE00A30EE200AD5
:104D6000BDEEC00A84ED000A306800F0A3FBD4ED6C
:104D7000000A4FF06408F8EEE00A30EE200ABDEEBB
:104D8000C00A10EE100A206090FBF8F0484501DAE6
:104D90002A4807702A4E2560306800F08BFBD4ED5E
:104DA000000AF8EEE00A30EE200ABDEEC00A84EDFB
:104DB000000A306800F07EFBD4ED000AF8EEE00A4D
:104DC00030EE200ABDEEC00A84ED000A306800F023
:104DD00071FBD4ED000AF8EEE00A30EE200ABDEED9
:104DE000C00A84ED000A306800F064FBD4ED000ACC
:104DF000F8EEE00A30EE200ABDEEC00A84ED000AAB
:104E0000306800F057FBD4ED000AF8EEE00A30EE0F
:104E1000200A17E0780000207C000020900000208D
:104E20001C00002054020020600000201D00002013
:104E3000640000201E0000206C00002020000020E4
:104E400070000020BDEEC00A84ED000A306800F05A
:104E500031FBD4ED000AF8EEE00A30EE200ABDEE98
:104E6000C00A84ED000A306800F024FBD4ED000A8B
:104E7000F8EEE00A30EE200ABDEEC00A84ED000A2A
:104E8000306800F017FBD4ED000AF8EEE00A30EECF
:104E9000200ABDEEC00A84ED000A306800F00AFB6B
:104EA000D4ED000AF8EEE00A30EE200ABDEEC00AAA
:104EB00084ED000A306800F0FDFAD4ED000AF8EE47
:104EC000E00A30EE200ABDEEC00A10EE100A2060A3
:104ED00090FBF8F0484501DA084807704FF48071FC
:104EE0000748FCF723FB074908B10F7000E00D707D
:104EF000BDE8F04700210220FFF752BD210000204D
:104F0000001802401F00002030B503464FF6FF7026
:104F10000022074C08E09D5C4540EDB2521C34F87D
:104F2000255085EA102080B28A42F4DB30BD0000B3
:104F3000685C00082DE9F04387B0FE27DDE90F54D7
:104F40008DF8007008278DF80170284FDDF8449027
:104F50000E9ED7F800C04CF25038C44503DD4FF028
:104F6000010CC7F800C08DF802C00CF1010CC7F8A5
:104F700000C08DF803008DF810008DF804108DF836
:104F800014608DF811108DF815508DF805208DF8EE
:104F900008508DF816408DF806308DF809408DF8D0
:104FA00012208DF817908DF807608DF80A908DF813
:104FB00013309DF8011004A8FFF7A6FFB0F5807F1D
:104FC00001D8002100E0010A8DF80C00FF208DF8C7
:104FD0000D000A208DF80B108DF80E000F21684689
:104FE00000F08AFD07B0BDE8F08300003801002022
:104FF0001FB5FE228DF8002002228DF80120174AED
:105000004CF250341368A34201DD012313608DF884
:1050100002305B1C13608DF80C008DF803008DF8D6
:1050200004108DF80D109DF8011003A8FFF76CFF18
:10503000B0F5807F01D8002100E0010A8DF805104D
:105040008DF80600FF208DF807000A208DF8080073
:105050000921684600F050FD1FBD00003801002006
:10506000704700002DE9FF5FC94D6978B1F5FA7FFF
:105070006FDC2878FE286CD108006AD068180279A5
:10508000FF2A66D142790A2A63D1C278807802EB7E
:10509000002084B2002005F5FA7203E02B189B78FB
:1050A0001354401C8842F9DBBA48FFF72DFFA04299
:1050B0004FD1A978B84F00246E291DD0B74AB84EF9
:1050C000DFF8E082B848DFF8E4A2DFF8E4B24FF09E
:1050D000010999B3042977D0012972D0022971D02E
:1050E000032970D0062934D1146004B00021BDE832
:1050F000F05F0220FFF754BC3C70E878012801D132
:10510000FFF788FCAC49AB48AF4F0B78AB4902784E
:105110000D78AB4942EA030028430E7840EA0601C5
:10512000A8480078014301D1397841B13978CDE9F7
:105130000056CDE9020101216E2008E00BE00023BA
:105140000094019402941A4619466E200394FFF7C6
:10515000F1FEBDE8FF9F146087F800904C460021E7
:10516000006800F065FD0021DAF8000000F060FD45
:105170000021DBF8000000F05BFD9448002100688E
:1051800000F056FD92480021006800F051FD914862
:105190000121006800F04CFD8F480121006800F0FB
:1051A00047FD3068C8F800008C494FF4FA70306051
:1051B00008608B48002104608A4804600846D5E0F6
:1051C00002E036E03DE0C4E014603C70002100687D
:1051D00000F02EFD0021DAF8000000F029FD00218A
:1051E000DBF8000000F024FD78480021006800F0A2
:1051F0001FFD77480021006800F01AFD7548012165
:10520000006800F015FD74480121006800F010FDF1
:105210003068C8F8000071494FF4FA7030600860D7
:105220006F49C1F800906F49C1F800900021042037
:105230009CE000210120FFF7DBFEBDE8FF5FFFF7E8
:105240000FBF694958480C60684914600C60684990
:105250000C6068490C6068490C600021006800F02F
:10526000E7FC52480021006800F0E2FC50480021B1
:10527000006800F0DDFCDFF854B10021DBF800002D
:1052800000F0D6FCDFF848A10021DAF8000000F0B9
:10529000CFFC50480021006800F0CAFC4E480021B5
:1052A000006800F0C5FC5548047055480470554826
:1052B0000460E878012813D0022826D0032833D0D0
:1052C00004287FF446AF38700121DBF8000000F0BD
:1052D000AFFC3068C8F8000000F050FC042121E069
:1052E000052038700121DAF8000000F0A1FC3068D8
:1052F0004549C8F800003C4881F8009004604348E4
:10530000047000F0C1FB01210CE003203870264836
:105310000121006800F08CFC3068C8F80000FFF73D
:105320004BFA0221022021E0022038701F4801219F
:10533000006800F07DFC1E480121006800F078FC48
:10534000304804603068C8F80000FFF7B5FA032160
:10535000E8E7E87801280ED0022810D0032812D000
:105360000428AED100F0E4FB0421032004B0BDE822
:10537000F05FFFF73DBE00F05BFB0121F5E700F0B9
:10538000EFFA0221F1E7FFF771FA0321EDE70000E0
:10539000EC080020E00A00203E010020240100204B
:1053A00084000020F80000204C0000204400002071
:1053B000480000201C0000201D0000201E000020CE
:1053C00020000020210000201F00002050000020AD
:1053D000540000203C0000204000002088000020F5
:1053E000780000207C0000208C000020C0000020FD
:1053F000C4000020C8000020CC000020B000002025
:105400001C010020200100201801002014010020B0
:1054100070B5204B012000241F4D204E186007E07E
:10542000214645F8204000F003FC1868401C186035
:105430003168891C8842F3DB002000F005FC184825
:10544000FCF738FE1748FCF735FE1748FCF732FE2C
:105450001648FCF72FFE164C012251032046FCF79C
:1054600071F80122950329462046FCF76BF81E20AF
:10547000FBF760FF002229462046FCF763F81E2058
:10548000FBF758FF29462046BDE870400122FCF793
:1054900059B800000000002028040020BC000020B3
:1054A0006C060020AC060020EC0600206C070020F3
:1054B0000018024010B5164C012805D0022805D06E
:1054C000032822D0206805E00B2000E00420FBF731
:1054D0007BFC2060FBF73FF89FED0E1B53EC112B7C
:1054E000FAF758FF9FED0D1B53EC112BFAF74CFF09
:1054F0009FED0C1B53EC112BFAF746FFFBF76EF8F0
:1055000000EE100A84ED020A10BD0520DFE700005E
:10551000000000205227A089B0E1D53F0000000024
:1055200000C06C400000000000406F4030B40A46EC
:105530004FF48041224C4D00224B012A08D009280B
:105540003CD2DFE800F03B2426292C2F32353800EE
:10555000092833D2DFE800F03205070B0D131517C9
:105560001900012201E0012214E0204604E001229A
:1055700013E0012214E0184630BCFBF7E3BF012220
:1055800011E0012212E0012213E0012214E00022C6
:10559000EBE700222946E8E700220421EBE700229E
:1055A0000821E8E700221021E5E700222021E2E7B8
:1055B00000224021DFE700228021DCE730BC704779
:1055C000000C0240001802401FB5FCF7C9F8FEF7B6
:1055D000FDF8FDF73DF8FDF70FF80024BE490094F3
:1055E000BC48019408600846FBF75FFE0094002267
:1055F0006946B9480194FBF737FEFDF727F9FDF737
:105600003FF9B748B5494FF416570160C0E9017436
:105610000C26C460C0E904468461C461FCF77EFEC8
:10562000AF48B04940300160C0E90174C460C0E9CE
:1056300004468461C461FCF771FEA94DAA48803517
:1056400028604FF4E130C5E90104EC60C5E9044687
:10565000AC612846EC61FCF761FE05F14000A3490E
:105660000160C0E90174C460C0E904468461C4619A
:10567000FCF754FE05F180009D490160C0E901740A
:10568000C460C0E904468461C461FCF747FEA5F527
:105690003170984901609849C0E901144FF480467F
:1056A000C0E9034644618461C4610462FBF756FFAC
:1056B000FDF7FEF8FDF728F9FDF750F9FDF778F949
:1056C000A5F1C0000094019402948C4903940160F8
:1056D0004FF4E151C0E901144FF47A71C0E90314A9
:1056E0008461FCF75DFCB01000906946A5F1C00034
:1056F000FCF7F1FCFFF78CFEC820FBF71BFEFFF761
:1057000089F9A5F58070FCF7D5FC7D48012100687A
:1057100000F08EFA7B480121006800F089FA7A488F
:105720000121006800F084FA78480121006800F047
:105730007FFA77480121006800F07AFA2868C1688A
:1057400041F02001C160DFF8CC91DFF8CCB1734F9C
:10575000734DDFF8D081DFF8D0A16868012837D019
:105760006878002873D099F8000028B1002105203E
:10577000FFF73EFC89F800406C480078012848D9C2
:105780009BF8000088B3FE20694938708D237B7038
:105790000868B870401C14220860FA704CF250324D
:1057A000904201DD012008606249EC60E8683A1827
:1057B000D2780A54401CE8608D28F7DB19465D4812
:1057C000FFF7A2FBB0F5807F10D887F8904010E07B
:1057D0006C70012204215848FBF7B4FEFFF742FC2D
:1057E00056480470AC606C60B7E712E0010A87F8B5
:1057F000901087F89100FF2087F892000A2087F820
:1058000093009421454800F077F94D4804608BF8E7
:10581000004098F80000D0B34A480078C0B1DAF8E8
:105820000000A0B901210220FFF7BAF84648012183
:10583000006800F0FDF945480021006800F0F8F923
:10584000434888F800400168CAF800101AE03BE0BD
:1058500040480078C0B340480068A8BB012102203E
:10586000FFF79EF838480021006800F0E1F937485A
:105870000121006800F0DCF9354888F80040016833
:10588000354801606F20FFF7B3FBAC701CE0FFE709
:10589000A878C8B900210220FFF782F82A48002121
:1058A000006800F0C5F929480021006800F0C0F93F
:1058B000294888F80040CAF80040046000216F20A1
:1058C000FFF796FB0120A87031462448FBF733FE12
:1058D00043E700000074004054050020004C0040E5
:1058E000AC07002000100140004400400048004088
:1058F0000014014000540040A08601000018004040
:1059000024000020280000203C000020400000204F
:105910002C000020B8000020B000002078040020F7
:105920006C03002008010020580000203E010020E8
:1059300038010020C80E002000180240220000207C
:1059400034010020740000203400002038000020C2
:105950000C010020750000205C000020000C0240BB
:105960000E480F4A017911600E4A417911600E4AC2
:1059700081791160017AC27901EB02210B4A116031
:10598000817A427A01EB0221094A1160017BC07AD7
:1059900001EB00200749086070470000EC08002078
:1059A00004020020080200200C0200201002002047
:1059B000140200201802002010B5164C012805D052
:1059C000022805D0032822D0206805E0082000E046
:1059D0000620FBF7F9F92060FAF7BDFD9FED0E1BDD
:1059E00053EC112BFAF7D6FC9FED0D1B53EC112B4A
:1059F000FAF7CAFC9FED0C1B53EC112BFAF7CAFC0B
:105A0000FAF7ECFD00EE100A84ED020A10BD0A2040
:105A1000DFE7000000000020465B9544F641663F4A
:105A2000666666666666DA3F000000000000244095
:105A30000E480F4A017911600E4A417911600E4AF1
:105A400081791160017AC27901EB02210B4A116060
:105A5000817A427A01EB0221094A1160017BC07A06
:105A600001EB00200749086070470000EC080020A7
:105A7000EC010020F0010020F4010020F8010020DA
:105A8000FC010020000200201148124A184B017945
:105A90001160114A41791160104A81791160104AF0
:105AA000C17911600F4A017A11600F4A417A116081
:105AB0000E4A817A1160C27A017BFF2A00D14942E5
:105AC0001960817B407B01EB00200A490860704728
:105AD000EC08002040010020440100204801002083
